:02000002B0004C
:1040000000400B00FA970B00000006000C000502B0
:084010000401B41400000000DB
:04401800E8910B0020
:1040200081F0004102E000BF83F0004330B54FEA69
:1040300041044FEA430594EA050F08BF90EA020FD6
:104040001FBF54EA000C55EA020C7FEA645C7FEA69
:10405000655C00F0E2804FEA5454D4EB5555B8BF8C
:104060006D420CDD2C4480EA020281EA030382EAFD
:10407000000083EA010180EA020281EA0303362D8F
:1040800088BF30BD11F0004F4FEA01314FF4801C62
:104090004CEA113102D0404261EB410113F0004F74
:1040A0004FEA03334CEA133302D0524263EB43032B
:1040B00094EA050F00F0A780A4F10104D5F1200EC9
:1040C0000DDB02FA0EFC22FA05F2801841F1000124
:1040D00003FA0EF2801843FA05F359410EE0A5F1F8
:1040E00020050EF1200E012A03FA0EFC28BF4CF029
:1040F000020C43FA05F3C01851EBE37101F00045DF
:1041000007D54FF0000EDCF1000C7EEB00006EEBEB
:104110000101B1F5801F1BD3B1F5001F0CD3490875
:104120005FEA30004FEA3C0C04F101044FEA4452CC
:1041300012F5800F80F09A80BCF1004F08BF5FEA53
:10414000500C50F1000041EB045141EA050130BD33
:104150005FEA4C0C404141EB0101013C28BFB1F545
:10416000801FE9D291F0000F04BF01460020B1FA90
:1041700081F308BF2033A3F10B03B3F120020CDA63
:104180000C3208DD02F1140CC2F10C0201FA0CF041
:1041900021FA02F10CE002F11402D8BFC2F1200CA6
:1041A00001FA02F120FA0CFCDCBF41EA0C0190405C
:1041B000E41AA2BF01EB0451294330BD6FEA0404A5
:1041C0001F3C1CDA0C340EDC04F11404C4F1200290
:1041D00020FA04F001FA02F340EA030021FA04F3A2
:1041E00045EA030130BDC4F10C04C4F1200220FAF9
:1041F00002F001FA04F340EA0300294630BD21FA37
:1042000004F0294630BD94F0000F83F4801306BFFC
:1042100081F480110134013D4EE77FEA645C18BFF0
:104220007FEA655C29D094EA050F08BF90EA020F87
:1042300005D054EA000C04BF1946104630BD91EA7F
:10424000030F1EBF0021002030BD5FEA545C05D182
:104250004000494128BF41F0004130BD14F58004C1
:104260003CBF01F5801130BD01F0004545F0FE4135
:1042700041F470014FF0000030BD7FEA645C1ABF6A
:10428000194610467FEA655C1CBF0B46024650EAA1
:10429000013406BF52EA033591EA030F41F40021CD
:1042A00030BD00BF90F0000F04BF0021704730B553
:1042B0004FF4806404F132044FF000054FF0000128
:1042C00050E700BF90F0000F04BF0021704730B5E9
:1042D0004FF4806404F1320410F0004548BF4042BE
:1042E0004FF000013EE700BF42004FEAE2014FEA13
:1042F00031014FEA02701FBF12F07F4393F07F4FEE
:1043000081F06051704732F07F4208BF704793F0F0
:104310007F4F04BF41F40021704730B54FF4607403
:1043200001F0004521F000411CE700BF50EA010206
:1043300008BF704730B54FF000050AE050EA0102AF
:1043400008BF704730B511F0004502D5404261EB1F
:1043500041014FF4806404F132045FEA915C3FF460
:10436000D8AE4FF003025FEADC0C18BF03325FEAFD
:10437000DC0C18BF033202EBDC02C2F1200300FAAE
:1043800003FC20FA02F001FA03FE40EA0E0021FAD3
:1043900002F11444BDE600BF70B54FF0FF0C4CF4C1
:1043A000E06C1CEA11541DBF1CEA135594EA0C0F73
:1043B00095EA0C0F00F0DEF82C4481EA030621EAAE
:1043C0004C5123EA4C5350EA013518BF52EA0335E9
:1043D00041F4801143F4801338D0A0FB02CE4FF09B
:1043E0000005E1FB02E506F00042E0FB03E54FF0CB
:1043F0000006E1FB03569CF0000F18BF4EF0010EC3
:10440000A4F1FF04B6F5007F64F5407404D25FEABE
:104410004E0E6D4146EB060642EAC62141EA555171
:104420004FEAC52040EA5E504FEACE2EB4F1FD0CB3
:1044300088BFBCF5E06F1ED8BEF1004F08BF5FEA31
:10444000500E50F1000041EB045170BD06F00046E3
:1044500046EA010140EA020081EA0301B4EB5C0490
:10446000C2BFD4EB0C0541EA045170BD41F4801188
:104470004FF0000E013C00F3AB8014F1360FDEBFAD
:10448000002001F0004170BDC4F10004203C35DA89
:104490000C341BDC04F11404C4F1200500FA05F30C
:1044A00020FA04F001FA05F240EA020001F00042AD
:1044B00021F0004110EBD37021FA04F642EB060123
:1044C0005EEA430E08BF20EAD37070BDC4F10C044D
:1044D000C4F1200500FA04F320FA05F001FA04F211
:1044E00040EA020001F0004110EBD37041F10001FD
:1044F0005EEA430E08BF20EAD37070BDC4F1200508
:1045000000FA05F24EEA020E20FA04F301FA05F26F
:1045100043EA020321FA04F001F0004121FA04F217
:1045200020EA020000EBD3705EEA430E08BF20EAE7
:10453000D37070BD94F0000F0FD101F00046400021
:1045400041EB010111F4801F08BF013CF7D041EAA3
:10455000060195F0000F18BF704703F000465200A7
:1045600043EB030313F4801F08BF013DF7D043EA78
:104570000603704794EA0C0F0CEA135518BF95EA2E
:104580000C0F0CD050EA410618BF52EA4306D1D1B5
:1045900081EA030101F000414FF0000070BD50EAD4
:1045A000410606BF1046194652EA430619D094EA5E
:1045B0000C0F02D150EA013613D195EA0C0F05D148
:1045C00052EA03361CBF104619460AD181EA03019C
:1045D00001F0004141F0FE4141F470014FF0000054
:1045E00070BD41F0FE4141F4780170BD70B54FF0EF
:1045F000FF0C4CF4E06C1CEA11541DBF1CEA13556F
:1046000094EA0C0F95EA0C0F00F0A7F8A4EB050450
:1046100081EA030E52EA03354FEA013100F0888047
:104620004FEA03334FF0805545EA131343EA126310
:104630004FEA022245EA111545EA10654FEA0026C5
:104640000EF000419D4208BF964244F1FD0404F57E
:10465000407402D25B084FEA3202B61A65EB0305DA
:104660005B084FEA32024FF480104FF4002CB6EB97
:10467000020E75EB030E22BFB61A754640EA0C0017
:104680005B084FEA3202B6EB020E75EB030E22BF57
:10469000B61A754640EA5C005B084FEA3202B6EB98
:1046A000020E75EB030E22BFB61A754640EA9C0057
:1046B0005B084FEA3202B6EB020E75EB030E22BF27
:1046C000B61A754640EADC0055EA060E18D04FEAE5
:1046D000051545EA16754FEA06164FEAC30343EA85
:1046E00052734FEAC2025FEA1C1CC0D111F4801F52
:1046F0000BD141EA00014FF000004FF0004CB6E74B
:1047000011F4801F04BF01430020B4F1FD0C88BFE9
:10471000BCF5E06F3FF6AFAEB5EB030C04BFB6EBF4
:10472000020C5FEA500C50F1000041EB045170BDE7
:104730000EF0004E4EEA113114EB5C04C2BFD4EB14
:104740000C0541EA045170BD41F480114FF0000E98
:10475000013C90E645EA060E8DE60CEA135594EA14
:104760000C0F08BF95EA0C0F3FF43BAF94EA0C0F17
:104770000AD150EA01347FF434AF95EA0C0F7FF48C
:1047800025AF104619462CE795EA0C0F06D152EAE0
:1047900003353FF4FDAE1046194622E750EA4106C4
:1047A00018BF52EA43067FF4C5AE50EA41047FF4D5
:1047B0000DAF52EA43057FF4EBAE12E74FF0FF3C3A
:1047C00006E000BF4FF0010C02E000BF4FF0010C0B
:1047D0004DF804CD4FEA410C7FEA6C5C4FEA430C84
:1047E00018BF7FEA6C5C1BD001B050EA410C0CBFD3
:1047F00052EA430C91EA030F02BF90EA020F002035
:10480000704710F1000F91EA030F58BF994208BF9B
:1048100090422CBFD8176FEAE37040F00100704758
:104820004FEA410C7FEA6C5C02D150EA013C07D1AF
:104830004FEA430C7FEA6C5CD6D152EA033CD3D0FA
:104840005DF8040B704700BF8446104662468C46F4
:104850001946634600E000BF01B5FFF7B7FF002827
:1048600048BF10F1000F01BD4DF808EDFFF7F4FF50
:104870000CBF012000205DF808FB00BF4DF808EDDB
:10488000FFF7EAFF34BF012000205DF808FB00BFFE
:104890004DF808EDFFF7E0FF94BF012000205DF820
:1048A00008FB00BF4DF808EDFFF7CEFF94BF0120D5
:1048B00000205DF808FB00BF4DF808EDFFF7C4FFCE
:1048C00034BF012000205DF808FB00BF4FEA410C17
:1048D0007FEA6C5C02D150EA013C0AD14FEA430CFA
:1048E0007FEA6C5C02D152EA033C02D14FF0000037
:1048F00070474FF0010070474FEA410212F5001275
:1049000015D211D56FF47873B3EB625212D94FEA16
:10491000C12343F0004343EA505311F0004F23FA00
:1049200002F018BF404270474FF00000704750EA55
:10493000013005D111F0004008BF6FF00040704712
:104940004FF00000704700BF4A0011D212F500126C
:1049500011D20DD56FF47873B3EB62520ED44FEAD7
:10496000C12343F0004343EA505323FA02F0704757
:104970004FF00000704750EA013002D14FF0FF3095
:1049800070474FF0000070474FEA4102B2F1E04338
:1049900024BFB3F5001CDCF1FE5C0DD901F0004C26
:1049A0004FEAC0024CEA5070B2F1004F40EB830076
:1049B00008BF20F00100704711F0804F21D113F1A2
:1049C0003872BCBF01F00040704741F480114FEADB
:1049D0005252C2F11802C2F1200C10FA0CF320FA64
:1049E00002F018BF40F001004FEAC1234FEAD32381
:1049F00003FA0CFC40EA0C0023FA02F34FEA4303EB
:104A0000CCE77FEA625307D150EA01331EBF4FF073
:104A1000FE4040F44000704701F0004040F0FE408E
:104A200040F40000704700BF10F8012B11F8013B63
:104A3000012A28BF9A42F7D0D01A7047034613F8CC
:104A4000012B002AFBD1181A0138704709480A497E
:104A5000884208B505D0094A824202D0121A04F0F1
:104A6000E7FA0748074A0021121A04F009FB014837
:104A700008BD00BFDCE503205C970B004CE603207B
:104A80004CE60320F0E7032070B5074E074C02F018
:104A9000FBF9A41BA4080025AC4200D170BD56F858
:104AA000043B98470135F7E714970B0038970B0044
:104AB00000F01AB808B500F05DF9BDE8084002F052
:104AC0009BB900F0E1BD00F0DFBD00F0E5BD00786E
:104AD000B0FA80F040097047012303707047134615
:104AE000042201F093B8000070B590B002F0D4FA3F
:104AF0004FF4165102F0C4FA01F098F901F0E0F910
:104B000001F094F94149424C01F0E1F901F08EF9CC
:104B1000404A01460BA801F0E5FE0BA801F08BFA14
:104B20003D493C480022FFF7DAFF01F07FF93B4A9C
:104B300001460BA801F0D6FE0BA801F07CFA38491B
:104B400036480022FFF7CBFF01F070F9354A0146E5
:104B50000BA801F0C7FE0BA801F06DFA32493148ED
:104B60000022FFF7BCFF03A801F09BFB0FCC06ADB2
:104B70000FC506AD0FCD26680BAC0FC40BA8266081
:104B800000F0E4FF04460BA8BCBB00F0FBFF009460
:104B9000ADF80A0002230DF10A02032103A801F077
:104BA00075FB1A49214D03A801F08EFB01F03EF977
:104BB000002203A901F0E3F90121072002F05CFCC7
:104BC0000021082002F058FC0121022002F054FCD0
:104BD0004FF47A7002F0E4F8082402F05DFA2946F6
:104BE00001F0CBFF4FF47A7002F0DAF8013CF4D117
:104BF000039800F051FD10B070BD00F0C5FF002318
:104C00000093024610230721C8E700BFFC910B0068
:104C10008CE6032080E6032088E60320A0E603203C
:104C2000A8E6032074E603207CE603200D920B0027
:104C300008B510EE100AFFF757FB154B0022FFF7DF
:104C4000ABFB11A3D3E90023FFF7D0FC114B0022EB
:104C5000FFF7CCFCFFF798FE07EE900A9FED0E7A67
:104C60009FED0E0A77EEA77AA7EE870A02F04AFFB9
:104C7000DFED0B7A30EE270AF2EE047A20EE270AF7
:104C800008BD00BFAFF300806666666666660A40D0
:104C9000000014400000594000007A448D9776C10E
:104CA000787A02410000000008B510EE100AFFF704
:104CB0001BFB134B0022FFF76FFB0FA3D3E900236D
:104CC000FFF794FC0F4B0022FFF790FCFFF75CFE10
:104CD000DFED0D7A9FED0D0A07EE100AA7EE270A09
:104CE00002F010FFF2EE027A30EE270AF2EE047ABA
:104CF00020EE270A08BD00BF6666666666660A4043
:104D0000000014400000594000007A44C28657C099
:104D1000DFED0D7AC0EE277A08B517EE900AFFF79F
:104D2000E3FA9FED071B41EC100B02F0A5FD51ECDF
:104D3000100BFFF729FE00EE100A08BDAFF300804C
:104D4000C9D357E6ED54FEBF4E06314108B502F017
:104D5000A3FEDFED067A30EE270ADFED057ABDE827
:104D6000084080EE270A02F059BE00BFDDB5843E40
:104D70008FE48A3F2DE9F04F2DED048B132083B093
:104D800002F0A4FB07EE900AA04BDFEDA18A93EDA1
:104D9000007A9FEDA08AA04FA04CA14EA14DDFF854
:104DA000BC92F8EEE77AB6EE006A67EEA87A67EE94
:104DB000066A67EE887A1220E7EE866AC3ED017A0A
:104DC00037EE267AD4ED006A83ED007A97ED007A0B
:104DD000F4EEC77A9FED947AF1EE10FAC8BFC7EDF2
:104DE000007A77EEC77AB0EEE77AF4EEC76AF1EEB2
:104DF00010FA48BF84ED007A96ED007AA7EEA77A04
:104E000086ED007A02F062FB07EE900AF8EEE77A90
:104E100095ED007AB9F8002067EEA87AA7EE887AB7
:104E200085ED007A002A40F0DC8096ED000ADFED87
:104E30007F9A009280EE290A02F09AFE009ADFF82B
:104E400020B2DFF82082DFF820A211460720B0EE62
:104E5000408A02F022FB022000F000FA0121072024
:104E600002F01BFB052000F0F9F9009A01921146AF
:104E7000072002F012FB0121082002F064FB94EDF0
:104E8000000A0090FFF7D4FE9FED699ADFED698A72
:104E900030EE490AC0EE287A95ED000ACBED007A93
:104EA00080EE290AFFF734FFFFF750FF009840F229
:104EB000571358434FF4FA63B0FBF3F007EE900A30
:104EC0009FED5D7ADFED5D6A88ED000AF8EEE77A26
:104ED00077EE877A87EEA67A8AED007A02F0DCF820
:104EE00097ED000A022101F039FF02F0D5F854498C
:104EF00001F030FE02F0D0F894ED000A022101F03A
:104F00002DFF02F0C9F84E4901F024FE02F0C4F86A
:104F1000B0EE480A022101F021FF02F0BDF8484935
:104F200001F018FE02F0B8F89BED000A022101F032
:104F300015FF02F0B1F8424901F00CFE02F0ACF8A6
:104F4000B0EE480A0090FFF7AFFE30EE490A0221AA
:104F500080EE280A009801F001FF02F09DF8384920
:104F600001F0F8FD02F098F898ED000A022101F036
:104F7000F5FE02F091F8324901F0ECFD02F08CF8F8
:104F80009AED000A022101F0E9FE02F085F82D49B0
:104F900001F0E0FD00F04AFF00F0B0FF019A70B1AF
:104FA000294800924146FFF79AFD009A2748594642
:104FB000FFF795FD009A26485146FFF790FDD8ED82
:104FC000007A9FED247AF4EEC77AF1EE10FA12D54A
:104FD000FF21022002F091FA00233B60236033603E
:104FE0002B60B9F800300133A9F8003003B0BDECF4
:104FF000048BBDE8F08F9FED187AF4EEC77AF1EEDE
:1050000010FA4CBFC0218021E3E700BF64E6032013
:10501000333353400000803970E603206CE60320F0
:1050200060E603205CE603203333D33F00FF7F4775
:10503000E590914243AD893ED1227941F2417F3FD3
:105040001B920B001E920B0080E60320A0E60320BB
:1050500074E60320000048430000C84358E60320DC
:10506000A8E6032088E603207CE6032082B0F0B5A2
:105070008FB015AD15930023C0E900330646944662
:105080000F460FCD04AC0FC42B6823601AAD0FCDB3
:1050900009AC0FC42B682360209B02931F9B0193D4
:1050A00009AB0093304604AB6246394601F0F0FA92
:1050B00030460FB0BDE8F04002B070472DE9F04136
:1050C000314B324A9A60002792B0C3E90077304DE5
:1050D000032000F045FA3946012000F051FA4CF265
:1050E000A711284600F00FFD42F6FB210DA800F0A5
:1050F0000AFDCDE909772E460FCE4FF010080DEBD3
:1051000008040FC4336823600EAC94E80F008DE8E8
:105110000F000D9B1F4920484246FFF7A7FF42F6AC
:1051200083310DA800F0EFFCCDE90977AE46BEE86B
:105130000F000DEB080CACE80F003368CCF8003022
:1051400094E80F008DE80F000D9B14491448424667
:10515000FFF78CFF42F201710DA800F0D4FC0FCDD7
:10516000CDE909770DEB08070FC733683B6094E87A
:105170000F008DE80F000D9B0A490B484246FFF7D0
:1051800075FF12B0BDE8F0814CE603200000FFFF80
:105190008CE6032021920B0080E6032027920B006F
:1051A000A0E603202D920B0074E6032008B5024B05
:1051B0001B689B68019308BD6802030008B5024B99
:1051C0001B68DB68019308BD6802030008B5024B49
:1051D0001B685B68019308BD2C02030008B5024BF5
:1051E0001B689B68019308BD2C02030008B5024BA5
:1051F0001B68DB68019308BD2C02030008B5024B55
:105200001B681B69019308BD2C02030008B5024B03
:105210001B689B6A019308BD2C02030008B5024B72
:105220001B681B6B019308BD2C02030008B5024BE1
:105230001B68DB6C019308BD2C02030008B5024B10
:105240001B689B6F019308BD2C02030008B5024B3D
:105250001B685B68019308BD1802030008B5024B88
:105260001B68DB68019308BD1802030008B5024BF8
:105270001B685B69019308BD1802030008B5024B67
:105280001B689B68019308BD7802030008B5024BB8
:105290001B681B6A019308BD7802030008B5024B26
:1052A0001B681B6D019308BD7802030008B5024B13
:1052B0001B689B6D019308BD7802030008B5024B83
:1052C0001B681B6E019308BD7802030008B5034BF1
:1052D0001B68D3F89830019308BD000078020300E2
:1052E00008B5034B1B68D3F8A830019308BD000034
:1052F0007802030008B5034B1B68D3F8B430019360
:1053000008BD00007802030008B5034B1B68D3F802
:10531000D830019308BD00007802030008B5034BA4
:105320001B68D3F8DC30019308BD0000780203004D
:1053300008B5034B1B68D3F8EC30019308BD00009F
:105340007802030008B5034B1B68D3F8F0300193D3
:1053500008BD00007802030008B5034B1B68D3F8B2
:105360000031019308BD00007802030008B5034B2B
:105370001B68D3F80431019308BD000078020300D4
:1053800008B5024B1B685B6C019308BD4802030023
:1053900008B5024B1B68DB6C019308BD4802030093
:1053A00008B5024B1B685B6D019308BD4802030002
:1053B00008B5024B1B685B69019308BD64020300DA
:1053C00008B5024B1B68DB68019308BD3C02030073
:1053D00008B5024B1B681B69019308BD3C02030022
:1053E00008B5024B1B685B69019308BD3C020300D2
:1053F00008B5024B1B689B69019308BD3C02030082
:1054000008B5024B1B68DB69019308BD3C02030031
:1054100008B5024B1B681B6A019308BD3C020300E0
:1054200008B5024B1B689B6A019308BD3C02030050
:1054300008B5024B1B681B6C019308BD3C020300BE
:1054400008B5024B1B681B6A019308BD28020300C4
:1054500008B5024B1B685B6A019308BD2802030074
:1054600008B5024B1B689B6A019308BD2802030024
:1054700008B5024B1B68DB6A019308BD28020300D4
:1054800008B5024B1B681B6B019308BD2802030083
:1054900008B5024B1B685B6B019308BD2802030033
:1054A00008B5024B1B681B6C019308BD2802030062
:1054B00008B5024B1B68DB69019308BD300203008D
:1054C00008B5024B1B681B6A019308BD300203003C
:1054D00008B5024B1B681B68019308BD4C02030012
:1054E00008B5024B1B685B68019308BD4C020300C2
:1054F00008B5024B1B681B69019308BD4C020300F1
:1055000008B5024B1B685B69019308BD4C020300A0
:1055100008B5024B1B689B69019308BD4C02030050
:1055200008B5024B1B68DB69019308BD4C02030000
:1055300008B5024B1B681B6A019308BD4C020300AF
:1055400008B5024B1B685B6B019308BD600203004A
:1055500008B5024B1B681B6D019308BD6002030078
:1055600008B5024B1B685B68019308BD200203006D
:1055700008B5024B1B685B69019308BD200203005C
:1055800008B5024B1B68DB6A019308BD20020300CB
:1055900008B5034B1B68D3F88830019308BD0000A1
:1055A0002002030008B5034B1B68D3F89430019325
:1055B00008BD00002002030008B5024B1B685B68B1
:1055C000019308BD4002030008B5024B1B689B68AD
:1055D000019308BD4002030008B5024B1B68DB685D
:1055E000019308BD4002030008B5024B1B681B690C
:1055F000019308BD4002030008B5024B1B685B69BC
:10560000019308BD4002030008B5024B1B689B696B
:10561000019308BD4002030008B5024B1B68DB691B
:10562000019308BD4002030008B5024B1B681B6ACA
:10563000019308BD4002030008B5024B1B681B6BB9
:10564000019308BD4002030008B5024B1B685B6B69
:10565000019308BD4002030008B5024B1B681B6C98
:10566000019308BD4002030008B5024B1B685B6C48
:10567000019308BD4002030008B5024B1B68DB6BB9
:10568000019308BD4402030008B5024B1B681B6868
:10569000019308BD1C02030008B5024B1B685B6840
:1056A000019308BD1C02030008B5024B1B689B68F0
:1056B000019308BD1C02030008B5024B1B68DB6A9E
:1056C000019308BD1C02030008B5024B1B68DB6B8D
:1056D000019308BD1C02030008B5024B1B681B6C3C
:1056E000019308BD1C02030008B5024B1B685B6CEC
:1056F000019308BD1C020300002240681146FFF719
:1057000093BF002240681146FFF79EBF4068002209
:10571000FFF792BF4068002281F00101FFF77CBFD4
:10572000002340681A461946FFF76EBF0023406801
:105730001A461946FFF760BF002240681146FFF77E
:1057400053BF002240681146FFF73EBF4068002269
:105750000221FFF741BF002340681A46FFF72CBF24
:10576000024B03225A60024A1A607047ACE60320DB
:1057700040920B0010B5044608462170FFF798FED2
:1057800000236360204610BD054B02221A60054BC2
:10579000054A9A600020C3E90000FFF7E1BE00BFA0
:1057A000C0E60320B4E603200000FFFF10B5044666
:1057B0000068FFF771FF204610BD10B50446006871
:1057C00008B1FFF769FF0023C4E90133236010BD6E
:1057D00038B504460D4600680131FFF765FF10B18A
:1057E000C4E90005012038BD10B50368044623B1A3
:1057F00043688B4201D3012010BD2046FFF7E8FF2C
:105800000028F9D0A368002BF5D122681370F2E7C5
:1058100037B50D46114601920446FFF7E5FF019AA0
:1058200028B92046FFF7C9FF204603B030BDA2606B
:105830002946206803F0FCFB2268A3680021D154AC
:10584000F2E7002313B5C0E9003304468360037315
:1058500041B108460191FFF7F1F80199024620464F
:10586000FFF7D6FF204602B010BD13B5044659B16C
:1058700008460191FFF7E2F8019902462046FFF73A
:10588000C7FF204602B010BDFFF797FFF9E770474A
:105890007047704770470000064B994210B500F101
:1058A0000C0405D0084601F0D5FE002808BF0024EE
:1058B000204610BDF0930B00064B994210B500F145
:1058C0000C0405D0084601F0C5FE002808BF0024DE
:1058D000204610BDF0930B00064B994210B500F125
:1058E0000C0405D0084601F0B5FE002808BF0024CE
:1058F000204610BDF0930B0010B568210446FFF759
:10590000E4F8204610BD10B528210446FFF7DDF865
:10591000204610BD10B530210446FFF7D6F82046CA
:1059200010BD6821FFF7D1B82821FFF7CEB830218C
:10593000FFF7CBB8F0B50025EC1C8C420DD86E1CDF
:10594000445D875D974205D12644B14205D31D6071
:10595000601CF0BD01342544EEE70020F9E70000AB
:10596000024A03490A20FFF7EBBD00BF5D520B005E
:1059700074920B0030B40D4611461A46036809684C
:105980002868D3E90043A44630BC6047012A38B5F3
:10599000044602D10B68236003E0022A03D0032AE5
:1059A0000DD0002038BD08200D68FFF78AF80346A7
:1059B0000028F0D095E8030083E80300EBE70068D7
:1059C0000028EED00821FFF780F8EAE710B58368D9
:1059D000044613B1032201469847204610BD10B576
:1059E00004465830FFF7F2FF04F14800BDE81040CC
:1059F000FFF7DCBE10B54368013B0446436063B962
:105A000003689B689847A368013BA3602BB9236890
:105A10002046DB68BDE81040184710BD10B50023D4
:105A20000370044B04461868FFF7B2FC012323708F
:105A3000204610BDCCE6032010B5037804461BB108
:105A4000024B1868FFF7ACFC204610BDCCE60320E3
:105A500082B00346086849686A4603C26A4603CAB8
:105A600018601846596002B0704708B582798B7982
:105A70009A4206D1062203F0CBFAB0FA80F0400930
:105A800008BD0020FCE74FF0FF3303608380002057
:105A9000704708B50246002101604160FFF7F3FF3F
:105AA0009171104608BD000010B501230361054B3C
:105AB000024603F1100153F8044B42F8044B8B42A9
:105AC000F9D110BDD6910B0010B50B460446B1B10B
:105AD000012A01F110020AD1014653F8040B41F8E2
:105AE000040B9342F9D101232361204610BD411ECE
:105AF00012F8010D01F8010F9A42F9D1F3E71022D3
:105B000003F0BEFAF1E738B504460D46FFF7CCFFC7
:105B100000232361A581204638BD38B504461546CB
:105B20001A46FFF7D1FFA581204638BD08B50269A6
:105B300022B98089003818BF012008BD024910220F
:105B400003F066FAF6E700BF08940B00006970479F
:105B500038B50C4614220021054603F091FA23695A
:105B60001BB9A3892B80284638BD01232B742146FD
:105B70002B4604F1100251F8040B43F8040B914238
:105B8000F9D1F0E780897047704708B502690B6961
:105B90009A4206D1102203F03BFAB0FA80F0400995
:105BA00008BD0020FCE7000038B54FF6FF73002564
:105BB000044643800E22294605700571063003F025
:105BC0005FFA04F11400FFF76FFF04F12800FFF7FC
:105BD0006BFF044904F13C00FFF733FE6565204686
:105BE00038BD00BF1D920B0010B5D0E9063203EBA3
:105BF000C2029342184606D0046824888C4203F1FE
:105C00000803F6D110BD0020FCE70000F0B5064601
:105C100085B01F460D46002950D0002A4ED004689A
:105C20002378F42A28BFF42243B32379980709D5AF
:105C3000A08903920023FFF75DFB0028039A03DA93
:105C400005B0F0BD6FF0770034682379D90609D527
:105C5000012F07D0A0890023294605B0BDE8F040F8
:105C6000FFF77ABB9B06EBD5022FE9D0A089002372
:105C7000294605B0BDE8F040FFF778BB60884FF6D5
:105C8000FF7188421CD021794E0701D5012F04D124
:105C90000B0709D46FF07700D2E7A1890093134670
:105CA0002A46FFF73BFBCBE7022FF3D00023A18965
:105CB000009313462A46FFF727FBC1E70248BFE7D8
:105CC0006FF0D100BCE700BFF2FEFFFF2DE9F0410D
:105CD00000260660074628200C46FEF7F2FE051E49
:105CE00005F10C080FD00123C5E90133084B2B60E7
:105CF0004046FFF7D9FE0FCC2E6285F82460464659
:105D00000FC623683360C7E900853846BDE8F081D7
:105D1000C0930B0070B50025056006463020FEF7E5
:105D2000D0FE044688B10123C0E90133094B03606A
:105D30004FF6FF7383810E30FFF7ABFEC4E90655C3
:105D4000C4E90855C4E90A55A57574600C3434607B
:105D5000304670BDDC930B0037B50D46044601A8F4
:105D6000FFF75CFE2A68D2F802302360D2F80630D2
:105D7000636001A8FFF760FE204603B030BD30B578
:105D8000054687B00C4601A8FFF748FE2A6823683D
:105D900012881B889A420DD1294602A8FFF7DCFF22
:105DA000214604A8FFF7D8FF04A902A8FFF75DFE6B
:105DB000044600B9002401A8FFF73EFE204607B0C4
:105DC00030BD000010B504466420FEF77AFE68B1CD
:105DD0000023C0E90033C0E90233C0E90433C0E95D
:105DE00006330362C362C363C364C365206020B922
:105DF0000A4A0B490A20FFF7A3FB0020FFF73EFAEF
:105E000020B1064A07490A20FFF79AFB2168064895
:105E10000022FFF797FA204610BD00BF5D520B002D
:105E200074920B00B2920B00F9630B0010B50A4C90
:105E30002378BFF35B8FDB070CD42046FEF747FEC9
:105E400040B10648FFF7BEFF2046FEF745FE044876
:105E500003F0D8F8014810BDC4E60320D0E60320C3
:105E6000A1600B0030B50368093B012B8DB00446DF
:105E70000D4611D8FFF7DAFFA1880068FFF7B4FEDE
:105E8000034658B92022CDE904200B4A00920B4961
:105E900004AA3220FFF75CFB0DB030BD6A6D002A0A
:105EA000FAD0D4E9032105F14C00CDE90312AC6D21
:105EB00004AA03A9A047EFE7F4920B008B920B0012
:105EC00008B50020FFF7DAF900EAE07008BD10B568
:105ED0000C4621B11421204603F008F90146204662
:105EE0000022BDE81040FFF7D1B919B90A460846AB
:105EF000FFF7D4B9D1E900010022F9E70368D869B6
:105F00000028D4BF00200120704738B5141E436814
:105F1000054602DB62189A4200DD5C1A2A685018B6
:105F200001191A44521A03F091F86A68121B6A6048
:105F300038BD37B50A4604460D4601ABD0E900012D
:105F4000FFF7F8FC024638B101992046FFF7DDFF64
:105F500029462046FFF7EDFF03B030BD10B50C46D3
:105F600029B90A460846BDE81040FFF79FB901214C
:105F70002046FFF7DEFFD4E900010022F3E738B541
:105F800004461546FFF7B1FF00280ADB29462046E4
:105F9000FFF7E4FF002804DBBDE838400020FFF7EE
:105FA0008DB938BD38B500230446836008200D46FE
:105FB000FEF787FD18B12B6803606B684360034BE5
:105FC000E360034B2060A360204638BD75590B0089
:105FD0008D590B000B68036013B15A6801325A6087
:105FE000704710B551F8043B044640F8043BFFF7F6
:105FF000F1FF23680BB9FFF7B3FC204610BD10B5C5
:1060000051F8043B044640F8043BFFF7E3FF204609
:1060100010BD10B551F8043B044640F8043BFFF7AF
:10602000D9FF204610BD10B50446006808B1FFF73F
:10603000E1FC204610BD10B504460430FFF7F3FF25
:10604000204610BD70B5D0E90053044605EBC306E9
:10605000AE4204D0281DFFF7E6FF0835F8E72068B8
:10606000FFF71AFB204670BD70B5D0E90053044617
:1060700005EBC306AE4204D0281DFFF7D4FF083558
:10608000F8E72068FFF708FB204670BD10B504460E
:106090002430FFF7E9FF04F11800FFF7D3FF10BD2C
:1060A00070B5174B1C6854B304F15400FFF78EFC15
:1060B00004F14400FFF78AFC04F13400FFF786FC8A
:1060C00004F12400FFF782FCD4E9065305EBC30674
:1060D000AE4204D0281DFFF7A6FF0835F8E7A069F7
:1060E000FFF7DAFA04F10C00FFF7BEFF2046FFF7D6
:1060F000A9FF20466421BDE87040FEF7E6BC70BDF4
:10610000D0E6032013B50023D1E90042C1E90033F2
:106110000368009304604368426001A80193FFF79D
:1061200082FF02B010BD826810B50AB901F08EFA84
:10613000BDE81040C368184738B50D1E0446006816
:1061400003DDFFF7B1FA18B938BDFFF7A5FA002053
:106150002060A5600120F7E708B583688B4202DA6A
:10616000FFF7EAFF08BD0120FCE72DE9F0410F46EB
:1061700041681D461944836899420446904612DCE2
:10618000266862683E44D21B3146701902F05EFFF9
:106190002A464146304602F04BFF63682B44636059
:1061A0000120BDE8F081FFF7C7FF0028E8D1F8E73C
:1061B000F8B50D46D0E901139942044616460BDAAC
:1061C000276862687919521B481C02F03FFF7E5510
:1061D000636801336360F8BD0131FFF7ADFF00284C
:1061E000EED1F8E70A464168FFF7E2BF2DE9F74331
:1061F00004461D460F4601AB90460A46D0E9000111
:106200009DF82890FFF796FBAE1C63680246B9F133
:10621000000F26D128B333441B1AFF2B09D801994C
:106220002046FFF772FE616820463144FFF794FF75
:1062300018B9606803B0BDE8F0836A1C0199D2B256
:106240002046FFF7B5FF01993A4601312046FFF796
:10625000AFFF01992B46424602312046FFF785FFEA
:10626000E7E7F118FF29E4D82046FFF775FF00287B
:10627000DFD0691CC9B22046FFF7B4FF394620467B
:10628000FFF7B0FF61682B464246E6E730B49DF861
:1062900008501AB1029530BCFFF7A8BF406830BC67
:1062A00070471FB50023C0E90033836006220093C6
:1062B00001238DF80F2019460DF10F020446FFF758
:1062C000E5FF204604B010BD1FB50A460446142160
:1062D0001046039202F00AFF002103460091039A40
:1062E00009212046FFF7D2FF04B010BD8842F8B55F
:1062F00004460D46164614D9904213D2A2F1080660
:10630000751AA1F108072C44B74218D01CB13146C8
:106310002046FFF77EFE301DFFF785FE083E083C55
:10632000F2E70CD0B5420AD01CB129462046FFF74F
:1063300070FE281DFFF777FE08350834F2E7F8BD38
:10634000F7B5044646686846FFF763FED4E9017373
:106350009F4212DB0137002F29DDF800FFF794F987
:106360000546F0B1D4E9001201EBC202FFF7BEFF0F
:106370002068FFF791F92560A7602368626803EB46
:10638000C60603EBC202314606F10800FFF7AEFF76
:106390001EB169463046FFF73CFE63680133636017
:1063A000012501A8FFF73FFE284603B0F0BD0025F8
:1063B000DEE7F8B5D0E9004305460F4604EBC30617
:1063C000A64205D039462046FFF7D9FC08B114B9DA
:1063D000F8BD0834F4E7201DFFF725FED5E90032AB
:1063E00004F1080103EBC2022046FFF77FFF6B6850
:1063F000013B6B60ECE700002DE9F04105468EB0F3
:1064000003A80C46FFF70AFB2E68F31E0D2B3CD8A1
:10641000DFE813F00E0057003B00D3003B003B00C9
:106420003B003B003B009D009D009D009D009D00AA
:1064300004A8FFF76FFC049BAA891A806968049876
:1064400008310230FFF704FB04A906A8FFF7E1FDBD
:1064500006A904F11800FFF773FF054607A8FFF728
:10646000E2FDC5B92023CDE906355E4B5E490093B8
:1064700006AA2B460120FFF76BF8049B29461888D3
:10648000FEF724FF05A8FFF7CEFD03A8FFF7D4FA17
:106490000EB0BDE8F081E36A23B104A904F1240041
:1064A000FFF741FE05A8FFF7BEFD20210023CDE93F
:1064B00006134E4A00924C4906AA0120FFF748F8FD
:1064C000E3E7A9892046FFF78FFB06460028DCD0CA
:1064D0000568D5E906324FF6FF71298003EBC20249
:1064E0009A4203D053F8080B4180F9E7D5E90373CA
:1064F00007EBC308B84504D0381DFFF794FD0837F3
:10650000F8E700232B61D5E9067307EBC308B8450C
:1065100004D0381DFFF787FD0837F8E70023EB614B
:10652000AB72E36B23B1314604F13400FFF7FBFD9E
:1065300033684FF6FF721A80314604F11800FFF7F6
:1065400038FF20220023CDE90623294AB2E7A98992
:106550002046FFF749FB002897D0E36C002B94D02E
:1065600000230D2EADF8163001D0102E17D10023C8
:1065700069681A4606258DF8153004918DF81420A7
:106580000690DDE9040109AB8DF81C60089583E8ED
:106590000300236D06A904F14400984775E70F2E08
:1065A00001BF2B7A696803F0010208250FBFC3F30E
:1065B00040031A4619461D46DDE7A9892046FFF724
:1065C00013FB014600283FF460AFE36D002B3FF45E
:1065D0005CAF6B68069306AA236E04F154009847DB
:1065E00053E700BF0C930B008B920B0032930B0010
:1065F0003C930B0013B50B460246D0E900016C46F4
:1066000084E8030093E8030082E8030094E80300B1
:1066100083E8030002B010BD38B505460C46FFF70D
:10662000E9FFAB68A268AA60A360EB68E268EA6071
:10663000E36038BD70B504468CB00E4601921D462D
:10664000FFF7B2FA2671019904F13C00FFF70DF94A
:1066500004F14C06CDB1109B029502A904A8039346
:10666000FFF7A0FC002308A904A80A93FFF7D4FFB2
:10667000314608A8FFF7D0FF08A8FFF7A7F904A83C
:10668000FFF7A4F920460CB070BD0695EAE70000BC
:106690002DE9F04F87B01D46DDE9104380468B465B
:1066A0009246129903930022682002910492FEF709
:1066B00008FA061E06F10C0918D001223746C6E971
:1066C00001220299154A47F8202B039B00915A4654
:1066D00051464846FFF7AEFF0FCD0FC72B683B6012
:1066E0000FCC06F134050FC523682B6004A9404682
:1066F000CDE90496FFF706FD05A8FFF794FCD8F84E
:1067000000303BB9064A07490A2007B0BDE8F04F00
:10671000FEF716BF07B0BDE8F08F00BFA4930B00D3
:106720005D520B0074920B008842F8B504460D468A
:10673000164614D9904213D2A2F10806751AA1F197
:1067400008072C44B74218D01CB131462046FFF749
:1067500056FC301DFFF767FC083E083CF2E70CD002
:10676000B5420AD01CB129462046FFF748FC281D37
:10677000FFF759FC08350834F2E7F8BD70B50E1E76
:10678000054611DDF000FEF77FFF044658B1D5E95C
:10679000001201EBC202FFF7C7FF2868FEF77CFF7B
:1067A0002C60AE60012070BD0024F6E773B504468E
:1067B00045686846FFF723FCD4E90113994210DAD3
:1067C0002368626803EBC50503EBC202294605F1A5
:1067D0000800FFF7A9FF8DB96368013363600126E4
:1067E00006E001312046FFF7C9FF06460028E7D141
:1067F00001A8FFF718FC304602B070BD6946284674
:10680000FFF7FDFBE8E78842F8B504460D4616465B
:1068100014D9904213D2A2F10806751AA1F1080703
:106820002C44B74218D01CB131462046FFF7D9FBA3
:10683000301DFFF7F8FB083E083CF2E70CD0B542EC
:106840000AD01CB129462046FFF7CBFB281DFFF7D5
:10685000EAFB08350834F2E7F8BD70B50E1E0546B0
:1068600011DDF000FEF710FF044658B1D5E9001223
:1068700001EBC202FFF7C7FF2868FEF70DFF2C608F
:10688000AE60012070BD0024F6E773B5044645688C
:106890006846FFF7A6FBD4E90113994210DA236892
:1068A000626803EBC50503EBC202294605F1080047
:1068B000FFF7A9FF8DB9636801336360012606E025
:1068C00001312046FFF7C9FF06460028E7D101A89D
:1068D000FFF7A9FB304602B070BD69462846FFF7B6
:1068E00080FBE8E72DE9F04F1746A1B080460AA8E3
:1068F0000E46FFF793F83C68237953B93946404672
:10690000FFF76FFB0AA8FFF797F8404621B0BDE8F4
:10691000F08F3368D3E9035305EBC303039304F10A
:10692000280A04F1140B039B9D4221D0D5F8009056
:10693000584609F11401FFF728F9B8B109F1280107
:106940005046FFF722F988B12368D9F80020534058
:1069500033F47F430AD12022CDE915235E4A009209
:1069600015AA5E493220FEF7F3FDC7E70835DAE7DE
:106970005046FFF7DBF860B95949012215A815AD5B
:10698000FFF7A2F80FCDD446ACE80F002B68CCF887
:1069900000303368D3E9005305EBC30B5D45A946CE
:1069A00051466ED055F8080BFFF7EFF80028F5D0E8
:1069B00004F1140A5046FFF7B9F888B9494B484921
:1069C0001A88013292B21A8015A8012315ADFFF77B
:1069D000A4F80FCDD446ACE80F002B68CCF80030FB
:1069E000414B15932822002116A802F049FB51467D
:1069F00004A8FFF7ADF804AB18AA0DF1200C186835
:106A00005968154603C5083363452A46F7D1186807
:106A1000286023798DF85830D9F800309B8AADF87A
:106A20007430E36B1793314B0022A11D15A8CDE9FB
:106A30001E34FEF77DFC00287FF460AF0123237035
:106A4000346839460C340DA8FFF7CBFA20460DA95F
:106A5000FFF71BFF04460EA8FFF7E5FA002C7FF4B2
:106A60004DAF2023CDE90D34214B00930DAA2346D1
:106A700077E739464046FFF7B4FA0CA8FFF7D3FA98
:106A800040E70BA8FFF722F9514615A8FFF760F879
:106A90000B9A0023143215A90120FEF721FC0028CF
:106AA000E7D135680BA90DA8FFF7A9FA28460DA96B
:106AB000FFF77CFE05460EA8FFF7B5FA002DD8D0EB
:106AC00032685368126803F10053013B0CA802EBD3
:106AD000C309FFF7A8FA6BE749930B008B920B00F1
:106AE000F8930B00C8E6032003002C00655E0B0042
:106AF00074930B00024800230360FEF741BC00BF03
:106B0000CCE60320F8B506460D468F180024BD429A
:106B10000CD0336815F8011B9B6830469847031E5C
:106B200001DB1C44F3E7002C08BF1C462046F8BDDF
:106B300013B50446084659B10191FDF77FFF23685C
:106B40000199DB680246204602B0BDE810401847B4
:106B500002B010BD08B5FFF7EBFF08BD03689B68E6
:106B6000184738B50D210546FFF7F8FF0A210446FE
:106B70002846FFF7F3FF204438BD38B50546FFF738
:106B8000D7FF04462846FFF7ECFF204438BD30B558
:106B90008BB00023012A8DF8243098BF0A2209AC5B
:106BA0000D46B1FBF2F101FB125303F0FF03092B79
:106BB00094BF30333733DBB2AA4204F8013DEFD93A
:106BC0002146FFF7B5FF0BB030BD00002DE9F74FB0
:106BD00055EC104B06460F4610EE102A10EE100A28
:106BE0002B462946FDF772FE40B153493046FFF768
:106BF0009FFF8246504603B0BDE8F08F25F0004964
:106C00004E4B4FF0FF3220464946FDF75FFE48B934
:106C10004A4B4FF0FF3220464946FDF739FE08B98E
:106C20004749E3E7474B4FF0604220462946FDF7CE
:106C300043FE08B14449D9E7444B4FF06042204637
:106C40002946FDF71BFE0028F4D100220023204630
:106C50002946FDF713FED0B12D213046FFF77EFF08
:106C600005F1004382461D463949DFF8EC904FF0AC
:106C7000000B00204FF000085FFA8BF39F4208D909
:106C800042464B46FDF7B2FC0BF1010BF4E782469E
:106C9000EAE722462B46FDF7C9F90D460446FDF703
:106CA00053FE8046FDF7FEFA02460B462046294673
:106CB000FDF7BAF90A2204460D4630464146FFF771
:106CC00066FF8244002F95D02249DFF88C90304631
:106CD000FFF72EFF4FF000088244002F8AD0424673
:106CE0004B4620462946FDF757FB04460D46FDF767
:106CF00003FEB0F1000B1CDA2D213046FFF72EFF0A
:106D0000CBF1000103460A2230460193FFF73FFF13
:106D1000019B184482445846FDF7D4FA02460B46BC
:106D200020462946FDF780F9013F04460D46FFB293
:106D3000D3E759460023E6E718940B00FFFFEF7FE7
:106D40001C940B00FFFFEF4120940B00FFFFEFC1ED
:106D50000000E03F99930B000000244038B5044642
:106D600010EE100ACDB2FDF7BFFA41EC100B294628
:106D70002046BDE83840FFF729BF0000014B024A1A
:106D80001A607047D4E6032024940B00024B1A6863
:106D9000024B1A60704700BFDCE50320D8E60320F1
:106DA0000021FEF7E5BB0000014B00229A6070470E
:106DB000DCE60320014B1860704700BFE4E50320C8
:106DC00008B50B4B43B100F067F903681B6998479E
:106DD000002801DDAFF30080064B43B100F0D0FB8B
:106DE00003681B699847002801DDAFF3008008BDE8
:106DF000000000000000000008B5FFF7E1FFFEF70B
:106E000035FA014B186008BD40E703200548064AE3
:106E1000064908B5121A02F00BF9054B054A1A602B
:106E200008BD00BF00F4032004F40320CC970B003E
:106E300000F403201E1C279A07B5002300931A466E
:106E40006FF07701FEF7AEFB03B05DF804FB0000C6
:106E500007B543880A2B08D0502B0BD1094B1B6870
:106E60004BB103B05DF804EB1847FFF7E5FF03B043
:106E70005DF804FB002300931A466FF07701FEF7DC
:106E800091FBF4E7F0E6032010B512480021FEF76D
:106E90002BFC114B1A68114B9A42114B0CBF01226B
:106EA00000221A7001D0FFF7B1FFFEF7CFF90446B8
:106EB00002F0EEF80B4B13B12046AFF30080002137
:106EC0000848FEF7D9FBBDE8104007480021FEF74F
:106ED0005FBB00BFB56D0B0000F403201E1C279A9A
:106EE000ECE6032000000000516E0B00704710B567
:106EF00018210446FDF7E9FD204610BDF0B5037DDD
:106F0000062B8DB00E4600F104074FF0000412D09E
:106F100000F1080515F8011D0A223046FFF737FE7B
:106F2000AF42044419D0002CF4D02E213046FFF794
:106F300015FE0444EEE72F236A4639460A208DF8F1
:106F40000040FEF735FA6846FDF778FD33680246E3
:106F5000DB68694630469847044620460DB0F0BDD0
:106F600010B5054B0446112240F8043B002102F005
:106F700087F8204610BD00BF4C940B000346074A1B
:106F800010B543F8042B01F1100251F8044B43F8FB
:106F9000044B9142F9D10A781A7010BD4C940B0041
:106FA00010B59DF8084044EA032343EA024242EA4E
:106FB000016104234160037510BD000007B5064B55
:106FC0000360CB7800938B784A780978FFF7E8FF65
:106FD00003B05DF804FB00BF4C940B004174704794
:106FE0007047704708B50021007CFEF791FA40EA2F
:106FF000E07008BD08B50121007CFEF789FA40EA7F
:10700000E07008BD08B5007CFEF77AFA20EAE0706F
:1070100008BD08B5007CFEF76BFA20EAE07008BDF9
:1070200013B50446007C0191FEF76AFA0028019925
:1070300001DC607C20B1207CFEF772FA20EAE0706F
:1070400002B010BD007CFEF773BA10B514210446DF
:10705000FDF73BFD204610BD10B54FF47A73044692
:1070600008460021C4E90113044B23600123207466
:1070700063741146FEF72CFA204610BD60940B0095
:10708000007C0022FEF72CBA10B514220446002121
:1070900001F0F6FF204610BD10B50F4C88B003A8D4
:1070A000FFF7F2FF2178BFF35B8F11F001010FD1E1
:1070B00020460191FDF70BFD019948B103AA07484D
:1070C000FFF7CAFF2046FDF707FD054801F09AFFCC
:1070D000024808B010BD00BFF4E60320F8E6032024
:1070E000E16F0B0070474174704708B5007CFEF7F4
:1070F00097F920EAE07008BD08B5007CFEF768F952
:1071000020EAE07008BD08B5007CFEF771F940EA9E
:10711000E07008BD08B5007CFEF762F940EAE07057
:1071200008BD007CFEF76CB937B5457C04462DB12F
:10713000207C03B0BDE83040FEF742B9007C0191ED
:10714000FEF76EF900280199F2DC284603B030BD45
:1071500010B514210446FDF7B8FC204610BD000010
:1071600010B54FF47A730446084611460022C4E96C
:107170000123044B2360012320746374FEF758F944
:10718000204610BD90940B007047F8B50646154692
:107190000C468F18BC4206D0336814F8011B9B685C
:1071A00030469847F6E72846F8BD007C0022FEF7F7
:1071B00047B9007C0021FEF74BB9007C0021FEF7A7
:1071C0004FB9007C0021FEF753B9007C0021FEF787
:1071D00057B910B514210446FDF777FC204610BDC1
:1071E00038B5044615464FF47A730022C4E90123EA
:1071F000094B2174084623602946FEF751F9BF3038
:1072000008D16B69DB0705D56868FEF745FAE868C1
:10721000FEF742FA204638BDC0940B0000224068B9
:107220001146FEF7E1B9002240681146FEF7FCB9AD
:10723000002240681146FEF707BA40680022FEF7B8
:10724000FBB94068002281F00101FEF7E5B9002397
:1072500040681A461946FEF7D7B9002340681A4617
:107260001946FEF7C9B9002240681146FEF7ACB9CD
:10727000406800220221FEF7AFB9002340681A4699
:10728000FEF79AB9024B04225A60024A1A6070470C
:107290000CE70320E8940B00002340681A46FEF731
:1072A0008BB9406800220221FEF796B9002240689F
:1072B0001146FEF789B9002240681146FEF794B9DD
:1072C000002340681A461946FEF796B90023406825
:1072D0001A461946FEF798B940680021FEF7BCB976
:1072E00040680021FEF7C0B94068002281F001012A
:1072F000FEF792B940680022FEF79EB9002240686E
:107300001146FEF7A1B9002240681146FEF78CB97C
:107310002DE9F04395B014460D460746FFF720FED1
:1073200000211C220DA8009101F0AAFE40230C931D
:1073300020466B460CAA0021FDF740FF04460028BA
:107340004BD1024601216868FEF74EF902218046C2
:1073500022466868FEF748F9009E81462146002EC5
:107360003BD0002939D17368022B03D00A2B11D0EE
:10737000F669F4E7B8F1000FFAD0716906A8043194
:1073800007ADFFF71BFE0FCD3C1D0FC42B6823700C
:107390004146EDE7B9F1000FEAD07469102201A867
:1073A00001F06EFE06238DF8143001AD04F10803E0
:1073B0001834186859682A4603C20833A342154690
:1073C000F7D101A906A807ADFFF7D8FD0FCD3C1DE9
:1073D0000FC42B6823704946CAE70098FDF7E6FE04
:1073E000384615B0BDE8F083024B034A1A6000220C
:1073F0005A60704714E7032024950B00232813B527
:1074000002D9002002B010BDA0F10B03022B1AD844
:10741000174C2178BFF35B8F11F001010BD120468F
:107420000191FDF754FB019928B11248FEF7A2F92A
:107430002046FDF751FB0F4B1878FEF741F8002866
:10744000DFD10120DEE7012809D800F0D9F80021BA
:10745000007CFEF71DF880F00100C0B2D2E70938C9
:107460000128EED800F08CF8007CFDF7D1FFF2E7A0
:107470001CE7032020E70320232838B504460D46E7
:107480000AD8FF2908D0FFF7B9FF28B129462046BE
:10749000BDE83840FDF7A2BE38BD38B504460D46FC
:1074A000FDF7A4FEFF2810D0062804D84D2323FAA8
:1074B00000F0C30709D42046FFF7A0FF28B12946F2
:1074C0002046BDE83840FDF799BE38BD0D2810B5FF
:1074D00004469CBF0E34A4B22046FFF78FFF50B184
:1074E00003212046FDF772FE032804D12046BDE8A3
:1074F0001040FDF793BE002010BD38B504460D4680
:10750000FFF77CFFF0B104212046FDF75FFE042861
:1075100005D1A9B22046BDE83840FDF777BE02216B
:107520002046FDF753FE02280CD12046FDF75EFEF3
:10753000012801D0042805D129462046BDE838405D
:10754000FDF77CBE38BDFDF771BE704738B5044607
:1075500014252A46002101F093FD25804025074986
:1075600025812846258200F06FF80449606028468E
:1075700000F06AF8E060204638BD00BF58950B0067
:1075800030B50E4D2978BFF35B8F11F0010487B041
:1075900011D12846FDF79BFA68B101A8FFF7D6FF85
:1075A00001AA21460648FFF7DBFD2846FDF794FABD
:1075B000044801F027FD024807B030BD28E703204A
:1075C0002CE703204B750B007047000038B50A4BC1
:1075D00003600123044643610849202000F034F889
:1075E000202560600549A560284600F02DF8C4E913
:1075F0000305204638BD00BF1800010058950B0058
:1076000030B50E4D2978BFF35B8F11F0010487B0C0
:1076100011D12846FDF75BFA68B16846FFF7D6FF3F
:107620006A4621460648FFF7DBFD2846FDF754FA77
:10763000044801F0E7FC024807B030BD44E70320EE
:1076400048E70320C9750B00FDF73DBA08B5FEF702
:1076500033F80000014900F0F9B800BF74950B0041
:107660007FB500241023CDE90234036815469E69D6
:1076700012686B46CDE90044B0479DF8043003F032
:107680000603062B03BF009B2B600120204604B09D
:1076900070BD0098904214BF012006207047000082
:1076A00010B5034B0360044600F0CDF8204610BD32
:1076B000B4950B0010B50446FFF7F2FF20460821F1
:1076C000FDF703FA204610BD2DE9F0411F46DDE924
:1076D0000834DDF8188098450646154607D1079905
:1076E00000F0B4F818B165710020BDE8F0813946AA
:1076F000304600F0ABF80028F6D00123C4F8008033
:107700002571A371F0E738B515461C4600F09EF8C8
:1077100020B10823E36006232560237138BD73B5CB
:1077200005460C4601921E4600F090F850B9032E13
:1077300008D82368019A5B692946204602B0BDE853
:107740007040184702B070BD10B5034B036004468B
:10775000FFF7A6FF204610BD14960B0010B5044697
:10776000FFF7F2FF20460C21FDF7AFF9204610BDD0
:10777000F7B5089F974205460E4614460AD0A868FA
:1077800002680897156A31462246AC4603B0BDE848
:10779000F04060471946019300F058F8019B00281B
:1077A000EDD0062003B0F0BD2DE9F14F0D4619468E
:1077B000DDE90A4BDDE90CA681461746984600F044
:1077C00045F890B1002D3460377109DB61198A45A5
:1077D0000CBF06210121B171002001B0BDE8F08F7E
:1077E0000235F9D10123B371F6E7544506D1594664
:1077F000484600F02BF808B17771EDE7D9F808009A
:107800000368CDE90CA6CDE90A4BDC693A4643464C
:107810002946A44601B0BDE8F04F60472DE9F0418C
:1078200007460C4615461E46FFF76DFF48B9B86877
:1078300003689F692A4633462146BC46BDE8F041AD
:107840006047BDE8F081704700207047814208B56D
:107850000ED0406803782A2B0CD049680B782A2B6D
:1078600008BF0131FDF7E0F8B0FA80F0400908BD2B
:107870000120FCE70020FAE7F8B52DED028B57EC6C
:10788000106B55EC114B00F09BF9634BB0EE408A46
:10789000F0EE608A93F9003001332AD022462B465D
:1078A00020462946FDF712F818BB32463B463046C3
:1078B0003946FDF70BF8002844D10022002330465A
:1078C0003946FCF7D1FFD8B10022002320462946D3
:1078D000FCF7CAFF00283DD145EC104B01F03AFA05
:1078E00038B12046294600220023FCF7C7FF0028B4
:1078F0005CD1B0EE480AF0EE680ABDEC028BF8BD30
:10790000B0EE480AF0EE680A01F024FA58B351ECE0
:10791000180B00220023FCF7A7FF0028E9D047EC52
:10792000106B01F017FA0028E3D045EC104B01F082
:1079300011FA0028DDD0FDF7C7FE22239FED2E8B24
:107940000360D6E72046294600220023FCF78CFF7F
:107950000028CED09FED2A8BB0EE480AF0EE680AE0
:10796000BDEC028BF8BD47EC106B01F0F3F9002879
:10797000CDD045EC104B01F0EDF90028C7D053EC09
:10798000182B18EE100A1946FCF7A0FF20BBFDF7D4
:107990009BFE034622221A6030463946002200230D
:1079A000FCF76CFF48B99FED188BA2E7FDF78CFE42
:1079B00021239FED178B03609BE745EC104B01F0F3
:1079C000DFF9224651EC100B2B46FCF74DFF002847
:1079D000E9D19FED0F8B8CE7FDF776FE00220023A7
:1079E0002121016010461946FCF700FE41EC180BFE
:1079F0007FE700BFAFF30080000000000000000040
:107A0000000000000000F03F000000000000F07FD8
:107A1000000000000000F0FFE0E5032008B52DEDB8
:107A2000028BB0EE408A00F031FF164B93F9003024
:107A30000133F0EE408A12D0B0EE480A01F0CEFADF
:107A400068B1DFED117AB4EEE78AF1EE10FA12DCDC
:107A5000DFED0E7AB4EEE78AF1EE10FA04D4B0EE60
:107A6000680ABDEC028B08BDFDF72EFE2223DFED78
:107A7000088A0360F3E7FDF727FE2223DFED058A7E
:107A80000360ECE7E0E503208071B142B5F1CFC2BD
:107A9000000000000000807F08B52DED028BB0EEE5
:107AA000408A00F0E9FF144B93F90030013314D001
:107AB000B4EE488AF1EE10FA0FD6B5EEC08AF1EEB8
:107AC00010FA0ADCB5EE408AF1EE10FA08D1FDF7A3
:107AD000FBFD22239FED090A0360BDEC028B08BD6C
:107AE000FDF7F2FDBDEC028B034621221A6004482B
:107AF000BDE8084001F080BAE0E50320000080FF07
:107B000050960B0008B52DED028BB0EE408A01F0C7
:107B1000B3F8144B93F90030013314D0B4EE488A13
:107B2000F1EE10FA0FD6B5EEC08AF1EE10FA0AD8CF
:107B3000B5EE408AF1EE10FA08D1FDF7C5FD22231B
:107B40009FED090A0360BDEC028B08BDFDF7BCFD8B
:107B5000BDEC028B034621221A600448BDE80840B0
:107B600001F04ABAE0E50320000080FF50960B00C8
:107B700008B52DED028BB0EE408A01F0DDF80E4B1A
:107B800093F9003001330BD0B4EE488AF1EE10FACD
:107B900006D6DFED0A8AB4EEE88AF1EE10FA02D4D6
:107BA000BDEC028B08BDFDF78FFD88EEA80ABDEC89
:107BB000028B2123036008BDE0E5032000000000E4
:107BC0002DE9F04F57EC116B2DED0C8B27F0004A8F
:107BD0005AEA060287B03DD055EC104B724925F0A9
:107BE0000048884510EE102AA9462CDC11EE103A08
:107BF000BB4636D08A4526DC6B498A4521D0B9F18F
:107C0000000F39DB00210091002B51D1664B9A45C2
:107C100000F0A280654B9A4500F0B080BBF1804F28
:107C200000F0C084624B9B4542D1B9F1000F3FDBAD
:107C300045EC104B07B0BDEC0C8BBDE8F04F00F0ED
:107C400059BD002BDBD008F1404808F5801858EAF0
:107C5000020309D19FED500B07B0BDEC0C8BBDE8C2
:107C6000F08F0CB9C245C7DD524807B0BDEC0C8B94
:107C7000BDE8F04F01F07CB84F498A4500F385809C
:107C8000A1F154718A450FDD4FEA2A51A1F2FF316B
:107C9000142940F39B84C1F1340123FA01F000FA66
:107CA00001F1994200F0ED8400210091002BB1D048
:107CB00045EC104B029201F043F8029A5ABBB8F11E
:107CC000000F04D0394B29F040429A4223D1BBF136
:107CD000000F07DA53EC102B34490020FCF786FC28
:107CE00041EC100BB9F1000FB6DA009B08F14048E7
:107CF00008F5801858EA030340F08D8453EC102BEC
:107D000010461946FCF790F902460B46FCF76EFC4C
:107D100041EC100BA0E7009A4FEAD973013B0493A2
:107D2000134335D0254B9A454CDD03F104739A4536
:107D3000234B40F3DB83984540F36083BBF1000F96
:107D400040F3608316A3D3E9002310461946FCF7DD
:107D500023FB41EC100B7FE708F1404303F5801350
:107D600013433FF477AF164B984540F37A83BBF14A
:107D7000000FC0F2478347EC106B6DE7BBF1000FBB
:107D8000C0F21A8445EC104B66E7022100913BE7F4
:107D900022462B46B4E700BF000000000000F03F81
:107DA0009C7500883CE4377E0000F07F0000F03FC7
:107DB0000000E03F50960B00FFFF3F430000E04112
:107DC000FFFFEF3FE44B09EA0303002253B951ECF4
:107DD000100BE24BFCF7E0FA41EC100B10EE908A2E
:107DE0006FF034024FEA2853A3F2FF339A18DC4BAA
:107DF0000592C8F3130848F07F54984544F44014A2
:107E000007DDD84B984540F3148401320592A4F560
:107E100080149FEDB96B9FEDBA7B53EC162BB0EE3F
:107E200047CAF0EE67CA0025B0EE47DAF0EE67DA2F
:107E30005BEC10ABA3465046594643EC1A2BFCF7BB
:107E4000F3F853EC1A2B8046894650465946FCF706
:107E5000EDF802460B460020C349FCF7C7FB41EC96
:107E60001B0B404653EC1B2B4946FCF795FA41ECA3
:107E7000180B0A460146CDE9021200210291641056
:107E80004BEC19AB44F00054DDE902AB04F50023E0
:107E90000020591904460D4602460B4650465946E5
:107EA000FCF77AFA02460B4640464946FCF7BCF816
:107EB00053EC1A2B8046894620462946FCF7B4F835
:107EC00002460B4651EC190BFCF7AEF852465B46E6
:107ED000FCF762FA02460B4640464946FCF7A4F816
:107EE00053EC1B2BFCF758FA53EC182B41EC190BF5
:107EF00051EC180BFCF750FA83A3D3E90023044696
:107F00000D46FCF749FA82A3D3E90023FCF78EF86B
:107F100022462B46FCF740FA7FA3D3E90023FCF767
:107F200085F822462B46FCF737FA7DA3D3E90023D8
:107F3000FCF77CF822462B46FCF72EFA7AA3D3E90D
:107F40000023FCF773F822462B46FCF725FA78A3AA
:107F5000D3E90023FCF76AF82246804689462B467F
:107F600020462946FCF718FA02460B464046494689
:107F7000FCF712FA524604460D465B4651EC180BCC
:107F8000FCF754F853EC192BFCF706FA22462B4663
:107F9000FCF74CF85246804689465B4650465946A7
:107FA000FCF7FAF902460B4643EC1A2B6F4B002202
:107FB000FCF73CF842464B46FCF738F800240D46E7
:107FC00022462B4650465946FCF7E6F9674B824657
:107FD0008B46002220462946FCF726F853EC1A2B44
:107FE000FCF722F802460B4640464946FCF71CF8CF
:107FF00053EC182BFCF7D0F922462B4604460D46CD
:1080000051EC190BFCF7C8F902460B4620462946ED
:10801000FCF70CF88046894642464B465046594686
:10802000FCF704F844A3D3E90023002004460D46DE
:10803000FCF7B2F9524641EC190B5B462046294643
:10804000FBF7F2FF02460B4640464946FBF7ECFFC2
:108050003BA3D3E90023FCF79FF902460B462046D9
:10806000294614461D4638A3D3E90023FCF794F9AA
:1080700002460B4620462946FBF7D8FF53EC1D2B42
:10808000FBF7D4FF804605988946FCF71BF942466A
:1080900082468B464B4651EC190BFBF7C7FF53EC5E
:1080A0001C2BFBF7C3FF52465B46FBF7BFFF524654
:1080B0005B46002004460D46FBF7B6FF53EC1C2B35
:1080C000FBF7B2FF53EC192BFBF7AEFF02460B4652
:1080D00040464946FBF7A8FF009B049A013B134327
:1080E00082468B4640F0B6819FED197BB0EE478A01
:1080F000F0EE678A3CE000BF000000000000F03FA7
:108100000000000000000000EF4E454A287ECA3FF4
:1081100065DBC9934A86CD3F01411DA96074D13FFB
:108120004D268F515555D53FFFAB6FDBB66DDB3F0D
:10813000033333333333E33F000000E009C7EE3F3E
:10814000FD033ADC09C7EE3FF5015B14E02F3EBEAC
:10815000000000000000F0BF0000F07F000040437E
:108160008E98030079B60B000000F03F0000084035
:108170000023CDE900670093DDE9008930464246DF
:108180004B463946FBF750FF22462B46FCF704F9D5
:1081900032463B4606460F4650465946FCF7FCF829
:1081A00002460B4630463946FBF740FF42464B46F7
:1081B00006460F4620462946FCF7EEF804460D46D3
:1081C0002B46304639462246FBF730FFC24B9942D8
:1081D000804689468A4640F3188101F13F4303F502
:1081E000E003034340F00782A3A3D3E90023304612
:1081F0003946FBF71BFF02460B4640464946904670
:10820000994622462B46FBF70FFF02460B46404697
:108210004946FCF751FB002840F0ED81CAF30A53B0
:108220004FF48012A3F2FE3342FA03F35344AB49F6
:10823000C3F30A52A2F2FF3241FA02FCC3F3130164
:1082400041F48011C2F1140241FA02F2002023EA43
:108250000C01BAF1000F00920B46024602DA0099B7
:108260004942009120462946FBF7DEFE009B1B0594
:10827000029302460B4604460D4630463946FBF74C
:10828000D5FE89464FF000087DA3D3E90023404680
:108290004946FCF781F822462B4682468B464046EB
:1082A0004946FBF7C1FE02460B4630463946FBF70E
:1082B000BBFE75A3D3E90023FCF76EF874A3D3E9E2
:1082C000002304460D4640464946FCF765F8024641
:1082D0000B4620462946FBF7A9FE06460F463246C6
:1082E0003B4650465946FBF7A1FE52465B460446C4
:1082F0000D46FBF799FE02460B4630463946FBF722
:1083000093FE2246804689462B4620462946FCF7A6
:1083100043F861A3D3E9002306460F46FCF73CF877
:108320005FA3D3E90023FBF77FFE32463B46FCF711
:1083300033F85DA3D3E90023FBF778FE32463B46D2
:10834000FCF72AF85AA3D3E90023FBF76DFE324667
:108350003B46FCF721F858A3D3E90023FBF766FE60
:1083600032463B46FCF718F802460B4620462946A3
:10837000FBF75AFE06460F4632463B462046294644
:10838000FCF70AF802460B463046394616461F46A9
:1083900000224FF08043FBF747FE02460B46304673
:1083A0003946FCF723F9424606460F464B4620461F
:1083B0002946FBF7F1FF42464B46FBF737FE0246E4
:1083C0000B4630463946FBF72FFE22462B46FBF77D
:1083D0002BFE02460B4600204149FBF725FE029A80
:1083E0000B461344B3F5801FC0F24381194653EC8A
:1083F000182BFBF7D1FF41EC100B2DE4BBF1000F64
:10840000FFF6A0AC9FED2E0B26E4DFF8DCC021F0D8
:108410000043634540F3E780324B0B4403430AD1EA
:1084200022462B46FBF700FE32463B46FCF73AFA63
:1084300000283FF4F3AE24A3D3E9002351EC180B3A
:10844000FBF7AAFF20A3D3E90023FBF7A5FF41EC2C
:10845000100B01E49FED1E7BB0EE478AF0EE678AB9
:1084600086E6BBF1000FCDDA07F1004300EE106A9B
:1084700000EE903AFFF7F0BBFE822B654715973C64
:1084800000000000432EE63FEF39FAFE422EE63FA1
:10849000396CA80C615C20BED0A4BE726937663E00
:1084A000F16BD2C541BDBB3E2CDE25AF6A56113FF4
:1084B00093BDBE166CC1663F3E5555555555C53FDB
:1084C000000000000000000059F3F8C21F6EA50173
:1084D000000000000000F03FFFFF8F40FFFF0F0093
:1084E0000000F03F00346F3FFFCB9040984585DBA4
:1084F0007D4B98453FF722AC51EC100B7A4B002294
:10850000FBF792FD68A3D3E9002304460D46FBF771
:1085100043FF67A3D3E9002382468B4620462946C2
:10852000FBF73AFF714B41EC180B0022204629461D
:10853000FBF732FF02460B465FA1D1E90001FBF7D2
:1085400073FD22462B46FBF727FF02460B46002011
:108550006749FBF769FD2246804689462B4620463F
:108560002946FBF719FF02460B4640464946FBF7F2
:1085700013FF53A3D3E90023FBF70EFF02460B467C
:1085800051EC180BFBF750FD8046894642464B469E
:1085900050465946FBF74AFD002052465B460446CA
:1085A0000D4691E522462B4620462946FBF7F4FE70
:1085B00041EC100BFFF750BB4B49002022462B46E5
:1085C000FCF714F841EC100BFFF746BB002B44D12D
:1085D000C1F114014AFA01F000FA01F151455AD0F3
:1085E0000093FFF717BB424A93425BDCDDE90012C0
:1085F0000291009146E634A3D3E9002351EC180B15
:10860000FBF7CAFE30A3D3E90023FBF7C5FE41EC1C
:10861000100BFFF721BB009B012B7FF41DAB10EE6D
:10862000901A10EE102A01F1004343EC102BFFF7D3
:1086300013BB9FED277BB0EE47CAF0EE67CA9FEDF4
:10864000267BB0EE47DAF0EE67DA9FED257B4FF43C
:10865000802553EC172BFFF7EBBB45EC104B00923A
:1086600000F06EFB009A002A7FF492AB0092FFF7B5
:1086700026BB41EC100B009800F01EFC51EC100BD7
:10868000B5E600F00100C0F102010091002B3FF4BB
:10869000C1AAFFF70DBB00F00100C0F10203009377
:1086A000FFF7B8BA1B15BBE5000000604715F73FA0
:1086B00044DF5DF80BAE543E555555555555D53FE5
:1086C000FE822B654715F73F9C7500883CE4377E9A
:1086D0000000004003B8E23F06D0CF43EBFD4C3E24
:1086E000000000000000F83F0000F03F0000D03F15
:1086F0000000E03F2DE9F041634A55EC104BAA43DE
:1087000000F09F80002D10EE10CA2B4654DD291575
:1087100063D0C3F31303A1F2FF37C90743F48013F7
:1087200004D45B0003EBDC734FEA4C0C4FEADC72C1
:10873000002602EB43037F104FEA4C0C4FF0160E5D
:1087400034464FF40012A118994202DC5B1A8C18CF
:1087500016445B00BEF1010E03EBDC734FEA5202DC
:108760004FEA4C0CEFD1754620204FF000420AE052
:1087700044D04FEADC71013801EB43034FEA4C0C63
:108780004FEA520243D0A34202EB0E01F0DD002972
:1087900001EB020E0ADBA0461B1B614588BF03F1FB
:1087A000FF33ACEB010C15444446E2E7BEF1000F89
:1087B000F1DB04F10108EFE725F00042224338D055
:1087C000002D4ED129464FEADC22153913464FEAD7
:1087D0004C5C002AF7D0D60250D400205B00DD02AA
:1087E000044600F10100F9D51A4663460CFA00FC74
:1087F000C0F12000C340091B13438AE76145B8D884
:10880000002901EB020ED1DB98460023C9E753EAA9
:108810000C0310D168087110F30701F17F5101F5C5
:10882000001148BF40F0004001EB0753024643EC03
:10883000102BBDE8F0816A1C16BF681C0136400889
:10884000E9E710EE102A10EE100A2B462946FBF736
:10885000A3FD22462B46FBF7E9FB41EC100BBDE8DC
:10886000F08110EE102A20462946FBF7DDFB024678
:108870000B46FBF7BBFE41EC100BDAE7634620200A
:108880004FF0FF34B6E700BF0000F07F10EE103A63
:1088900023F00042B2F1FF4F55D84FEAD37100F0F8
:1088A00096806348834251DC002BC0F28980614B83
:1088B0009A4250D9604B9A4200F29C805F4B604ACA
:1088C00003EB810393ED004A02EB8102C1F1010346
:1088D00030EE444A92ED007A5B1A34EE470ADFED3F
:1088E000597ADFED594A9FED595A9FED596ADFEDEC
:1088F000595A60EE006AE6EEA74AA4EEA65AA5EE23
:10890000266AE6EE265AB0EE406AA5EEE66A002B2D
:1089100047D0F0EE006A60EE065A36EEC66AF7EE11
:10892000007A85EE860A13F17D0F37EE400A30EEAD
:10893000440A37EEC00A51DB10EE102A02EBC35393
:1089400000EE103A704730EE000A70479FED420A81
:1089500020EE000A7047B2F1465F0AD2DFED3E7AA0
:1089600070EE277AB7EE007AF4EEC77AF1EE10FADD
:108970005ADC60EE007A9FED337ADFED335A9FEDDB
:10898000336ADFED336AE7EE875A9FED327AA7EE5E
:10899000A56AE7EE866AB0EE406AA7EEA67AA7EE71
:1089A000C76AF0EE007A60EE066A36EE676AB7EEE6
:1089B000007AC6EE867A37EEC00A37EE400A704774
:1089C000264B9A427FF673AF9FED250A7047DFED85
:1089D000247A002918BFB0EE670A704710EE102AFB
:1089E000643302EBC353DFED1F7A00EE103A20EE42
:1089F000270A70471C4B9FED1D7A9FED1D6ADFED26
:108A00001D6A03EB8103D3ED007AE0EE077AB0EE46
:108A1000404AFDEEE77AB8EEE77A17EE903AA7EE15
:108A2000464A27EE267A58E730EE070A704700BF1D
:108A30001772B1421872B13E9115853F5C960B00DA
:108A400064960B004CBB31330EEADDB555B38A3862
:108A5000610B36BBABAA2A3ECAF24971B5F1CF42CF
:108A6000000000000000800D54960B003BAAB83FA8
:108A70008071313FD1F7173710EE103A33F00042D2
:108A80002ED0002B33DBB3F1FF4F40DAB3F5000FEC
:108A900034DB4FF0000C6848C3F31601084400F4BF
:108AA000000282F07E520A43DB1500EE102A7F3B63
:108AB000624A634401F10F0CF7EE007A0CEA0202FD
:108AC00030EE670A03EBD05322BBB5EE400AF1EE5D
:108AD00010FA60D1002B40F092809FED590A704748
:108AE0009FED587ADFED567A87EE270A704770EED1
:108AF000407A9FED537A87EE870A7047DFED527A0E
:108B000060EE277A6FF0180C17EE903AC3E730EE5C
:108B1000000A7047F0EE007A70EE277A07EE103AFE
:108B200080EE274A4948C1F55712084402F52272DF
:108B30000243002A9FED463ADFED464ADFED465AF2
:108B4000DFED463A9FED465ADFED467ADFED466AA5
:108B500024EE046AF8EEC72A26EE067AE7EE034A08
:108B6000A7EE235AE4EE875AE5EE076AE5EE877A28
:108B700067EE867AE6EE877A2ADDB6EE007A20EE98
:108B8000077A27EE007A4BBB77EE877AA7EEC47A96
:108B900030EE470A7047B6EE007ADFED346AF0EE49
:108BA000477AE0EE667A20EE007A27EE277A002BED
:108BB000EED007EE903A9FED2E6ADFED2E6AF8EECA
:108BC000E77AA7EEC67A37EE400A97EEA60A704714
:108BD00013BB70EE677AA7EEC40A7047DFED246A14
:108BE0009FED246A77EE877A62EEA66AE7EE846AE2
:108BF00037EE667A37EE400A92EE860A704707EE45
:108C0000903A9FED1B0A9FED1B7AF8EEE77A27EE6C
:108C1000800AA7EE870A70479FED157ADFED156A87
:108C200070EE677A27EE627AA7EE847A37EE400A12
:108C300092EEA60A704700BF20FB4A00F0FF7F00BB
:108C400000000000000000CC0000004C305CCFFFB2
:108C50009788173E25333A3E2549923E4FD01C3E19
:108C6000298E633EABAA2A3FCDCCCC3EABAAAA3E0E
:108C7000D1F717378071313F08B510EE103A33F055
:108C800000422DED028B2BD0002B32DBB3F1FF4FD6
:108C900041DAB3F5000F35DB0021DA157F3A0A44DB
:108CA000D10FC1F17F0102EBD272C3F3160307EEBD
:108CB000902A43EAC15300EE103AB8EEE78AFFF774
:108CC000DBFEDFED177A9FED177A20EE270ADFED46
:108CD000167AA8EE070AA8EE270ABDEC028B08BD9B
:108CE000BDEC028B9FED117ADFED117A87EE270A3A
:108CF00008BDBDEC028B70EE407A9FED0D7A87EED9
:108D0000870A08BDDFED0B7A60EE277A6FF0180155
:108D100017EE903AC1E7BDEC028B30EE000A08BDB9
:108D2000D95BDE3EDB27543580209A3E000000CC24
:108D3000000000000000004CB1EEC00A704700BF08
:108D400051EC100B10EE102A21F0004343EC102BD5
:108D5000704700BF82B08DED000B019840F00040DD
:108D600000F58010C00F02B0704700BF0000000087
:108D70009FED010B704700BF000000000000F87F6E
:108D8000F0B553EC102BC3F30A5CACF2FF3113299E
:108D900010EE100A83B01C464FEAD37E3ADC00295D
:108DA00030DB424D45FA01FC03EA0C0515432DD09A
:108DB00003EA5C0318434FEA5C0C0CD024EA0C0C69
:108DC0004FF48024132944FA01F10CBF4FF0004006
:108DD00000204CEA0104364901EBCE0E2346DEE9C1
:108DE0000045024629462046FBF720F9CDE900015F
:108DF000DDE9000122462B46FBF716F941EC100B8A
:108E000003B0F0BD23F00041114324D143EC102BFB
:108E100003B0F0BD332908DDB1F5806FF6D11946F6
:108E2000FBF704F941EC100BF2E7ACF2134C4FF0F6
:108E3000FF3121FA0CF10A42E8D010EA51024FEA60
:108E40005103C8D020EA03034FF0804040FA0CFCE5
:108E500043EA0C00BFE7C3F313031843144A434229
:108E6000034302EBCE0E1B0B620C03F400235204EF
:108E700043EA02073B46DEE9006710EE102A30465F
:108E80003946FBF7D3F8CDE9000132463B46DDE930
:108E90000001FBF7C9F804F0004421F0004102464C
:108EA00041EA040343EC102B03B0F0BDFFFF0F00B9
:108EB00070960B000000000038B553EC102BC3F384
:108EC0000A5104469C4689BB10EE101A23F0004C50
:108ED0005CEA010129D0194600223D4B3D4D10EEC0
:108EE000100AFBF759FAAC4202460B4616DB8C46D9
:108EF000C1F30A513639214440F2FE70814221DC2F
:108F0000002947DC11F1350F34DA4CF250318C4234
:108F100018DC002B26A1D1E9000144DB24A3D3E90E
:108F20000023FBF739FA41EC100B38BD40F2FF701B
:108F30008142E0D110EE100A1946FBF777F841ECB8
:108F4000100B38BD002B1CA1D1E9000107DB1AA3CF
:108F5000D3E90023FBF720FA41EC100B38BD18A130
:108F6000D1E9000114A3D3E90023FBF715FA41EC82
:108F7000100BF3E72CF0FF4C2CF4E00C36314CEAEC
:108F80000153104619460022134BFBF705FA41EC3A
:108F9000100B38BD2CF0FF4C2CF4E00C4CEA0153C4
:108FA00043EC102B38BD08A1D1E90001B6E700BFA2
:108FB00059F3F8C21F6EA5019C7500883CE4377E0A
:108FC0009C7500883CE437FE59F3F8C21F6EA581FA
:108FD00000005043B03CFFFF0000903C82B08DED9C
:108FE000010A019820F00040B0F1FF4FACBF002013
:108FF000012002B0704700BF9FED010A704700BF1B
:109000000000C07F002301461A46184600F07AB8D7
:1090100010B501390244904201D1002005E00378E7
:1090200011F8014FA34201D0181B10BD0130F2E727
:109030000A44914200F1FF3300D1704710B511F896
:10904000014B03F8014F9142F9D110BD884210B590
:1090500001EB020402D98442234607D8431EA142F1
:1090600008D011F8012B03F8012FF8E7024401465C
:109070008A4200D110BD13F8014D02F8014DF7E707
:1090800002440346934200D1704703F8011BF9E7FD
:1090900038B5104B1D68AB6B0446B3B91820FCF70C
:1090A000F3FA0246A86320B90B4B0C484221FCF7A7
:1090B00013FB0B490B4BC0E900130B4B83600B23D5
:1090C000838100210120C2E90401AB6B00221C61F5
:1090D0005A6138BDE4E5032080960B0097960B009B
:1090E0000E33CDAB34126DE6ECDE050010B5024652
:1090F00001448A42134603D01C780132002CF8D177
:10910000181A10BD2DE9F843DFF8B8800646D8F8E4
:1091100000001F460D46914600F056F8254B1C688E
:1091200034B9254C1C60254B13B11B68C4F888303A
:1091300063681F2B07DDD8F8000000F047F84FF0F8
:10914000FF30BDE8F8834EB3D4F8880088B91C4BD3
:1091500023B9D8F8000000F038F8F0E74FF4847035
:10916000FCF792FA0028F4D00023C0E94033C4F899
:109170008800636840F8239001229A4000EB830145
:10918000D0F800311343C0F80031022EC1F88070CE
:1091900002BFD0F804311343C0F804316368D8F833
:1091A00000005A1C0233626044F8235000F00EF8AD
:1091B0000020C6E7E8E703205CE70320000000008A
:1091C00089560B0048E6032070477047704700003F
:1091D000000000000000FB349B5F80000080001056
:1091E00000000000000000004D4A0B00894A0B00FF
:1091F000B14A0B00B54A0B0000000000436C6179D6
:10920000746F6E5F4E6F64655F54776F0048656C76
:109210006C6F2C20576F726C6421002C09000D0AB2
:10922000006C6967687400736F756E6400646973BD
:1092300074616E6365000000000000000000000023
:1092400057570B004D570B0043570B0039570B0076
:109250002D570B0021570B00D9720B00E1720B0048
:1092600015570B000D570B0003570B00F9560B0059
:1092700011730B00417373657274696F6E46616997
:109280006C7572652066616C736500776972696ED2
:10929000672E626C65005374617274206469736335
:1092A0006F766572696E6720736572766963657340
:1092B0002E00417373657274696F6E4661696C75D7
:1092C00072652068616C5F626C655F737461636B6B
:1092D0005F696E6974286E756C6C70747229203DBC
:1092E0003D2053595354454D5F4552524F525F4EA6
:1092F0004F4E450050656572206465766963652050
:109300006973206D697373696E6721004661696CCA
:10931000656420746F20617070656E64207065658F
:10932000722043656E7472616C2064657669636552
:109330002E00436F6E6E65637465640044697363E9
:109340006F6E6E6563746564004475706C6963610B
:1093500074656420636861726163746572697374B3
:1093600069632063616E6E6F74206265206164645E
:1093700065642E004661696C656420746F206170BD
:1093800070656E64206C6F63616C206368617261EC
:109390006374657269737469632E000000000000D5
:1093A0000000000095580B00F9580B00DF590B0026
:1093B00023590B0099580B0000000000000000002A
:1093C00091580B0007590B0093580B0029590B00BB
:1093D000B9580B0000000000000000008F580B007F
:1093E00015590B008D600B002F590B00D9580B003D
:1093F00000000000000000007BE327747BF815AC40
:10940000DD49A913000072F5FB349B5F80000080EA
:1094100000100000000000006E616E00696E6600C2
:109420006F7666006170700025592D256D2D2564BD
:109430005425483A254D3A2553257A0061736374C3
:10944000696D65000000000000000000FD6E0B006B
:10945000ED6E0B00EF6E0B0000000000000000003E
:10946000E36F0B004B700B0021700B00056B0B00C2
:1094700013700B00E56F0B00F56F0B0045700B00D0
:1094800005700B00DD6F0B00000000000000000005
:10949000E5700B0051710B0029710B00056B0B007F
:1094A000F9700B0015710B0007710B0023710B0095
:1094B000E7700B00EB700B000000000000000000E4
:1094C00089710B00D3710B00AB710B008B710B001A
:1094D000B3710B00BB710B00C3710B00CB710B00A0
:1094E00000000000000000007B720B0071720B0096
:1094F00067720B001D720B005B720B004F720B004A
:10950000D9720B00E1720B0043720B003B720B002F
:1095100031720B0027720B0011730B00000000006A
:109520000000000099720B00A3720B00AD720B00DB
:10953000B7720B00C1720B00CD720B00D9720B0019
:10954000E1720B00E9720B00F5720B00FD720B006B
:1095500007730B0011730B0000537431395F5370A4
:109560005F6D616B655F7368617265645F7461678D
:1095700000000000B4950B0059950B0014960B00E9
:1095800088950B0038960B004E31305F5F6378781A
:10959000616269763131375F5F636C6173735F74E9
:1095A0007970655F696E666F45000000000000001D
:1095B0007C950B00A1760B00B5760B0049780B006B
:1095C00049780B001F770B0061760B0007770B00C3
:1095D000C9760B0093760B0014960B00E4950B00F4
:1095E0007C950B004E31305F5F63787861626976FD
:1095F0003132305F5F73695F636C6173735F74797D
:1096000070655F696E666F45000000000000000035
:10961000D8950B0049770B005D770B0049780B005C
:1096200049780B001F770B0061760B001D780B004B
:10963000A9770B0071770B00B4950B0040960B00D7
:10964000537439747970655F696E666F000000004D
:10965000000000000000003F000000BF8071313FAB
:10966000807131BFD1F71737D1F717B7000000006D
:10967000000000000000304300000000000030C384
:109680005245454E54206D616C6C6F632073756359
:10969000636565646564002F6D6E742F776F726B00
:1096A00073706163652F776F726B73706163652F81
:1096B0004743432D31302D706970656C696E652F9D
:1096C0006A656E6B696E732D4743432D31302D7083
:1096D0006970656C696E652D34385F3230323031B7
:1096E0003132345F313630363138303634312F73E1
:1096F00072632F6E65776C69622F6E65776C696235
:109700002F6C6962632F7374646C69622F72616E6F
:10971000642E6300BD500B0061570B0089570B008E
:10972000F56A0B007D6D0B008D6D0B00A96D0B00B4
:0897300085720B00E9730B00C8
:10973800040000001400000003000000474E55001C
:1097480071B9C6E2E5E054D546EB5312973E80C99D
:0497580048A877DACC
:10975C003C940B00FF000000E8E503200000000033
:10976C0000000000000000000000000000000000ED
:10977C0000000000000000000000000000000000DD
:10978C0000000000000000000000000000000000CD
:10979C0000000000000000000000000000000000BD
:1097AC0000000000000000000000000000000000AD
:1097BC00000000000000000000000000ECE70320A7
:0497CC000000000099
:1097D60000000102030405060708090A0B0C0D0E1A
:1097E6000F101112131415161718191A1B1C1D1E0B
:0497F6001F20280008
:0497FA007856341257
:04000003B0004020E9
:00000001FF
