:02000002B0004C
:1040000000400B00A67E0B00000006000C0005021D
:084010000401B61400000000D9
:04401800BC710B006C
:1040200081F0004102E000BF83F0004330B54FEA69
:1040300041044FEA430594EA050F08BF90EA020FD6
:104040001FBF54EA000C55EA020C7FEA645C7FEA69
:10405000655C00F0E2804FEA5454D4EB5555B8BF8C
:104060006D420CDD2C4480EA020281EA030382EAFD
:10407000000083EA010180EA020281EA0303362D8F
:1040800088BF30BD11F0004F4FEA01314FF4801C62
:104090004CEA113102D0404261EB410113F0004F74
:1040A0004FEA03334CEA133302D0524263EB43032B
:1040B00094EA050F00F0A780A4F10104D5F1200EC9
:1040C0000DDB02FA0EFC22FA05F2801841F1000124
:1040D00003FA0EF2801843FA05F359410EE0A5F1F8
:1040E00020050EF1200E012A03FA0EFC28BF4CF029
:1040F000020C43FA05F3C01851EBE37101F00045DF
:1041000007D54FF0000EDCF1000C7EEB00006EEBEB
:104110000101B1F5801F1BD3B1F5001F0CD3490875
:104120005FEA30004FEA3C0C04F101044FEA4452CC
:1041300012F5800F80F09A80BCF1004F08BF5FEA53
:10414000500C50F1000041EB045141EA050130BD33
:104150005FEA4C0C404141EB0101013C28BFB1F545
:10416000801FE9D291F0000F04BF01460020B1FA90
:1041700081F308BF2033A3F10B03B3F120020CDA63
:104180000C3208DD02F1140CC2F10C0201FA0CF041
:1041900021FA02F10CE002F11402D8BFC2F1200CA6
:1041A00001FA02F120FA0CFCDCBF41EA0C0190405C
:1041B000E41AA2BF01EB0451294330BD6FEA0404A5
:1041C0001F3C1CDA0C340EDC04F11404C4F1200290
:1041D00020FA04F001FA02F340EA030021FA04F3A2
:1041E00045EA030130BDC4F10C04C4F1200220FAF9
:1041F00002F001FA04F340EA0300294630BD21FA37
:1042000004F0294630BD94F0000F83F4801306BFFC
:1042100081F480110134013D4EE77FEA645C18BFF0
:104220007FEA655C29D094EA050F08BF90EA020F87
:1042300005D054EA000C04BF1946104630BD91EA7F
:10424000030F1EBF0021002030BD5FEA545C05D182
:104250004000494128BF41F0004130BD14F58004C1
:104260003CBF01F5801130BD01F0004545F0FE4135
:1042700041F470014FF0000030BD7FEA645C1ABF6A
:10428000194610467FEA655C1CBF0B46024650EAA1
:10429000013406BF52EA033591EA030F41F40021CD
:1042A00030BD00BF90F0000F04BF0021704730B553
:1042B0004FF4806404F132044FF000054FF0000128
:1042C00050E700BF90F0000F04BF0021704730B5E9
:1042D0004FF4806404F1320410F0004548BF4042BE
:1042E0004FF000013EE700BF42004FEAE2014FEA13
:1042F00031014FEA02701FBF12F07F4393F07F4FEE
:1043000081F06051704732F07F4208BF704793F0F0
:104310007F4F04BF41F40021704730B54FF4607403
:1043200001F0004521F000411CE700BF50EA010206
:1043300008BF704730B54FF000050AE050EA0102AF
:1043400008BF704730B511F0004502D5404261EB1F
:1043500041014FF4806404F132045FEA915C3FF460
:10436000D8AE4FF003025FEADC0C18BF03325FEAFD
:10437000DC0C18BF033202EBDC02C2F1200300FAAE
:1043800003FC20FA02F001FA03FE40EA0E0021FAD3
:1043900002F11444BDE600BF70B54FF0FF0C4CF4C1
:1043A000E06C1CEA11541DBF1CEA135594EA0C0F73
:1043B00095EA0C0F00F0DEF82C4481EA030621EAAE
:1043C0004C5123EA4C5350EA013518BF52EA0335E9
:1043D00041F4801143F4801338D0A0FB02CE4FF09B
:1043E0000005E1FB02E506F00042E0FB03E54FF0CB
:1043F0000006E1FB03569CF0000F18BF4EF0010EC3
:10440000A4F1FF04B6F5007F64F5407404D25FEABE
:104410004E0E6D4146EB060642EAC62141EA555171
:104420004FEAC52040EA5E504FEACE2EB4F1FD0CB3
:1044300088BFBCF5E06F1ED8BEF1004F08BF5FEA31
:10444000500E50F1000041EB045170BD06F00046E3
:1044500046EA010140EA020081EA0301B4EB5C0490
:10446000C2BFD4EB0C0541EA045170BD41F4801188
:104470004FF0000E013C00F3AB8014F1360FDEBFAD
:10448000002001F0004170BDC4F10004203C35DA89
:104490000C341BDC04F11404C4F1200500FA05F30C
:1044A00020FA04F001FA05F240EA020001F00042AD
:1044B00021F0004110EBD37021FA04F642EB060123
:1044C0005EEA430E08BF20EAD37070BDC4F10C044D
:1044D000C4F1200500FA04F320FA05F001FA04F211
:1044E00040EA020001F0004110EBD37041F10001FD
:1044F0005EEA430E08BF20EAD37070BDC4F1200508
:1045000000FA05F24EEA020E20FA04F301FA05F26F
:1045100043EA020321FA04F001F0004121FA04F217
:1045200020EA020000EBD3705EEA430E08BF20EAE7
:10453000D37070BD94F0000F0FD101F00046400021
:1045400041EB010111F4801F08BF013CF7D041EAA3
:10455000060195F0000F18BF704703F000465200A7
:1045600043EB030313F4801F08BF013DF7D043EA78
:104570000603704794EA0C0F0CEA135518BF95EA2E
:104580000C0F0CD050EA410618BF52EA4306D1D1B5
:1045900081EA030101F000414FF0000070BD50EAD4
:1045A000410606BF1046194652EA430619D094EA5E
:1045B0000C0F02D150EA013613D195EA0C0F05D148
:1045C00052EA03361CBF104619460AD181EA03019C
:1045D00001F0004141F0FE4141F470014FF0000054
:1045E00070BD41F0FE4141F4780170BD70B54FF0EF
:1045F000FF0C4CF4E06C1CEA11541DBF1CEA13556F
:1046000094EA0C0F95EA0C0F00F0A7F8A4EB050450
:1046100081EA030E52EA03354FEA013100F0888047
:104620004FEA03334FF0805545EA131343EA126310
:104630004FEA022245EA111545EA10654FEA0026C5
:104640000EF000419D4208BF964244F1FD0404F57E
:10465000407402D25B084FEA3202B61A65EB0305DA
:104660005B084FEA32024FF480104FF4002CB6EB97
:10467000020E75EB030E22BFB61A754640EA0C0017
:104680005B084FEA3202B6EB020E75EB030E22BF57
:10469000B61A754640EA5C005B084FEA3202B6EB98
:1046A000020E75EB030E22BFB61A754640EA9C0057
:1046B0005B084FEA3202B6EB020E75EB030E22BF27
:1046C000B61A754640EADC0055EA060E18D04FEAE5
:1046D000051545EA16754FEA06164FEAC30343EA85
:1046E00052734FEAC2025FEA1C1CC0D111F4801F52
:1046F0000BD141EA00014FF000004FF0004CB6E74B
:1047000011F4801F04BF01430020B4F1FD0C88BFE9
:10471000BCF5E06F3FF6AFAEB5EB030C04BFB6EBF4
:10472000020C5FEA500C50F1000041EB045170BDE7
:104730000EF0004E4EEA113114EB5C04C2BFD4EB14
:104740000C0541EA045170BD41F480114FF0000E98
:10475000013C90E645EA060E8DE60CEA135594EA14
:104760000C0F08BF95EA0C0F3FF43BAF94EA0C0F17
:104770000AD150EA01347FF434AF95EA0C0F7FF48C
:1047800025AF104619462CE795EA0C0F06D152EAE0
:1047900003353FF4FDAE1046194622E750EA4106C4
:1047A00018BF52EA43067FF4C5AE50EA41047FF4D5
:1047B0000DAF52EA43057FF4EBAE12E74FF0FF3C3A
:1047C00006E000BF4FF0010C02E000BF4FF0010C0B
:1047D0004DF804CD4FEA410C7FEA6C5C4FEA430C84
:1047E00018BF7FEA6C5C1BD001B050EA410C0CBFD3
:1047F00052EA430C91EA030F02BF90EA020F002035
:10480000704710F1000F91EA030F58BF994208BF9B
:1048100090422CBFD8176FEAE37040F00100704758
:104820004FEA410C7FEA6C5C02D150EA013C07D1AF
:104830004FEA430C7FEA6C5CD6D152EA033CD3D0FA
:104840005DF8040B704700BF8446104662468C46F4
:104850001946634600E000BF01B5FFF7B7FF002827
:1048600048BF10F1000F01BD4DF808EDFFF7F4FF50
:104870000CBF012000205DF808FB00BF4DF808EDDB
:10488000FFF7EAFF34BF012000205DF808FB00BFFE
:104890004DF808EDFFF7E0FF94BF012000205DF820
:1048A00008FB00BF4DF808EDFFF7CEFF94BF0120D5
:1048B00000205DF808FB00BF4DF808EDFFF7C4FFCE
:1048C00034BF012000205DF808FB00BF4FEA410C17
:1048D0007FEA6C5C02D150EA013C0AD14FEA430CFA
:1048E0007FEA6C5C02D152EA033C02D14FF0000037
:1048F00070474FF0010070474FEA410212F5001275
:1049000015D211D56FF47873B3EB625212D94FEA16
:10491000C12343F0004343EA505311F0004F23FA00
:1049200002F018BF404270474FF00000704750EA55
:10493000013005D111F0004008BF6FF00040704712
:104940004FF00000704700BF4A0011D212F500126C
:1049500011D20DD56FF47873B3EB62520ED44FEAD7
:10496000C12343F0004343EA505323FA02F0704757
:104970004FF00000704750EA013002D14FF0FF3095
:1049800070474FF0000070474FEA4102B2F1E04338
:1049900024BFB3F5001CDCF1FE5C0DD901F0004C26
:1049A0004FEAC0024CEA5070B2F1004F40EB830076
:1049B00008BF20F00100704711F0804F21D113F1A2
:1049C0003872BCBF01F00040704741F480114FEADB
:1049D0005252C2F11802C2F1200C10FA0CF320FA64
:1049E00002F018BF40F001004FEAC1234FEAD32381
:1049F00003FA0CFC40EA0C0023FA02F34FEA4303EB
:104A0000CCE77FEA625307D150EA01331EBF4FF073
:104A1000FE4040F44000704701F0004040F0FE408E
:104A200040F40000704700BF80F0004002E000BF8B
:104A300081F0004142001FBF5FEA410392EA030F89
:104A40007FEA226C7FEA236C6AD04FEA1262D2EBD3
:104A50001363C1BFD218414048404140B8BF5B42D8
:104A6000192B88BF704710F0004F40F4000020F071
:104A70007F4018BF404211F0004F41F4000121F087
:104A80007F4118BF494292EA030F3FD0A2F10102D1
:104A900041FA03FC10EB0C00C3F1200301FA03F10F
:104AA00000F0004302D5494260EB4000B0F5000F32
:104AB00013D3B0F1807F06D340084FEA310102F1F1
:104AC0000102FE2A51D2B1F1004F40EBC25008BFA3
:104AD00020F0010040EA03007047490040EB00006D
:104AE000013A28BFB0F5000FEDD2B0FA80FCACF16E
:104AF000080CB2EB0C0200FA0CF0AABF00EBC2509B
:104B000052421843BCBFD0401843704792F0000F88
:104B100081F4000106BF80F400000132013BB5E7DB
:104B20004FEA41037FEA226C18BF7FEA236C21D051
:104B300092EA030F04D092F0000F08BF08467047B6
:104B400090EA010F1CBF0020704712F07F4F04D184
:104B5000400028BF40F00040704712F100723CBF97
:104B600000F50000704700F0004343F0FE4040F4C1
:104B7000000070477FEA226216BF08467FEA23637F
:104B80000146420206BF5FEA412390EA010F40F46A
:104B9000800070474FF0000304E000BF10F00043B6
:104BA00048BF40425FEA000C08BF704743F096439D
:104BB00001464FF000001CE050EA010208BF7047B8
:104BC0004FF000030AE000BF50EA010208BF70473F
:104BD00011F0004302D5404261EB41015FEA010C54
:104BE00002BF84460146002043F0B64308BFA3F14C
:104BF0008053A3F50003BCFA8CF2083AA3EBC2532E
:104C000010DB01FA02FC634400FA02FCC2F120024C
:104C1000BCF1004F20FA02F243EB020008BF20F083
:104C20000100704702F1200201FA02FCC2F12002E9
:104C300050EA4C0021FA02F243EB020008BF20EADE
:104C4000DC707047034613F8012B002AFBD1181AB9
:104C50000138704709480A49884208B505D0094A11
:104C6000824202D0121A02F0FFF90748074A0021D7
:104C7000121A02F007FA014808BD00BF04DA032047
:104C8000F8790B0084DE032088DE0320F4E703209C
:104C900070B5074E074C01F03BFCA41BA40800258F
:104CA000AC4200D170BD56F8043B98470135F7E798
:104CB000AC790B00D4790B0000F02CB808B500F0EB
:104CC00013F9BDE8084001F0DBBB01F023B901F0A6
:104CD00029B9000008B5034A03490C2001F086F801
:104CE000FEE700BF8D5B0B00D0710B000078B0FABF
:104CF00080F04009704701230370704708B500F049
:104D00004DFF034902460023C1E9002308BD00BF4F
:104D1000B0E6032013B500244FF0FF3322461D49AF
:104D20000094052001F020FD2146052001F024FF1C
:104D300002F006F801F0DEFD3C220221164800F0E8
:104D40002BFC154800F0B8FB134800F03DFB12485F
:104D5000012100F0A2FE1048012100F0A3FE22462E
:104D60000D48214600F096FE0C490B4801F049FA27
:104D7000094800F0A1FB084800F026FB084B4FF45F
:104D800000620134B4F5007F43F8042BF9D102B07E
:104D900010BD00BFFD4C0B0088E60320E5710B0041
:104DA00088DE032008B500F0F9FE074BD3E90023A5
:104DB000801A63EB4303B0F57A7F73F1000334BFCD
:104DC0000120002008BD00BFB0E603200000000065
:104DD0002DE9F041284E2DED028B0027B0463C46D0
:104DE0003D46132001F0F2FE0137041945F100059C
:104DF000B7F5007F48F8040BF3D1640A9FED1F8AD2
:104E000044EAC55400276D0A56F8040B001B65EBF5
:104E100045034343A0FB000101EB4301FFF7CCFE38
:104E2000013707EE900AB7F5007F38EE278AEBD1FD
:104E30009FED130A28EE000A01F0DEFF10EE100AC3
:104E4000FFF752FA08A3D3E90023FFF7EDF808A310
:104E5000D3E90023FFF7CAFBFFF796FDBDEC028BF9
:104E600000EE100ABDE8F081931804560EAD034021
:104E70005E4BC8073D9BF33F88DE03200000000027
:104E80000000003B0000000008B501F07FFF10EEBD
:104E9000100AFFF729FA08A3D3E90023FFF77CFAE9
:104EA00007A3D3E90023FFF7C1F8FFF76DFD00EE7C
:104EB000100A08BDAFF3008033333333333324405B
:104EC0000C022B8716393A4008B5112001F07EFEFE
:104ED00040F6E443584348BF00F6FF70031300EE6A
:104EE000103AB8EEC00A08BD10B52DED028BFFF7E1
:104EF0006FFFF0EE408AFFF7E7FF0924B0EE408A2B
:104F0000FFF7E2FF013C38EE008AF9D1344800F0A7
:104F10005BFA22463248214600F0BCFD3149304858
:104F200001F06FF9B0EE680AFFF7AEFF02212C48DE
:104F300001F058FA2C492A4801F063F92B49284816
:104F400001F05FF9F2EE047AC8EE277A17EE900AC4
:104F5000FFF7CAF91EA3D3E90023FFF71DFA1EA32A
:104F6000D3E90023FFF762F8FFF70EFD022100EE00
:104F7000100A08EE100A1A4801F034FA1C491848C1
:104F800001F03FF9FFF70EFF18B11A49144801F07C
:104F900038F9134800F090FAF3EE047AB4EEE78A99
:104FA000F1EE10FA07D50021BDEC028B0220BDE81E
:104FB000104001F022BEF3EE087AB4EEE78AF1EE7B
:104FC00010FA4CBF8021FF21EEE700BFAFF3008055
:104FD00062105839B4C8A63FA01A2FDD24462A40D3
:104FE00088E60320F1710B00F6710B00FB710B00DA
:104FF00006720B0009720B0002484FF0FF3100F0FF
:10500000CDB900BF88E6032008B500F067FD014B6D
:10501000186008BDB8E60320F0B5457EBDF8144021
:10502000022D69D0032D00F09980012D6CD10589E6
:10503000D2432A4412B2002A5DDBB0F908509542EF
:1050400059DD0029BEBF5B181BB20021B0F90A0070
:10505000CD188542C4BF431A1BB2002B4BDDC1F3F0
:10506000C400DFF820C102EBC01211F00701DBB26F
:105070000CEB02001AD0C1F10805404EEDB2AB4274
:10508000775D3FBFA5EB030EFF2646FA0EF63740CD
:105090001CF80260012C0CBF3E43BE43AB420CF82F
:1050A000026028D308390B44DBB28030072B19D9B2
:1050B000012C4FF0FF3518BF0025EDB200F1800143
:1050C0001A46083AD2B2072A01F8805C01F1800141
:1050D000F7D8A3F10802C2F3C402013200EBC210F8
:1050E00003F007033BB1264AD25C0378012C0CBFC6
:1050F000134393430370F0BD4589D2432A44CD182E
:105100000189491B12B209B2002AF4DBB0F90A5036
:105110009542F0DD0029BEBF5B181BB20021B0F93B
:105120000870CE18BE42C4BF6B1A1BB2002BE2DD62
:10513000D010802510FB05111248014402F0070031
:1051400001228240012CD2B20B440CD18B42D2D02E
:1051500011F8010B104301F8010CF7E7CD18418954
:10516000491B09B267E7D243D2B28B42C3D011F8D0
:10517000010B104001F8010CF7E700BF0CDA032027
:1051800004DA032014DA0320F0B5457EBDF814409C
:10519000022D34D0032D00F09B80012D37D1D5187E
:1051A0000289521B12B20029C0F29180B0F90A5054
:1051B0008D4240F38C80002ABEBF9B181BB2002298
:1051C000B0F90870D618BE42C4BFAB1A1BB2002B90
:1051D0007DDDC810802510FB05224548024401F002
:1051E000070001218140012CC9B2134475D19A42B4
:1051F0006DD012F8010B084302F8010CF7E705899E
:10520000C9432944D5184289521B09B212B2002958
:105210005DDBB0F908508D4259DD002ABEBF9B18F6
:105220001BB20022B0F90A00D5188542C4BF831A08
:105230001BB2002B4BDDC2F3C400DFF8B4C001EB9E
:10524000C01112F00702DBB20CEB01001AD0C2F160
:105250000805284EEDB2AB42775D3FBFA5EB030ECC
:10526000FF2646FA0EF637401CF80160012C0CBFF1
:105270003E43BE43AB420CF8016028D3083A1344C6
:10528000DBB28030072B19D9012C4FF0FF3518BF46
:105290000025EDB200F180011A46083AD2B2072A81
:1052A00001F8805C01F18001F7D8A3F10802C2F394
:1052B000C402013200EBC21003F007033BB10E4AF7
:1052C000D25C0378012C0CBF134393430370F0BDF1
:1052D0004589C943294409B265E7C943C9B29A421D
:1052E000F5D012F8010B084002F8010CF7E700BFF7
:1052F00014DA03200CDA032004DA032070470000DC
:10530000F8B50D1E064614461F462DDB00F0CFFBF8
:10531000A84229DD002C27DB304600F0CBFBA04261
:1053200022DD304600F0C1FB02281ED0032825D024
:10533000012804D13389E2431A442C4615B2002CCB
:105340002246B8BFE21DD210802112FB01550E4942
:10535000012204F007044B5702FA04F464B29742A6
:105360000CBF2343A3434B55F8BD318972890139E2
:10537000E4434D1B14442DB224B2E0E77389013B92
:105380005B1B25461CB2DAE714DA032010B5242192
:105390000446FFF79CFC204610BD000038B54022B3
:1053A00004460D46802100F0A7FA064B2360FF2338
:1053B00084F8213063774FF6FF73E38384F820503D
:1053C000204638BD24720B0002484FF48062002151
:1053D00001F058BE14DA032013B50B4C2178BFF34B
:1053E0005B8F11F001010BD120460191FFF77EFC8C
:1053F000019928B1054800F0F9FD2046FFF77BFC34
:10540000024802B010BD00BFBCE60320C0E6032086
:1054100007B590F8223043B10191FFF7DDFF019904
:1054200003B05DF804EB00F095BE0B46817F407F32
:10543000012203B05DF804EB01F005BC38B590F92A
:105440001D30013304460D461DD090F92100012185
:1054500080B201F0A2FB94F91F00002180B201F09C
:105460009CFB94F92100002180B201F096FB2946B3
:105470002046FFF7CDFF94F921000121BDE8384017
:1054800080B201F08ABB01F05BFC94F91B1001F0C3
:105490003BFA01F055FC036800219B68984701F036
:1054A0004FFC036829469B68984701F049FCBDE81A
:1054B000384001F030BA0000F8B521210446FFF76A
:1054C000BDFF00212046FFF7B9FF7F212046FFF7EF
:1054D000B5FF22212046FFF7B1FF00212046FFF74C
:1054E000ADFF07212046FFF7A9FF94F91D30294F92
:1054F00001332AD094F92100012180B201F04DFB43
:1055000094F91F00012180B201F047FB94F92100BA
:10551000002180B201F041FB012000F037FB4FF485
:105520008065013D17F8011B2046ADB2FFF770FF03
:10553000002DF6D1012000F029FB94F92100012172
:10554000BDE8F84080B201F028BB002501F0F8FB6F
:1055500094F91B1001F0D8F901F0F2FB0368402127
:105560009B68984705F11006B6B201F0E9FB0368A5
:10557000795D9B6898476B1C9DB2AE42F5D101F0F6
:10558000DFFB01F0C8F9B6F5806F00D1F8BD3546F4
:10559000DCE700BF14DA032038B590F91D3001773D
:1055A000013304460D46C27600F0C98090F91F0011
:1055B000012180B201F0E0FA94F92100012180B2CA
:1055C00001F0DAFA94F82230002B00F0A68094F96A
:1055D0002100012180B201F0E0FAFFF7FDFE012178
:1055E00000F022FDFFF7F8FE102100F08DFDFFF71F
:1055F000F3FE002100F02CFDFFF7EEFE00F000FDB1
:1056000094F92000012180B201F0B6FA94F920004B
:10561000012180B201F0C1FA012000F005FF94F9E8
:105620002000002180B201F0B8FA0A2000F0FCFE50
:1056300094F92000012180B201F0AFFA2046AE219A
:10564000FFF7FCFE2046D521FFF7F8FE204680211B
:10565000FFF7F4FE2046A821FFF7F0FE20463F2189
:10566000FFF7ECFE2046D321FFF7E8FE204600219D
:10567000FFF7E4FE20464021FFF7E0FE8D212046A3
:10568000FFF7DCFE012D0CBF102114212046FFF78F
:10569000D5FE20462021FFF7D1FE20460021FFF74E
:1056A000CDFE2046A121FFF7C9FE2046C821FFF705
:1056B000C5FE2046DA21FFF7C1FE20461221FFF782
:1056C000BDFE81212046FFF7B9FE012D0CBF9F21B1
:1056D000CF212046FFF7B2FED9212046FFF7AEFECC
:1056E000012D0CBF2221F1212046FFF7A7FE204605
:1056F000DB21FFF7A3FE20464021FFF79FFE204657
:10570000A421FFF79BFE2046A621FFF797FE204627
:10571000AF21BDE83840FFF791BE94F91D0001218B
:1057200080B201F029FA94F91E00012180B201F043
:1057300023FA94F82230002B3FF462AF47E701F0E0
:10574000FFFA01F0D7F85BE72DE9F04F85B01F466F
:10575000BDF93880BDF83C30A8EB0209A7EB010A7F
:10576000B9F1000FB8BFC9F10009BAF1000FB8BF15
:10577000CAF1000AD14583460C46154604DD3A4677
:105780002C4647460D469046BC4205DD2A46454616
:10579000904622463C4617463E1BB2B20092A8EB0A
:1057A000050282EAE271A1EBE271C6F3C03202FAAD
:1057B00086F64545B4BF01224FF0FF3201917610C5
:1057C0000292BC421CDCDBF800200393D145D2F8E6
:1057D0001080C7BF294622462A4621465846C04760
:1057E000019A039BB61AB1B236B2002E05DA029ABC
:1057F0001544009A56182DB236B2013424B2E0E7AF
:1058000005B0BDE8F08F2DE9F347BDF82C8007689F
:10581000BDF92890CDF800800446FF6916468A46F7
:105820001D46B8472368CDF8008009F1FF323244A5
:10583000DF6951462B46204612B2B8472368CDF89F
:1058400000809F6932464B4651462046B8476B1E42
:1058500003EB0A012368CDF828809D6932464B4648
:1058600009B22046AC4602B0BDE8F047604737B504
:10587000013B13440468BDF8185001951BB2009316
:1058800064690B46A04703B030BD37B5BDF818506A
:105890000468CDE90025013B0B4464691BB2A047B5
:1058A00003B030BD2DE9F347BDF92890BDF82C8039
:1058B000054692460C46CE18B4420BDA2B68CDF85A
:1058C00000809F6921464B46524628460134B8471E
:1058D00024B2F1E702B0BDE8F08713B50268019188
:1058E000B0F90E100091546AB0F90C300022114644
:1058F000A04702B010BD704730B54281C2814FF061
:10590000FF320024054D426101224460056001819F
:10591000818104610283827630BD00BF58770B001D
:105920002DE9F04F2DED028B8DB007460491BDF8A7
:1059300060100591BDF864100691B0F90C10049840
:105940009DF86850814252DDB7F90E1091424EDD4C
:10595000062111FB0504002C49DD02EBC504002CD7
:1059600045DD03EB83030B9393B2079308339BB29C
:10597000089100240993052C1CBF2C4B0B9A079E01
:1059800016BF1B1900239B5C0393049AABB20A93C6
:1059900004FB05F313FA82F31BB204EB020A08EED0
:1059A000103AB0460FFA85F90FFA8AFA039BDB0723
:1059B0002FD5012D3B681FD1D3F810B0059B32B213
:1059C00051463846D847039B5B0803930A9B013630
:1059D0009844099BB6B2B3421FFA88F8E6D1089BF7
:1059E000013B013413F0FF0364B20893C3D10DB03F
:1059F000BDEC028BBDE8F08F059ACDE9009218EE60
:105A0000101AD3F824B00FFA88F24B463846D8471C
:105A1000D9E7DDE905239342D5D0012D3B6803D1B9
:105A2000D3F810B0069BCAE7069AE6E754720B005B
:105A300030B50A2985B0044607D1027E638A03EB9C
:105A4000C20363820023238221E00D291FD0037E3D
:105A50000293C38A0193838A0093B0F912200B4604
:105A6000B0F91010FFF75CFF207E238A00EB4001A5
:105A700003EB4103A17E1BB20246238239B1B4F984
:105A80000C106FF0050505FB00118B42D6DC0120E0
:105A900005B030BD018242827047012938BF012123
:105AA00001767047C18281827047407E7047B0F9AD
:105AB0000C007047B0F90E007047000008B5024BAB
:105AC0001B689B68019308BD6802030008B5024B80
:105AD0001B68DB68019308BD6802030008B5024B30
:105AE0001B681B68019308BD2C02030008B5024B1C
:105AF0001B685B68019308BD2C02030008B5024BCC
:105B00001B689B68019308BD2C02030008B5024B7B
:105B10001B68DB68019308BD2C02030008B5024B2B
:105B20001B681B69019308BD2C02030008B5024BDA
:105B30001B689B69019308BD2C02030008B5024B4A
:105B40001B68DB69019308BD2C02030008B5024BFA
:105B50001B689B6A019308BD2C02030008B5024B29
:105B60001B681B6B019308BD2C02030008B5024B98
:105B70001B689B6F019308BD2C02030008B5024B04
:105B80001B685B68019308BD1802030008B5024B4F
:105B90001B68DB68019308BD1802030008B5024BBF
:105BA0001B685B69019308BD1802030008B5024B2E
:105BB0001B685B6C019308BD4802030008B5024BEB
:105BC0001B685B69019308BD6402030008B5024BC2
:105BD0001B68DB68019308BD3C02030008B5024B5B
:105BE0001B681B69019308BD3C02030008B5024B0A
:105BF0001B685B69019308BD3C02030008B5024BBA
:105C00001B689B69019308BD3C02030008B5024B69
:105C10001B68DB69019308BD3C02030008B5024B19
:105C20001B681B6A019308BD3C02030008B5024BC8
:105C30001B689B6A019308BD3C02030008B5024B38
:105C40001B681B6C019308BD3C02030008B5024BA6
:105C50001B68DB68019308BD2802030008B5024BEE
:105C60001B689B69019308BD2802030008B5024B1D
:105C70001B68DB69019308BD2802030008B5024BCD
:105C80001B681B6A019308BD2802030008B5024B7C
:105C90001B685B6A019308BD2802030008B5024B2C
:105CA0001B689B6A019308BD2802030008B5024BDC
:105CB0001B68DB6A019308BD2802030008B5024B8C
:105CC0001B681B6B019308BD2802030008B5024B3B
:105CD0001B685B6B019308BD2802030008B5024BEB
:105CE0001B681B6C019308BD2802030008B5024B1A
:105CF0001B681B68019308BD3002030008B5024B06
:105D00001B689B68019308BD3002030008B5024B75
:105D10001B68DB68019308BD3002030008B5024B25
:105D20001B681B69019308BD3002030008B5024BD4
:105D30001B685B69019308BD3002030008B5024B84
:105D40001B68DB69019308BD3002030008B5024BF4
:105D50001B681B6A019308BD3002030008B5024BA3
:105D60001B685B6A019308BD3002030008B5024B53
:105D70001B681B6C019308BD3002030008B5024B81
:105D80001B685B6C019308BD3002030008B5024B31
:105D90001B681B68019308BD4C02030008B5024B49
:105DA0001B681B69019308BD4C02030008B5024B38
:105DB0001B685B69019308BD4C02030008B5024BE8
:105DC0001B689B69019308BD4C02030008B5024B98
:105DD0001B68DB69019308BD4C02030008B5024B48
:105DE0001B681B6A019308BD4C02030008B5024BF7
:105DF0001B685B6B019308BD6002030008B5024B92
:105E00001B685B68019308BD2002030008B5024BC4
:105E10001B685B69019308BD2002030008B5034BB2
:105E20001B68D3F88830019308BD000020020300EE
:105E300008B5034B1B68D3F89430019308BD0000EC
:105E40002002030008B5024B1B685B68019308BD84
:105E50004002030008B5024B1B689B68019308BD14
:105E60004002030008B5024B1B68DB68019308BDC4
:105E70004002030008B5024B1B681B69019308BD73
:105E80004002030008B5024B1B685B69019308BD23
:105E90004002030008B5024B1B689B69019308BDD3
:105EA0004002030008B5024B1B68DB69019308BD83
:105EB0004002030008B5024B1B681B6A019308BD32
:105EC0004002030008B5024B1B681B6B019308BD21
:105ED0004002030008B5024B1B685B6B019308BDD1
:105EE0004002030008B5024B1B681B6C019308BD00
:105EF0004002030008B5024B1B685B6C019308BDB0
:105F00004002030008B5024B1B68DB6B019308BD20
:105F10004402030008B5024B1B681B68019308BDCF
:105F20001C02030008B5024B1B685B68019308BDA7
:105F30001C02030008B5024B1B68DB6B019308BD14
:105F40001C02030008B5024B1B681B6C019308BDC3
:105F50001C02030008B5024B1B685B6C019308BD73
:105F60001C020300002240681146FFF7A3BF002275
:105F700040681146FFF7AEBF40680022FFF7A2BF9E
:105F80004068002281F00101FFF78CBF00234068C8
:105F90001A461946FFF77EBF002340681A46194685
:105FA000FFF770BF002240681146FFF763BF002271
:105FB00040681146FFF74EBF406800220221FFF7FC
:105FC00051BF002340681A46FFF73CBF024B032233
:105FD0005A60024A1A607047C8E6032090770B00A7
:105FE0000021FFF7CBBE0021FFF7C0BE10B504466D
:105FF00008462170FFF7A2FE00236360204610BD13
:1060000013B504460078FFF7EEFF58B920780190E9
:106010004FF6FF71FFF76AFE019802B0BDE810402D
:10602000FFF7DEBF02B010BD13B504460078019142
:10603000FFF7D9FF019948B920780190FFF75EFE7C
:10604000019802B0BDE81040FFF7CABF02B010BD12
:1060500013B5044600780191FFF7C5FF019948B9CF
:1060600020780190FFF752FE019802B0BDE8104081
:10607000FFF7B6BF02B010BD400830B5186000246D
:1060800018688842E5B206D90134082C02D04008CD
:106090001860F5E70725024B5B5D137030BD00BF4C
:1060A000C4770B002DE9F04188B000230446007846
:1060B00002930E461746FFF796FF054600BB94F87D
:1060C00000800146142203A800F0DCFF0B232A46BF
:1060D00003A94046ADF80C30FFF740FE04988DF858
:1060E000075002AB0DF1070207FB06F1FFF7C4FFF3
:1060F00020789DF80710FFF711FE2078FFF770FF5A
:10610000029808B0BDE8F08138B5044600780D4625
:10611000FFF769FF0346D0B9616899B10C4A12F8DC
:10612000010B854202D00133082BF8D10133DBB2D9
:106130000122D9402046FFF7B5FF2078BDE838405E
:10614000FFF74EBF20782946FFF7E8FDF5E738BD99
:10615000C4770B0008B50078FFF7E8FDC0B208BDB2
:10616000054B02221A60054B054A9A600020C3E9DC
:106170000000FFF743BE00BFDCE60320D0E60320AB
:106180000000FFFF024800230360FFF70FBD00BFC0
:10619000E0E60320F8B506460D468F180024BD4200
:1061A0000CD0336815F8011B9B6830469847031ED6
:1061B00001DB1C44F3E7002C08BF1C462046F8BD59
:1061C00013B50446084659B10191FEF73BFD23681B
:1061D0000199DB680246204602B0BDE8104018472E
:1061E00002B010BD03689B68184738B50D210546FD
:1061F000FFF7F8FF0A2104462846FFF7F3FF204483
:1062000038BD38B50546FFF7DBFF04462846FFF7E3
:10621000ECFF204438BD30B58BB00023012A8DF847
:10622000243098BF0A2209AC0D46B1FBF2F101FB04
:10623000125303F0FF03092B94BF30333733DBB223
:10624000AA4204F8013DEFD92146FFF7B9FF0BB090
:1062500030BD00002DE9F74F55EC104B06460F46B8
:1062600010EE102A10EE100A2B462946FEF72EFBE0
:1062700040B153493046FFF7A3FF8246504603B072
:10628000BDE8F08F25F000494E4B4FF0FF3220461D
:106290004946FEF71BFB48B94A4B4FF0FF322046F8
:1062A0004946FEF7F5FA08B94749E3E7474B4FF08F
:1062B000604220462946FEF7FFFA08B14449D9E773
:1062C000444B4FF0604220462946FEF7D7FA00289B
:1062D000F4D10022002320462946FEF7CFFAD0B1A0
:1062E0002D213046FFF77EFF05F1004382461D4613
:1062F0003949DFF8EC904FF0000B00204FF0000818
:106300005FFA8BF39F4208D942464B46FEF76EF97F
:106310000BF1010BF4E78246EAE722462B46FDF734
:1063200085FE0D460446FEF70FFB8046FDF7BAFFDB
:1063300002460B4620462946FDF776FE0A22044611
:106340000D4630464146FFF766FF8244002F95D048
:106350002249DFF88C903046FFF732FF4FF00008FB
:106360008244002F8AD042464B4620462946FEF7FB
:1063700013F804460D46FEF7BFFAB0F1000B1CDA25
:106380002D213046FFF72EFFCBF1000103460A22F4
:1063900030460193FFF73FFF019B18448244584663
:1063A000FDF790FF02460B4620462946FDF73CFECE
:1063B000013F04460D46FFB2D3E759460023E6E706
:1063C000CC770B00FFFFEF7FD0770B00FFFFEF4193
:1063D000D4770B00FFFFEFC10000E03FD8770B0040
:1063E0000000244038B5044610EE100ACDB2FDF787
:1063F0007BFF41EC100B29462046BDE83840FFF7F3
:1064000029BF0000014B024A1A607047E4E60320EE
:10641000DA770B00024B1A68024B1A60704700BF14
:1064200014DE0320E8E603200021FFF7EFBC0000A4
:10643000014B00229A607047ECE60320014B186084
:10644000704700BF1CDE032008B50B4B43B100F0C2
:1064500063F903681B699847002801DDAFF30080EA
:10646000064B43B100F02CFC03681B6998470028D9
:1064700001DDAFF3008008BD000000000000000057
:1064800008B5FFF7E1FFFFF789FB014B186008BD76
:1064900044E703200548064A064908B5121A00F0E9
:1064A000E3FD054B054A1A6008BD00BF00F4032058
:1064B00004F40320787E0B0000F403201E1C279AAE
:1064C00007B5002300931A466FF07701FFF7B0FC81
:1064D00003B05DF804FB000007B543880A2B08D021
:1064E000502B0BD1094B1B684BB103B05DF804EB8B
:1064F0001847FFF7E5FF03B05DF804FB00230093A6
:106500001A466FF07701FFF793FCF4E700E70320EA
:1065100010B512480021FFF71DFD114B1A68114BF1
:106520009A42114B0CBF012200221A7001D0FFF7D2
:10653000B1FFFFF723FB044600F0ACFD0B4B13B19A
:106540002046AFF3008000210848FFF7DBFCBDE8E0
:10655000104007480021FFF761BC00BF3D640B00FD
:1065600000F403201E1C279AFCE603200000000014
:10657000D9640B00704710B518210446FEF7A7FB3D
:10658000204610BDF0B5037D062B8DB00E4600F100
:1065900004074FF0000412D000F1080515F8011DA2
:1065A0000A223046FFF737FEAF42044419D0002CD0
:1065B000F4D02E213046FFF715FE0444EEE72F23DA
:1065C0006A4639460A208DF80040FFF7F7FA684618
:1065D000FEF738FB33680246DB6869463046984769
:1065E000044620460DB0F0BD10B5054B04461122FF
:1065F00040F8043B002100F045FD204610BD00BFDF
:1066000004780B000346074A10B543F8042B01F148
:10661000100251F8044B43F8044B9142F9D10A7827
:106620001A7010BD04780B0010B59DF8084044EABC
:10663000032343EA024242EA0161042341600375F5
:1066400010BD000007B5064B0360CB7800938B7834
:106650004A780978FFF7E8FF03B05DF804FB00BF54
:1066600004780B00417470477047704708B50021EB
:10667000007CFFF7A3FB40EAE07008BD08B50121EC
:10668000007CFFF79BFB40EAE07008BD08B5007C8A
:10669000FFF78CFB20EAE07008BD08B5007CFFF72F
:1066A0007DFB20EAE07008BD13B50446007C019133
:1066B000FFF77CFB0028019901DC607C20B1207C85
:1066C000FFF784FB20EAE07002B010BD007CFFF70A
:1066D00085BB10B514210446FEF7F9FA204610BD1B
:1066E00010B54FF47A73044608460021C4E901133B
:1066F000044B23600123207463741146FFF746FBAB
:10670000204610BD18780B0010B514220446002155
:1067100000F0B8FC204610BD10B50F4C88B003A89F
:10672000FFF7F2FF2178BFF35B8F11F001010FD16A
:1067300020460191FEF7DAFA019948B103AA074809
:10674000FFF7CEFF2046FEF7D6FA054800F086FC9C
:10675000024808B010BD00BF04E7032008E703208B
:1067600069660B00004700002DE9FF4100241D462B
:106770000F4690460646FFF7E1F9A5424FF00403A5
:10678000ADF80D408DF80C308DF80F40A2BF9DF88C
:1067900028308DF80E3003AC0749009443463A4642
:1067A0003046A8BF8DF80D50FFF7C0F9B0FA80F061
:1067B000400904B0BDE8F08165670B007047417483
:1067C000704708B5007CFFF731FA20EAE07008BD99
:1067D00008B5007CFFF702FA20EAE07008BD08B5B2
:1067E000007CFFF70BFA40EAE07008BD08B5007CBA
:1067F000FFF7FCF940EAE07008BD007CFFF706BA3D
:1068000037B5457C04462DB1207C03B0BDE830404F
:10681000FFF7DCB9007C0191FFF708FA0028019925
:10682000F2DC284603B030BD10B514210446FEF753
:106830004EFA204610BD000010B54FF47A7304469E
:10684000084611460022C4E90123044B23600123BA
:1068500020746374FFF7F2F9204610BD48780B00EE
:106860007047F8B5064615460C468F18BC4206D050
:10687000336814F8011B9B6830469847F6E72846B2
:10688000F8BD007C0022FFF7F9B9007C0021FFF77A
:10689000FDB9007C0021FFF701BA007C0021FFF761
:1068A00005BA007C0021FFF709BA10B5142104468F
:1068B000FEF70DFA204610BD38B5044615464FF4D4
:1068C0007A730022C4E90123094B2174084623602E
:1068D0002946FFF703FABF3008D16B69DB0705D5FE
:1068E0006868FFF71FFBE868FFF71CFB204638BD10
:1068F00078780B000023007C1A461946FFF7A6B9EA
:10690000007C0022FFF7AAB9C9B2FFF7F9BF007CEB
:106910000022FFF7ABB90121FFF7F9BF0022406861
:106920001146FFF7A7BA002240681146FFF7C2BA26
:10693000002240681146FFF7CDBA40680022FFF7F9
:10694000C1BA4068002281F00101FFF7ABBA002311
:1069500040681A461946FFF79DBA002340681A4658
:106960001946FFF78FBA002240681146FFF772BA46
:10697000406800220221FFF775BA002340681A46DA
:10698000FFF760BA024B04225A60024A1A6070474D
:106990001CE70320A0780B00002340681A46FFF78D
:1069A00051BA406800220221FFF75CBA0022406819
:1069B0001146FFF74FBA002240681146FFF75ABA56
:1069C000002340681A461946FFF75CBA0023406866
:1069D0001A461946FFF75EBA40680021FFF782BAEF
:1069E00040680021FFF786BA4068002281F001016B
:1069F000FFF758BA40680022FFF764BA00224068E7
:106A00001146FFF767BA002240681146FFF752BAF5
:106A10002DE9F04395B014460D460746FFF7E4FD17
:106A200000211C220DA8009100F02CFB40230C93A8
:106A300020466B460CAA0021FFF748F804460028C0
:106A40004BD1024601216868FFF714FA0221804603
:106A500022466868FFF70EFA009E81462146002E06
:106A60003BD0002939D17368022B03D00A2B11D0F7
:106A7000F669F4E7B8F1000FFAD0716906A804319D
:106A800007ADFFF7DFFD0FCD3C1D0FC42B68237052
:106A90004146EDE7B9F1000FEAD07469102201A870
:106AA00000F0F0FA06238DF8143001AD04F108036C
:106AB0001834186859682A4603C20833A342154699
:106AC000F7D101A906A807ADFFF79CFD0FCD3C1D2E
:106AD0000FC42B6823704946CAE70098FEF7EEFF03
:106AE000384615B0BDE8F083024B034A1A60002215
:106AF0005A60704724E70320DC780B00232813B585
:106B000002D9002002B010BDA0F10B03022B1AD84D
:106B1000174C2178BFF35B8F11F001010BD1204698
:106B20000191FEF7E3F8019928B11248FFF75EFAE8
:106B30002046FEF7E0F80F4B1878FFF707F900281A
:106B4000DFD10120DEE7012809D800F0F9F80021A3
:106B5000007CFFF7BBF880F00100C0B2D2E7093833
:106B60000128EED800F0ACF8007CFFF757F8F2E708
:106B7000BCE60320C0E60320232838B504460D46B2
:106B80000AD8FF2908D0FFF7B9FF28B129462046C7
:106B9000BDE83840FEF7B2BF38BD38B504460D46F3
:106BA000FEF7B4FFFF2810D0062804D84D2323FA9F
:106BB00000F0C30709D42046FFF7A0FF28B12946FB
:106BC0002046BDE83840FEF7A9BF38BD0D2810B5F6
:106BD00004469CBF0E34A4B22046FFF78FFF50B18D
:106BE00003212046FEF782FF032804D12046BDE89A
:106BF0001040FEF7B3BF002010BD38B504460D4667
:106C0000FFF77CFFF0B104212046FEF76FFF042858
:106C100005D1A9B22046BDE83840FEF797BF022152
:106C20002046FEF763FF02280CD12046FEF76EFFD8
:106C3000012801D0042805D129462046BDE8384066
:106C4000FEF794BF38BD2DE9F04190461F4607245A
:106C500006460D46C4F10701B8F1000F12D147FAFC
:106C600001F101F001013046FFF797FF01212846AD
:106C7000FFF793FF00212846FFF78FFF013CE9D281
:106C8000BDE8F08147FA04F1EBE7704738B50446F8
:106C900014252A46002100F0F5F9258040250749F2
:106CA00025812846258200F06FF804496060284657
:106CB00000F06AF8E060204638BD00BF10790B0094
:106CC00030B50E4D2978BFF35B8F11F0010487B00A
:106CD00011D12846FEF70AF868B101A8FFF7D6FFE0
:106CE00001AA21460648FFF7A7FD2846FEF703F84C
:106CF000044800F0B3F9024807B030BD2CE7032088
:106D000030E703208B6C0B007047000038B50A4B4E
:106D100003600123044643610849202000F034F851
:106D2000202560600549A560284600F02DF8C4E9DB
:106D30000305204638BD00BF1800010010790B0084
:106D400030B50E4D2978BFF35B8F11F0010487B089
:106D500011D12846FDF7CAFF68B16846FFF7D6FF94
:106D60006A4621460648FFF7A7FD2846FDF7C3FF00
:106D7000044800F073F9024807B030BD48E703202B
:106D80004CE70320096D0B00FDF79FBF08B52DED03
:106D9000028BB0EE408A00F057F8144B93F90030A4
:106DA000013314D0B4EE488AF1EE10FA0FD6B5EEE6
:106DB000C08AF1EE10FA0ADCB5EE408AF1EE10FA64
:106DC00008D1FFF7B7F822239FED090A0360BDEC55
:106DD000028B08BDFFF7AEF8BDEC028B0346212203
:106DE0001A600448BDE8084000F032B918DE0320FC
:106DF000000080FF14790B0008B52DED028BB0EE7A
:106E0000408A00F021F90E4B93F9003001330BD08A
:106E1000B4EE488AF1EE10FA06D6DFED0A8AB4EE37
:106E2000E88AF1EE10FA02D4BDEC028B08BDFFF740
:106E300081F888EEA80ABDEC028B2123036008BD0F
:106E400018DE03200000000010EE103A33F000427C
:106E50002ED0002B33DBB3F1FF4F40DAB3F5000F38
:106E600034DB4FF0000C6848C3F31601084400F40B
:106E7000000282F07E520A43DB1500EE102A7F3BAF
:106E8000624A634401F10F0CF7EE007A0CEA020249
:106E900030EE670A03EBD05322BBB5EE400AF1EEA9
:106EA00010FA60D1002B40F092809FED590A704794
:106EB0009FED587ADFED567A87EE270A704770EE1D
:106EC000407A9FED537A87EE870A7047DFED527A5A
:106ED00060EE277A6FF0180C17EE903AC3E730EEA9
:106EE000000A7047F0EE007A70EE277A07EE103A4B
:106EF00080EE274A4948C1F55712084402F522722C
:106F00000243002A9FED463ADFED464ADFED465A3E
:106F1000DFED463A9FED465ADFED467ADFED466AF1
:106F200024EE046AF8EEC72A26EE067AE7EE034A54
:106F3000A7EE235AE4EE875AE5EE076AE5EE877A74
:106F400067EE867AE6EE877A2ADDB6EE007A20EEE4
:106F5000077A27EE007A4BBB77EE877AA7EEC47AE2
:106F600030EE470A7047B6EE007ADFED346AF0EE95
:106F7000477AE0EE667A20EE007A27EE277A002B39
:106F8000EED007EE903A9FED2E6ADFED2E6AF8EE16
:106F9000E77AA7EEC67A37EE400A97EEA60A704760
:106FA00013BB70EE677AA7EEC40A7047DFED246A60
:106FB0009FED246A77EE877A62EEA66AE7EE846A2E
:106FC00037EE667A37EE400A92EE860A704707EE91
:106FD000903A9FED1B0A9FED1B7AF8EEE77A27EEB9
:106FE000800AA7EE870A70479FED157ADFED156AD4
:106FF00070EE677A27EE627AA7EE847A37EE400A5F
:1070000092EEA60A704700BF20FB4A00F0FF7F0007
:1070100000000000000000CC0000004C305CCFFFFE
:107020009788173E25333A3E2549923E4FD01C3E65
:10703000298E633EABAA2A3FCDCCCC3EABAAAA3E5A
:10704000D1F717378071313FB1EEC00A704700BFEA
:107050009FED010A704700BF0000C07F002301467A
:107060001A46184600F044B80A44914200F1FF3332
:1070700000D1704710B511F8014B03F8014F914250
:10708000F9D110BD02440346934200D1704703F882
:10709000011BF9E738B5104B1D68AB6B0446B3B95B
:1070A0001820FEF737FF0246A86320B90B4B0C48A7
:1070B0004221FEF747FF0B490B4BC0E900130B4B76
:1070C00083600B23838100210120C2E90401AB6BA3
:1070D00000221C615A6138BD1CDE032015790B00AB
:1070E0002C790B000E33CDAB34126DE6ECDE0500CF
:1070F0002DE9F843DFF8B8800646D8F800001F46AF
:107100000D46914600F056F8254B1C6834B9254CC5
:107110001C60254B13B11B68C4F8883063681F2BB3
:1071200007DDD8F8000000F047F84FF0FF30BDE869
:10713000F8834EB3D4F8880088B91C4B23B9D8F82B
:10714000000000F038F8F0E74FF48470FEF7E2FE3C
:107150000028F4D00023C0E94033C4F888006368F5
:1071600040F8239001229A4000EB8301D0F80031CF
:107170001343C0F80031022EC1F8807002BFD0F86E
:1071800004311343C0F804316368D8F800005A1C76
:107190000233626044F8235000F00EF80020C6E786
:1071A000ECE7032060E7032000000000155F0B0000
:1071B00080DE03207047704770470000554C0B007D
:1071C000914C0B00B94C0B00BD4C0B0000000000B3
:1071D00043616C6C206F6E207075726520766972E9
:1071E0007475616C0048656C6C6F20576F726C64CD
:1071F000004D49433A00206442410054656D70657A
:107200007274757265002043004D4F56454D454ED2
:107210005420444554454354454421000000000097
:1072200000000000FD520B008D530B00315A0B0083
:1072300095610B0001530B0049570B0089510B005E
:1072400019500B0007580B00A5580B00DB580B001A
:10725000F7580B0000000000003E5B4F5B3E3E6BAA
:107260004F6B3E1C3E7C3E1C183C7E3C181C577DE0
:10727000571C1C5E7F5E1C00183C1800FFE7C3E72C
:10728000FF0018241800FFE7DBE7FF30483A060E3E
:107290002629792926407F050507407F05253F5A85
:1072A0003CE73C5A7F3E1C1C08081C1C3E7F1422F5
:1072B0007F22145F5F005F5F06097F017F006689A0
:1072C000956A606060606094A2FFA29408047E04E6
:1072D0000810207E201008082A1C08081C2A08080C
:1072E0001E101010100C1E0C1E0C30383E383006CC
:1072F0000E3E0E06000000000000005F00000007C8
:10730000000700147F147F14242A7F2A12231308F5
:10731000646236495620500008070300001C2241D1
:10732000000041221C002A1C7F1C2A08083E080875
:107330000080703000080808080800006060002025
:10734000100804023E5149453E00427F4000724908
:107350004949462141494D331814127F10274545AC
:1073600045393C4A494931412111090736494949C2
:1073700036464949291E0000140000004034000030
:107380000008142241141414141400412214080299
:10739000015909063E415D594E7C1211127C7F490C
:1073A0004949363E414141227F4141413E7F494961
:1073B00049417F090909013E414151737F0808088D
:1073C0007F00417F41002040413F017F081422415E
:1073D0007F404040407F021C027F7F0408107F3EB8
:1073E0004141413E7F090909063E4151215E7F0925
:1073F000192946264949493203017F01033F40408C
:10740000403F1F2040201F3F4038403F6314081476
:107410006303047804036159494D43007F414141AE
:107420000204081020004141417F0402010204408F
:1074300040404040000307080020545478407F2813
:107440004444383844444428384444287F38545409
:10745000541800087E090218A4A49C787F0804042C
:107460007800447D40002040403D007F10284400CB
:1074700000417F40007C047804787C08040478385C
:1074800044444438FC1824241818242418FC7C088C
:10749000040408485454542404043F44243C404009
:1074A000207C1C2040201C3C4030403C44281028BC
:1074B000444C9090907C4464544C44000836410005
:1074C0000000770000004136080002010204023C7F
:1074D0002623263C1EA1A161123A4040207A38544E
:1074E00054555921555579412154547841215554C9
:1074F000784020545579400C1E527212395555551A
:1075000059395454545939555454580000457C4104
:107510000002457D420001457C40F0292429F0F01D
:10752000282528F07C545545002054547C547C0A6E
:10753000097F4932494949323248484832324A483B
:1075400048303A4141217A3A42402078009DA0A03B
:107550007D39444444393D4040403D3C24FF24248F
:10756000487E4943662B2FFC2F2BFF0929F620C0AC
:10757000887E090320545479410000447D413048FD
:10758000484A32384040227A007A0A0A727D0D1940
:10759000317D2629292F28262929292630484D40A2
:1075A00020380808080808080808382F10C8ACBA9E
:1075B0002F102834FA00007B000008142A1422221D
:1075C000142A1408AA005500AAAA55AA55AA000010
:1075D00000FF00101010FF00141414FF001010FF23
:1075E00000FF1010F010F0141414FC001414F70035
:1075F000FF0000FF00FF1414F404FC141417101F04
:1076000010101F101F1414141F00101010F0000091
:1076100000001F101010101F10101010F0100000AC
:1076200000FF101010101010101010FF10000000BC
:10763000FF140000FF00FF00001F10170000FC04F3
:10764000F414141710171414F404F40000FF00F7D6
:1076500014141414141414F700F714141417141039
:10766000101F101F141414F4141010F010F0000068
:107670001F101F0000001F14000000FC140000F089
:1076800010F01010FF10FF141414FF141010101F2E
:1076900000000000F010FFFFFFFFFFF0F0F0F0F03F
:1076A000FFFFFF0000000000FFFF0F0F0F0F0F385C
:1076B000444438447C2A2A3E147E02020606027E96
:1076C000027E0263554941633844443C04407E20B5
:1076D0001E2006027E020299A5E7A5991C2A492AC6
:1076E0001C4C7201724C304A4D4D30304878483055
:1076F000BC625A463D3E494949007E0101017E2A4D
:107700002A2A2A2A44445F444440514A444040447F
:107710004A51400000FF0103E080FF000008086BB1
:107720006B083612362436060F090F0600001818AB
:107730000000001010003040FF0101001F01011E79
:1077400000191D1712003C3C3C3C000000000000EA
:107750000000000000000000000000000000000029
:10776000315A0B0095610B00D54C0B0049570B00AB
:107770006F580B008B580B0007580B00A5580B00D7
:10778000DB580B00F7580B00000000000000000061
:10779000C35F0B00B95F0B00AF5F0B00A55F0B0071
:1077A000995F0B008D5F0B00D9690B00E1690B003D
:1077B000815F0B00795F0B006F5F0B00655F0B0053
:1077C000116A0B0000081018202830386E616E0016
:1077D000696E66006F7666002E0061707000255934
:1077E0002D256D2D25645425483A254D3A255325E0
:1077F0007A0061736374696D650000000000000029
:107800000000000085650B0075650B0077650B00B7
:1078100000000000000000006B660B00D3660B0048
:10782000A9660B0095610B009B660B006D660B0053
:107830007D660B00CD660B008D660B0065660B0048
:107840000000000000000000BD670B0029680B006D
:1078500001680B0095610B00D1670B00ED670B0011
:10786000DF670B00FB670B00BF670B00C3670B00F4
:10787000000000000000000061680B00AB680B0016
:1078800083680B0063680B008B680B0093680B0028
:107890009B680B00A3680B000000000000000000C4
:1078A0007B690B0071690B0067690B001D690B0098
:1078B0005B690B004F690B00D9690B00E1690B0094
:1078C00043690B003B690B0031690B0027690B0012
:1078D000116A0B00000000000000000099690B0015
:1078E000A3690B00AD690B00B7690B00C1690B0000
:1078F000CD690B00D9690B00E1690B00E9690B0048
:10790000F5690B00FD690B00076A0B00116A0B009B
:1079100000000000005245454E54206D616C6C6FB4
:107920006320737563636565646564002F6D6E74B1
:107930002F776F726B73706163652F776F726B73E4
:10794000706163652F4743432D31302D7069706539
:107950006C696E652F6A656E6B696E732D47434364
:107960002D31302D706970656C696E652D34385F0E
:1079700032303230313132345F31363036313830B6
:107980003634312F7372632F6E65776C69622F6E98
:1079900065776C69622F6C6962632F7374646C69BC
:1079A000622F72616E642E6300000000F94F0B00BD
:1079B00009500B00CD5F0B0061610B0085610B006E
:1079C00005640B0015640B0031640B0085690B0026
:0479D000E96A0B0055
:1079D400040000001400000003000000474E55009E
:1079E400D33B9FA433610EC52EE7EFE505C84226BD
:0479F4003E8AAE9683
:1079F800000103070F1F3F7F0080C0E0F0F8FCFE86
:107A0800000000000000000000000000000000006E
:107A1800000000000000000000000000000000005E
:107A2800000000000000000000000000000000004E
:107A380000000000000000000000000000000080BE
:107A4800808000000000000000000000000000002E
:107A5800008080C0C000000000000000000000009E
:107A6800000000000000000000000000000000000E
:107A780000000000000000000000000000000000FE
:107A880000000000000000000000000000000000EE
:107A98000000000080C0E0F0F8FCF8E00000000002
:107AA800000000000000000000000000008080804E
:107AB800808000808000000000808080808000FF3F
:107AC800FFFF0000000080808080000080800000B0
:107AD80080FFFF8080008080008080808000808020
:107AE8000000000000808000008C8E84000080F878
:107AF800F8F880000000000000000000000000000E
:107B0800F0F0F0F0F0F0F0F0F0F0F0F0E0E0C0802D
:107B180000E0FCFEFFFFFF7FFFFFFFFFFF0000000C
:107B28000000000000000000000000FEFFC7010187
:107B3800010183FFFF00007CFEC70101010183FFF3
:107B4800FFFF0038FEC78301010183C7FFFF000064
:107B580001FFFF010100FFFF0701010100007FFF96
:107B680080000000FFFF7F0000FFFFFF000001FF13
:107B7800FFFF0100000000000000000000000000FE
:107B8800030F3F7F7FFFFFFFFFFFFFFFE7C7C78FA1
:107B98008F9FBFFFFFC3C0F0FFFFFFFFFFFCFCFC90
:107BA800FCFCFCFCFCF8F8F0F0E0C0000103030367
:107BB80003030103030000000001030303030101A1
:107BC8000301000000010303030301010303000094
:107BD8000003030000000303000000000000000190
:107BE8000303030303010000000103010000000375
:107BF8000301000000000000000000000000000079
:107C080000000080C0E0F0F9FFFFFFFFFF3F1F0FFB
:107C180087C7F7FFFF1F1F3DFCF8F8F8F87C7DFFCA
:107C2800FFFFFFFFFFFFFF7F3F0F0700303000001F
:107C3800000000000000000000000000000000003C
:107C480000000000FEFEFC00000000000000000034
:107C580000000000000000000000000000E0C0007C
:107C680000000000000000000000303000000000AC
:107C780000000000000000000000000000000000FC
:107C880000C0FEFFFFFFFFFFFFFFFFFF7F7F3F1FDB
:107C98000F071F7FFFFFF8F8FFFFFFFFFFFEF8E069
:107CA800000000010000000000000000FEFE0000CF
:107CB80000FCFEFC0C06060EFCF80000F0F81C0E9A
:107CC8000606060CFFFFFF0000FEFE00000000FC99
:107CD800FEFC00183C7E66E6CE84000006FFFF0628
:107CE80006FCFEFC0C0606060000FEFE0000C0F8BE
:107CF800FC4E4646464E7C7840183C76E6CECC8014
:107D0800000000000000000000000000000000006B
:107D18000000000001070F1F1F3F3F3F3F1F0F03D9
:107D28000000000000000000000000000F0F00002D
:107D3800000F0F0F000000000F0F000003070E0CCC
:107D480018180C060F0F0F0000010F0E0C180C0F5F
:107D5800070100040E0C180C0F070000000F0F009D
:107D6800000F0F0F0000000000000F0F00000007B9
:107D7800070C0C181C0C060600040E0C180C0F0738
:107D880000000000000000000000000000000000EB
:107D980000000000000000000000000000000000DB
:107DA80000000000000000000000000000000000CB
:107DB80000000000000000000000000000000000BB
:107DC80000000000000000000000000000000000AB
:107DD800000000000000000000000000000000009B
:107DE800000000000000000000000000000000008B
:107DF800000000000000000000000000000000007B
:107E0800F2770B00FF00000020DE032000000000D6
:107E1800000000000000000000000000000000005A
:107E2800000000000000000000000000000000004A
:107E3800000000000000000000000000000000003A
:107E4800000000000000000000000000000000002A
:107E5800000000000000000000000000000000001A
:107E6800000000000000000000000000F0E7032010
:047E78000000000006
:107E820000000102030405060708090A0B0C0D0E87
:107E92000F101112131415161718191A1B1C1D1E78
:047EA2001F20280075
:047EA60078563412C4
:04000003B0004020E9
:00000001FF
