:02000002B0004C
:1040000000400B0062BB0B00000006000C00050224
:084010000401B61400000000D9
:0440180064A90B008C
:1040200081F0004102E000BF83F0004330B54FEA69
:1040300041044FEA430594EA050F08BF90EA020FD6
:104040001FBF54EA000C55EA020C7FEA645C7FEA69
:10405000655C00F0E2804FEA5454D4EB5555B8BF8C
:104060006D420CDD2C4480EA020281EA030382EAFD
:10407000000083EA010180EA020281EA0303362D8F
:1040800088BF30BD11F0004F4FEA01314FF4801C62
:104090004CEA113102D0404261EB410113F0004F74
:1040A0004FEA03334CEA133302D0524263EB43032B
:1040B00094EA050F00F0A780A4F10104D5F1200EC9
:1040C0000DDB02FA0EFC22FA05F2801841F1000124
:1040D00003FA0EF2801843FA05F359410EE0A5F1F8
:1040E00020050EF1200E012A03FA0EFC28BF4CF029
:1040F000020C43FA05F3C01851EBE37101F00045DF
:1041000007D54FF0000EDCF1000C7EEB00006EEBEB
:104110000101B1F5801F1BD3B1F5001F0CD3490875
:104120005FEA30004FEA3C0C04F101044FEA4452CC
:1041300012F5800F80F09A80BCF1004F08BF5FEA53
:10414000500C50F1000041EB045141EA050130BD33
:104150005FEA4C0C404141EB0101013C28BFB1F545
:10416000801FE9D291F0000F04BF01460020B1FA90
:1041700081F308BF2033A3F10B03B3F120020CDA63
:104180000C3208DD02F1140CC2F10C0201FA0CF041
:1041900021FA02F10CE002F11402D8BFC2F1200CA6
:1041A00001FA02F120FA0CFCDCBF41EA0C0190405C
:1041B000E41AA2BF01EB0451294330BD6FEA0404A5
:1041C0001F3C1CDA0C340EDC04F11404C4F1200290
:1041D00020FA04F001FA02F340EA030021FA04F3A2
:1041E00045EA030130BDC4F10C04C4F1200220FAF9
:1041F00002F001FA04F340EA0300294630BD21FA37
:1042000004F0294630BD94F0000F83F4801306BFFC
:1042100081F480110134013D4EE77FEA645C18BFF0
:104220007FEA655C29D094EA050F08BF90EA020F87
:1042300005D054EA000C04BF1946104630BD91EA7F
:10424000030F1EBF0021002030BD5FEA545C05D182
:104250004000494128BF41F0004130BD14F58004C1
:104260003CBF01F5801130BD01F0004545F0FE4135
:1042700041F470014FF0000030BD7FEA645C1ABF6A
:10428000194610467FEA655C1CBF0B46024650EAA1
:10429000013406BF52EA033591EA030F41F40021CD
:1042A00030BD00BF90F0000F04BF0021704730B553
:1042B0004FF4806404F132044FF000054FF0000128
:1042C00050E700BF90F0000F04BF0021704730B5E9
:1042D0004FF4806404F1320410F0004548BF4042BE
:1042E0004FF000013EE700BF42004FEAE2014FEA13
:1042F00031014FEA02701FBF12F07F4393F07F4FEE
:1043000081F06051704732F07F4208BF704793F0F0
:104310007F4F04BF41F40021704730B54FF4607403
:1043200001F0004521F000411CE700BF50EA010206
:1043300008BF704730B54FF000050AE050EA0102AF
:1043400008BF704730B511F0004502D5404261EB1F
:1043500041014FF4806404F132045FEA915C3FF460
:10436000D8AE4FF003025FEADC0C18BF03325FEAFD
:10437000DC0C18BF033202EBDC02C2F1200300FAAE
:1043800003FC20FA02F001FA03FE40EA0E0021FAD3
:1043900002F11444BDE600BF70B54FF0FF0C4CF4C1
:1043A000E06C1CEA11541DBF1CEA135594EA0C0F73
:1043B00095EA0C0F00F0DEF82C4481EA030621EAAE
:1043C0004C5123EA4C5350EA013518BF52EA0335E9
:1043D00041F4801143F4801338D0A0FB02CE4FF09B
:1043E0000005E1FB02E506F00042E0FB03E54FF0CB
:1043F0000006E1FB03569CF0000F18BF4EF0010EC3
:10440000A4F1FF04B6F5007F64F5407404D25FEABE
:104410004E0E6D4146EB060642EAC62141EA555171
:104420004FEAC52040EA5E504FEACE2EB4F1FD0CB3
:1044300088BFBCF5E06F1ED8BEF1004F08BF5FEA31
:10444000500E50F1000041EB045170BD06F00046E3
:1044500046EA010140EA020081EA0301B4EB5C0490
:10446000C2BFD4EB0C0541EA045170BD41F4801188
:104470004FF0000E013C00F3AB8014F1360FDEBFAD
:10448000002001F0004170BDC4F10004203C35DA89
:104490000C341BDC04F11404C4F1200500FA05F30C
:1044A00020FA04F001FA05F240EA020001F00042AD
:1044B00021F0004110EBD37021FA04F642EB060123
:1044C0005EEA430E08BF20EAD37070BDC4F10C044D
:1044D000C4F1200500FA04F320FA05F001FA04F211
:1044E00040EA020001F0004110EBD37041F10001FD
:1044F0005EEA430E08BF20EAD37070BDC4F1200508
:1045000000FA05F24EEA020E20FA04F301FA05F26F
:1045100043EA020321FA04F001F0004121FA04F217
:1045200020EA020000EBD3705EEA430E08BF20EAE7
:10453000D37070BD94F0000F0FD101F00046400021
:1045400041EB010111F4801F08BF013CF7D041EAA3
:10455000060195F0000F18BF704703F000465200A7
:1045600043EB030313F4801F08BF013DF7D043EA78
:104570000603704794EA0C0F0CEA135518BF95EA2E
:104580000C0F0CD050EA410618BF52EA4306D1D1B5
:1045900081EA030101F000414FF0000070BD50EAD4
:1045A000410606BF1046194652EA430619D094EA5E
:1045B0000C0F02D150EA013613D195EA0C0F05D148
:1045C00052EA03361CBF104619460AD181EA03019C
:1045D00001F0004141F0FE4141F470014FF0000054
:1045E00070BD41F0FE4141F4780170BD70B54FF0EF
:1045F000FF0C4CF4E06C1CEA11541DBF1CEA13556F
:1046000094EA0C0F95EA0C0F00F0A7F8A4EB050450
:1046100081EA030E52EA03354FEA013100F0888047
:104620004FEA03334FF0805545EA131343EA126310
:104630004FEA022245EA111545EA10654FEA0026C5
:104640000EF000419D4208BF964244F1FD0404F57E
:10465000407402D25B084FEA3202B61A65EB0305DA
:104660005B084FEA32024FF480104FF4002CB6EB97
:10467000020E75EB030E22BFB61A754640EA0C0017
:104680005B084FEA3202B6EB020E75EB030E22BF57
:10469000B61A754640EA5C005B084FEA3202B6EB98
:1046A000020E75EB030E22BFB61A754640EA9C0057
:1046B0005B084FEA3202B6EB020E75EB030E22BF27
:1046C000B61A754640EADC0055EA060E18D04FEAE5
:1046D000051545EA16754FEA06164FEAC30343EA85
:1046E00052734FEAC2025FEA1C1CC0D111F4801F52
:1046F0000BD141EA00014FF000004FF0004CB6E74B
:1047000011F4801F04BF01430020B4F1FD0C88BFE9
:10471000BCF5E06F3FF6AFAEB5EB030C04BFB6EBF4
:10472000020C5FEA500C50F1000041EB045170BDE7
:104730000EF0004E4EEA113114EB5C04C2BFD4EB14
:104740000C0541EA045170BD41F480114FF0000E98
:10475000013C90E645EA060E8DE60CEA135594EA14
:104760000C0F08BF95EA0C0F3FF43BAF94EA0C0F17
:104770000AD150EA01347FF434AF95EA0C0F7FF48C
:1047800025AF104619462CE795EA0C0F06D152EAE0
:1047900003353FF4FDAE1046194622E750EA4106C4
:1047A00018BF52EA43067FF4C5AE50EA41047FF4D5
:1047B0000DAF52EA43057FF4EBAE12E74FF0FF3C3A
:1047C00006E000BF4FF0010C02E000BF4FF0010C0B
:1047D0004DF804CD4FEA410C7FEA6C5C4FEA430C84
:1047E00018BF7FEA6C5C1BD001B050EA410C0CBFD3
:1047F00052EA430C91EA030F02BF90EA020F002035
:10480000704710F1000F91EA030F58BF994208BF9B
:1048100090422CBFD8176FEAE37040F00100704758
:104820004FEA410C7FEA6C5C02D150EA013C07D1AF
:104830004FEA430C7FEA6C5CD6D152EA033CD3D0FA
:104840005DF8040B704700BF8446104662468C46F4
:104850001946634600E000BF01B5FFF7B7FF002827
:1048600048BF10F1000F01BD4DF808EDFFF7F4FF50
:104870000CBF012000205DF808FB00BF4DF808EDDB
:10488000FFF7EAFF34BF012000205DF808FB00BFFE
:104890004DF808EDFFF7E0FF94BF012000205DF820
:1048A00008FB00BF4DF808EDFFF7CEFF94BF0120D5
:1048B00000205DF808FB00BF4DF808EDFFF7C4FFCE
:1048C00034BF012000205DF808FB00BF4FEA410C17
:1048D0007FEA6C5C02D150EA013C0AD14FEA430CFA
:1048E0007FEA6C5C02D152EA033C02D14FF0000037
:1048F00070474FF0010070474FEA410212F5001275
:1049000015D211D56FF47873B3EB625212D94FEA16
:10491000C12343F0004343EA505311F0004F23FA00
:1049200002F018BF404270474FF00000704750EA55
:10493000013005D111F0004008BF6FF00040704712
:104940004FF00000704700BF4A0011D212F500126C
:1049500011D20DD56FF47873B3EB62520ED44FEAD7
:10496000C12343F0004343EA505323FA02F0704757
:104970004FF00000704750EA013002D14FF0FF3095
:1049800070474FF0000070474FEA4102B2F1E04338
:1049900024BFB3F5001CDCF1FE5C0DD901F0004C26
:1049A0004FEAC0024CEA5070B2F1004F40EB830076
:1049B00008BF20F00100704711F0804F21D113F1A2
:1049C0003872BCBF01F00040704741F480114FEADB
:1049D0005252C2F11802C2F1200C10FA0CF320FA64
:1049E00002F018BF40F001004FEAC1234FEAD32381
:1049F00003FA0CFC40EA0C0023FA02F34FEA4303EB
:104A0000CCE77FEA625307D150EA01331EBF4FF073
:104A1000FE4040F44000704701F0004040F0FE408E
:104A200040F40000704700BF80F0004002E000BF8B
:104A300081F0004142001FBF5FEA410392EA030F89
:104A40007FEA226C7FEA236C6AD04FEA1262D2EBD3
:104A50001363C1BFD218414048404140B8BF5B42D8
:104A6000192B88BF704710F0004F40F4000020F071
:104A70007F4018BF404211F0004F41F4000121F087
:104A80007F4118BF494292EA030F3FD0A2F10102D1
:104A900041FA03FC10EB0C00C3F1200301FA03F10F
:104AA00000F0004302D5494260EB4000B0F5000F32
:104AB00013D3B0F1807F06D340084FEA310102F1F1
:104AC0000102FE2A51D2B1F1004F40EBC25008BFA3
:104AD00020F0010040EA03007047490040EB00006D
:104AE000013A28BFB0F5000FEDD2B0FA80FCACF16E
:104AF000080CB2EB0C0200FA0CF0AABF00EBC2509B
:104B000052421843BCBFD0401843704792F0000F88
:104B100081F4000106BF80F400000132013BB5E7DB
:104B20004FEA41037FEA226C18BF7FEA236C21D051
:104B300092EA030F04D092F0000F08BF08467047B6
:104B400090EA010F1CBF0020704712F07F4F04D184
:104B5000400028BF40F00040704712F100723CBF97
:104B600000F50000704700F0004343F0FE4040F4C1
:104B7000000070477FEA226216BF08467FEA23637F
:104B80000146420206BF5FEA412390EA010F40F46A
:104B9000800070474FF0000304E000BF10F00043B6
:104BA00048BF40425FEA000C08BF704743F096439D
:104BB00001464FF000001CE050EA010208BF7047B8
:104BC0004FF000030AE000BF50EA010208BF70473F
:104BD00011F0004302D5404261EB41015FEA010C54
:104BE00002BF84460146002043F0B64308BFA3F14C
:104BF0008053A3F50003BCFA8CF2083AA3EBC2532E
:104C000010DB01FA02FC634400FA02FCC2F120024C
:104C1000BCF1004F20FA02F243EB020008BF20F083
:104C20000100704702F1200201FA02FCC2F12002E9
:104C300050EA4C0021FA02F243EB020008BF20EADE
:104C4000DC70704710F8012B11F8013B012A28BFD6
:104C50009A42F7D0D01A7047034613F8012B002A66
:104C6000FBD1181A0138704709480A49884208B52B
:104C700005D0094A824202D0121A05F08FFD07487A
:104C8000074A0021121A05F0B1FD014808BD00BF16
:104C900060D903209CB60B00F8DD0320F8DD03206B
:104CA000F0E7032070B5074E074C04F0AFFEA41BDD
:104CB000A4080025AC4200D170BD56F8043B9847CB
:104CC0000135F7E750B60B0078B60B0000F034B8AA
:104CD00008B500F0EFF9BDE8084004F04FBE01F060
:104CE00071BC01F06FBC01F075BC000008B5034A4F
:104CF00003490C2001F0CAFBFEE700BF91600B00E6
:104D000078A90B000078B0FA80F0400970470123C1
:104D100003707047014B02781A70704794E60320C5
:104D200008B501F0BDF9034902460023C1E900239B
:104D300008BD00BF98E60320F0B5012195B0022020
:104D400005F098F900240021022005F0A4F922467C
:104D50004FF0FF3364490094052004F083FF21469F
:104D6000052005F087F9614B1C7002F04DFC02F044
:104D700095FC02F049FC5E4A01460FA804F0C0F918
:104D80000FA802F0A2FD02F03FFC5A4A01460FA80C
:104D900004F0B6F90FA802F098FD02F035FC564A6F
:104DA00001460FA804F0ACF90FA802F08EFD02A88E
:104DB00003F0BFF8514B0FA8196802F045F90FA88E
:104DC00002F0A4F805460FA8002D6CD102F0BAF845
:104DD0000095ADF8280002230AAA032102A803F0D7
:104DE0009DF802F011FC002202A902F011FD002240
:104DF00043494448444E03F0DBFC444B05A8196882
:104E000005AC02F021F90FCC0AAD0FC5D4F800C0F3
:104E1000C5F800C00AAC0FCC0FAD0FC53769736978
:104E2000C5F800C09F424ADB7C1C002CF06841DDC5
:104E30001421614301F0D6FB00283ED105F0F4F9BE
:104E400004F0D6FF3C220221314800F02FFE30480A
:104E500000F0BCFD2E4800F041FD2D48012101F07D
:104E6000A6F82B48012101F0A7F800221146284896
:104E700001F09AF82749264804F041FC244800F044
:104E8000A5FD234800F02AFD234A00234FF40061CA
:104E90000133B3F5007F42F8041BF9D1029801F009
:104EA00099FB15B0F0BD02F04FF8009402461023B4
:104EB000072193E701F08EFB0020F060746114235A
:104EC000F56832695F433D445A432946E818D21BCE
:104ED0000FAC05F071FC0FCC0FC523682B60336954
:104EE00001333361AAE700BF214D0B0094E6032094
:104EF0008CE6032084E603207CE603206CD90320A3
:104F0000154D0B006CE6032000DE032060D9032062
:104F100048E603208DA90B0048DE032008B501F008
:104F2000BFF8084BD3E90023801A63EB4303B0F5C5
:104F30007A7F73F10003044B34BF01200020187006
:104F400008BD00BF98E6032095E60320000000009E
:104F50002DE9F041284E2DED028B0027B0463C464E
:104F60003D46132005F0B0F80137041945F100055E
:104F7000B7F5007F48F8040BF3D1640A9FED1F8A50
:104F800044EAC55400276D0A56F8040B001B65EB74
:104F900045034343A0FB000101EB4301FFF70CFE77
:104FA000013707EE900AB7F5007F38EE278AEBD17C
:104FB0009FED130A28EE000A05F0A8FA10EE100A79
:104FC000FFF792F908A3D3E90023FFF72DF808A310
:104FD000D3E90023FFF70AFBFFF7D6FCBDEC028BF9
:104FE00000EE100ABDE8F081931804560EAD0340A0
:104FF0005E4BC8073D9BF33F48DE032000000000E6
:105000000000003B0000000008B505F049FA10EE72
:10501000100AFFF769F909A3D3E90023FFF7BCF9E8
:1050200008A3D3E90023FFF701F8FFF7ADFC024B1B
:10503000186000EE100A08BD74E6032033333333E2
:10504000333324400C022B8716393A4008B511201F
:1050500005F03AF840F6E443584348BF00F6FF70C5
:10506000031300EE103AB8EEC00A08BD00000000BD
:1050700008B510EE100AFFF737F90AA3D3E90023A9
:10508000FFF78AF909A3D3E90023FEF7CFFFFFF763
:105090007BFC034B186000EE100A08BDAFF30080E4
:1050A00078E6032062105839B4C8A63FA01A2FDD55
:1050B00024462A402DE9F04F2DED028B8FB0FFF7EB
:1050C00047FFF0EE408AFFF7C1FF0924B0EE408AA7
:1050D000FFF7BCFF013C38EE008AF9D1B0EE680A58
:1050E000FFF792FFDFF80C83B2EE040A88EE000AA5
:1050F000FFF7BEFFFFF712FF00F0D2FFD8E9002351
:10510000801A40F2E93263EB4303904273F10003EB
:10511000C0F08A80A048A04F02F0E8F948B19F4B48
:1051200009A8196801F090FF9D4909AA384603F0C3
:1051300015FB02F069FA02F0E7FA88B199499A483A
:105140000023042202F0D6F898499948002304224B
:1051500002F0D0F8974998480023012202F0CAF8DB
:10516000964D2878012807D0022862D048B9014618
:10517000022004F090FF04E004228021022004F0C9
:10518000BAFF854802F0B2F90446002853D0834B99
:1051900009A8196801F058FF81497F4809AA03F05E
:1051A000DDFA874800F09AFB00221146844800F09F
:1051B000FBFE8449824804F0A2FA7C4B804893EDC0
:1051C000000A022104F08CFB7F497D4804F097FA25
:1051D0007E497B4804F093FA724B794893ED000ABC
:1051E000022104F07DFB7A49754804F088FA714B7E
:1051F0001B781BB17749724804F081FA76497048F0
:1052000004F06AFA29786E480A2204F082FA6C489F
:1052100004F069FA6A4800F0D9FB00F041FF00236E
:10522000C8F80000C8F804300FB0BDEC028BBDE830
:10523000F08F01219DE76248DFF8BC91604DDFF8F7
:10524000BCA100F04BFB22465D48214600F0ACFEBD
:1052500062495B4804F053FA6149594804F04FFA37
:10526000574800F0B3FB02F0CFF95E4A014601A8AF
:1052700004F0E2F8029B9C424FF024067ADA04A87C
:1052800001F0D0FD019866433044012204A90830A2
:1052900003F098F9002869D0D9F8001009A801F0A6
:1052A000D3FE09A904A801F050FE00285ED02846CC
:1052B00000F014FB00221146284600F075FE51460E
:1052C000284604F01CFA4849284604F018FA0199C7
:1052D0000022314409A801F095FD0999284604F0FF
:1052E000FBF909A801F0B6FA284600F06FFB02F0BE
:1052F0008BF9019A01460123324409A803F014FEF8
:10530000099BDDF828B03B607B689B451BD0BBF157
:10531000000F04D0DBF804300133CBF804307E6892
:105320007EB17368013B73605BB9336830469B683C
:105330009847B368013BB3601BB933683046DB68FC
:105340009847C7F804B009A802F0C6FA28461E22FA
:10535000002100F029FE104802F0C8F840B12349AE
:10536000284604F0B9F9284600F030FB013481E703
:105370001F49F5E7019C06FB0346A64207D060697A
:1053800001F028F9A06801F025F92434F5E7019827
:1053900001F020F941E700BFF8DD032064D90320C4
:1053A0006CE6032078E603208CE6032074E60320F5
:1053B00084E6032095E603207CE6032094E60320A0
:1053C00048E6032099A90B009EA90B00A3A90B0096
:1053D000AEA90B00B1A90B00C4A90B00D0A90B000A
:1053E000DDA90B0000DE0320FAA90B0004AA0B00C4
:1053F00014AA0B00A0E603206CD90320EBA90B0034
:10540000F0B516468FB00022C0E9002204460D46D2
:1054100009AF194604A801F017FE1499384601F0A7
:1054200013FE169B0293159B2046CDE9007332466E
:1054300004AB294603F008FA20460FB0F0BD000087
:105440007FB5264B264E274A9A600024C3E90044C4
:10545000032001F02BF833680093CDE90144224B7F
:1054600022491B68224810252A46FFF7C9FF3368E6
:105470000093CDE901441F4B1F491B681F482A4672
:10548000FFF7BEFF33680093CDE901441C4B1D4973
:105490001B681D482A46FFF7B3FF1C4801F004FFB4
:1054A0001B4802F001F81B4B1B489C6347F67F72B8
:1054B0004FF0FF31C3E90044C3E90244C3E90444A7
:1054C000C3E90644C3E90844C3E90A44C3E90C2418
:1054D00004B0BDE8704000F0EBB900BF3CDE032033
:1054E0006CD903200000FFFF74D9032024AA0B000D
:1054F0008CE6032070D9032029AA0B0084E6032040
:1055000068D903202FAA0B007CE603206CE6032059
:10551000F8DD032000DE032048E6032008B500F094
:1055200067FD014B186008BDA8E60320F0B5457E75
:10553000BDF81440022D69D0032D00F09980012D93
:105540006CD10589D2432A4412B2002A5DDBB0F93E
:105550000850954259DD0029BEBF5B181BB20021DF
:10556000B0F90A00CD188542C4BF431A1BB2002B04
:105570004BDDC1F3C400DFF820C102EBC01211F013
:105580000701DBB20CEB02001AD0C1F10805404E56
:10559000EDB2AB42775D3FBFA5EB030EFF2646FAA7
:1055A0000EF637401CF80260012C0CBF3E43BE4390
:1055B000AB420CF8026028D308390B44DBB28030D0
:1055C000072B19D9012C4FF0FF3518BF0025EDB27C
:1055D00000F180011A46083AD2B2072A01F8805C2D
:1055E00001F18001F7D8A3F10802C2F3C40201322D
:1055F00000EBC21003F007033BB1264AD25C0378EC
:10560000012C0CBF134393430370F0BD4589D24373
:105610002A44CD180189491B12B209B2002AF4DBD1
:10562000B0F90A509542F0DD0029BEBF5B181BB2ED
:105630000021B0F90870CE18BE42C4BF6B1A1BB26D
:10564000002BE2DDD010802510FB0511124801442B
:1056500002F0070001228240012CD2B20B440CD18F
:105660008B42D2D011F8010B104301F8010CF7E77F
:10567000CD184189491B09B267E7D243D2B28B42A8
:10568000C3D011F8010B104001F8010CF7E700BF7F
:1056900080D9032078D9032088D90320F0B5457E2E
:1056A000BDF81440022D34D0032D00F09B80012D55
:1056B00037D1D5180289521B12B20029C0F291804D
:1056C000B0F90A508D4240F38C80002ABEBF9B186F
:1056D0001BB20022B0F90870D618BE42C4BFAB1A84
:1056E0001BB2002B7DDDC810802510FB052245482C
:1056F000024401F0070001218140012CC9B213448A
:1057000075D19A426DD012F8010B084302F8010CD2
:10571000F7E70589C9432944D5184289521B09B2C4
:1057200012B200295DDBB0F908508D4259DD002A24
:10573000BEBF9B181BB20022B0F90A00D5188542E3
:10574000C4BF831A1BB2002B4BDDC2F3C400DFF8C9
:10575000B4C001EBC01112F00702DBB20CEB010088
:105760001AD0C2F10805284EEDB2AB42775D3FBFBB
:10577000A5EB030EFF2646FA0EF637401CF8016033
:10578000012C0CBF3E43BE43AB420CF8016028D352
:10579000083A1344DBB28030072B19D9012C4FF0A3
:1057A000FF3518BF0025EDB200F180011A46083A16
:1057B000D2B2072A01F8805C01F18001F7D8A3F189
:1057C0000802C2F3C402013200EBC21003F0070367
:1057D0003BB10E4AD25C0378012C0CBF13439343B8
:1057E0000370F0BD4589C943294409B265E7C9433F
:1057F000C9B29A42F5D012F8010B084002F8010C28
:10580000F7E700BF88D9032080D9032078D9032087
:1058100070470000F8B50D1E064614461F462DDBE6
:1058200000F0CFFBA84229DD002C27DB304600F03A
:10583000CBFBA04222DD304600F0C1FB02281ED087
:10584000032825D0012804D13389E2431A442C4689
:1058500015B2002C2246B8BFE21DD210802112FBE7
:1058600001550E49012204F007044B5702FA04F4D3
:1058700064B297420CBF2343A3434B55F8BD318913
:1058800072890139E4434D1B14442DB224B2E0E780
:105890007389013B5B1B25461CB2DAE788D90320DC
:1058A00010B524210446FFF71EFA204610BD000063
:1058B00038B5402204460D46802100F0A7FA064B79
:1058C0002360FF2384F8213063774FF6FF73E3836F
:1058D00084F82050204638BD1CAB0B0002484FF422
:1058E0008062002104F082BF88D9032013B50B4CDD
:1058F0002178BFF35B8F11F001010BD1204601919C
:10590000FFF700FA019928B1054800F0D7FE2046BC
:10591000FFF7FDF9024802B010BD00BFACE603205E
:10592000B0E6032007B590F8223043B10191FFF7AC
:10593000DDFF019903B05DF804EB00F073BF0B4687
:10594000817F407F012203B05DF804EB04F0EFBBE0
:1059500038B590F91D30013304460D461DD090F93D
:105960002100012180B204F096FB94F91F00002170
:1059700080B204F090FB94F92100002180B204F081
:105980008AFB29462046FFF7CDFF94F9210001212B
:10599000BDE8384080B204F07EBB04F045FC94F9C9
:1059A0001B1004F02FFA04F03FFC036800219B68F1
:1059B000984704F039FC036829469B68984704F02F
:1059C00033FCBDE8384004F024BA0000F8B52121CA
:1059D0000446FFF7BDFF00212046FFF7B9FF7F21F6
:1059E0002046FFF7B5FF22212046FFF7B1FF002137
:1059F0002046FFF7ADFF07212046FFF7A9FF94F9E6
:105A00001D30294F01332AD094F92100012180B2A1
:105A100004F041FB94F91F00012180B204F03BFB2C
:105A200094F92100002180B204F035FB012000F040
:105A30002FFB4FF48065013D17F8011B2046ADB2E6
:105A4000FFF770FF002DF6D1012000F021FB94F943
:105A500021000121BDE8F84080B204F01CBB002504
:105A600004F0E2FB94F91B1004F0CCF904F0DCFB29
:105A7000036840219B68984705F11006B6B204F010
:105A8000D3FB0368795D9B6898476B1C9DB2AE425F
:105A9000F5D104F0C9FB04F0BCF9B6F5806F00D174
:105AA000F8BD3546DCE700BF88D9032038B590F94A
:105AB0001D300177013304460D46C27600F0C980DF
:105AC00090F91F00012180B204F0D4FA94F921006A
:105AD000012180B204F0CEFA94F82230002B00F0BD
:105AE000A68094F92100012180B204F0D4FAFFF7D6
:105AF000FDFE012100F000FEFFF7F8FE102100F08E
:105B00006BFEFFF7F3FE002100F00AFEFFF7EEFE4A
:105B100000F0DEFD94F92000012180B204F0AAFA21
:105B200094F92000012180B204F0B5FA012003F0BD
:105B3000F9FE94F92000002180B204F0ACFA0A20AA
:105B400003F0F0FE94F92000012180B204F0A3FAE2
:105B50002046AE21FFF7FCFE2046D521FFF7F8FED8
:105B600020468021FFF7F4FE2046A821FFF7F0FE33
:105B700020463F21FFF7ECFE2046D321FFF7E8FE49
:105B800020460021FFF7E4FE20464021FFF7E0FE1B
:105B90008D212046FFF7DCFE012D0CBF10211421C2
:105BA0002046FFF7D5FE20462021FFF7D1FE2046F4
:105BB0000021FFF7CDFE2046A121FFF7C9FE2046B8
:105BC000C821FFF7C5FE2046DA21FFF7C1FE2046B7
:105BD0001221FFF7BDFE81212046FFF7B9FE012DFE
:105BE0000CBF9F21CF212046FFF7B2FED9212046CE
:105BF000FFF7AEFE012D0CBF2221F1212046FFF759
:105C0000A7FE2046DB21FFF7A3FE20464021FFF739
:105C10009FFE2046A421FFF79BFE2046A621FFF70A
:105C200097FE2046AF21BDE83840FFF791BE94F9BA
:105C30001D00012180B204F01DFA94F91E0001211B
:105C400080B204F017FA94F82230002B3FF462AFD0
:105C500047E704F0E9FA04F0CBF85BE72DE9F04FF1
:105C600085B01F46BDF93880BDF83C30A8EB02096D
:105C7000A7EB010AB9F1000FB8BFC9F10009BAF1E9
:105C8000000FB8BFCAF1000AD14583460C4615463D
:105C900004DD3A462C4647460D469046BC4205DD9B
:105CA0002A464546904622463C4617463E1BB2B21F
:105CB0000092A8EB050282EAE271A1EBE271C6F361
:105CC000C03202FA86F64545B4BF01224FF0FF32DA
:105CD000019176100292BC421CDCDBF80020039399
:105CE000D145D2F81080C7BF294622462A46214610
:105CF0005846C047019A039BB61AB1B236B2002E7D
:105D000005DA029A1544009A56182DB236B20134BB
:105D100024B2E0E705B0BDE8F08F2DE9F347BDF808
:105D20002C800768BDF92890CDF800800446FF69F3
:105D300016468A461D46B8472368CDF8008009F10B
:105D4000FF323244DF6951462B46204612B2B84733
:105D50002368CDF800809F6932464B465146204665
:105D6000B8476B1E03EB0A012368CDF828809D69B4
:105D700032464B4609B22046AC4602B0BDE8F04779
:105D8000604737B5013B13440468BDF818500195CE
:105D90001BB2009364690B46A04703B030BD37B512
:105DA000BDF818500468CDE90025013B0B44646937
:105DB0001BB2A04703B030BD2DE9F347BDF92890D1
:105DC000BDF82C80054692460C46CE18B4420BDA3C
:105DD0002B68CDF800809F6921464B4652462846E5
:105DE0000134B84724B2F1E702B0BDE8F08713B53B
:105DF00002680191B0F90E100091546AB0F90C30AC
:105E000000221146A04702B010BD704730B5428154
:105E1000C2814FF0FF320024054D426101224460EF
:105E200005600181818104610283827630BD00BFFB
:105E300050B00B002DE9F04F2DED028B8DB00746D1
:105E40000491BDF860100591BDF864100691B0F999
:105E50000C1004989DF86850814252DDB7F90E107D
:105E600091424EDD062111FB0504002C49DD02EBB9
:105E7000C504002C45DD03EB83030B9393B207931A
:105E800008339BB2089100240993052C1CBF2C4BAE
:105E90000B9A079E16BF1B1900239B5C0393049A61
:105EA000ABB20A9304FB05F313FA82F31BB204EBC3
:105EB000020A08EE103AB0460FFA85F90FFA8AFA8C
:105EC000039BDB072FD5012D3B681FD1D3F810B002
:105ED000059B32B251463846D847039B5B08039373
:105EE0000A9B01369844099BB6B2B3421FFA88F860
:105EF000E6D1089B013B013413F0FF0364B2089321
:105F0000C3D10DB0BDEC028BBDE8F08F059ACDE991
:105F1000009218EE101AD3F824B00FFA88F24B460C
:105F20003846D847D9E7DDE905239342D5D0012D7E
:105F30003B6803D1D3F810B0069BCAE7069AE6E7A0
:105F40004CAB0B0030B50A2985B0044607D1027E60
:105F5000638A03EBC20363820023238221E00D29BD
:105F60001FD0037E0293C38A0193838A0093B0F902
:105F700012200B46B0F91010FFF75CFF207E238A39
:105F800000EB400103EB4103A17E1BB202462382DA
:105F900039B1B4F90C106FF0050505FB00118B4207
:105FA000D6DC012005B030BD018242827047012954
:105FB00038BF012101767047C18281827047407EDF
:105FC0007047B0F90C007047B0F90E007047000040
:105FD00008B5024B1B689B68019308BD680203006B
:105FE00008B5024B1B68DB68019308BD680203001B
:105FF00008B5024B1B681B68019308BD2C02030007
:1060000008B5024B1B685B68019308BD2C020300B6
:1060100008B5024B1B689B68019308BD2C02030066
:1060200008B5024B1B68DB68019308BD2C02030016
:1060300008B5024B1B681B69019308BD2C020300C5
:1060400008B5024B1B689B69019308BD2C02030035
:1060500008B5024B1B68DB69019308BD2C020300E5
:1060600008B5024B1B681B6B019308BD2C02030093
:1060700008B5024B1B68DB6F019308BD2C020300BF
:1060800008B5024B1B685B68019308BD180203004A
:1060900008B5024B1B68DB68019308BD18020300BA
:1060A00008B5024B1B685B69019308BD1802030029
:1060B00008B5024B1B689B68019308BD780203007A
:1060C00008B5024B1B681B6D019308BD78020300E5
:1060D00008B5024B1B689B6D019308BD7802030055
:1060E00008B5024B1B681B6E019308BD78020300C4
:1060F00008B5024B1B68DB6F019308BD78020300F3
:1061000008B5034B1B68D3F88430019308BD000029
:106110007802030008B5034B1B68D3F8983001934D
:1061200008BD00007802030008B5034B1B68D3F8D4
:10613000A830019308BD00007802030008B5034BA6
:106140001B68D3F8B430019308BD00007802030047
:1061500008B5034B1B68D3F8BC30019308BD0000A1
:106160007802030008B5034B1B68D3F8C4300193D1
:1061700008BD00007802030008B5034B1B68D3F884
:10618000D830019308BD00007802030008B5034B26
:106190001B68D3F8DC30019308BD000078020300CF
:1061A00008B5034B1B68D3F8E030019308BD00002D
:1061B0007802030008B5034B1B68D3F8E430019361
:1061C00008BD00007802030008B5034B1B68D3F834
:1061D000EC30019308BD00007802030008B5034BC2
:1061E0001B68D3F8F030019308BD0000780203006B
:1061F00008B5034B1B68D3F8F430019308BD0000C9
:106200007802030008B5034B1B68D3F800310193F3
:1062100008BD00007802030008B5034B1B68D3F8E3
:106220000431019308BD00007802030008B5024B59
:106230001B685B6C019308BD4802030008B5024B64
:106240001B68DB6C019308BD4802030008B5024BD4
:106250001B685B6D019308BD4802030008B5024B43
:106260001B685B69019308BD6402030008B5024B1B
:106270001B68DB68019308BD3C02030008B5024BB4
:106280001B681B69019308BD3C02030008B5024B63
:106290001B685B69019308BD3C02030008B5024B13
:1062A0001B689B69019308BD3C02030008B5024BC3
:1062B0001B68DB69019308BD3C02030008B5024B73
:1062C0001B681B6A019308BD3C02030008B5024B22
:1062D0001B689B6A019308BD3C02030008B5024B92
:1062E0001B681B6C019308BD3C02030008B5024B00
:1062F0001B68DB68019308BD2802030008B5024B48
:106300001B689B69019308BD2802030008B5024B76
:106310001B68DB69019308BD2802030008B5024B26
:106320001B681B6A019308BD2802030008B5024BD5
:106330001B685B6A019308BD2802030008B5024B85
:106340001B689B6A019308BD2802030008B5024B35
:106350001B68DB6A019308BD2802030008B5024BE5
:106360001B681B6B019308BD2802030008B5024B94
:106370001B685B6B019308BD2802030008B5024B44
:106380001B681B6C019308BD2802030008B5024B73
:106390001B681B68019308BD3002030008B5024B5F
:1063A0001B689B68019308BD3002030008B5024BCF
:1063B0001B68DB68019308BD3002030008B5024B7F
:1063C0001B681B69019308BD3002030008B5024B2E
:1063D0001B685B69019308BD3002030008B5024BDE
:1063E0001B68DB69019308BD3002030008B5024B4E
:1063F0001B681B6A019308BD3002030008B5024BFD
:106400001B685B6A019308BD3002030008B5024BAC
:106410001B681B6C019308BD3002030008B5024BDA
:106420001B685B6C019308BD3002030008B5024B8A
:106430001B681B68019308BD4C02030008B5024BA2
:106440001B681B69019308BD4C02030008B5024B91
:106450001B685B69019308BD4C02030008B5024B41
:106460001B689B69019308BD4C02030008B5024BF1
:106470001B68DB69019308BD4C02030008B5024BA1
:106480001B681B6A019308BD4C02030008B5024B50
:106490001B685B6B019308BD6002030008B5024BEB
:1064A0001B681B6D019308BD6002030008B5024B19
:1064B0001B685B68019308BD2002030008B5024B0E
:1064C0001B685B69019308BD2002030008B5034BFC
:1064D0001B68D3F88830019308BD00002002030038
:1064E00008B5034B1B68D3F89430019308BD000036
:1064F0002002030008B5024B1B685B68019308BDCE
:106500004002030008B5024B1B689B68019308BD5D
:106510004002030008B5024B1B68DB68019308BD0D
:106520004002030008B5024B1B681B69019308BDBC
:106530004002030008B5024B1B685B69019308BD6C
:106540004002030008B5024B1B689B69019308BD1C
:106550004002030008B5024B1B68DB69019308BDCC
:106560004002030008B5024B1B681B6A019308BD7B
:106570004002030008B5024B1B681B6B019308BD6A
:106580004002030008B5024B1B685B6B019308BD1A
:106590004002030008B5024B1B681B6C019308BD49
:1065A0004002030008B5024B1B685B6C019308BDF9
:1065B0004002030008B5024B1B68DB6B019308BD6A
:1065C0004402030008B5024B1B681B68019308BD19
:1065D0001C02030008B5024B1B685B68019308BDF1
:1065E0001C02030008B5024B1B689B68019308BDA1
:1065F0001C02030008B5024B1B68DB6A019308BD4F
:106600001C02030008B5024B1B68DB6B019308BD3D
:106610001C02030008B5024B1B681B6C019308BDEC
:106620001C02030008B5024B1B685B6C019308BD9C
:106630001C020300002240681146FFF793BF0022AE
:1066400040681146FFF79EBF40680022FFF792BFE7
:106650004068002281F00101FFF77CBF0023406801
:106660001A461946FFF76EBF002340681A461946BE
:10667000FFF760BF002240681146FFF753BF0022BA
:1066800040681146FFF73EBF406800220221FFF735
:1066900041BF002340681A46FFF72CBF024B03227C
:1066A0005A60024A1A607047B8E6032088B00B00AF
:1066B0000021FFF7B3BE0021FFF7A8BE10B50446C6
:1066C00008462170FFF78AFE00236360204610BD54
:1066D00013B504460078FFF7EEFF58B92078019013
:1066E0004FF6FF71FFF752FE019802B0BDE810406F
:1066F000FFF7DEBF02B010BD13B50446007801916C
:10670000FFF7D9FF019948B920780190FFF746FEBD
:10671000019802B0BDE81040FFF7CABF02B010BD3B
:1067200013B5044600780191FFF7C5FF019948B9F8
:1067300020780190FFF73AFE019802B0BDE81040C2
:10674000FFF7B6BF02B010BD400830B51860002496
:1067500018688842E5B206D90134082C02D04008F6
:106760001860F5E70725024B5B5D137030BD00BF75
:10677000BCB00B002DE9F04188B00023044600783E
:1067800002930E461746FFF796FF054600BB94F8A6
:1067900000800146142203A804F028F80B232A469F
:1067A00003A94046ADF80C30FFF728FE04988DF899
:1067B000075002AB0DF1070207FB06F1FFF7C4FF1C
:1067C00020789DF80710FFF7F9FD2078FFF770FF9C
:1067D000029808B0BDE8F08138B5044600780D464F
:1067E000FFF769FF0346D0B9616899B10C4A12F806
:1067F000010B854202D00133082BF8D10133DBB203
:106800000122D9402046FFF7B5FF2078BDE8384087
:10681000FFF74EBF20782946FFF7D0FDF5E738BDDA
:10682000BCB00B0008B50078FFF7D0FDC0B208BDC2
:10683000054B02221A60054B054A9A600020C3E905
:106840000000FFF733BE00BFCCE60320C0E6032004
:106850000000FFFF10B504460068FFF7BBFE2046AE
:1068600010BD10B50446006808B1FFF7B3FE002361
:10687000C4E90133236010BD38B504460D460068F5
:106880000131FFF7AFFE10B1C4E90005012038BDAA
:1068900010B50368044623B143688B4201D301203D
:1068A00010BD2046FFF7E8FF0028F9D0A368002BB1
:1068B000F5D122681370F2E737B50D461146019203
:1068C0000446FFF7E5FF019A28B92046FFF7C9FF04
:1068D000204603B030BDA2602946206803F05EFF69
:1068E0002268A3680021D154F2E7002313B5C0E960
:1068F000003304468360037341B108460191FEF7FB
:10690000ABF9019902462046FFF7D6FF204602B0B8
:1069100010BD38B5054600680C4668B16A688B68DA
:106920009A4207D3096803F097FFA368AB6000237E
:10693000A36038BDFFF74EFE23682B6063686B6071
:10694000A368AB600023C4E90033F1E710B500236E
:10695000C0E90033044683600373FFF7DAFF204683
:1069600010BD884210B5044605D00B682BB18A686B
:106970001946FFF7A1FF204610BDFFF772FFFAE7A7
:1069800010B500230446C0E9003383600373FFF7AA
:10699000E8FF204610BD13B5044659B108460191E1
:1069A000FEF75AF9019902462046FFF785FF204677
:1069B00002B010BDFFF755FFF9E770B505460E466A
:1069C00009B9002070BD6AB1846814442146FFF7FC
:1069D0005FFF0028F5D02868AB683146184403F003
:1069E0003BFFAC600120EDE707B500238DF80410F4
:1069F000012201A98DF80530FFF7DFFF03B05DF834
:106A000004FB02680B46096862B141B9806860B155
:106A100010787047986840B109784842704710462E
:106A2000FEF710B90029F5D10846704708B582680D
:106A30008B689A4205D1FFF7E4FFB0FA80F0400975
:106A400008BD0020FCE770477047704770470000A2
:106A5000064B994210B500F10C0405D0084603F02E
:106A60000DFC002808BF0024204610BD58B30B00C1
:106A7000064B994210B500F10C0405D0084603F00E
:106A8000FDFB002808BF0024204610BD58B30B00B2
:106A9000064B994210B500F10C0405D0084603F0EE
:106AA000EDFB002808BF0024204610BD58B30B00A2
:106AB00010B568210446FEF716F9204610BD10B542
:106AC00028210446FEF70FF9204610BD10B53021ED
:106AD0000446FEF708F9204610BD6821FEF703B909
:106AE0002821FEF700B93021FEF7FDB8F0B50025EA
:106AF000EC1C8C420DD86E1C445D875D974205D11D
:106B00002644B14205D31D60601CF0BD013425440C
:106B1000EEE70020F9E70000024A03490A20FFF7E8
:106B2000B5BC00BF91600B00C4B00B0030B40D4683
:106B300011461A46036809682868D3E90043A44649
:106B400030BC6047012A38B5044602D10B68236087
:106B500003E0022A03D0032A0DD0002038BD08200C
:106B60000D68FEF7BCF803460028F0D095E8030056
:106B700083E80300EBE700680028EED00821FEF769
:106B8000B2F8EAE710B5836804462BB10322014648
:106B900098470023C4E9023310BD10B5836804464A
:106BA0002BB10322014698470023C4E9023310BDEC
:106BB00010B500238AB02022CDE902230446084AFA
:106BC0000092084902AA0120FFF768FC20680649E4
:106BD0000088002322460AB0BDE81040FFF7B8BA8B
:106BE000E6B00B00DBB00B004D8A0B0010B501388E
:106BF00002EB410110F8013F1B0903F13004392C6D
:106C000088BF03F1370402F8024B037803F00F0347
:106C100003F13004392C88BF03F13704914202F8A4
:106C2000014CE7D110BD10B58368044613B10322AF
:106C300001469847204610BD10B504465830FFF76E
:106C4000F2FF04F14800BDE81040FFF703BE10B5A5
:106C50004368013B0446436063B903689B689847F7
:106C6000A368013BA3602BB923682046DB68BDE81D
:106C70001040184710BD38B503688B4205460C46D6
:106C800008D011B14B6801334B60286808B1FFF799
:106C9000DEFF2C6038BDA0F13003DAB2092A01D83A
:106CA00018467047A0F16103052B01D8573870478B
:106CB000A0F14103052B94BF37384FF0FF307047E8
:106CC00010B500230370044B04461868FFF7B6FAAA
:106CD00001232370204610BDD8E6032010B50378A9
:106CE00004461BB1024B1868FFF7B0FA204610BDEE
:106CF000D8E6032082B00346086849686A4603C2A2
:106D00006A4603CA18601846596002B0704708B551
:106D100082798B799A4206D1062203F02FFDB0FAD0
:106D200080F0400908BD0020FCE74FF0FF3303600E
:106D300083800020704708B5024600210160416051
:106D4000FFF7F3FF9171104608BD10B5431D0139DF
:106D50001C7801F8014F834203F1FF33F8D110BDD5
:106D600070B5144688B01A460D46002948D0A4B123
:106D700001A9FFF7EAFF9AB103AA062101A8661E3E
:106D8000FFF734FF112E28BF1126324603A92846EB
:106D900003F004FD0023AB55741C204608B070BD01
:106DA00003AA012101A8FFF721FF3A260DF10F02E6
:106DB00001210DF105008DF80E60FFF717FF0DF1B1
:106DC000120201210DF106008DF81160FFF70EFF90
:106DD0000DF1150201210DF107008DF81460FFF788
:106DE00005FF06AA012102A88DF81760FFF7FEFE35
:106DF0008DF81A600DF11B0201210DF10900BEE7AB
:106E00000C46CAE710B586B004461346084612225F
:106E100001A9FFF7A5FF01A92046FFF766FD20465F
:106E200006B010BD10B501230361054B024603F106
:106E3000100153F8044B42F8044B8B42F9D110BDBA
:106E400052A90B000B7C13F0FD0330B50DD103618B
:106E50000C4B024603F1100453F8045B42F8045B48
:106E6000A342F9D10B88838130BD0123036101F175
:106E70001002034651F8044B43F8044B9142F9D1F8
:106E8000F2E700BF52A90B0010B50B460446B1B1A2
:106E9000012A01F110020AD1014653F8040B41F80E
:106EA000040B9342F9D101232361204610BD411EFA
:106EB00012F8010D01F8010F9A42F9D1F3E71022FF
:106EC00003F094FCF1E738B504460D46FFF7AAFF3E
:106ED00000232361A581204638BD38B504461546F8
:106EE0001A46FFF7D1FFA581204638BD08B50269D3
:106EF00022B98089003818BF012008BD024910223C
:106F000003F03CFCF6E700BF70B30B00006970476C
:106F100038B50C4614220021054603F067FC2369AE
:106F20001BB9A3892B80284638BD01232B74214629
:106F30002B4604F1100251F8040B43F8040B914264
:106F4000F9D1F0E780897047704708B502690B698D
:106F50009A4206D1102203F011FCB0FA80F04009E9
:106F600008BD0020FCE7000001232DE9F341036187
:106F7000344B0C460646024603F1100153F8040B4D
:106F800042F8040B8B42F9D144B32421204603F08C
:106F90006BFC04284FF0000523D1ADF8045001AF7D
:106FA000A51C063415F8020CFFF775FEB0F10008B9
:106FB00012DB15F8010CFFF76EFE00280CDB023522
:106FC00040EA0810A54207F8010BEBD19DF8053007
:106FD00033739DF8043073730023336102B0BDE84E
:106FE000F0814FF010082421204603F03DFCA84218
:106FF00007D842460021304602B0BDE8F04103F018
:10700000F5BBB8F1000FE9D0605DFFF744FE030661
:1070100015D4000108F1FF38C7B206F80870242122
:10702000204603F021FC0135A84208D9605DFFF736
:1070300032FE40B20028A4BF384306F808000135EC
:10704000D1E700BF52A90B0013B504460191FFF729
:10705000E9FE20460199FFF787FF204602B010BDE8
:1070600010B500F10F0301391C7801F8014F83427C
:1070700003F1FF33F8D110BD2DE9F0411F468EB06A
:107080000D4600295BD0DAB1D0F81080541EB8F15B
:10709000000F19D18389CDF814805BBA05AA0221AB
:1070A00001A8ADF80430FFF7A1FD042C28BF04248B
:1070B000224605A9284603F071FB05F80480621CEE
:1070C00010460EB0BDE8F08101A9FFF7C9FF05AA7F
:1070D0007FB1102101A8FFF789FD242C28BF2424AB
:1070E000224605A9284603F059FB00232B55621CB4
:1070F000E6E704210DEB0100FFF778FD2D260DF1E9
:107100001D02022102A88DF81C60FFF76FFD0DF132
:10711000220202210DF10A008DF82160FFF766FDC1
:107120000DF12702022103A88DF82660FFF75EFD0E
:107130008DF82B600BAA06210DF10E00CBE70A4655
:10714000BEE710B58AB004460023252208466946EA
:10715000FFF792FF69462046FFF7C7FB20460AB0BB
:1071600010BDF7B5054616461F460A4601ABD0E9E5
:107170000001FFF7BBFC30F002040CD0841EBC42BF
:1071800028BF3C463EB101992B6802312246194482
:10719000304603F003FB204603B0F0BD37B513467D
:1071A0000C4601920A4608210546FFF7DAFF40B96E
:1071B000019B22460921284603B0BDE83040FFF775
:1071C000D0BF03B030BD0000F0B50C4689B00C490B
:1071D0000546FFF78AFB1F2269462046FFF7DEFFC0
:1071E000064650B16C46002714F8011B2846FFF7ED
:1071F000FBFB10B10137BE42F6D1284609B0F0BD05
:10720000CFA90B0007B5022301AA1921FFF7A9FF97
:1072100008B1BDF8040003B05DF804FB38B54FF6C3
:10722000FF730025044643800E2229460570057130
:10723000063003F0DBFA04F11400FFF7F3FD04F16C
:107240002800FFF7EFFD044904F13C00FFF74DFB78
:107250006565204638BD00BFCFA90B0038B50D6865
:107260000446014605F12800FFF76FFE40B1AB89E7
:10727000A28A9A4205D8E08A984234BF00200120B1
:1072800038BD0020FCE710B5D0E9063203EBC2029E
:107290009342184606D0046824888C4203F1080300
:1072A000F6D110BD0020FCE7002370B50360054651
:1072B0006820FDF714FD041E04F10C0607D001231D
:1072C000C4E90133044B23603046FFF7A7FFC5E94B
:1072D0000064284670BD00BF0CB30B0070B50C688D
:1072E0001434064605460FCC0FC523682B60304684
:1072F00070BD0000F0B5064685B01F460D4600295A
:1073000050D0002A4ED004682378F42A28BFF422F3
:1073100043B32379980709D5A08903920023FEF788
:107320000DFF0028039A03DA05B0F0BD6FF0770077
:1073300034682379D90609D5012F07D0A089002305
:10734000294605B0BDE8F040FEF75CBF9B06EBD5D3
:10735000022FE9D0A0890023294605B0BDE8F040FE
:10736000FEF75ABF60884FF6FF7188421CD0217922
:107370004E0701D5012F04D10B0709D46FF0770018
:10738000D2E7A189009313462A46FEF7FFFECBE71A
:10739000022FF3D00023A189009313462A46FEF75B
:1073A000EBFEC1E70248BFE76FF0D100BCE700BFCA
:1073B000F2FEFFFF10B503681A7886B052BB5C88F6
:1073C0004FF6FF70844225D0188A30B3CDE90322EE
:1073D0000592134A0092134ACDE901235A88ADF869
:1073E0000C201A8AADF80E209A89ADF8102059B1F8
:1073F0001A79920644BF022205921B79DB0642BF2E
:10740000059B43F00103059300216846FEF7F0FE5B
:1074100006B010BD6FF0D100FAE76FF07700F7E724
:107420000300180041760B00F8B5002606600546FB
:107430002820FDF754FC041E04F10C070AD0012398
:10744000C4E90133054B23603846FFF7EBFC2662A5
:1074500084F82460C5E900742846F8BD28B30B0001
:107460002DE9F04100260660074628200C46FDF76E
:1074700036FC051E05F10C080FD00123C5E90133C8
:10748000084B2B604046FFF7CDFC0FCC2E6285F8F1
:10749000246046460FC623683360C7E90085384636
:1074A000BDE8F08128B30B0070B5002505600646E5
:1074B0003020FDF714FC044688B10123C0E90133F4
:1074C000094B03604FF6FF7383810E30FFF733FCE7
:1074D000C4E90655C4E90855C4E90A55A5757460A0
:1074E0000C343460304670BD44B30B0013B5044611
:1074F00001A8FFF7E5FB23681C884FF6FF73E41A29
:1075000001A818BF0124FFF7E9FB204602B010BD17
:1075100037B505460C4601A8FFF7D2FB2A68236859
:10752000C2F802306368C2F8063001A8FFF7D6FB44
:1075300003B030BD37B50D46044601A8FFF7C0FBC8
:107540002A68D2F802302360D2F80630636001A8BE
:10755000FFF7C4FB204603B030BD30B5054687B009
:107560000C4601A8FFF7ACFB2A68236812881B8829
:107570009A420DD1294602A8FFF7DCFF214604A854
:10758000FFF7D8FF04A902A8FFF7C1FB044600B922
:10759000002401A8FFF7A2FB204607B030BD000081
:1075A00010B504466420FDF79AFB68B10023C0E9DA
:1075B0000033C0E90233C0E90433C0E90633036293
:1075C000C362C363C364C365206020B90A4A0B4920
:1075D0000A20FEF75BFF0020FEF76AFD20B1064A95
:1075E00007490A20FEF752FF216806480022FEF7ED
:1075F000F5FD204610BD00BF91600B00C4B00B002C
:1076000002B10B0065800B0010B50A4C2378BFF364
:107610005B8FDB070CD42046FDF774FB40B10648B6
:10762000FFF7BEFF2046FDF772FB044803F0A0F809
:10763000014810BDD0E60320DCE6032045790B00AD
:1076400030B50368093B012B8DB004460D4611D8B7
:10765000FFF7DAFFA1880068FFF715FE034658B967
:107660002022CDE904200B4A00920B4904AA3220C3
:10767000FEF714FF0DB030BD6A6D002AFAD0D4E9D0
:10768000032105F14C00CDE90312AC6D04AA03A956
:10769000A047EFE744B10B00DBB00B0008B50020BA
:1076A000FEF706FD00EAE07008BD19B90A46084673
:1076B000FEF706BDD1E900010022F9E710B5044646
:1076C0004069FEF787FFA068FEF784FF204610BDE3
:1076D000002247F67F71C0E90022C0E90222C0E91A
:1076E0000422C0E90E22C0E91022C0E91222C0E93A
:1076F0001422C0E91622C0E91822C0E91B22026246
:107700000263A0F8681070470368D8690028D4BFE6
:1077100000200120704770B5D0E90053044605EB06
:107720000316AE4204D02846FFF794F81035F8E768
:107730002068FEF74FFF204670BD10B50446006874
:10774000FEF748FF204610BD70B50446C06DFEF739
:1077500041FF206DFEF73EFF04F1380504F14400BF
:10776000FFF7EBFF2846FFF7D6FF04F12800FFF7ED
:107770005AFA04F11800FFF756FAD4E90053242608
:1077800006FB0356AE4204D02846FFF797FF243588
:10779000F8E72068FEF71EFF204670BD38B5141EBE
:1077A0004368054602DB62189A4200DD5C1A2A68CB
:1077B000501801191A44521A02F0FEFF6A68121B8F
:1077C0006A6038BD37B50A4604460D4601ABD0E9BC
:1077D0000001FFF78BF9024638B101992046FFF707
:1077E000DDFF29462046FFF7EDFF03B030BD10B5A1
:1077F0000C4629B90A460846BDE81040FEF768BCA9
:1078000001212046FFF7DEFFD4E900010022F3E763
:1078100038B504461546FFF748FF00280ADB29461D
:107820002046FFF7E4FF002804DBBDE838400020D5
:10783000FEF756BC38BD000038B50023044683600F
:1078400008200D46FDF74BFA18B12B6803606B68F2
:107850004360034BE360034B2060A360204638BDC8
:107860002D6B0B00456B0B000B68036013B15A685E
:1078700001325A60704710B551F8043B044640F895
:10788000043BFFF7F1FF23680BB9FFF745F92046EA
:1078900010BD10B551F8043B044640F8043BFFF717
:1078A000E3FF204610BD10B551F8043B044640F8F4
:1078B000043BFFF7D9FF204610BD10B50446006811
:1078C00008B1FFF7C4F9204610BD10B504460430D6
:1078D000FFF7F3FF204610BD10B504460430FFF754
:1078E000ECFF204610BD70B5D0E90053044605EB0F
:1078F000C306AE4204D0281DFFF7DFFF0835F8E7C6
:107900002068FEF767FE204670BD70B5D0E90053D1
:10791000044605EBC306AE4204D0281DFFF7CDFF99
:107920000835F8E72068FEF755FE204670BD10B513
:1079300004462430FFF7E9FF04F11800FFF7D3FFF6
:1079400010BD000070B5174B1C6854B304F154000F
:10795000FFF769F904F14400FFF765F904F1340019
:10796000FFF761F904F12400FFF75DF9D4E906534C
:1079700005EBC306AE4204D0281DFFF79EFF083575
:10798000F8E7A069FEF726FE04F10C00FFF7BDFF43
:107990002046FFF7A8FF20466421BDE87040FDF7B0
:1079A000A2B970BDDCE6032013B50023D1E9004283
:1079B000C1E900330368009304604368426001A892
:1079C0000193FFF77AFF02B010BD826810B50AB9C3
:1079D00002F050FCBDE81040C36818472DE9F0479D
:1079E0000023C0E900338360D1F804809845054640
:1079F0000F464ADD4FEA0810FEF7E4FD0646002870
:107A000043D0D5E90041A04204EB011A16D95045F4
:107A100015D2AAF1100AA4F11009AAEB0404044437
:107A2000D1451DD01CB151462046FEF78FFF504670
:107A3000FEF710FFAAF1100A103CF1E710D0B14692
:107A4000A2450DD0B9F1000F03D021464846FEF7FC
:107A50007DFF2046FEF7FEFE103409F11009EFE726
:107A60002868FEF7B7FDC5F808802E60D7E9004307
:107A700004EB0318A04506D021463046FEF780FFF0
:107A800010341036F6E77B686B602846BDE8F08757
:107A900030B58DB00C4600F1380101A8FFF79EFF0C
:107AA000029B002B2FDD04F1140104A8FFF78CFBCF
:107AB00004F1080108A8FFF787FB0A9A069B134305
:107AC0001FD0DDE9014504EB0515AC4219D004A92E
:107AD0002046FEF7ABFF60B1012408A8FEF7BAFE0E
:107AE00004A8FEF7B7FE01A8FFF715FE20460DB06B
:107AF00030BD204608A9FEF799FF10340028E4D0D5
:107B0000EAE70024E9E70124EDE7F8B50023C0E93E
:107B1000003383604F689F4205460E463EDDF80005
:107B2000FEF750FD0446C8B3D5E90003844200EBDC
:107B3000C30310D99C420FD2083B1A1AA0F1080CBB
:107B400022449C4518D01AB11968116059685160D7
:107B5000083B083AF5E70FD0014622468B420BD08E
:107B60003AB1D1F800C0C2F800C0D1F804C0C2F8E0
:107B700004C008310832F1E7FEF72CFD2C60AF603D
:107B8000D6E9003103EBC100984206D01A682260A2
:107B90005A68626008330834F6E769602846F8BD21
:107BA00070B504460020C4E90000A0604E6886421B
:107BB0000D4612DD7100FEF715FD70B12060A66064
:107BC000D5E9003203EB42029A4204D033F8021B9B
:107BD00020F8021BF8E76B686360204670BD10B5A3
:107BE0000379044623B90368186808B1FEF7F2FC6C
:107BF000204610BD10B50379044623B90368186800
:107C000008B1FEF7E7FC204610BD00002DE9F04367
:107C1000D0F86C808FB00F46B8F1000F72D0056FAE
:107C2000002D6FD001F114091F230022FF214846C7
:107C3000FFF797FA0837FF23044600221946384613
:107C4000FFF78FFAAC42064606D0AE4230D0002491
:107C500020460FB0BDE8F0832046FEF7B3FC03AB2F
:107C600004930023044603908DF8143070B9202348
:107C7000CDE90630244B00932449034606AA32205E
:107C8000FEF70CFC04A8FFF7AAFFE1E70246FF217C
:107C90002B464846FFF765FA03982A46414602F00C
:107CA0006DFD18B104A8FFF79AFFCEE70124E9E7BC
:107CB0002846FEF787FC002403AB06460390049396
:107CC0008DF8144078B92023CDE906300E4B00938F
:107CD0000E49034606AA3220FEF7E0FB344604A80C
:107CE000FFF788FFB4E70246FF212B463846FFF72F
:107CF00038FA03982A46414602F040FD0028EED1AA
:107D00000124ECE70124A3E75CB10B00DBB00B001E
:107D100038B50D1E0446006803DDFEF763FC18B994
:107D200038BDFEF757FC00202060A5600120F7E772
:107D300008B583688B4202DAFFF7EAFF08BD01202D
:107D4000FCE738B50023C0E9003383600D4649687D
:107D50009942044610DDFFF7DBFF68B1D5E9003139
:107D600022681944994205D00AB11878107001337D
:107D70000132F7E76B686360204638BD38B50B68A1
:107D800003604B68436004460D4608300831FFF736
:107D9000D8FF05F1140104F11400FFF7D2FF95F8A4
:107DA000203084F82030204638BD1FB5044601A895
:107DB000FFF7C7FF019B029A206823606368626037
:107DC000039A0293A368A26001900393FEF702FC5A
:107DD00004B010BD2DE9F0410F4641681D4619441D
:107DE000836899420446904612DC266862683E44E5
:107DF000D21B3146701902F0DFFC2A46414630465C
:107E000002F0CCFC63682B4463600120BDE8F08184
:107E1000FFF77EFF0028E8D1F8E713460A46002165
:107E200010B50446416002B10BB9002010BDFF2B14
:107E300028BFFF23FFF7CEFF0028F7D06068F5E7E3
:107E4000F8B50D46D0E901139942044616460BDAFF
:107E5000276862687919521B481C02F0ADFC7E55F8
:107E6000636801336360F8BD0131FFF751FF0028FB
:107E7000EED1F8E70A464168FFF7E2BF2DE9F74384
:107E800004461D460F4601AB90460A46D0E9000164
:107E90009DF82890FEF72AFEAE1C63680246B9F1F1
:107EA000000F26D128B333441B1AFF2B09D80199A0
:107EB0002046FFF773FC616820463144FFF738FF26
:107EC00018B9606803B0BDE8F0836A1C0199D2B2AA
:107ED0002046FFF7B5FF01993A4601312046FFF7EA
:107EE000AFFF01992B46424602312046FFF772FF51
:107EF000E7E7F118FF29E4D82046FFF719FF00282B
:107F0000DFD0691CC9B22046FFF7B4FF39462046CE
:107F1000FFF7B0FF61682B464246E6E730B49DF8B4
:107F200008501AB1029530BCFFF7A8BF406830BCBA
:107F300070471FB50023C0E9003383600622009319
:107F400001238DF80F2019460DF10F020446FFF7AB
:107F5000E5FF204604B010BD8842F8B504460D4642
:107F6000164614D9904213D2A2F10806751AA1F14F
:107F700008072C44B74218D01CB131462046FFF701
:107F800092FC301DFFF799FC083E083CF2E70CD04C
:107F9000B5420AD01CB129462046FFF784FC281DB3
:107FA000FFF78BFC08350834F2E7F8BDF7B5044657
:107FB00046686846FFF777FCD4E901739F4212DBFD
:107FC0000137002F29DDF800FEF7FCFA0546F0B175
:107FD000D4E9001201EBC202FFF7BEFF2068FEF7F2
:107FE000F9FA2560A7602368626803EBC60603EB15
:107FF000C202314606F10800FFF7AEFF1EB1694626
:108000003046FFF750FC636801336360012501A827
:10801000FFF753FC284603B0F0BD0025DEE7F8B5B6
:10802000D0E9004305460F4604EBC306A64205D03F
:1080300039462046FFF791FA08B114B9F8BD083463
:10804000F4E7201DFFF739FCD5E9003204F10801FF
:1080500003EBC2022046FFF77FFF6B68013B6B60BA
:10806000ECE700002DE9F04105468EB003A80C4670
:10807000FEF726FE2E68F31E0D2B3CD8DFE813F02A
:108080000E0057003B00CF003B003B003B003B0095
:108090003B009900990099009900990004A8FFF706
:1080A00003FA049BAA891A8069680498083102308F
:1080B000FEF720FE04A906A8FFF7F5FB06A904F1C8
:1080C0001800FFF773FF054607A8FFF7F6FBC5B9D1
:1080D0002023CDE906355C4B5C49009306AA2B466C
:1080E0000120FEF7DBF9049B29461888FEF712F8F9
:1080F00005A8FFF7E2FB03A8FEF7F0FD0EB0BDE810
:10810000F081E36A23B104A904F12400FFF75DFCC8
:1081100005A8FFF7D2FB20210023CDE906134C4A26
:1081200000924A4906AA0120FEF7B8F9E3E7A989B7
:108130002046FFF7A8F806460028DCD00568D5E9F8
:1081400006324FF6FF71298003EBC2029A4203D038
:1081500053F8080B4180F9E7D5E9037307EBC3082F
:10816000B84504D0381DFFF7A8FB0837F8E700230F
:108170002B61D5E9067307EBC308B84504D0381D59
:10818000FFF79BFB0837F8E70023EB61AB72E36B6B
:1081900023B1314604F13400FFF717FC314604F1F6
:1081A0001800FFF73CFF20220023CDE90623294ACF
:1081B000B6E7A9892046FFF766F800289BD0E36C54
:1081C000002B98D000230D2EADF8163001D0102EC4
:1081D00017D1002369681A4606258DF815300491D9
:1081E0008DF814200690DDE9040109AB8DF81C60C0
:1081F000089583E80300236D06A904F1440098471D
:1082000079E70F2E01BF2B7A696803F00102082578
:108210000FBFC3F340031A4619461D46DDE7A9897F
:108220002046FFF730F8014600283FF464AFE36DC5
:10823000002B3FF460AF6B68069306AA236E04F12F
:108240005400984757E700BF77B10B00DBB00B0035
:10825000E1A90B009DB10B0038B50D1E0446006866
:1082600005DD14216943FEF7BDF918B938BDFEF7E5
:10827000B1F900202060A5600120F7E72DE9F8435F
:108280000024C0E90044846088464968A14207464A
:108290001ADDFFF7E1FFB8B1D8E900934FF0140CF5
:1082A000D7F800E00CFB039C09EB0405AC4508D0B3
:1082B0001EEB04061FBF0FCD0FC62B6833601434AE
:1082C000F2E7D8F804307B603846BDE8F88330B573
:1082D00085B0044601A80D46FFF780FB019A23688C
:1082E0002260029A019363686260039A029301A874
:1082F000A368A2600393FFF70EFA05F10C0101A831
:10830000FFF7BCFF019AE368E260029A01932369D8
:108310002261039A029301A8636962610393FFF7E4
:108320000CFA05F1180101A8FFF7EFFB019B029A77
:10833000A069A361E369E261039A0293236A22625E
:1083400003930190FEF746F905F1240101A8FFF718
:1083500027FC019B029A606A6362A36AA262039A85
:108360000293E36AE26203930190FEF733F995F911
:10837000303084F8303095F9313084F831306B6B1F
:108380006363AB6BA36305B030BD2DE9F843D1E95E
:10839000008745688368E9199942044617DC14236D
:1083A000266862685D4303FB07F95A432E44521B5B
:1083B000314606EB090002F0FFF94A4641463046D5
:1083C00002F0ECF963683B446360BDE8F883FFF7B3
:1083D00043FF0028E3D1F8E782B070B50C4604A94A
:1083E00081E80C00D0E901139942054617DA1423FD
:1083F00003FB04F16A682C685A430C44521AE018D3
:10840000214604AE02F0D8F90FCE0FC433682360C2
:108410006B6801336B60BDE8704002B0704701319A
:10842000FFF71AFF0028E2D1F5E72DE9F04F00240D
:1084300093B0931EC0E90044DBB205460F46904658
:108440008460059379688C4272DA386807AB4246DB
:10845000091B2044FEF74AFB0646002868D0059B0E
:10846000012B2FD8A0F1020B4FEA5B0B4FF0000954
:108470000DF13C0A079BCB45234455D03A6803EBEA
:108480004903134408A8D9789B7843EA0121FEF7F1
:108490001AFD0DF1200EBEE80F000DF1340CACE812
:1084A0000F00DEF80030CCF800309AE807008DE8C5
:1084B00007000DAB0CCB69682846FFF78DFF09F16B
:1084C0000109D7E7A8F10603012B2DD8A0F1020B73
:1084D0004FEA1B1B4FF000090DF13C0ACB45079BEF
:1084E00022D002333968234403EB091301221944D3
:1084F00008A8FEF7C9FC0DF1200EBEE80F000DF133
:10850000340CACE80F00DEF80030CCF800309AE80C
:1085100007008DE80700DDE90D2369682846FFF7AD
:108520005BFF09F10109D9E7079B1C44344489E743
:10853000284613B0BDE8F08F30B5002385B0C0E900
:10854000003383600446022201A80D46FFF76DFF49
:1085500001A92046FFF719FF01A8FFF7EEF8022254
:10856000294601A8FFF761FF01A92046FFF70DFF8B
:1085700001A8FFF7E2F80322294601A8FFF755FFFB
:1085800001A92046FFF701FF01A8FFF7D6F8062250
:10859000294601A8FFF749FF01A92046FFF7F5FE8C
:1085A00001A8FFF7CAF80722294601A8FFF73DFFF7
:1085B00001A92046FFF7E9FE01A8FFF7BEF8204613
:1085C00005B030BD2DE9F04385B08846014601A8CD
:1085D0009146FFF7B1FF019E029B4FF0140E0EFB78
:1085E000036C0027B4450DD0B94506F1140609D037
:1085F000A6F114050FCD0EFB07840FC42B68236072
:108600000137EFE701A8FFF798F8384605B0BDE855
:10861000F0832DE9F04F8BB00C4600F1440101A826
:10862000FFF72CFE029B002B4ADD04F1140104A885
:10863000FFF782FF04F1080107A8FFF77DFF059D02
:10864000089E002D01DC002E38DD019A029FDDF826
:108650001080DDF81C90142303FB072703FB05851E
:1086600003FB06969246BA4528D0C346AB4515D0C3
:1086700059465046FEF769FC0BF1140B04460028DE
:10868000F4D007A8FFF759F804A8FFF756F801A897
:10869000FFF753F820460BB0BDE8F08FCB46B3454B
:1086A00009D059465046FEF750FC0BF1140B044616
:1086B0000028F4D0E5E70AF1140AD4E70024E0E743
:1086C0000124E4E713B50B460246D0E900016C46ED
:1086D00084E8030093E8030082E8030094E80300C1
:1086E00083E8030002B010BD38B505460C46FFF71D
:1086F000E9FFAB68A268AA60A360EB68E268EA6081
:10870000E36038BD30B585B0002302938B68054621
:108710000C4633B1022268469847E3680393A36886
:10872000029329466846FFF7DFFF6846FEF77BFAAB
:1087300005B030BD38B50D4601684B6D044623B118
:1087400028684C314C30FFF7DDFF20462B6840F89D
:10875000043B6968FEF78FFA204638BD2DE9F043E7
:10876000044687B068460E461746FEF7A9FA236806
:10877000D3E9064304EBC3084445A14616D021467D
:1087800001A8FEF7ABFD394601A8FEF7DEFB083471
:1087900005460028F0D049463046FFF7CBFF684633
:1087A000FEF79CFA284607B0BDE8F0830025F6E7FF
:1087B00010B504688AB04C34B9B1CDE9001202A8F2
:1087C0006946FFF739F8002306A902A80893FFF7C6
:1087D0008BFF214606A8FFF787FF06A8FEF723FABE
:1087E00002A8FEF720FA0AB010BD0491EBE770B5BD
:1087F00004468CB00E4601921D46FEF70FFD267111
:10880000019904F13C00FEF7C6F804F14C06CDB125
:10881000109B029502A904A80393FFF70DF800230B
:1088200008A904A80A93FFF75FFF314608A8FFF7DD
:108830005BFF08A8FEF7F7F904A8FEF7F4F9204655
:108840000CB070BD0695EAE72DE9F04F87B01D46E4
:10885000DDE9104380468B4692461299039300222D
:10886000682002910492FCF73AFA061E06F10C0900
:1088700018D001223746C6E901220299154A47F865
:10888000202B039B00915A4651464846FFF7AFFF05
:108890000FCD0FC72B683B600FCC06F134050FC519
:1088A00023682B6004A94046CDE90496FFF77CF8C5
:1088B00005A8FFF702F8D8F800303BB9064A074987
:1088C0000A2007B0BDE8F04FFDF7E0BD07B0BDE8F6
:1088D000F08F00BF0CB30B0091600B00C4B00B0015
:1088E0008842F8B504460D46164614D9904213D274
:1088F000A2F10806751AA1F108072C44B74218D056
:108900001CB131462046FEF7C4FF301DFEF7D5FFEF
:10891000083E083CF2E70CD0B5420AD01CB129460B
:108920002046FEF7B6FF281DFEF7C7FF08350834BE
:10893000F2E7F8BD70B50E1E054611DDF000FDF73B
:1089400041FE044658B1D5E9001201EBC202FFF71F
:10895000C7FF2868FDF73EFE2C60AE60012070BDA9
:108960000024F6E72DE9F0410023C0E900338360DD
:108970000D4649689942044613DDFFF7DBFF80B1DD
:10898000D5E90063276806EBC308B04507D01FB1DF
:1089900031463846FEF77DFF08360837F5E76B6845
:1089A00063602046BDE8F08137B50D46044601A856
:1089B000FEF786F9296820460C31FFF7D3FF01A89E
:1089C000FEF78CF9204603B030BD38B50B689B7AB2
:1089D00005460C4633B90846FEF7EAF810B9236895
:1089E00001229A7228462146FFF7DEFF284638BD4D
:1089F00073B5044645686846FEF74BFFD4E901139A
:108A0000994210DA2368626803EBC50503EBC202E2
:108A1000294605F10800FFF763FF8DB9636801334C
:108A20006360012606E001312046FFF783FF06461A
:108A30000028E7D101A8FEF740FF304602B070BD24
:108A400069462846FEF725FFE8E700002DE9F04FCC
:108A5000DFF8B890DFF8B8A093B005468846002745
:108A60002B68BB424ED903A8FEF7DEFC1C266A68C1
:108A7000039C7E4332440DF1140C131DE346143263
:108A800018685968E646AEE8030008339342F44696
:108A9000F6D11868CEF8000059460AA8FEF7D2F9B8
:108AA0000DF1280CBCE80F000FC4DCF80030236087
:108AB0006B68039A334403A91B8B93826B6833441E
:108AC0005B8BD382D8F8000000F10C040AA8FEF7F3
:108AD000E0FE20460AA9FFF78BFF04460BA8FEF72D
:108AE000ECFE54B92023CDE90A34CDF8009023469A
:108AF0000AAA51463220FDF7D1FC04A8FEF7DDFE9C
:108B00000137ADE713B0BDE8F08F00BFAAB10B008D
:108B1000DBB00B008842F8B504460D46164614D962
:108B2000904213D2A2F10806751AA1F108072C444D
:108B3000B74218D01CB131462046FEF79CFE301DCE
:108B4000FEF7BBFE083E083CF2E70CD0B5420AD067
:108B50001CB129462046FEF78EFE281DFEF7ADFE0D
:108B600008350834F2E7F8BD70B50E1E054611DD74
:108B7000F000FDF727FD044658B1D5E9001201EBDE
:108B8000C202FFF7C7FF2868FDF724FD2C60AE6026
:108B9000012070BD0024F6E72DE9F0410023C0E973
:108BA000003383600D4649689942044613DDFFF7A0
:108BB000DBFF80B1D5E90063276806EBC308B04549
:108BC00007D01FB131463846FEF755FE0836083744
:108BD000F5E76B6863602046BDE8F08137B50D4668
:108BE000044601A8FEF76CF8296820461831FFF703
:108BF000D3FF01A8FEF772F8204603B030BD73B56D
:108C0000044645686846FEF736FED4E901139942EA
:108C100010DA2368626803EBC50503EBC20229463C
:108C200005F10800FFF776FF8DB9636801336360D3
:108C3000012606E001312046FFF796FF0646002890
:108C4000E7D101A8FEF739FE304602B070BD694693
:108C50002846FEF710FEE8E7F0B585B0054601A806
:108C60000C461746FEF72CF80023C5E90033AB602D
:108C70002368D3E9064604EBC606B44211D038682F
:108C80002146FEF7EBFA50B1214602A8FEF7F3FDAC
:108C900002A92846FFF7B3FF03A8FEF70EFE08342B
:108CA000EBE701A8FEF71AF8284605B0F0BD000072
:108CB0002DE9F0430B689B7A91B006460F4690462B
:108CC00033B9C0E900338360304611B0BDE8F083AA
:108CD00011680D7E002D58D120232A4603A8CDE926
:108CE0000835FEF72EFA039B01932B4B2B4900937B
:108CF00008AA2B460120FDF7D1FB03A8FDF7AAFD2A
:108D00001C23ADF82230D8F800309A8AADF838200C
:108D1000DB8AADF83A303B68214A1888009508A9EB
:108D2000FDF720FA002830DB3B68D3E9064304EB6B
:108D3000C3090834A4F10803994522D054F8083C2B
:108D4000DB89002BF5D0102200210DEB02000395EA
:108D500001F04CFD54F8083CD9893B6803AA1888F7
:108D600000951323FDF71CFA0028E2D010AB18443D
:108D700003A900F8345C54F8080C3C30FDF70BFEF6
:108D8000D7E7D8F8003001221A76424639463046F5
:108D9000FFF762FF98E700BFCFB10B00DBB00B001D
:108DA000498F0B00F0B50B689B7A85B006460D46DF
:108DB0002BB901A8FFF709FE01A8FEF794FD2B6867
:108DC000D3E9034704EBC707BC4209D02246294632
:108DD00001A8FFF76DFF01A8FEF797FD0834F3E740
:108DE00030462946FFF7FAFE304605B0F0BD0000D8
:108DF0002DE9F043054693B0086807920F4649688D
:108E000098460AAC414B049303C405AB4FF00009EC
:108E100083E80300CDE90899FEF7F6FB3C4B089385
:108E2000FEF7F2FB2968036809934A4604A8FDF798
:108E3000C1F90AAE044638B12B684FF6FF721A80AA
:108E4000204613B0BDE8F08303A8FDF739FF39468B
:108E50002846FEF75DFBFEF7D7FB07682946183763
:108E60003046FEF720FD31463846FFF79FF80746AB
:108E70000BA8FEF722FD4FF020091FBB3246254B01
:108E8000254E2649009332202346CDE90A94FDF76A
:108E900005FB3068FDF7DAF92B688DF80C402146A8
:108EA00018881F4CFDF736F93068FDF7C7F9012324
:108EB0008DF80C302B684FF6FF721A8003A8FDF76F
:108EC0000DFFBDE703A8FDF709FF164B00931349FB
:108ED000234632460120CDE90A94FDF7DFFAB8F1C6
:108EE000000FADD029463046FFF75CFFDDE90A539D
:108EF00005EBC307BD4205D028460121FEF75AFA0B
:108F00000835F7E73046FEF700FD99E70300180043
:108F100065800B0001B20B00D8E60320DBB00B002C
:108F2000FCFEFFFF1DB20B0013B50446CDE9003275
:108F3000FEF7BAFA009B019900222046FFF758FF7E
:108F4000204602B010BD00002DE9F04F202395B05F
:108F50000026CDE90C36664B009305460F46334696
:108F60006449DFF89491DFF88C81DFF890A10CAAB6
:108F70000120FDF793FA2B68B34240F2B58003A8B5
:108F8000FEF792F905A8FEF74FFA4FF02A0B6B682F
:108F9000039A0BFB06FB5B44D98B1181198C518121
:108FA000598C9181988CD081D88C10821B8D5382E2
:108FB000D7E9033203EBC2029A427DD01868C48A13
:108FC0008C4277D3848A8C4274D85968059006A85D
:108FD000FDF751FEDDF814C0DDF80CE0BCE80F0031
:108FE0000EF128040FC4DCF8003023602B89AEF8A2
:108FF00002306B68039C5B445B7E13F0020F6ED102
:109000006B685B445B7E580742BF237943F00403DF
:1090100023716B685B445B7E190742BF237943F081
:10902000080323716B685B445B7EDA0642BF2379D9
:1090300043F0100323716B685B4407AA5B7E9B06B9
:1090400042BF237943F0200323716B689B440BF1EB
:10905000040396460BF1140B186859689446ACE863
:10906000030008335B456246F6D11868CCF800006F
:1090700071460CA8FDF7E6FE0DF1300CBCE80F00C0
:1090800014340FC4DCF80030236003A90CA8FEF7E9
:10909000F2FB0CA907F11800FFF7B1FD04460DA87B
:1090A000FEF70BFC9CB92023CDE90C34CDF800A0D1
:1090B000234607E008337FE720240023CDE90C4353
:1090C000CDF800900CAA41463220FDF7E7F906A83A
:1090D000FEF7F3FB04A8FEF7F0FB01364BE723791C
:1090E00043F0020323718BE715B0BDE8F08F00BF9A
:1090F0003AB20B00DBB00B0055B20B0084B20B0090
:109100002DE9F04F1746A1B080460AA80E46FDF79C
:10911000D7FD3C68237953B939464046FEF7ABFB8F
:109120000AA8FDF7DBFD404621B0BDE8F08F3368AB
:10913000D3E9035305EBC303039304F1280A04F1B5
:10914000140B039B9D4221D0D5F80090584609F19D
:109150001401FDF7FAFEB8B109F128015046FDF7F8
:10916000F4FE88B12368D9F80020534033F47F43DC
:109170000AD12022CDE915235E4A009215AA5E4944
:109180003220FDF78BF9C7E70835DAE75046FDF7DF
:10919000ADFE60B95949012215A815ADFDF774FE61
:1091A0000FCDD446ACE80F002B68CCF80030336804
:1091B000D3E9005305EBC30B5D45A94651466ED07C
:1091C00055F8080BFDF7C1FE0028F5D004F1140A8C
:1091D0005046FDF78BFE88B9494B48491A88013241
:1091E00092B21A8015A8012315ADFDF776FE0FCDBA
:1091F000D446ACE80F002B68CCF80030414B1593F7
:109200002822002116A801F0F1FA514604A8FDF722
:109210007FFE04AB18AA0DF1200C1868596815469A
:1092200003C5083363452A46F7D1186828602379B7
:109230008DF85830D9F800309B8AADF87430E36B64
:109240001793314B0022A11D15A8CDE91E34FCF760
:10925000BBFF00287FF460AF0123237034683946D8
:109260000C340DA8FEF707FB20460DA9FFF7C7FC3D
:1092700004460EA8FEF721FB002C7FF44DAF2023FF
:10928000CDE90D34214B00930DAA234677E73946EB
:109290004046FEF7F0FA0CA8FEF70FFB40E70BA8DC
:1092A000FEF7DEF8514615A8FDF732FE0B9A0023B3
:1092B000143215A90120FCF737FF0028E7D13568E3
:1092C0000BA90DA8FEF7E5FA28460DA9FFF790FBBC
:1092D00005460EA8FEF7F1FA002DD8D03268536883
:1092E000126803F10053013B0CA802EBC309FEF71F
:1092F000E4FA6BE7B0B20B00DBB00B0060B30B001D
:10930000D4E6032003002C0041760B00DBB20B00F7
:109310008842F8B504460D46164614D9904213D239
:10932000A2F12406751AA1F124072C44B74218D0E3
:109330001CB131462046FEF721FD3046FEF7BEF94E
:10934000243E243CF2E70CD0B5420AD01CB1294699
:109350002046FEF713FD2846FEF7B0F924352434E5
:10936000F2E7F8BDF8B50E1E054613DD242707FB0E
:1093700006F0FDF727F9044658B1D5E9001207FBBE
:109380000212FFF7C5FF2868FDF724F92C60AE60D4
:109390000120F8BD0024F6E72DE9F0410023C0E9E3
:1093A000003383600F4649689942054629DDFFF77F
:1093B000D9FF30B3D7E900434FF024082E6808FBEB
:1093C00003480834A4F10802904518D0A6B154F817
:1093D000083C336054F8043C7360214606F10800F1
:1093E000FEF7AFFC04F10C0106F11400FEF7A9FC36
:1093F00094F9183086F8203024362434E2E77B686C
:109400006B602846BDE8F08138B50C46054601F191
:109410001800FDF7B7FB04F12800FDF7BEFB0022A2
:1094200021460448FCF764FE21462846FFF7B4FFB6
:10943000284638BD63940B0010B5A0B0044603A8BD
:109440000192FEF745F9019911A8FEF740FF03A923
:109450002046FFF7D9FF03A8FEF776F9204620B093
:1094600010BD2DE9F0439DB001AD064628460C46DF
:10947000FDF761FC03A8FEF75CFD06A8FEF759FDA9
:1094800030697169F28913AB03C385E8030033784F
:10949000B1688DF8243006A8FEF7BFFCB289716868
:1094A00003A8FEF7BAFC94F968307F2B13AF03D002
:1094B0009DF924209A425CDB94F969307F2B03D01C
:1094C0009DF924209A4254DC04F150013846FEF7FD
:1094D0001CFB149B002B52DD139E06EBC309B14508
:1094E00050D030462946FDF712FC08368046002849
:1094F000F5D01398FDF76EF8B8F1000F39D0294672
:109500002046FEF7C5FAA0B329462046FFF781F8AA
:10951000064670B304F15C013846FEF741FB149B2C
:10952000002B12DD06A8FDF76DFE804603A8FDF7AF
:1095300069FEDDE9133203EB42029A4225D033F88B
:10954000021B884501D08842F7D11398FDF742F8F5
:109550007EB129462046FEF759FB50B1236AB3B1CC
:109560006369139501336361636A394604F1180036
:1095700098472846FEF7A2F81DB0BDE8F0834FF0EB
:109580000108B6E74FF00008B3E70026DDE7D4F89E
:109590003080B8F1000F07D0636901336361294659
:1095A000636B04F12800E3E7D4F80CC0BCF1000FB2
:1095B00024D0D4E904239342DBD2242253432A4605
:1095C00003CA0CEB03064CF80300716006F10800B7
:1095D00003A9FEF7EAFB06A906F11400FEF7E5FB76
:1095E0009DF9243086F82030636922690133934263
:1095F0006361BED34046FCF783FDBAE795E80300FC
:109600000DF1280888E8030003A90CA8FEF799FBD0
:1096100006A90FA8FEF795FB9DF824308DF8483079
:10962000414638466668FEF7A9FBD4E90113994222
:1096300010DA23686168242202FB063606F1240052
:1096400002FB01323146FFF763FE86B963680133DE
:10965000636005E001312046FFF784FE0028E8D171
:109660003846FEF72BF84046FEF728F881E73946E2
:109670003046FEF783FBE9E7024800230360FCF76E
:10968000D5BD00BFD8E60320F8B506460D468F18B5
:109690000024BD420CD0336815F8011B9B6830468E
:1096A0009847031E01DB1C44F3E7002C08BF1C464F
:1096B0002046F8BD13B50446084659B10191FBF7A1
:1096C000CBFA23680199DB680246204602B0BDE868
:1096D0001040184702B010BD08B5FFF7EBFF08BDFA
:1096E00003689B68184738B50D210546FFF7F8FF5A
:1096F0000A2104462846FFF7F3FF204438BD38B559
:109700000546FFF7D7FF04462846FFF7ECFF204445
:1097100038BD30B58BB00023012A8DF8243098BFB6
:109720000A2209AC0D46B1FBF2F101FB125303F022
:10973000FF03092B94BF30333733DBB2AA4204F85E
:10974000013DEFD92146FFF7B5FF0BB030BD00005A
:109750002DE9F74F55EC104B06460F4610EE102A38
:1097600010EE100A2B462946FBF7B0F840B15349DA
:109770003046FFF79FFF8246504603B0BDE8F08FAA
:1097800025F000494E4B4FF0FF3220464946FBF78B
:109790009DF848B94A4B4FF0FF3220464946FBF747
:1097A00077F808B94749E3E7474B4FF06042204656
:1097B0002946FBF781F808B14449D9E7444B4FF0FB
:1097C000604220462946FBF759F80028F4D10022D0
:1097D000002320462946FBF751F8D0B12D21304611
:1097E000FFF77EFF05F1004382461D463949DFF849
:1097F000EC904FF0000B00204FF000085FFA8BF365
:109800009F4208D942464B46FAF7F0FE0BF1010B96
:10981000F4E78246EAE722462B46FAF707FC0D46B4
:109820000446FBF791F88046FAF73CFD02460B46EA
:1098300020462946FAF7F8FB0A2204460D46304630
:109840004146FFF766FF8244002F95D02249DFF89A
:109850008C903046FFF72EFF4FF000088244002F17
:109860008AD042464B4620462946FAF795FD0446E3
:109870000D46FBF741F8B0F1000B1CDA2D21304604
:10988000FFF72EFFCBF1000103460A223046019379
:10989000FFF73FFF019B184482445846FAF712FD38
:1098A00002460B4620462946FAF7BEFB013F044616
:1098B0000D46FFB2D3E759460023E6E780B30B001D
:1098C000FFFFEF7F84B30B00FFFFEF4188B30B0076
:1098D000FFFFEFC10000E03FAEB20B0000002440EC
:1098E00038B5044610EE100ACDB2FAF7FDFC41EC93
:1098F000100B29462046BDE83840FFF729BF00007D
:10990000014B024A1A607047E0E603208CB30B005B
:10991000024B1A68024B1A60704700BF88DD0320B3
:10992000E4E603200021FCF7C9BD0000014B002242
:109930009A607047E8E60320014B1860704700BF4B
:1099400090DD032008B50B4B43B100F063F90368C9
:109950001B699847002801DDAFF30080064B43B137
:1099600000F022FC03681B699847002801DDAFF373
:10997000008008BD000000000000000008B5FFF7EF
:10998000E1FFFCF78DFB014B186008BD40E70320A9
:109990000548064A064908B5121A00F0FFFE054BB5
:1099A000054A1A6008BD00BF00F4032004F4032038
:1099B00034BB0B0000F403201E1C279A07B50023BC
:1099C00000931A466FF07701FCF78AFD03B05DF84B
:1099D00004FB000007B543880A2B08D0502B0BD19D
:1099E000094B1B684BB103B05DF804EB1847FFF758
:1099F000E5FF03B05DF804FB002300931A466FF007
:109A00007701FCF76DFDF4E7FCE6032010B5124882
:109A10000021FCF707FE114B1A68114B9A42114BBB
:109A20000CBF012200221A7001D0FFF7B1FFFCF732
:109A300027FB044600F0E2FE0B4B13B12046AFF3C8
:109A4000008000210848FCF7B5FDBDE8104007483C
:109A50000021FCF73BBD00BF39990B0000F4032047
:109A60001E1C279AF8E6032000000000D5990B0081
:109A7000704710B518210446FBF735F9204610BD94
:109A8000F0B5037D062B8DB00E4600F104074FF0B4
:109A9000000412D000F1080515F8011D0A22304615
:109AA000FFF737FEAF42044419D0002CF4D02E212A
:109AB0003046FFF715FE0444EEE72F236A46394689
:109AC0000A208DF80040FCF7C9FB6846FBF7C4F894
:109AD00033680246DB6869463046984704462046AC
