:02000002B0004C
:1040000000400B00CC550B00000006000C00050220
:084010000401A60F00000000EE
:04401800BC4F0B008E
:10401C0009480A49884208B505D0094A824202D0AB
:10402C00121A00F013FF0748074A0021121A00F079
:10403C001BFF014808BD00BF54E6032038550B0098
:10404C00C0E60320C0E60320EDE7032070B5074E61
:10405C00074C00F0A9FBA41BA4080025AC4200D11E
:10406C0070BD56F8043B98470135F7E7E8540B0050
:10407C0008550B0000F014B808B500F031F8BDE895
:10408C00084000F049BB00F047BA00F04DBA007888
:10409C00B0FA80F0400970470123037070470000AC
:1040AC0008B500F0A7FE00F045FD0B4800F035F810
:1040BC00094800F093F8084800F0BEF8064800F0F4
:1040CC003EF800220448114600F044F8BDE80840D0
:1040DC000249014800F0A3B8C0E60320D04F0B0002
:1040EC0070470368C9B29B68184710B5044600F0C6
:1040FC0081FE3C2100F028FD00F07CFE8021FFF7C2
:10410C00F0FF00F077FE036821469B68984700F0AB
:10411C0071FEBDE8104000F01EBD08B5AE20FFF7E3
:10412C00E4FF052000F0CCFAAF20FFF7DEFF0520FE
:10413C0000F0C6FABDE80840A620FFF7D6BF08B5C8
:10414C00012303702020FFF7D0FFBDE808400220B8
:10415C00FFF7CBBF10B550391446C8B2FFF7C5FFF7
:10416C00E00000F00800FFF7C0FFC4F3430010307C
:10417C00BDE81040FFF7B9BF10B50C4600F03AFE91
:10418C003C2100F0E1FC00F035FE4021FFF7A9FFD7
:10419C0000F030FE036821469B68984700F02AFE29
:1041AC00BDE8104000F0D7BCA1F120035F2B88BF05
:1041BC00202170B501F10051074D2039064605EB61
:1041CC00C105082415F8011B3046013CFFF7D4FF4C
:1041DC0014F0FF04F6D170BDDD4F0B0070B5054631
:1041EC00AE20FFF782FF00260022F1B22846FFF72F
:1041FC00B1FF102420212846013CFFF7D5FF14F015
:10420C00FF04F7D10136082EEED1AF20FFF76DFF7A
:10421C00224621462846BDE87040FFF79BBF70B58B
:10422C0006460D460024E3B20134E95C19B1304670
:10423C00FFF7BAFFF7E770BDA620FFF756BF0000E7
:10424C0008B5024B1B689B68019308BD680203000C
:10425C0008B5024B1B68DB68019308BD68020300BC
:10426C0008B5024B1B685B68019308BD180203007C
:10427C0008B5024B1B685B69019308BD180203006B
:10428C0008B5024B1B685B6C019308BD4802030028
:10429C0008B5024B1B685B69019308BD64020300FF
:1042AC0008B5024B1B68DB68019308BD3C02030098
:1042BC0008B5024B1B681B69019308BD3C02030047
:1042CC0008B5024B1B685B69019308BD3C020300F7
:1042DC0008B5024B1B689B69019308BD3C020300A7
:1042EC0008B5024B1B68DB69019308BD3C02030057
:1042FC0008B5024B1B689B6A019308BD3C02030086
:10430C0008B5024B1B681B6C019308BD3C020300F3
:10431C0008B5024B1B68DB68019308BD280203003B
:10432C0008B5024B1B689B69019308BD280203006A
:10433C0008B5024B1B68DB69019308BD280203001A
:10434C0008B5024B1B681B6A019308BD28020300C9
:10435C0008B5024B1B685B6A019308BD2802030079
:10436C0008B5024B1B689B6A019308BD2802030029
:10437C0008B5024B1B68DB6A019308BD28020300D9
:10438C0008B5024B1B681B6B019308BD2802030088
:10439C0008B5024B1B681B6C019308BD2802030077
:1043AC0008B5024B1B681B68019308BD4C02030047
:1043BC0008B5024B1B681B69019308BD4C02030036
:1043CC0008B5024B1B685B69019308BD4C020300E6
:1043DC0008B5024B1B689B69019308BD4C02030096
:1043EC0008B5024B1B68DB69019308BD4C02030046
:1043FC0008B5024B1B681B6A019308BD4C020300F5
:10440C0008B5024B1B685B68019308BD20020300D2
:10441C0008B5024B1B685B69019308BD20020300C1
:10442C0008B5034B1B68D3F88830019308BD000016
:10443C002002030008B5034B1B68D3F8943001939A
:10444C0008BD00002002030008B5024B1B685B6826
:10445C00019308BD4002030008B5024B1B689B6822
:10446C00019308BD4002030008B5024B1B68DB68D2
:10447C00019308BD4002030008B5024B1B681B6981
:10448C00019308BD4002030008B5024B1B685B6931
:10449C00019308BD4002030008B5024B1B689B69E1
:1044AC00019308BD4002030008B5024B1B68DB6991
:1044BC00019308BD4002030008B5024B1B681B6A40
:1044CC00019308BD4002030008B5024B1B681B6B2F
:1044DC00019308BD4002030008B5024B1B685B6BDF
:1044EC00019308BD4002030008B5024B1B681B6C0E
:1044FC00019308BD4002030008B5024B1B685B6CBE
:10450C00019308BD4002030008B5024B1B68DB6B2E
:10451C00019308BD4402030008B5024B1B681B68DD
:10452C00019308BD1C02030008B5024B1B685B68B5
:10453C00019308BD1C02030008B5024B1B681B6CE1
:10454C00019308BD1C02030008B5024B1B685B6C91
:10455C00019308BD1C020300002240681146FFF7BE
:10456C00ABBF002240681146FFF7B6BF406800227F
:10457C00FFF7AABF4068002281F00101FFF794BF4A
:10458C00002340681A461946FFF786BF002340688F
:10459C001A461946FFF778BF002240681146FFF70C
:1045AC006BBF002240681146FFF756BF40680022DF
:1045BC000221FFF759BF002340681A46FFF744BF9A
:1045CC00024B03225A60024A1A607047C4E6032069
:1045DC00E8520B00054B02221A60054B054A9A6003
:1045EC000020C3E90000FFF70BBF00BFD8E6032093
:1045FC00CCE603200000FFFF024800230360FFF716
:10460C003FBE00BFDCE60320F8B506460D468F180A
:10461C000024BD420CD0336815F8011B9B68304652
:10462C009847031E01DB1C44F3E7002C08BF1C4613
:10463C002046F8BD13B50446084659B1019100F067
:10464C0049FC23680199DB680246204602B0BDE8AC
:10465C001040184702B010BD03689B68184730B56E
:10466C008BB00023012A8DF8243098BF0A2209ACA4
:10467C000D46B1FBF2F101FB125303F0FF03092BC2
:10468C0094BF30333733DBB2AA4204F8013DEFD983
:10469C002146FFF7CFFF0BB030BD0000014B024AA3
:1046AC001A607047E0E603201C530B00024B1A689B
:1046BC00024B1A60704700BF54E60320E4E6032067
:1046CC000021FFF7A5BE0000014B00229A60704745
:1046DC00E8E60320014B1860704700BF58E6032042
:1046EC0008B50B4B43B100F063F903681B6998479D
:1046FC00002801DDAFF30080064B43B100F03AFB1C
:10470C0003681B699847002801DDAFF3008008BDE2
:10471C00000000000000000008B5FFF7E1FFFFF704
:10472C00A7FD014B186008BD40E703200548064A69
:10473C00064908B5121A00F089FB054B054A1A60A8
:10474C0008BD00BF00F4032004F4032034550B0013
:10475C0000F403201E1C279A07B5002300931A4669
:10476C006FF07701FFF766FE03B05DF804FB000005
:10477C0007B543880A2B08D0502B0BD1094B1B686B
:10478C004BB103B05DF804EB1847FFF7E5FF03B03E
:10479C005DF804FB002300931A466FF07701FFF7D6
:1047AC0049FEF4E7FCE6032010B512480021FFF7A0
:1047BC00CBFE114B1A68114B9A42114B0CBF0122C4
:1047CC0000221A7001D0FFF7B1FFFFF749FD044634
:1047DC0000F052FB0B4B13B12046AFF300800021CD
:1047EC000848FFF791FEBDE8104007480021FFF78D
:1047FC0017BE00BFE1460B0000F403201E1C279AD5
:10480C00F8E60320000000007D470B00704710B550
:10481C0018210446FFF739FC204610BDF0B5037D86
:10482C00062B8DB00E4600F104074FF0000412D099
:10483C0000F1080515F8011D0A223046FFF70FFF9D
:10484C00AF42044419D0002CF4D02E213046FFF78F
:10485C0003FF0444EEE72F236A4639460A208DF8FD
:10486C000040FFF715FD684600F034FB3368024644
:10487C00DB68694630469847044620460DB0F0BDCB
:10488C0010B5054B0446112240F8043B002100F002
:10489C00EBFA204610BD00BF44530B000346074AF9
:1048AC0010B543F8042B01F1100251F8044B43F8F6
:1048BC00044B9142F9D10A781A7010BD44530B0085
:1048CC0010B59DF8084044EA032343EA024242EA49
:1048DC00016104234160037510BD000007B5064B50
:1048EC000360CB7800938B784A780978FFF7E8FF60
:1048FC0003B05DF804FB00BF44530B0041747047D8
:10490C007047704708B50021007CFFF761FD40EA55
:10491C00E07008BD08B50121007CFFF759FD40EAA5
:10492C00E07008BD08B5007CFFF74AFD20EAE07096
:10493C0008BD08B5007CFFF73BFD20EAE07008BD20
:10494C0013B50446007C0191FFF73AFD002801994C
:10495C0001DC607C20B1207CFFF742FD20EAE07096
:10496C0002B010BD007CFFF743BD10B51421044606
:10497C00FFF78BFB204610BD10B54FF47A7304463D
:10498C0008460021C4E90113044B23600123207461
:10499C0063741146FFF704FD204610BD58530B00FD
:1049AC0010B514220446002100F05EFA204610BD1A
:1049BC0010B50F4C88B003A8FFF7F2FF2178BFF3B6
:1049CC005B8F11F001010FD120460191FFF75FFBC6
:1049DC00019948B103AA0748FFF7CEFF2046FFF71D
:1049EC005BFB054800F02CFA024808B010BD00BF74
:1049FC0000E7032004E703200D490B0070474174C6
:104A0C00704708B5007CFFF773FC20EAE07008BD26
:104A1C0008B5007CFFF74CFC20EAE07008BD08B537
:104A2C00007CFFF755FC40EAE07008BD08B5007C3F
:104A3C00FFF746FC40EAE07008BD007CFFF750BC75
:104A4C0037B5457C04462DB1207C03B0BDE8304021
:104A5C00FFF726BC007C0191FFF74AFC0028019966
:104A6C00F2DC284603B030BD10B514210446FFF724
:104A7C000CFB204610BD000010B54FF47A730446B1
:104A8C00084611460022C4E90123044B236001238C
:104A9C0020746374FFF734FC204610BD88530B0060
:104AAC007047F8B5064615460C468F18BC4206D022
:104ABC00336814F8011B9B6830469847F6E7284684
:104ACC00F8BD007C0022FFF73BBC007C0021FFF707
:104ADC003FBC007C0021FFF743BC007C0021FFF7AA
:104AEC0047BC007C0021FFF74BBC10B514210446D9
:104AFC00FFF7CBFA204610BD38B5044615464FF4E7
:104B0C007A730022C4E90123094B217408462360FF
:104B1C002946FFF73DFCBF3008D16B69DB0705D593
:104B2C006868FFF701FDE868FFF7FEFC204638BD1A
:104B3C00B8530B000023007C1A461946FFF7E8BB5C
:104B4C00007C0022FFF7ECBBC9B2FFF7F9BF007C79
:104B5C000022FFF7EDBB0121FFF7F9BF00224068EF
:104B6C001146FFF789BC002240681146FFF7A4BC30
:104B7C00002240681146FFF7AFBC40680022FFF7E7
:104B8C00A3BC4068002281F00101FFF78DBC00231B
:104B9C0040681A461946FFF77FBC002340681A4646
:104BAC001946FFF771BC002240681146FFF754BC50
:104BBC00406800220221FFF757BC002340681A46C8
:104BCC00FFF742BC024B04225A60024A1A6070473B
:104BDC0018E70320E0530B00002340681A46FFF748
:104BEC0033BC406800220221FFF73EBC0022406823
:104BFC001146FFF731BC002240681146FFF73CBC60
:104C0C00002340681A461946FFF73EBC0023406853
:104C1C001A461946FFF740BC40680021FFF764BCF8
:104C2C0040680021FFF768BC4068002281F0010158
:104C3C00FFF73ABC40680022FFF746BC00224068F0
:104C4C001146FFF749BC002240681146FFF734BCFF
:104C5C002DE9F04395B014460D460746FFF710FEBC
:104C6C0000211C220DA8009100F0FEF840230C93AB
:104C7C0020466B460CAA0021FFF7EAFA04460028EE
:104C8C004BD1024601216868FFF7F6FB02218046F2
:104C9C0022466868FFF7F0FB009E81462146002EF5
:104CAC003BD0002939D17368022B03D00A2B11D0C9
:104CBC00F669F4E7B8F1000FFAD0716906A804316F
:104CCC0007ADFFF70BFE0FCD3C1D0FC42B682370F7
:104CDC004146EDE7B9F1000FEAD07469102201A842
:104CEC0000F0C2F806238DF8143001AD04F108036E
:104CFC001834186859682A4603C20833A34215466B
:104D0C00F7D101A906A807ADFFF7C8FD0FCD3C1DD3
:104D1C000FC42B6823704946CAE70098FFF790FA36
:104D2C00384615B0BDE8F083024B034A1A600022E6
:104D3C005A60704720E703201C540B00704700009A
:104D4C0038B5044614252A46002100F08DF825803C
:104D5C004025074925812846258200F06FF8044933
:104D6C006060284600F06AF8E060204638BD00BF5D
:104D7C0050540B0030B50E4D2978BFF35B8F11F0FA
:104D8C00010487B011D12846FFF781F968B101A859
:104D9C00FFF7D6FF01AA21460648FFF76DFE28460D
:104DAC00FFF77AF9044800F04BF8024807B030BD21
:104DBC0028E703202CE70320494D0B007047000027
:104DCC0038B50A4B0360012304464361084920208F
:104DDC0000F034F8202560600549A560284600F0F5
:104DEC002DF8C4E90305204638BD00BF18000100AA
:104DFC0050540B0030B50E4D2978BFF35B8F11F07A
:104E0C00010487B011D12846FFF741F968B1684613
:104E1C00FFF7D6FF6A4621460648FFF76DFE284687
:104E2C00FFF73AF9044800F00BF8024807B030BD20
:104E3C0044E7032048E70320C94D0B00FFF723B9D3
:104E4C00002301461A46184600F04CB80A44914219
:104E5C0000F1FF3300D1704710B511F8014B03F886
:104E6C00014F9142F9D110BD02440346934200D147
:104E7C00704703F8011BF9E738B5104B1D68AB6B95
:104E8C000446B3B91820FFF747FB0246A86320B9C4
:104E9C000B4B0C484221FFF74FFB0B490B4BC0E966
:104EAC0000130B4B83600B23838100210120C2E98B
:104EBC000401AB6B00221C615A6138BD58E603201B
:104ECC0051540B0068540B000E33CDAB34126DE60D
:104EDC00ECDE0500034613F8012B002AFBD1181A4F
:104EEC00013870472DE9F843DFF8B8800646D8F84A
:104EFC0000001F460D46914600F056F8254B1C68E5
:104F0C0034B9254C1C60254B13B11B68C4F8883090
:104F1C0063681F2B07DDD8F8000000F047F84FF04E
:104F2C00FF30BDE8F8834EB3D4F8880088B91C4B29
:104F3C0023B9D8F8000000F038F8F0E74FF484708B
:104F4C00FFF7EAFA0028F4D00023C0E94033C4F894
:104F5C008800636840F8239001229A4000EB83019B
:104F6C00D0F800311343C0F80031022EC1F8807024
:104F7C0002BFD0F804311343C0F804316368D8F889
:104F8C0000005A1C0233626044F8235000F00EF803
:104F9C000020C6E7E8E703205CE7032000000000E0
:104FAC0025450B00BCE60320704770477047000096
:104FBC001D400B0059400B0081400B0085400B003D
:104FCC000000000048656C6C6F20576F726C642198
:104FDC0000000000000000000000005F0000000066
:104FEC0000000007000700000000147F147F14006D
:104FFC000000242A7F2A1200000023130864620098
:10500C000000364955225000000000050300000046
:10501C0000001C2241000000000041221C00000086
:10502C000000082A1C2A0800000008083E08080096
:10503C000000A0600000000000000808080808003C
:10504C000000606000000000000020100804020056
:10505C0000003E5149453E00000000427F400000E8
:10506C00000062514949460000002241494936007E
:10507C0000001814127F1000000027454545390028
:10508C0000003C4A49493000000001710905030049
:10509C0000003649494936000000064949291E00DE
:1050AC000000003636000000000000AC6C00000070
:1050BC000000081422410000000014141414140001
:1050CC0000004122140800000000020151090600F2
:1050DC000000324979413E0000007E0909097E003A
:1050EC0000007F494949360000003E414141220001
:1050FC0000007F4141221C0000007F4949494100CA
:10510C0000007F090909010000003E414151720075
:10511C0000007F0808087F000000417F410000006C
:10512C0000002040413F010000007F081422410094
:10513C0000007F404040400000007F020C027F00D6
:10514C0000007F0408107F0000003E4141413E00FA
:10515C0000007F090909060000003E4151215E0054
:10516C0000007F09192946000000264949493200F0
:10517C00000001017F01010000003F4040403F0062
:10518C0000001F2040201F0000003F4038403F001F
:10519C000000631408146300000003047804030087
:1051AC00000061514945430000007F41410000006F
:1051BC000000020408102000000041417F000000A4
:1051CC000000040201020400000080808080800046
:1051DC000000010204000000000020545454780028
:1051EC0000007F4844443800000038444428000044
:1051FC000000384444487F000000385454541800D0
:10520C000000087E09020000000018A4A4A47C0081
:10521C0000007F08040478000000007D00000000FE
:10522C00000080847D00000000007F1028440000F6
:10523C000000417F4000000000007C04180478004E
:10524C0000007C08047C0000000038444438000056
:10525C000000FC24241800000000182424FC00008A
:10526C000000007C08040000000048545424000096
:10527C000000047F4400000000003C40407C000023
:10528C0000001C2040201C0000003C4030403C0032
:10529C00000044281028440000001CA0A07C000042
:1052AC0000004464544C44000000083641000000E7
:1052BC000000007F000000000000413608000000E4
:1052CC0000000201010201000000020505020000BD
:1052DC00000000000000000000000000C3450B00AF
:1052EC00B9450B00AF450B00A5450B0099450B00CC
:1052FC008D450B00254C0B002D4C0B0081450B00F4
:10530C0079450B006F450B0065450B005D4C0B00A0
:10531C006170700025592D256D2D25645425483A52
:10532C00254D3A2553257A0061736374696D6500C8
:10533C00000000000000000029480B0019480B0079
:10534C001B480B0000000000000000000F490B0080
:10535C0077490B004D490B0015460B003F490B00DC
:10536C0011490B0021490B0071490B0031490B000D
:10537C0009490B000000000000000000094A0B0066
:10538C00754A0B004D4A0B0015460B001D4A0B00CD
:10539C00394A0B002B4A0B00474A0B000B4A0B00F7
:1053AC000F4A0B000000000000000000AD4A0B008B
:1053BC00F74A0B00CF4A0B00AF4A0B00D74A0B0041
:1053CC00DF4A0B00E74A0B00EF4A0B00000000001D
:1053DC0000000000C74B0B00BD4B0B00B34B0B0088
:1053EC00694B0B00A74B0B009B4B0B00254C0B0088
:1053FC002D4C0B008F4B0B00874B0B007D4B0B0088
:10540C00734B0B005D4C0B00000000000000000013
:10541C00E54B0B00EF4B0B00F94B0B00034C0B0057
:10542C000D4C0B00194C0B00254C0B002D4C0B009C
:10543C00354C0B00414C0B00494C0B00534C0B00F2
:10544C005D4C0B00005245454E54206D616C6C6FE9
:10545C006320737563636565646564002F6D6E749A
:10546C002F776F726B73706163652F776F726B73CD
:10547C00706163652F4743432D31302D7069706522
:10548C006C696E652F6A656E6B696E732D4743434D
:10549C002D31302D706970656C696E652D34385FF7
:1054AC0032303230313132345F313630363138309F
:1054BC003634312F7372632F6E65776C69622F6E81
:1054CC0065776C69622F6C6962632F7374646C69A5
:1054DC00622F72616E642E6300000000CD450B00DC
:1054EC00E1450B0005460B00A9460B00B9460B0025
:1054FC00D5460B00D14B0B00354D0B0000000000C6
:04550C00000000009B
:10551000040000001400000003000000474E550086
:10552000747F8E6159E532A98AC674CF0B155E343B
:045530006FC43F0DF8
:045534000000000073
:1055380034530B005CE6032000000000000000006C
:105548000000000000000000000000000000000053
:105558000000000000000000000000000000000043
:105568000000000000000000000000000000000033
:105578000000000000000000000000000000000023
:105588000000000000000000000000000000000013
:0C5598000000000000000000ECE7032011
:1055A400FFFFFFFF00000102030405060708090AC4
:1055B4000B0C0D0E0F101112131415161718191ABF
:0855C4001B1C1D1E1F20280006
:0455CC0078563412C7
:04000003B000401CED
:00000001FF
