:02000002B0004C
:1040000000400B0054A90B00000006000C00050244
:084010000401A60F00000000EE
:0440180044980B00BD
:10401C0009480A49884208B505D0094A824202D0AB
:10402C00121A05F01FFB0748074A0021121A05F067
:10403C0041FB014808BD00BF48DD0320A8A40B00CC
:10404C00CCE10320CCE10320EDE7032070B5074E53
:10405C00074C04F051F9A41BA4080025AC4200D174
:10406C0070BD56F8043B98470135F7E750A40B0098
:10407C0074A40B0000F044B808B500F0C9F8BDE812
:10408C00084004F0F1B801F0B9B901F0B7B901F08A
:10409C00BDB9000008B5034A03490C2001F012F920
:1040AC00FEE700BF914F0B0058980B000078B0FA58
:1040BC0080F04009704701230370704738B50D4CF0
:1040CC000D4D03682B60204600F0B2FB32222046D7
:1040DC00002100F013FF0949204603F073FF95ED12
:1040EC00000A2046022104F071F82046BDE8384051
:1040FC0000F016BC30E203205CE203206D980B004C
:10410C00394A3A4BF0B51360394A1360394A136097
:10411C00394B91B0196801A801AC01F071FE0FCCBC
:10412C0006AD0FC506AF0FCFD4F800C0334D0BACA6
:10413C000FC42E696B69C4F800C09E4240DB741C2E
:10414C00002CE86837DD1421614301F067F9002881
:10415C0034D104F081FC04F095FA3C220221284869
:10416C0000F04EFC264800F0DBFB254800F060FB1D
:10417C002348012100F0C5FE2148012100F0C6FEB4
:10418C00002211461E4800F0B9FE1E491C4803F0DF
:10419C002CFF1B4800F0C4FB194800F049FB02F04F
:1041AC008BF802F0D3F818491848002211B0BDE87A
:1041BC00F04003F0F3B801F029F90020E8606C61DD
:1041CC001423EC682A695E4334445A43921B2146FB
:1041DC00E0180BAE05F054FA0FCE0FC43368236011
:1041EC002B6901332B61B4E75CE20320000080BF34
:1041FC0058E2032054E2032048DD0320D4E10320DD
:10420C0030E2032078980B00C9400B00A8E603208D
:10421C002DE9F0418EB002F04FF85E4ADFF8A08134
:10422C005D4D014601A803F07BFD0027029B9F42D8
:10423C004FF0240680F29A8004A801F007FD019843
:10424C007E433044012204A9083002F0B1FF00285B
:10425C0000F08880D8F8001009A801F0D1FD09A958
:10426C0004A801F04EFD00287CD04C4800F0E0FA88
:10427C0000221146494800F041FE4949474803F0E5
:10428C00B4FE4849454803F09DFE01990022314493
:10429C0009A801F0CBFC0999404803F093FE09A84A
:1042AC0001F0ECF93D4800F03BFB02F005F8019AF7
:1042BC0001460123324409A803F0B2FB099B0A9E74
:1042CC002B606B689E4216D016B173680133736015
:1042DC006C687CB16368013B63605BB92368204602
:1042EC009B689847A368013BA3601BB923682046D1
:1042FC00DB6898476E6009A802F0F5F827481E2283
:10430C00002100F0FBFD284601F048FF60B3264970
:10431C00224803F057FE214800F002FB284601F02A
:10432C003DFFF8B1214B09A8196801F069FD20493E
:10433C0009AA284603F008F8184800F079FA002278
:10434C001146164800F0DAFD1A49144803F03AFEFB
:10435C00194B124893ED000A022103F037FF0F4866
:10436C0000F0DEFA013761E71449D1E7019C06FB46
:10437C000346A64207D0606901F048F8A06801F036
:10438C0045F82434F5E7019801F040F80EB0BDE88B
:10439C00F08100BFD4E10320CCE1032030E2032004
:1043AC0084980B0093980B009D980B004CDD032018
:1043BC00A8E6032071980B005CE20320A5980B0083
:1043CC0048DD0320234B244A70B500249A60C3E9CE
:1043DC000044032000F086FF204801F0BDFE204B76
:1043EC002048196801F00CFD1F4801F039FE1F48E8
:1043FC0001F036FE1E4801F033FE1E4B47F67F726D
:10440C00C3E90044C3E90244C3E90444C3E90644D4
:10441C00C3E90844C3E90A44C3E90C249C63164C61
:10442C001E257F26204601F09AFB04F1080002F0BD
:10443C0074FB04F1140002F070FB013D84F8206061
:10444C0004F12404EED1BDE870400C484FF0FF316C
:10445C0000F0D8B924E203200000FFFFCCE10320D8
:10446C0048DD032010E20320A8E60320A0E6032089
:10447C0060E20320D4E1032068E2032030E2032051
:10448C00F0B5457EBDF81440022D69D0032D00F027
:10449C009980012D6CD10589D2432A4412B2002A8D
:1044AC005DDBB0F90850954259DD0029BEBF5B18A1
:1044BC001BB20021B0F90A00CD188542C4BF431AC3
:1044CC001BB2002B4BDDC1F3C400DFF820C102EBA3
:1044DC00C01211F00701DBB20CEB02001AD0C1F1D3
:1044EC000805404EEDB2AB42775D3FBFA5EB030E26
:1044FC00FF2646FA0EF637401CF80260012C0CBF62
:10450C003E43BE43AB420CF8026028D308390B443F
:10451C00DBB28030072B19D9012C4FF0FF3518BFB7
:10452C000025EDB200F180011A46083AD2B2072AF2
:10453C0001F8805C01F18001F7D8A3F10802C2F305
:10454C00C402013200EBC21003F007033BB1264A50
:10455C00D25C0378012C0CBF134393430370F0BD62
:10456C004589D2432A44CD180189491B12B209B29C
:10457C00002AF4DBB0F90A509542F0DD0029BEBFE9
:10458C005B181BB20021B0F90870CE18BE42C4BF34
:10459C006B1A1BB2002BE2DDD010802510FB05112D
:1045AC001248014402F0070001228240012CD2B2D1
:1045BC000B440CD18B42D2D011F8010B104301F8F3
:1045CC00010CF7E7CD184189491B09B267E7D243C3
:1045DC00D2B28B42C3D011F8010B104001F8010C80
:1045EC00F7E700BF58DD032050DD032060DD03201A
:1045FC00F0B5457EBDF81440022D34D0032D00F0EB
:10460C009B80012D37D1D5180289521B12B200297B
:10461C00C0F29180B0F90A508D4240F38C80002A90
:10462C00BEBF9B181BB20022B0F90870D618BE4250
:10463C00C4BFAB1A1BB2002B7DDDC810802510FB4C
:10464C0005224548024401F0070001218140012C5C
:10465C00C9B2134475D19A426DD012F8010B0843BC
:10466C0002F8010CF7E70589C9432944D51842899A
:10467C00521B09B212B200295DDBB0F908508D4211
:10468C0059DD002ABEBF9B181BB20022B0F90A00EC
:10469C00D5188542C4BF831A1BB2002B4BDDC2F365
:1046AC00C400DFF8B4C001EBC01112F00702DBB29A
:1046BC000CEB01001AD0C2F10805284EEDB2AB424A
:1046CC00775D3FBFA5EB030EFF2646FA0EF637408B
:1046DC001CF80160012C0CBF3E43BE43AB420CF8EE
:1046EC00016028D3083A1344DBB28030072B19D968
:1046FC00012C4FF0FF3518BF0025EDB200F1800101
:10470C001A46083AD2B2072A01F8805C01F18001FE
:10471C00F7D8A3F10802C2F3C402013200EBC210B5
:10472C0003F007033BB10E4AD25C0378012C0CBF9B
:10473C00134393430370F0BD4589C943294409B21F
:10474C0065E7C943C9B29A42F5D012F8010B08408B
:10475C0002F8010CF7E700BF60DD032058DD0320F1
:10476C0050DD032070470000F8B50D1E06461446B8
:10477C001F462DDB00F0CFFBA84229DD002C27DBE8
:10478C00304600F0CBFBA04222DD304600F0C1FBEE
:10479C0002281ED0032825D0012804D13389E243F6
:1047AC001A442C4615B2002C2246B8BFE21DD2107A
:1047BC00802112FB01550E49012204F007044B57CE
:1047CC0002FA04F464B297420CBF2343A3434B5543
:1047DC00F8BD318972890139E4434D1B14442DB263
:1047EC0024B2E0E77389013B5B1B25461CB2DAE778
:1047FC0060DD032010B524210446FFF748FC204659
:10480C0010BD000038B5402204460D46802100F052
:10481C00A7FA064B2360FF2384F8213063774FF609
:10482C00FF73E38384F82050204638BD4C990B006D
:10483C0002484FF48062002104F03CBF60DD03208D
:10484C0013B50B4C2178BFF35B8F11F001010BD129
:10485C0020460191FFF72AFC019928B1054800F088
:10486C0041FE2046FFF727FC024802B010BD00BFF6
:10487C00B0E60320B4E6032007B590F8223043B12C
:10488C000191FFF7DDFF019903B05DF804EB00F037
:10489C00DDBE0B46817F407F012203B05DF804EB47
:1048AC0004F05CB838B590F91D30013304460D4660
:1048BC001DD090F92100012180B204F036F894F952
:1048CC001F00002180B204F030F894F9210000217F
:1048DC0080B204F02AF829462046FFF7CDFF94F960
:1048EC0021000121BDE8384080B204F01EB804F06C
:1048FC00B3F894F91B1003F0CFFE04F0ADF8036885
:10490C0000219B68984704F0A7F8036829469B6828
:10491C00984704F0A1F8BDE8384003F0C4BE00008D
:10492C00F8B521210446FFF7BDFF00212046FFF713
:10493C00B9FF7F212046FFF7B5FF22212046FFF764
:10494C00B1FF00212046FFF7ADFF07212046FFF7FE
:10495C00A9FF94F91D30294F01332AD094F9210075
:10496C00012180B203F0E1FF94F91F00012180B214
:10497C0003F0DBFF94F92100002180B203F0D5FF96
:10498C00012000F0FFFA4FF48065013D17F8011B80
:10499C002046ADB2FFF770FF002DF6D1012000F0DC
:1049AC00F1FA94F921000121BDE8F84080B203F03E
:1049BC00BCBF002504F050F894F91B1003F06CFEFA
:1049CC0004F04AF8036840219B68984705F11006EB
:1049DC00B6B204F041F80368795D9B6898476B1C8C
:1049EC009DB2AE42F5D104F037F803F05CFEB6F59B
:1049FC00806F00D1F8BD3546DCE700BF60DD0320D9
:104A0C0038B590F91D300177013304460D46C27656
:104A1C0000F0C98090F91F00012180B203F074FFEF
:104A2C0094F92100012180B203F06EFF94F822303A
:104A3C00002B00F0A68094F92100012180B203F034
:104A4C0074FFFFF7FDFE012100F06AFDFFF7F8FE91
:104A5C00102100F0D5FDFFF7F3FE002100F074FDEE
:104A6C00FFF7EEFE00F048FD94F92000012180B222
:104A7C0003F04AFF94F92000012180B203F055FFA6
:104A8C00012003F0C5FB94F92000002180B203F053
:104A9C004CFF0A2003F0BCFB94F92000012180B2EA
:104AAC0003F043FF2046AE21FFF7FCFE2046D52144
:104ABC00FFF7F8FE20468021FFF7F4FE2046A821E0
:104ACC00FFF7F0FE20463F21FFF7ECFE2046D321F6
:104ADC00FFF7E8FE20460021FFF7E4FE20464021C8
:104AEC00FFF7E0FE8D212046FFF7DCFE012D0CBF09
:104AFC00102114212046FFF7D5FE20462021FFF778
:104B0C00D1FE20460021FFF7CDFE2046A121FFF764
:104B1C00C9FE2046C821FFF7C5FE2046DA21FFF763
:104B2C00C1FE20461221FFF7BDFE81212046FFF772
:104B3C00B9FE012D0CBF9F21CF212046FFF7B2FEFD
:104B4C00D9212046FFF7AEFE012D0CBF2221F12109
:104B5C002046FFF7A7FE2046DB21FFF7A3FE2046E9
:104B6C004021FFF79FFE2046A421FFF79BFE204625
:104B7C00A621FFF797FE2046AF21BDE83840FFF78E
:104B8C0091BE94F91D00012180B203F0BDFE94F991
:104B9C001E00012180B203F0B7FE94F82230002BE6
:104BAC003FF462AF47E703F057FF03F06BFD5BE7A1
:104BBC002DE9F04F85B01F46BDF93880BDF83C306B
:104BCC00A8EB0209A7EB010AB9F1000FB8BFC9F1B4
:104BDC000009BAF1000FB8BFCAF1000AD1458346EB
:104BEC000C46154604DD3A462C4647460D46904683
:104BFC00BC4205DD2A464546904622463C461746B1
:104C0C003E1BB2B20092A8EB050282EAE271A1EB64
:104C1C00E271C6F3C03202FA86F64545B4BF0122F2
:104C2C004FF0FF32019176100292BC421CDCDBF893
:104C3C0000200393D145D2F81080C7BF29462246E5
:104C4C002A4621465846C047019A039BB61AB1B270
:104C5C0036B2002E05DA029A1544009A56182DB277
:104C6C0036B2013424B2E0E705B0BDE8F08F2DE98F
:104C7C00F347BDF82C800768BDF92890CDF800806B
:104C8C000446FF6916468A461D46B8472368CDF888
:104C9C00008009F1FF323244DF6951462B46204631
:104CAC0012B2B8472368CDF800809F6932464B4654
:104CBC0051462046B8476B1E03EB0A012368CDF81A
:104CCC0028809D6932464B4609B22046AC4602B05C
:104CDC00BDE8F047604737B5013B13440468BDF8A5
:104CEC00185001951BB2009364690B46A04703B0A2
:104CFC0030BD37B5BDF818500468CDE90025013B2F
:104D0C000B4464691BB2A04703B030BD2DE9F347D7
:104D1C00BDF92890BDF82C80054692460C46CE185D
:104D2C00B4420BDA2B68CDF800809F6921464B46C4
:104D3C00524628460134B84724B2F1E702B0BDE828
:104D4C00F08713B502680191B0F90E100091546A06
:104D5C00B0F90C3000221146A04702B010BD7047CC
:104D6C0030B54281C2814FF0FF320024054D4261C3
:104D7C000122446005600181818104610283827695
:104D8C0030BD00BF809E0B002DE9F04F2DED028B46
:104D9C008DB007460491BDF860100591BDF8641004
:104DAC000691B0F90C1004989DF86850814252DDC0
:104DBC00B7F90E1091424EDD062111FB0504002CB3
:104DCC0049DD02EBC504002C45DD03EB83030B939B
:104DDC0093B2079308339BB2089100240993052CD6
:104DEC001CBF2C4B0B9A079E16BF1B1900239B5CF8
:104DFC000393049AABB20A9304FB05F313FA82F300
:104E0C001BB204EB020A08EE103AB0460FFA85F911
:104E1C000FFA8AFA039BDB072FD5012D3B681FD1B4
:104E2C00D3F810B0059B32B251463846D847039B95
:104E3C005B0803930A9B01369844099BB6B2B342B4
:104E4C001FFA88F8E6D1089B013B013413F0FF03ED
:104E5C0064B20893C3D10DB0BDEC028BBDE8F08FEA
:104E6C00059ACDE9009218EE101AD3F824B00FFA77
:104E7C0088F24B463846D847D9E7DDE905239342FB
:104E8C00D5D0012D3B6803D1D3F810B0069BCAE7EF
:104E9C00069AE6E77C990B0030B50A2985B00446E2
:104EAC0007D1027E638A03EBC20363820023238251
:104EBC0021E00D291FD0037E0293C38A0193838ABC
:104ECC000093B0F912200B46B0F91010FFF75CFFFD
:104EDC00207E238A00EB400103EB4103A17E1BB231
:104EEC000246238239B1B4F90C106FF0050505FBAD
:104EFC0000118B42D6DC012005B030BD018242820C
:104F0C007047012938BF012101767047C182818227
:104F1C007047407E7047B0F90C007047B0F90E0036
:104F2C007047000008B5024B1B689B68019308BDD5
:104F3C006802030008B5024B1B68DB68019308BDCF
:104F4C006802030008B5024B1B689B68019308BDFF
:104F5C002C02030008B5024B1B68DB68019308BDEB
:104F6C002C02030008B5024B1B681B69019308BD9A
:104F7C002C02030008B5024B1B685B68019308BD4B
:104F8C001802030008B5024B1B68DB68019308BDCF
:104F9C001802030008B5024B1B685B69019308BD3E
:104FAC001802030008B5024B1B689B68019308BDEF
:104FBC007802030008B5024B1B68DB6F019308BD38
:104FCC007802030008B5034B1B68D3F884300193B7
:104FDC0008BD00007802030008B5034B1B68D3F82A
:104FEC009830019308BD00007802030008B5034B0C
:104FFC001B68D3F8BC30019308BD00007802030095
:10500C0008B5034B1B68D3F8C430019308BD0000EE
:10501C007802030008B5034B1B68D3F8E03001930A
:10502C0008BD00007802030008B5034B1B68D3F8D9
:10503C00E430019308BD00007802030008B5034B6F
:10504C001B68D3F8F030019308BD00007802030010
:10505C0008B5034B1B68D3F8F430019308BD00006E
:10506C007802030008B5024B1B685B6C019308BD0A
:10507C004802030008B5024B1B68DB6C019308BDAA
:10508C004802030008B5024B1B685B6D019308BD19
:10509C004802030008B5024B1B685B69019308BD0D
:1050AC006402030008B5024B1B68DB68019308BD62
:1050BC003C02030008B5024B1B681B69019308BD39
:1050CC003C02030008B5024B1B685B69019308BDE9
:1050DC003C02030008B5024B1B689B69019308BD99
:1050EC003C02030008B5024B1B68DB69019308BD49
:1050FC003C02030008B5024B1B681B6A019308BDF8
:10510C003C02030008B5024B1B689B6A019308BD67
:10511C003C02030008B5024B1B681B6C019308BDD5
:10512C003C02030008B5024B1B68DB68019308BD09
:10513C002802030008B5024B1B689B69019308BD4C
:10514C002802030008B5024B1B68DB69019308BDFC
:10515C002802030008B5024B1B681B6A019308BDAB
:10516C002802030008B5024B1B685B6A019308BD5B
:10517C002802030008B5024B1B689B6A019308BD0B
:10518C002802030008B5024B1B68DB6A019308BDBB
:10519C002802030008B5024B1B681B6B019308BD6A
:1051AC002802030008B5024B1B685B6B019308BD1A
:1051BC002802030008B5024B1B681B6C019308BD49
:1051CC002802030008B5024B1B681B68019308BD3D
:1051DC003002030008B5024B1B689B68019308BDA5
:1051EC003002030008B5024B1B68DB68019308BD55
:1051FC003002030008B5024B1B681B69019308BD04
:10520C003002030008B5024B1B685B69019308BDB3
:10521C003002030008B5024B1B68DB69019308BD23
:10522C003002030008B5024B1B681B6A019308BDD2
:10523C003002030008B5024B1B685B6A019308BD82
:10524C003002030008B5024B1B681B6C019308BDB0
:10525C003002030008B5024B1B685B6C019308BD60
:10526C003002030008B5024B1B681B68019308BD94
:10527C004C02030008B5024B1B681B69019308BD67
:10528C004C02030008B5024B1B685B69019308BD17
:10529C004C02030008B5024B1B689B69019308BDC7
:1052AC004C02030008B5024B1B68DB69019308BD77
:1052BC004C02030008B5024B1B681B6A019308BD26
:1052CC004C02030008B5024B1B685B6B019308BDD5
:1052DC006002030008B5024B1B681B6D019308BDEF
:1052EC006002030008B5024B1B685B68019308BDA4
:1052FC002002030008B5024B1B685B69019308BDD3
:10530C002002030008B5034B1B68D3F888300193C7
:10531C0008BD00002002030008B5034B1B68D3F83E
:10532C009430019308BD00002002030008B5024B25
:10533C001B685B68019308BD4002030008B5024B73
:10534C001B689B68019308BD4002030008B5024B23
:10535C001B68DB68019308BD4002030008B5024BD3
:10536C001B681B69019308BD4002030008B5024B82
:10537C001B685B69019308BD4002030008B5024B32
:10538C001B689B69019308BD4002030008B5024BE2
:10539C001B68DB69019308BD4002030008B5024B92
:1053AC001B681B6A019308BD4002030008B5024B41
:1053BC001B681B6B019308BD4002030008B5024B30
:1053CC001B685B6B019308BD4002030008B5024BE0
:1053DC001B681B6C019308BD4002030008B5024B0F
:1053EC001B685B6C019308BD4002030008B5024BBF
:1053FC001B68DB6B019308BD4402030008B5024B2C
:10540C001B681B68019308BD1C02030008B5024B06
:10541C001B685B68019308BD1C02030008B5024BB6
:10542C001B689B68019308BD1C02030008B5024B66
:10543C001B68DB6A019308BD1C02030008B5024B14
:10544C001B681B6C019308BD1C02030008B5024BC2
:10545C001B685B6C019308BD1C02030000224068B2
:10546C001146FFF79BBF002240681146FFF7A6BF0D
:10547C0040680022FFF79ABF4068002281F00101CA
:10548C00FFF784BF002340681A461946FFF776BF22
:10549C00002340681A461946FFF768BF002240688F
:1054AC001146FFF75BBF002240681146FFF746BF6D
:1054BC00406800220221FFF749BF002340681A46CA
:1054CC00FFF734BF024B03225A60024A1A6070473E
:1054DC00BCE60320B89E0B000021FFF7BBBE0021E9
:1054EC00FFF7B0BE10B5044608462170FFF792FED8
:1054FC0000236360204610BD13B504460078FFF707
:10550C00EEFF58B9207801904FF6FF71FFF75AFE65
:10551C00019802B0BDE81040FFF7DEBF02B010BD2D
:10552C0013B5044600780191FFF7D9FF019948B9EA
:10553C0020780190FFF74EFE019802B0BDE81040B4
:10554C00FFF7CABF02B010BD13B504460078019135
:10555C00FFF7C5FF019948B920780190FFF742FE8B
:10556C00019802B0BDE81040FFF7B6BF02B010BD05
:10557C00400830B51860002418688842E5B206D996
:10558C000134082C02D040081860F5E70725024BBF
:10559C005B5D137030BD00BFEC9E0B002DE9F0413C
:1055AC0088B000230446007802930E461746FFF796
:1055BC0096FF054600BB94F800800146142203A810
:1055CC0004F078F80B232A4603A94046ADF80C30BA
:1055DC00FFF730FE04988DF8075002AB0DF107026F
:1055EC0007FB06F1FFF7C4FF20789DF80710FFF7C3
:1055FC0001FE2078FFF770FF029808B0BDE8F0813B
:10560C0038B5044600780D46FFF769FF0346D0B95C
:10561C00616899B10C4A12F8010B854202D0013332
:10562C00082BF8D10133DBB20122D9402046FFF719
:10563C00B5FF2078BDE83840FFF74EBF20782946EB
:10564C00FFF7D8FDF5E738BDEC9E0B0008B50078E8
:10565C00FFF7D8FDC0B208BD054B02221A60054BFE
:10566C00054A9A600020C3E90000FFF73BBE00BF6B
:10567C00D0E60320C4E603200000FFFF10B504466B
:10568C000068FFF7C3FE204610BD10B50446006845
:10569C0008B1FFF7BBFE0023C4E90133236010BD42
:1056AC0038B504460D4600680131FFF7B7FE10B15E
:1056BC00C4E90005012038BD10B50368044623B1C8
:1056CC0043688B4201D3012010BD2046FFF7E8FF51
:1056DC000028F9D0A368002BF5D122681370F2E7EB
:1056EC0037B50D46114601920446FFF7E5FF019AC6
:1056FC0028B92046FFF7C9FF204603B030BDA26091
:10570C002946206803F0AEFF2268A3680021D1541B
:10571C00F2E7002313B5C0E900330446836003733A
:10572C0041B10846019104F00DF80199024620465A
:10573C00FFF7D6FF204602B010BD38B5054600680D
:10574C000C4668B16A688B689A4207D3096803F003
:10575C00F1FFA368AB600023A36038BDFFF756FED2
:10576C0023682B6063686B60A368AB600023C4E99B
:10577C000033F1E710B50023C0E900330446836021
:10578C000373FFF7DAFF204610BD884210B50446BC
:10579C0005D00B682BB18A681946FFF7A1FF20468C
:1057AC0010BDFFF772FFFAE710B500230446C0E9FD
:1057BC00003383600373FFF7E8FF204610BD13B579
:1057CC00044659B10846019103F0BCFF0199024609
:1057DC002046FFF785FF204602B010BDFFF755FFAE
:1057EC00F9E770B505460E4609B9002070BD6AB1DF
:1057FC00846814442146FFF75FFF0028F5D0286821
:10580C00AB683146184403F095FFAC600120EDE71E
:10581C0007B500238DF80410012201A98DF805307D
:10582C00FFF7DFFF03B05DF804FB02680B46096865
:10583C0062B141B9806860B110787047986840B126
:10584C00097848427047104603F06ABF0029F5D129
:10585C000846704708B582688B689A4205D1FFF7F5
:10586C00E4FFB0FA80F0400908BD0020FCE7704767
:10587C007047704770470000064B994210B500F115
:10588C000C0405D0084603F011F9002808BF0024C9
:10589C00204610BD64A10B00064B994210B500F1D7
:1058AC000C0405D0084603F001F9002808BF0024B9
:1058BC00204610BD64A10B00064B994210B500F1B7
:1058CC000C0405D0084603F0F1F8002808BF0024AA
:1058DC00204610BD64A10B0010B568210446FEF7EC
:1058EC00D6FB204610BD10B528210446FEF7CFFB91
:1058FC00204610BD10B530210446FEF7C8FB2046EB
:10590C0010BD6821FEF7C3BB2821FEF7C0BB3021B8
:10591C00FEF7BDBBF0B50025EC1C8C420DD86E1CFF
:10592C00445D875D974205D12644B14205D31D6085
:10593C00601CF0BD01342544EEE70020F9E70000BF
:10594C00024A03490A20FFF7BDBC00BF914F0B0070
:10595C00F49E0B0030B40D4611461A4603680968D4
:10596C002868D3E90043A44630BC6047012A38B507
:10597C00044602D10B68236003E0022A03D0032AF9
:10598C000DD0002038BD08200D68FEF77CFB0346C7
:10599C000028F0D095E8030083E80300EBE70068EB
:1059AC000028EED00821FEF772FBEAE710B58368F9
:1059BC0004462BB10322014698470023C4E9023365
:1059CC0010BD10B5836804462BB1032201469847DD
:1059DC000023C4E9023310BD10B500238AB0202285
:1059EC00CDE902230446084A0092084902AA012084
:1059FC00FFF770FC206806490088002322460AB095
:105A0C00BDE81040FFF7F2BA169F0B000B9F0B007E
:105A1C0051750B0010B5013802EB410110F8013F34
:105A2C001B0903F13004392C88BF03F1370402F849
:105A3C00024B037803F00F0303F13004392C88BFB9
:105A4C0003F13704914202F8014CE7D110BD10B5B7
:105A5C008368044613B1032201469847204610BDC3
:105A6C0010B504465830FFF7F2FF04F14800BDE8CA
:105A7C001040FFF703BE10B54368013B044643607A
:105A8C0063B903689B689847A368013BA3602BB973
:105A9C0023682046DB68BDE81040184710BD38B5B8
:105AAC0003688B4205460C4608D011B14B68013394
:105ABC004B60286808B1FFF7DEFF2C6038BDA0F101
:105ACC003003DAB2092A01D818467047A0F16103F5
:105ADC00052B01D857387047A0F14103052B94BF13
:105AEC0037384FF0FF30704710B500230370044B6C
:105AFC0004461868FFF7BEFA01232370204610BD38
:105B0C00D8E6032010B5037804461BB1024B186885
:105B1C00FFF7B8FA204610BDD8E6032082B0034642
:105B2C00086849686A4603C26A4603CA1860184680
:105B3C00596002B0704708B582798B799A4206D1C8
:105B4C00062203F07FFDB0FA80F0400908BD00206A
:105B5C00FCE74FF0FF33036083800020704708B5EB
:105B6C000246002101604160FFF7F3FF917110467E
:105B7C0008BD10B5431D01391C7801F8014F834253
:105B8C0003F1FF33F8D110BD70B5144688B01A4636
:105B9C000D46002948D0A4B101A9FFF7EAFF9AB13C
:105BAC0003AA062101A8661EFFF734FF112E28BF99
:105BBC001126324603A9284603F054FD0023AB55A9
:105BCC00741C204608B070BD03AA012101A8FFF780
:105BDC0021FF3A260DF10F0201210DF105008DF880
:105BEC000E60FFF717FF0DF1120201210DF10600F7
:105BFC008DF81160FFF70EFF0DF1150201210DF16B
:105C0C0007008DF81460FFF705FF06AA012102A812
:105C1C008DF81760FFF7FEFE8DF81A600DF11B0270
:105C2C0001210DF10900BEE70C46CAE710B586B09C
:105C3C00044613460846122201A9FFF7A5FF01A945
:105C4C002046FFF766FD204606B010BD10B50123B7
:105C5C000361054B024603F1100153F8044B42F863
:105C6C00044B8B42F9D110BD72A10B000B7C13F0CD
:105C7C00FD0330B50DD103610C4B024603F110044A
:105C8C0053F8045B42F8045BA342F9D10B8883817F
:105C9C0030BD0123036101F11002034651F8044B9E
:105CAC0043F8044B9142F9D1F2E700BF72A10B000B
:105CBC0010B50B460446B1B1012A01F110020AD10C
:105CCC00014653F8040B41F8040B9342F9D101231C
:105CDC002361204610BD411E12F8010D01F8010F81
:105CEC009A42F9D1F3E7102203F0E4FCF1E738B55E
:105CFC0004460D46FFF7AAFF00232361A581204629
:105D0C0038BD08B502690B699A4206D1102203F01E
:105D1C0099FCB0FA80F0400908BD0020FCE70000B7
:105D2C0001232DE9F3410361344B0C460646024630
:105D3C0003F1100153F8040B42F8040B8B42F9D118
:105D4C0044B32421204603F005FD04284FF0000540
:105D5C0023D1ADF8045001AFA51C063415F8020C84
:105D6C00FFF7ADFEB0F1000812DB15F8010CFFF7E0
:105D7C00A6FE00280CDB023540EA0810A54207F805
:105D8C00010BEBD19DF8053033739DF80430737320
:105D9C000023336102B0BDE8F0814FF010082421DC
:105DAC00204603F0D7FCA84207D8424600213046D3
:105DBC0002B0BDE8F04103F07DBCB8F1000FE9D0B2
:105DCC00605DFFF77CFE030615D4000108F1FF3877
:105DDC00C7B206F808702421204603F0BBFC01353D
:105DEC00A84208D9605DFFF76AFE40B20028A4BF44
:105DFC00384306F808000135D1E700BF72A10B004B
:105E0C0013B504460191FFF721FF20460199FFF7D6
:105E1C0087FF204602B010BD10B500F10F03013909
:105E2C001C7801F8014F834203F1FF33F8D110BD08
:105E3C002DE9F0411F468EB00D4600295BD0DAB13A
:105E4C00D0F81080541EB8F1000F19D18389CDF809
:105E5C0014805BBA05AA022101A8ADF80430FFF743
:105E6C00D9FD042C28BF0424224605A9284603F09A
:105E7C00F9FB05F80480621C10460EB0BDE8F081F9
:105E8C0001A9FFF7C9FF05AA7FB1102101A8FFF7EF
:105E9C00C1FD242C28BF2424224605A9284603F042
:105EAC00E1FB00232B55621CE6E704210DEB0100FE
:105EBC00FFF7B0FD2D260DF11D02022102A88DF871
:105ECC001C60FFF7A7FD0DF1220202210DF10A0063
:105EDC008DF82160FFF79EFD0DF12702022103A82A
:105EEC008DF82660FFF796FD8DF82B600BAA062126
:105EFC000DF10E00CBE70A46BEE710B58AB004469A
:105F0C000023252208466946FFF792FF6946204682
:105F1C00FFF7FFFB20460AB010BDF7B50546164645
:105F2C001F460A4601ABD0E90001FFF7F3FC30F045
:105F3C0002040CD0841EBC4228BF3C463EB10199E1
:105F4C002B68023122461944304603F08BFB204665
:105F5C0003B0F0BD37B513460C4601920A46082132
:105F6C000546FFF7DAFF40B9019B22460921284676
:105F7C0003B0BDE83040FFF7D0BF03B030BD000028
:105F8C00F0B50C4689B00C490546FFF7C2FB1F2241
:105F9C0069462046FFF7DEFF064650B16C460027E7
:105FAC0014F8011B2846FFF733FC10B10137BE4231
:105FBC00F6D1284609B0F0BD77980B0007B502233F
:105FCC0001AA1921FFF7A9FF08B1BDF8040003B01D
:105FDC005DF804FB38B54FF6FF730025044643808B
:105FEC000E22294605700571063003F063FB04F19F
:105FFC001400FFF72BFE04F12800FFF727FE0449DD
:10600C0004F13C00FFF785FB6565204638BD00BFF9
:10601C0077980B0038B50D680446014605F1280049
:10602C00FFF76FFE40B1AB89A28A9A4205D8E08A8D
:10603C00984234BF0020012038BD0020FCE710B589
:10604C00D0E9063203EBC2029342184606D004682C
:10605C0024888C4203F10803F6D110BD0020FCE724
:10606C00002370B5036005466820FEF70CF8041E8B
:10607C0004F10C0607D00123C4E90133044B23605F
:10608C003046FFF7A7FFC5E90064284670BD00BF86
:10609C0018A10B0070B50C681434064605460FCCDD
:1060AC000FC523682B60304670BD000010B5036827
:1060BC001A7886B052BB5C884FF6FF70844225D0AC
:1060CC00188A30B3CDE903220592134A0092134A81
:1060DC00CDE901235A88ADF80C201A8AADF80E20B0
:1060EC009A89ADF8102059B11A79920644BF022250
:1060FC0005921B79DB0642BF059B43F00103059318
:10610C0000216846FEF7A4FF06B010BD6FF0D10069
:10611C00FAE76FF07700F7E703001800FD620B0059
:10612C00F8B50026066005462820FDF7ACFF041ED6
:10613C0004F10C070AD00123C4E90133054B236099
:10614C003846FFF783FD266284F82460C5E90074A5
:10615C002846F8BD34A10B0070B500250560064635
:10616C003020FDF790FF044688B10123C0E90133CC
:10617C00094B03604FF6FF7383810E30FFF7EFFC82
:10618C00C4E90655C4E90855C4E90A55A5757460F7
:10619C000C343460304670BD50A10B0013B504466E
:1061AC0001A8FFF7A1FC23681C884FF6FF73E41AC3
:1061BC0001A818BF0124FFF7A5FC204602B010BDB2
:1061CC0037B505460C4601A8FFF78EFC2A682368F4
:1061DC00C2F802306368C2F8063001A8FFF792FCDF
:1061EC0003B030BD37B50D46044601A8FFF77CFC63
:1061FC002A68D2F802302360D2F80630636001A816
:10620C00FFF780FC204603B030BD30B5054687B0A3
:10621C000C4601A8FFF768FC2A68236812881B88C3
:10622C009A420DD1294602A8FFF7DCFF214604A8AB
:10623C00FFF7D8FF04A902A8FFF77DFC044600B9BC
:10624C00002401A8FFF75EFC204607B030BD00001B
:10625C0010B504466420FDF716FF68B10023C0E9B1
:10626C000033C0E90233C0E90433C0E906330362EA
:10627C00C362C363C364C365206020B90A4A0B4977
:10628C000A20FFF71FF80020FEF78CFE20B1064A0B
:10629C0007490A20FFF716F8216806480022FEF786
:1062AC00CDFE204610BD00BF914F0B00F49E0B009D
:1062BC00329F0B00596C0B0010B50A4C2378BFF3BE
:1062CC005B8FDB070CD42046FDF7F0FE40B106488F
:1062DC00FFF7BEFF2046FDF7EEFE044803F0ACF9D5
:1062EC00014810BDD4E60320DCE603205D650B00FD
:1062FC0030B50368093B012B8DB004460D4611D80F
:10630C00FFF7DAFFA1880068FFF799FE034658B93A
:10631C002022CDE904200B4A00920B4904AA32201A
:10632C00FEF7D8FF0DB030BD6A6D002AFAD0D4E963
:10633C00032105F14C00CDE90312AC6D04AA03A9AD
:10634C00A047EFE7749F0B000B9F0B0008B50020D4
:10635C00FEF728FE00EAE07008BD10B5044640695F
:10636C00FFF754F8A068FFF751F8204610BD002243
:10637C0047F67F71C0E90022C0E90222C0E904227D
:10638C00C0E90E22C0E91022C0E91222C0E9142291
:10639C00C0E91622C0E91822C0E91B22026202637E
:1063AC00A0F86810704770B5D0E90053044605EBAF
:1063BC000316AE4204D02846FFF760F91035F8E713
:1063CC002068FFF723F8204670BD10B5044600681E
:1063DC00FFF71CF8204610BD70B50446C06DFFF7E2
:1063EC0015F8206DFFF712F804F1380504F144009C
:1063FC00FFF7EBFF2846FFF7D6FF04F12800FFF765
:10640C0026FB04F11800FFF722FBD4E900532426E5
:10641C0006FB0356AE4204D02846FFF79EFF2435F8
:10642C00F8E72068FEF7F2FF204670BD38B5141E61
:10643C004368054602DB62189A4200DD5C1A2A6842
:10644C00501801191A44521A03F01AF96A68121BEF
:10645C006A6038BD38B500230446836008200D46B9
:10646C00FDF711FE18B12B6803606B684360034B9A
:10647C00E360034B2060A360204638BD61590B00DC
:10648C0079590B000B68036013B15A6801325A60DA
:10649C00704710B551F8043B044640F8043BFFF735
:1064AC00F1FF23680BB9FFF74BFA204610BD10B56E
:1064BC0051F8043B044640F8043BFFF7E3FF204649
:1064CC0010BD10B551F8043B044640F8043BFFF7EF
:1064DC00D9FF204610BD10B50446006808B1FFF77F
:1064EC00CAFA204610BD10B504460430FFF7F3FF7E
:1064FC00204610BD70B5D0E90053044605EBC30629
:10650C00AE4204D0281DFFF7E6FF0835F8E72068F7
:10651C00FEF77CFF204670BD70B5D0E900530446F1
:10652C0005EBC306AE4204D0281DFFF7D4FF083597
:10653C00F8E72068FEF76AFF204670BD10B50446E8
:10654C002430FFF7E9FF04F11800FFF7D3FF10BD6B
:10655C0070B5174B1C6854B304F15400FFF777FA6D
:10656C0004F14400FFF773FA04F13400FFF76FFAFB
:10657C0004F12400FFF76BFAD4E9065305EBC306CC
:10658C00AE4204D0281DFFF7A6FF0835F8E7A06936
:10659C00FEF73CFF04F10C00FFF7BEFF2046FFF7AF
:1065AC00A9FF20466421BDE87040FDF770BD70BDA9
:1065BC00DCE60320826810B50AB902F073FABDE874
:1065CC001040C36818472DE9F0470023C0E9003399
:1065DC008360D1F80480984505460F464ADD4FEAA2
:1065EC000810FEF70BFF0646002843D0D5E9004102
:1065FC00A04204EB011A16D9504515D2AAF1100A83
:10660C00A4F11009AAEB04040444D1451DD01CB11B
:10661C0051462046FFF7AEF85046FFF72FF8AAF187
:10662C00100A103CF1E710D0B146A2450DD0B9F1DB
:10663C00000F03D021464846FFF79CF82046FFF791
:10664C001DF8103409F11009EFE72868FEF7DEFE9B
:10665C00C5F808802E60D7E9004304EB0318A04569
:10666C0006D021463046FFF79FF810341036F6E777
:10667C007B686B602846BDE8F08730B58DB00C4662
:10668C0000F1380101A8FFF79EFF029B002B2FDDC4
:10669C0004F1140104A8FFF773FC04F1080108A825
:1066AC00FFF76EFC0A9A069B13431FD0DDE90145E8
:1066BC0004EB0515AC4219D004A92046FFF7CAF823
:1066CC0060B1012408A8FEF7D9FF04A8FEF7D6FF95
:1066DC0001A8FFF768FE20460DB030BD204608A982
:1066EC00FFF7B8F810340028E4D0EAE70024E9E713
:1066FC000124EDE7F8B50023C0E9003383604F684F
:10670C009F4205460E463EDDF800FEF777FE044636
:10671C00C8B3D5E90003844200EBC30310D99C42F3
:10672C000FD2083B1A1AA0F1080C22449C4518D031
:10673C001AB11968116059685160083B083AF5E7BD
:10674C000FD0014622468B420BD03AB1D1F800C093
:10675C00C2F800C0D1F804C0C2F804C00831083235
:10676C00F1E7FEF753FE2C60AF60D6E9003103EB86
:10677C00C100984206D01A6822605A6862600833D9
:10678C000834F6E769602846F8BD70B50446002069
:10679C00C4E90000A0604E6886420D4612DD71000F
:1067AC00FEF73CFE70B12060A660D5E9003203EB29
:1067BC0042029A4204D033F8021B20F8021BF8E77D
:1067CC006B686360204670BD10B50379044623B92D
:1067DC000368186808B1FEF719FE204610BD10B505
:1067EC000379044623B90368186808B1FEF70EFE56
:1067FC00204610BD2DE9F043D0F86C808FB00F46C9
:10680C00B8F1000F72D0056F002D6FD001F1140993
:10681C001F230022FF214846FFF77FFB0837FF2389
:10682C000446002219463846FFF777FBAC42064671
:10683C0006D0AE4230D0002420460FB0BDE8F08325
:10684C002046FEF7DBFD03AB0493002304460390C4
:10685C008DF8143070B92023CDE90630244B009309
:10686C002449034606AA3220FEF734FD04A8FFF79C
:10687C00ABFFE1E70246FF212B464846FFF74DFBF5
:10688C0003982A46414602F0DDFE18B104A8FFF732
:10689C009BFFCEE70124E9E72846FEF7AFFD002475
:1068AC0003AB0646039004938DF8144078B920236B
:1068BC00CDE906300E4B00930E49034606AA322052
:1068CC00FEF708FD344604A8FFF789FFB4E702463B
:1068DC00FF212B463846FFF720FB03982A464146FA
:1068EC0002F0B0FE0028EED10124ECE70124A3E76E
:1068FC008C9F0B000B9F0B0038B50D1E04460068D7
:10690C0003DDFEF78BFD18B938BDFEF77FFD0020C7
:10691C002060A5600120F7E708B583688B4202DA96
:10692C00FFF7EAFF08BD0120FCE738B50023C0E9FA
:10693C00003383600D4649689942044610DDFFF729
:10694C00DBFF68B1D5E9003122681944994205D0C2
:10695C000AB11878107001330132F7E76B68636085
:10696C00204638BD38B50B6803604B68436004465D
:10697C000D4608300831FFF7D8FF05F1140104F17A
:10698C001400FFF7D2FF95F8203084F82030204611
:10699C0038BD1FB5044601A8FFF7C7FF019B029A3B
:1069AC002068236063686260039A0293A368A26004
:1069BC0001900393FEF72AFD04B010BD2DE9F041C0
:1069CC000F4641681D461944836899420446904617
:1069DC0012DC266862683E44D21B3146701902F004
:1069EC004FFE2A464146304602F03CFE63682B447B
:1069FC0063600120BDE8F081FFF77EFF0028E8D13D
:106A0C00F8E713460A46002110B50446416002B16E
:106A1C000BB9002010BDFF2B28BFFF23FFF7CEFFC3
:106A2C000028F7D06068F5E7F8B50D46D0E90113FA
:106A3C009942044616460BDA276862687919521B8C
:106A4C00481C02F01DFE7E55636801336360F8BD7F
:106A5C000131FFF751FF0028EED1F8E70A464168F3
:106A6C00FFF7E2BF2DE9F74304461D460F4601AB85
:106A7C0090460A46D0E900019DF82890FEF74AFF9F
:106A8C00AE1C63680246B9F1000F26D128B333441B
:106A9C001B1AFF2B09D801992046FFF7C7FC616828
:106AAC0020463144FFF738FF18B9606803B0BDE8E1
:106ABC00F0836A1C0199D2B22046FFF7B5FF019909
:106ACC003A4601312046FFF7AFFF01992B4642466B
:106ADC0002312046FFF772FFE7E7F118FF29E4D8EF
:106AEC002046FFF719FF0028DFD0691CC9B22046E9
:106AFC00FFF7B4FF39462046FFF7B0FF61682B461D
:106B0C004246E6E730B49DF808501AB1029530BC05
:106B1C00FFF7A8BF406830BC70471FB50023C0E921
:106B2C00003383600622009301238DF80F20194651
:106B3C000DF10F020446FFF7E5FF204604B010BD2F
:106B4C008842F8B504460D46164614D9904213D225
:106B5C00A2F10806751AA1F108072C44B74218D007
:106B6C001CB131462046FFF7ACFC301DFFF7B3FCDF
:106B7C00083E083CF2E70CD0B5420AD01CB12946BD
:106B8C002046FFF79EFC281DFFF7A5FC08350834AE
:106B9C00F2E7F8BDF7B5044646686846FFF791FC86
:106BAC00D4E901739F4212DB0137002F29DDF80075
:106BBC00FEF724FC0546F0B1D4E9001201EBC20249
:106BCC00FFF7BEFF2068FEF721FC2560A760236855
:106BDC00626803EBC60603EBC202314606F10800FD
:106BEC00FFF7AEFF1EB169463046FFF76AFC6368DB
:106BFC0001336360012501A8FFF76DFC284603B043
:106C0C00F0BD0025DEE7F8B5D0E9004305460F4698
:106C1C0004EBC306A64205D039462046FFF7F5FA29
:106C2C0008B114B9F8BD0834F4E7201DFFF753FC84
:106C3C00D5E9003204F1080103EBC2022046FFF74C
:106C4C007FFF6B68013B6B60ECE700002DE9F041C6
:106C5C0005468EB003A80C46FEF746FF2E68F31EC1
:106C6C000D2B3CD8DFE813F00E0053003B00D10095
:106C7C003B003B003B003B003B009B009B009B0010
:106C8C009B009B0004A8FFF767FA049BAA891A8053
:106C9C006968049808310230FEF740FF04A906A881
:106CAC00FFF70FFC06A904F11800FFF773FF054668
:106CBC0007A8FFF710FC20230693B5B95D4B5E497E
:106CCC00009332202B4606AA0795FEF703FB049B84
:106CDC0029461888FEF780F905A8FFF7FCFB03A8E6
:106CEC00FEF710FF0EB0BDE8F081544A009200236D
:106CFC005149079306AA0120FEF7ECFAE36A002B30
:106D0C00EAD004A904F12400FFF754FCE4E7A989B4
:106D1C002046FFF794F906460028E0D00568D5E92F
:106D2C0006324FF6FF71298003EBC2029A4203D060
:106D3C0053F8080B4180F9E7D5E9037307EBC30857
:106D4C00B84504D0381DFFF7C6FB0837F8E7002319
:106D5C002B61D5E9067307EBC308B84504D0381D81
:106D6C00FFF7B9FB0837F8E70023EB61AB72E36B75
:106D7C0023B1314604F13400FFF71CFC0023202220
:106D8C00CDE906232E4A00922B4906AA0120FEF7D4
:106D9C00A1FA314604F11800FFF735FF9FE7A989E6
:106DAC002046FFF74CF9002899D0E36C002B96D0C5
:106DBC0000230D2EADF8163001D0102E17D1002364
:106DCC0069681A4606258DF8153004918DF8142043
:106DDC000690DDE9040109AB8DF81C60089583E889
:106DEC000300236D06A904F14400984777E70F2EA2
:106DFC0001BF2B7A696803F0010208250FBFC3F3AA
:106E0C0040031A4619461D46DDE7A9892046FFF7BF
:106E1C0016F9014600283FF462AFE36D002B3FF4F6
:106E2C005EAF6B68069306AA236E04F15400984774
:106E3C0055E700BFA79F0B000B9F0B00CD9F0B00CE
:106E4C00EA9F0B0038B50D1E0446006805DD1421C1
:106E5C006943FEF7E3FA18B938BDFEF7D7FA0020FC
:106E6C002060A5600120F7E72DE9F8430024C0E974
:106E7C000044846088464968A14207461ADDFFF742
:106E8C00E1FFB8B1D8E900934FF0140CD7F800E04B
:106E9C000CFB039C09EB0405AC4508D01EEB040667
:106EAC001FBF0FCD0FC62B6833601434F2E7D8F830
:106EBC0004307B603846BDE8F88330B585B00446B5
:106ECC0001A80D46FFF77FFB019A23682260029A06
:106EDC00019363686260039A029301A8A368A2609D
:106EEC000393FFF760FA05F10C0101A8FFF7BCFF53
:106EFC00019AE368E260029A019323692261039A82
:106F0C00029301A8636962610393FFF75EFA05F1CE
:106F1C00180101A8FFF7EEFB019B029AA069A3617F
:106F2C00E369E261039A0293236A2262039301905C
:106F3C00FEF76CFA05F1240101A8FFF726FC019B72
:106F4C00029A606A6362A36AA262039A0293E36A7A
:106F5C00E26203930190FEF759FA95F9303084F808
:106F6C00303095F9313084F831306B6B6363AB6B37
:106F7C00A36305B030BD2DE9F843D1E9008745681E
:106F8C008368E9199942044617DC14232668626861
:106F9C005D4303FB07F95A432E44521B314606EB63
:106FAC00090002F06DFB4A464146304602F05AFB9E
:106FBC0063683B446360BDE8F883FFF743FF002838
:106FCC00E3D1F8E782B070B50C4604A981E80C0057
:106FDC00D0E901139942054617DA142303FB04F197
:106FEC006A682C685A430C44521AE018214604AEC5
:106FFC0002F046FB0FCE0FC4336823606B6801337D
:10700C006B60BDE8704002B070470131FFF71AFFAA
:10701C000028E2D1F5E72DE9F04F002493B0931E40
:10702C00C0E90044DBB205460F46904684600593E8
:10703C0079688C4272DA386807AB4246091B2044E7
:10704C00FEF768FC0646002868D0059B012B2FD85C
:10705C00A0F1020B4FEA5B0B4FF000090DF13C0A5B
:10706C00079BCB45234455D03A6803EB49031344A3
:10707C0008A8D9789B7843EA0121FEF738FE0DF178
:10708C00200EBEE80F000DF1340CACE80F00DEF85A
:10709C000030CCF800309AE807008DE807000DAB03
:1070AC000CCB69682846FFF78DFF09F10109D7E77A
:1070BC00A8F10603012B2DD8A0F1020B4FEA1B1BE4
:1070CC004FF000090DF13C0ACB45079B22D002334F
:1070DC003968234403EB09130122194408A8FEF76D
:1070EC00E7FD0DF1200EBEE80F000DF1340CACE8FD
:1070FC000F00DEF80030CCF800309AE807008DE87D
:10710C000700DDE90D2369682846FFF75BFF09F1ED
:10711C000109D9E7079B1C44344489E7284613B07E
:10712C00BDE8F08F30B5002385B0C0E90033836033
:10713C000446022201A80D46FFF76DFF01A9204667
:10714C00FFF719FF01A8FFF740F90222294601A811
:10715C00FFF761FF01A92046FFF70DFF01A8FFF71C
:10716C0034F90322294601A8FFF755FF01A920464F
:10717C00FFF701FF01A8FFF728F90622294601A80D
:10718C00FFF749FF01A92046FFF7F5FE01A8FFF71D
:10719C001CF90722294601A8FFF73DFF01A920464B
:1071AC00FFF7E9FE01A8FFF710F9204605B030BD46
:1071BC002DE9F04385B08846014601A89146FFF7BA
:1071CC00B1FF019E029B4FF0140E0EFB036C0027C7
:1071DC00B4450DD0B94506F1140609D0A6F1140535
:1071EC000FCD0EFB07840FC42B6823600137EFE72C
:1071FC0001A8FFF7EAF8384605B0BDE8F0832DE9A1
:10720C00F04F8BB00C4600F1440101A8FFF72CFEA7
:10721C00029B002B4ADD04F1140104A8FFF782FF46
:10722C0004F1080107A8FFF77DFF059D089E002DBE
:10723C0001DC002E38DD019A029FDDF81080DDF8AC
:10724C001C90142303FB072703FB058503FB069601
:10725C009246BA4528D0C346AB4515D05946504640
:10726C00FEF74FFD0BF1140B04460028F4D007A8D1
:10727C00FFF7ABF804A8FFF7A8F801A8FFF7A5F8EB
:10728C0020460BB0BDE8F08FCB46B34509D059462C
:10729C005046FEF736FD0BF1140B04460028F4D0D3
:1072AC00E5E70AF1140AD4E70024E0E70124E4E757
:1072BC0013B50B460246D0E900016C4684E8030086
:1072CC0093E8030082E8030094E8030083E80300DA
:1072DC0002B010BD38B505460C46FFF7E9FFAB68A8
:1072EC00A268AA60A360EB68E268EA60E36038BD5C
:1072FC0030B585B0002302938B6805460C4633B13C
:10730C00022268469847E3680393A36802932946D0
:10731C006846FFF7DFFF6846FEF799FB05B030BD06
:10732C0038B50D4601684B6D044623B128684C31C5
:10733C004C30FFF7DDFF20462B6840F8043B6968B2
:10734C00FEF7ADFB204638BD2DE9F043044687B06F
:10735C0068460E461746FEF7C7FB2368D3E906437B
:10736C0004EBC3084445A14616D0214601A8FEF7FC
:10737C0091FE394601A8FEF7C4FC083405460028E6
:10738C00F0D049463046FFF7CBFF6846FEF7BAFB14
:10739C00284607B0BDE8F0830025F6E710B5046871
:1073AC008AB04C34B9B1CDE9001202A86946FFF796
:1073BC0051F8002306A902A80893FFF78BFF21467A
:1073CC0006A8FFF787FF06A8FEF741FB02A8FEF709
:1073DC003EFB0AB010BD0491EBE78842F8B50446B9
:1073EC000D46164614D9904213D2A2F10806751A0E
:1073FC00A1F108072C44B74218D01CB131462046E5
:10740C00FFF755F8301DFFF766F8083E083CF2E729
:10741C000CD0B5420AD01CB129462046FFF747F8DC
:10742C00281DFFF758F808350834F2E7F8BD70B599
:10743C000E1E054611DDF000FDF7E0FF044658B1C5
:10744C00D5E9001201EBC202FFF7C7FF2868FDF770
:10745C00DDFF2C60AE60012070BD0024F6E72DE945
:10746C00F0410023C0E9003383600D46496899421E
:10747C00044613DDFFF7DBFF80B1D5E90063276815
:10748C0006EBC308B04507D01FB131463846FFF7AD
:10749C000EF808360837F5E76B6863602046BDE8E0
:1074AC00F08137B50D46044601A8FEF71DFB29688F
:1074BC0020460C31FFF7D3FF01A8FEF723FB204633
:1074CC0003B030BD38B50B689B7A05460C4633B912
:1074DC000846FEF781FA10B9236801229A722846F1
:1074EC002146FFF7DEFF284638BD73B504464568D4
:1074FC006846FEF7DCFFD4E90113994210DA2368E1
:10750C00626803EBC50503EBC202294605F10800CE
:10751C00FFF763FF8DB9636801336360012606E0F2
:10752C0001312046FFF783FF06460028E7D101A86A
:10753C00FEF7D1FF304602B070BD69462846FEF713
:10754C00B6FFE8E72DE9F04FDFF8B890DFF8B8A008
:10755C0093B00546884600272B68BB424ED903A83A
:10756C00FEF7DEFD1C266A68039C7E4332440DF157
:10757C00140C131DE346143218685968E646AEE83D
:10758C00030008339342F446F6D11868CEF8000095
:10759C0059460AA8FEF76AFB0DF1280CBCE80F004F
:1075AC000FC4DCF8003023606B68039A334403A9E2
:1075BC001B8B93826B6833445B8BD382D8F80000AF
:1075CC0000F10C040AA8FEF772FF20460AA9FFF787
:1075DC008CFF04460BA8FEF77EFF54B92023CDE99F
:1075EC000A34CDF8009023460AAA51463220FDF702
:1075FC0071FE04A8FEF76FFF0137ADE713B0BDE8CD
:10760C00F08F00BF09A00B000B9F0B008842F8B550
:10761C0004460D46164614D9904213D2A2F1080620
:10762C00751AA1F108072C44B74218D01CB1314689
:10763C002046FEF72EFF301DFEF74DFF083E083C9E
:10764C00F2E70CD0B5420AD01CB129462046FEF711
:10765C0020FF281DFEF73FFF08350834F2E7F8BD80
:10766C0070B50E1E054611DDF000FDF7C7FE044691
:10767C0058B1D5E9001201EBC202FFF7C7FF286829
:10768C00FDF7C4FE2C60AE60012070BD0024F6E74F
:10769C002DE9F0410023C0E9003383600D464968B1
:1076AC009942044613DDFFF7DBFF80B1D5E9006397
:1076BC00276806EBC308B04507D01FB131463846E2
:1076CC00FEF7E7FE08360837F5E76B68636020467F
:1076DC00BDE8F08137B50D46044601A8FEF704FA63
:1076EC00296820461831FFF7D3FF01A8FEF70AFAE4
:1076FC00204603B030BD73B5044645686846FEF7B6
:10770C00C8FED4E90113994210DA2368626803EBCE
:10771C00C50503EBC202294605F10800FFF776FF09
:10772C008DB9636801336360012606E001312046A0
:10773C00FFF796FF06460028E7D101A8FEF7CBFE1F
:10774C00304602B070BD69462846FEF7A2FEE8E757
:10775C00F0B585B0054601A80C461746FEF7C4F9EE
:10776C000023C5E90033AB602368D3E9064604EB7C
:10777C00C606B44211D038682146FEF74BFC50B116
:10778C00214602A8FEF785FE02A92846FFF7B3FFA3
:10779C0003A8FEF7A0FE0834EBE701A8FEF7B2F948
:1077AC00284605B0F0BD00002DE9F0430B689B7A2C
:1077BC0091B006460F46904633B9C0E9003383605A
:1077CC00304611B0BDE8F08311680D7E002D58D104
:1077DC0020232A4603A8CDE90835FEF78EFB039B30
:1077EC0001932B4B2B49009308AA2B460120FDF744
:1077FC0071FD03A8FDF742FF1C23ADF82230D8F829
:10780C0000309A8AADF83820DB8AADF83A303B6804
:10781C00214A1888009508A9FDF7F2FB002830DBF7
:10782C003B68D3E9064304EBC3090834A4F108030D
:10783C00994522D054F8083CDB89002BF5D0102256
:10784C0000210DEB0200039501F034FF54F8083CC5
:10785C00D9893B6803AA188800951323FDF7DAFB36
:10786C000028E2D010AB184403A900F8345C54F89B
:10787C00080C3C30FDF7A3FFD7E7D8F80030012205
:10788C001A76424639463046FFF762FF98E700BF4A
:10789C002EA00B000B9F0B004D7A0B00F0B50B6864
:1078AC009B7A85B006460D462BB901A8FFF70AFE58
:1078BC0001A8FEF71FFE2B68D3E9034704EBC707AB
:1078CC00BC4209D02246294601A8FFF76DFF01A84A
:1078DC00FEF722FE0834F3E730462946FFF7FAFE9E
:1078EC00304605B0F0BD00002DE9F043054693B0DD
:1078FC00086807920F46496898460AAC414B0493B6
:10790C0003C405AB4FF0000983E80300CDE90899E7
:10791C00FEF7D2FC3C4B0893FEF7CEFC29680368BB
:10792C0009934A4604A8FDF77FFB0AAE044638B11A
:10793C002B684FF6FF721A80204613B0BDE8F08317
:10794C0039462846FEF73CFC03A8FEF7CDF8FEF7B7
:10795C00B3FC0768294618373046FEF7B2FD3146AE
:10796C003846FFF717F907460BA8FEF7B4FD4FF0A2
:10797C0020091FBB3246254B254E26490093322049
:10798C002346CDE90A94FDF7A5FC3068FDF77AFB98
:10799C002B688DF80C40214618881F4CFDF71CFBFA
:1079AC003068FDF767FB01238DF80C302B684FF620
:1079BC00FF721A8003A8FEF7A5F8BDE703A8FEF72F
:1079CC00A1F8164B00931349234632460120CDE90A
:1079DC000A94FDF77FFCB8F1000FADD02946304674
:1079EC00FFF75CFFDDE90A5305EBC307BD4205D089
:1079FC0028460121FEF75AFB0835F7E73046FEF71B
:107A0C008BFD99E703001800596C0B0060A00B006C
:107A1C00D8E603200B9F0B00FCFEFFFF7CA00B00A5
:107A2C0013B50446CDE90032FEF796FB009B019995
:107A3C0000222046FFF758FF204602B010BD000080
:107A4C002DE9F04F202395B00026CDE90C36664B7E
:107A5C00009305460F4633466449DFF89491DFF8EE
:107A6C008C81DFF890A10CAA0120FDF733FC2B6868
:107A7C00B34240F2B58003A8FEF7F2FA05A8FEF770
:107A8C004FFB4FF02A0B6B68039A0BFB06FB5B4416
:107A9C00D98B1181198C5181598C9181988CD08101
:107AAC00D88C10821B8D5382D7E9033203EBC202B0
:107ABC009A427DD01868C48A8C4277D3848A8C42CF
:107ACC0074D85968059006A8FDF7E9FFDDF814C0D5
:107ADC00DDF80CE0BCE80F000EF128040FC4DCF854
:107AEC00003023602B89AEF802306B68039C5B443A
:107AFC005B7E13F0020F6ED16B685B445B7E5807A4
:107B0C0042BF237943F0040323716B685B445B7EB3
:107B1C00190742BF237943F0080323716B685B4458
:107B2C005B7EDA0642BF237943F0100323716B6846
:107B3C005B4407AA5B7E9B0642BF237943F020037C
:107B4C0023716B689B440BF1040396460BF1140BE9
:107B5C00186859689446ACE8030008335B456246E4
:107B6C00F6D11868CCF8000071460CA8FEF77EF828
:107B7C000DF1300CBCE80F0014340FC4DCF80030ED
:107B8C00236003A90CA8FEF784FC0CA907F11800CC
:107B9C00FFF7B1FD04460DA8FEF79DFC9CB9202310
:107BAC00CDE90C34CDF800A0234607E008337FE77D
:107BBC0020240023CDE90C43CDF800900CAA4146BB
:107BCC003220FDF787FB06A8FEF785FC04A8FEF71C
:107BDC0082FC01364BE7237943F0020323718BE7D8
:107BEC0015B0BDE8F08F00BF99A00B000B9F0B00E8
:107BFC00B4A00B00E3A00B008842F8B504460D4678
:107C0C00164614D9904213D2A2F12406751AA1F18A
:107C1C0024072C44B74218D01CB131462046FEF73D
:107C2C00A1FE3046FEF799FB243E243CF2E70CD033
:107C3C00B5420AD01CB129462046FEF793FE2846D1
:107C4C00FEF78BFB24352434F2E7F8BDF8B50E1E95
:107C5C00054613DD242707FB06F0FDF7CFFB044692
:107C6C0058B1D5E9001207FB0212FFF7C5FF2868CF
:107C7C00FDF7CCFB2C60AE600120F8BD0024F6E7CC
:107C8C002DE9F0410023C0E9003383600F464968B9
:107C9C009942054629DDFFF7D9FF30B3D7E90043F8
:107CAC004FF024082E6808FB03480834A4F108029E
:107CBC00904518D0A6B154F8083C336054F8043CF5
:107CCC007360214606F10800FEF72FFE04F10C014B
:107CDC0006F11400FEF729FE94F9183086F82030CE
:107CEC0024362434E2E77B686B602846BDE8F081DB
:107CFC0038B50C46054601F11800FDF757FE04F1A6
:107D0C002800FDF75EFE002221460448FDF752F9DB
:107D1C0021462846FFF7B4FF284638BD577D0B0097
:107D2C0010B5A0B0044603A80192FEF720FB019900
:107D3C0011A8FFF7C2F803A92046FFF7D9FF03A843
:107D4C00FEF74AFB204620B010BD2DE9F0439DB054
:107D5C0001AD064628460C46FDF701FF03A8FEF7C9
:107D6C00DCFE06A8FEF7D9FE30697169F28913AB07
:107D7C0003C385E803003378B1688DF8243006A876
:107D8C00FEF73FFEB289716803A8FEF73AFE94F93C
:107D9C0068307F2B13AF03D09DF924209A425CDB13
:107DAC0094F969307F2B03D09DF924209A4254DC3E
:107DBC0004F150013846FEF79DFC149B002B52DD5C
:107DCC00139E06EBC309B14550D030462946FDF74A
:107DDC00B2FE083680460028F5D01398FDF716FB46
:107DEC00B8F1000F39D029462046FEF746FCA0B367
:107DFC0029462046FFF703FA064670B304F15C01EE
:107E0C003846FEF7C2FC149B002B12DD06A8FEF7C9
:107E1C00D5F8804603A8FEF7D1F8DDE9133203EB61
:107E2C0042029A4225D033F8021B884501D0884281
:107E3C00F7D11398FDF7EAFA7EB129462046FEF7F2
:107E4C00D9FC50B1236AB3B16369139501336361F3
:107E5C00636A394604F1180098472846FEF77DFA04
:107E6C001DB0BDE8F0834FF00108B6E74FF00008F5
:107E7C00B3E70026DDE7D4F83080B8F1000F07D067
:107E8C006369013363612946636B04F12800E3E7FE
:107E9C00D4F80CC0BCF1000F25D063692269013302
:107EAC0093426361D9D8242253432A4603CA243B04
:107EBC000CEB03064CF80300716006F1080003A9F3
:107ECC00FEF767FD06A906F11400FEF762FD9DF9A9
:107EDC00243086F82030D4E904329A42BDD340468F
:107EEC00FDF770F8B9E795E803000DF1280888E86C
:107EFC00030003A90CA8FEF718FD06A90FA8FEF7AE
:107F0C0014FD9DF824308DF848304146384666689B
:107F1C00FEF728FDD4E90113994210DA2368616851
:107F2C00242202FB063606F1240002FB0132314604
:107F3C00FFF762FE86B963680133636005E00131C7
:107F4C002046FFF783FE0028E8D13846FEF705FAF5
:107F5C004046FEF702FA80E739463046FEF702FD4E
:107F6C00E9E70000024800230360FDF77BB800BF7F
:107F7C00D8E60320F8B506460D468F180024BD42FE
:107F8C000CD0336815F8011B9B6830469847031ECC
:107F9C0001DB1C44F3E7002C08BF1C462046F8BD4F
:107FAC0013B50446084659B1019101F0CBFB236887
:107FBC000199DB680246204602B0BDE81040184724
:107FCC0002B010BD08B5FFF7EBFF08BD03689B6856
:107FDC00184738B50D210546FFF7F8FF0A2104466E
:107FEC002846FFF7F3FF204438BD38B50546FFF7A8
:107FFC00D7FF04462846FFF7ECFF204438BD30B5C8
:10800C008BB00023012A8DF8243098BF0A2209ACCA
:10801C000D46B1FBF2F101FB125303F0FF03092BE8
:10802C0094BF30333733DBB2AA4204F8013DEFD9A9
:10803C002146FFF7B5FF0BB030BD00002DE9F74F1F
:10804C0055EC104B06460F4610EE102A10EE100A97
:10805C002B46294601F092FA40B153493046FFF7BE
:10806C009FFF8246504603B0BDE8F08F25F00049D3
:10807C004E4B4FF0FF322046494601F07FFA48B98B
:10808C004A4B4FF0FF322046494601F059FA08B9E5
:10809C004749E3E7474B4FF060422046294601F041
:1080AC0063FA08B14449D9E7444B4FF0604220468B
:1080BC00294601F03BFA0028F4D100220023204687
:1080CC00294601F033FAD0B12D213046FFF77EFF5F
:1080DC0005F1004382461D463949DFF8EC904FF01C
:1080EC00000B00204FF000085FFA8BF39F4208D979
:1080FC0042464B4601F0D2F80BF1010BF4E78246F5
:10810C00EAE722462B4600F0E9FD0D46044601F055
:10811C0073FA804600F01EFF02460B4620462946A5
:10812C0000F0DAFD0A2204460D4630464146FFF7C0
:10813C0066FF8244002F95D02249DFF88C903046A0
:10814C00FFF72EFF4FF000088244002F8AD04246E2
:10815C004B462046294600F077FF04460D4601F0B9
:10816C0023FAB0F1000B1CDA2D213046FFF72EFF5D
:10817C00CBF1000103460A2230460193FFF73FFF83
:10818C00019B18448244584600F0F4FE02460B460C
:10819C002046294600F0A0FD013F04460D46FFB2E3
:1081AC00D3E759460023E6E782A10B00FFFFEF7FE0
:1081BC0086A10B00FFFFEF418AA10B00FFFFEFC16F
:1081CC000000E03F0DA10B000000244038B5044630
:1081DC0010EE100ACDB200F0DFFE41EC100B294678
:1081EC002046BDE83840FFF729BF0000014B024A8A
:1081FC001A607047E0E603208EA10B00024B1A6850
:10820C00024B1A60704700BF60E10320E4E60320D4
:10821C000021FDF76FB80000014B00229A607047F7
:10822C00E8E60320014B1860704700BF64E10320AF
:10823C0008B50B4B43B100F063F903681B69984711
:10824C00002801DDAFF30080064B43B100F0C4FB06
:10825C0003681B699847002801DDAFF3008008BD57
:10826C00000000000000000008B5FFF7E1FFFCF77C
:10827C0091FE014B186008BD40E703200548064AF3
:10828C00064908B5121A01F0EDF9054B054A1A60BA
:10829C0008BD00BF00F4032004F40320A4A40B00C9
:1082AC0000F403201E1C279A07B5002300931A46DE
:1082BC006FF07701FDF730F803B05DF804FB0000B8
:1082CC0007B543880A2B08D0502B0BD1094B1B68E0
:1082DC004BB103B05DF804EB1847FFF7E5FF03B0B3
:1082EC005DF804FB002300931A466FF07701FDF74D
:1082FC0013F8F4E7FCE6032010B512480021FDF753
:10830C00A5F8114B1A68114B9A42114B0CBF012264
:10831C0000221A7001D0FFF7B1FFFCF72BFE0446C8
:10832C0001F0D0F90B4B13B12046AFF300800021C4
:10833C000848FDF75BF8BDE8104007480021FCF742
:10834C00E1BF00BF31820B0000F403201E1C279AF2
:10835C00F8E6032000000000CD820B00704710B53A
:10836C0018210446FBF793FE204610BDF0B5037DA3
:10837C00062B8DB00E4600F104074FF0000412D00E
:10838C0000F1080515F8011D0A223046FFF737FEEB
:10839C00AF42044419D0002CF4D02E213046FFF704
:1083AC0015FE0444EEE72F236A4639460A208DF861
:1083BC000040FCF76FFE684601F0C4F933680246D2
:1083CC00DB68694630469847044620460DB0F0BD40
:1083DC0010B5054B0446112240F8043B002101F076
:1083EC0069F9204610BD00BFB8A10B000346074A2F
:1083FC0010B543F8042B01F1100251F8044B43F86B
:10840C00044B9142F9D10A781A7010BDB8A10B0037
:10841C0010B59DF8084044EA032343EA024242EABD
:10842C00016104234160037510BD000007B5064BC4
:10843C000360CB7800938B784A780978FFF7E8FFD4
:10844C0003B05DF804FB00BFB8A10B00417470478A
:10845C007047704708B50021007CFCF71BFF40EA11
:10846C00E07008BD08B50121007CFCF713FF40EA61
:10847C00E07008BD08B5007CFCF704FF20EAE07052
:10848C0008BD08B5007CFCF7F5FE20EAE07008BDDD
:10849C0013B50446007C0191FCF7F4FE0028019909
:1084AC0001DC607C20B1207CFCF7FCFE20EAE07053
:1084BC0002B010BD007CFCF7FDBE10B514210446C3
:1084CC00FBF7E5FD204610BD10B54FF47A7304465A
:1084DC0008460021C4E90113044B236001232074D6
:1084EC0063741146FCF7BEFE204610BDCCA10B00F8
:1084FC0010B514220446002101F0DCF8204610BD12
:10850C0010B50F4C88B003A8FFF7F2FF2178BFF32A
:10851C005B8F11F001010FD120460191FBF7C6FDD5
:10852C00019948B103AA0748FFF7CEFF2046FBF795
:10853C00C2FD054801F080F8024808B010BD00BF2C
:10854C0000E7032004E703205D840B0070474174AF
:10855C00704708B5007CFCF7D5FD20EAE07008BD3B
:10856C0008B5007CFCF7A6FD20EAE07008BD08B554
:10857C00007CFCF7AFFD40EAE07008BD08B5007C5C
:10858C00FCF7A0FD40EAE07008BD007CFCF7AABD3A
:10859C0037B5457C04462DB1207C03B0BDE8304096
:1085AC00FCF780BD007C0191FCF7ACFD0028019923
:1085BC00F2DC284603B030BD10B514210446FBF79D
:1085CC0066FD204610BD000010B54FF47A730446CA
:1085DC00084611460022C4E90123044B2360012301
:1085EC0020746374FCF796FD204610BDFCA10B00B3
:1085FC007047F8B5064615460C468F18BC4206D097
:10860C00336814F8011B9B6830469847F6E72846F8
:10861C00F8BD007C0022FCF79DBD007C0021FCF71E
:10862C00A1BD007C0021FCF7A5BD007C0021FCF75E
:10863C00A9BD007C0021FCF7ADBD10B5142104468A
:10864C00FBF725FD204610BD38B5044615464FF402
:10865C007A730022C4E90123094B21740846236074
:10866C002946FCF7A7FDBF3008D16B69DB0705D5A0
:10867C006868FCF7CBFEE868FCF7C8FE204638BDFE
:10868C002CA20B000023007C1A461946FCF74ABDAD
:10869C00007C0022FCF74EBDC9B2FFF7F9BF007C8D
:1086AC000022FCF74FBD0121FFF7F9BF0022406803
:1086BC001146FCF753BE002240681146FCF76EBE13
:1086CC00002240681146FCF779BE40680022FCF796
:1086DC006DBE4068002281F00101FCF757BE0023FB
:1086EC0040681A461946FCF749BE002340681A46F2
:1086FC001946FCF73BBE002240681146FCF71EBE33
:10870C00406800220221FCF721BE002340681A4673
:10871C00FCF70CBE024B04225A60024A1A607047E6
:10872C0018E7032054A20B00002340681A46FCF7FC
:10873C00FDBD406800220221FCF708BE0022406803
:10874C001146FCF7FBBD002240681146FCF706BE43
:10875C00002340681A461946FCF708BE00234068FF
:10876C001A461946FCF70ABE40680021FCF72EBEDB
:10877C0040680021FCF732BE4068002281F0010104
:10878C00FCF704BE40680022FCF710BE00224068D3
:10879C001146FCF713BE002240681146FCF7FEBDE3
:1087AC002DE9F04395B014460D460746FFF710FE31
:1087BC0000211C220DA8009100F07CFF40230C939B
:1087CC0020466B460CAA0021FCF7B4FB044600289B
:1087DC004BD1024601216868FCF7C0FD022180469E
:1087EC0022466868FCF7BAFD009E81462146002EA1
:1087FC003BD0002939D17368022B03D00A2B11D03E
:10880C00F669F4E7B8F1000FFAD0716906A80431E3
:10881C0007ADFFF70BFE0FCD3C1D0FC42B6823706B
:10882C004146EDE7B9F1000FEAD07469102201A8B6
:10883C0000F040FF06238DF8143001AD04F108035D
:10884C001834186859682A4603C20833A3421546DF
:10885C00F7D101A906A807ADFFF7C8FD0FCD3C1D48
:10886C000FC42B6823704946CAE70098FCF75AFBE3
:10887C00384615B0BDE8F083024B034A1A6000225B
:10888C005A60704720E7032090A20B00232813B5F1
:10889C0002D9002002B010BDA0F10B03022B1AD894
:1088AC00174C2178BFF35B8F11F001010BD12046DF
:1088BC000191FBF7FBFB019928B11248FCF712FE62
:1088CC002046FBF7F8FB0F4B1878FCF7ABFC0028A5
:1088DC00DFD10120DEE7012809D800F0BDF8002126
:1088EC00007CFCF75FFC80F00100C0B2D2E70938D5
:1088FC000128EED800F070F8007CFCF7FBFBF2E7E7
:10890C00B0E60320B4E60320232838B504460D4610
:10891C000AD8FF2908D0FFF7B9FF28B1294620460D
:10892C00BDE83840FCF70EBB38BD38B504460D46E3
:10893C00FCF710FBFF2810D0062804D84D2323FA8F
:10894C0000F0C30709D42046FFF7A0FF28B1294641
:10895C002046BDE83840FCF705BB38BD2DE9F04199
:10896C0090461F46072406460D46C4F10701B8F190
:10897C00000F12D147FA01F101F001013046FFF767
:10898C00D4FF01212846FFF7D0FF00212846FFF72E
:10899C00CCFF013CE9D2BDE8F08147FA04F1EBE7EA
:1089AC007047000038B5044614252A46002100F013
:1089BC0081FE25804025074925812846258200F027
:1089CC006FF804496060284600F06AF8E0602046C1
:1089DC0038BD00BFC4A20B0030B50E4D2978BFF3D3
:1089EC005B8F11F0010487B011D12846FBF75EFBB9
:1089FC0068B101A8FFF7D6FF01AA21460648FFF788
:108A0C00E3FD2846FBF757FB044800F015FE02482F
:108A1C0007B030BD28E703202CE70320AD890B00FD
:108A2C007047000038B50A4B0360012304464361CC
:108A3C000849202000F034F8202560600549A56025
:108A4C00284600F02DF8C4E90305204638BD00BFC8
:108A5C0018000100C4A20B0030B50E4D2978BFF3ED
:108A6C005B8F11F0010487B011D12846FBF71EFB78
:108A7C0068B16846FFF7D6FF6A4621460648FFF7FD
:108A8C00E3FD2846FBF717FB044800F0D5FD024830
:108A9C0007B030BD44E7032048E703202D8A0B00C4
:108AAC00FBF7F3BA08B5FCF7C1FC0000014900F074
:108ABC00F9B800BFE0A20B007FB500241023CDE96C
:108ACC000234036815469E6912686B46CDE9004472
:108ADC00B0479DF8043003F00603062B03BF009B40
:108AEC002B600120204604B070BD0098904214BF4A
:108AFC00012006207047000010B5034B03600446AC
:108B0C0000F0CDF8204610BD20A30B0010B5044694
:108B1C00FFF7F2FF20460821FBF7B9FA204610BDFB
:108B2C002DE9F0411F46DDE90834DDF81880984541
:108B3C000646154607D1079900F0B4F818B16571CF
:108B4C000020BDE8F0813946304600F0ABF8002833
:108B5C00F6D00123C4F800802571A371F0E738B575
:108B6C0015461C4600F09EF820B10823E36006234E
:108B7C002560237138BD73B505460C4601921E461F
:108B8C0000F090F850B9032E08D82368019A5B695D
:108B9C002946204602B0BDE87040184702B070BDAF
:108BAC0010B5034B03600446FFF7A6FF204610BD2B
:108BBC0080A30B0010B50446FFF7F2FF20460C21F2
:108BCC00FBF765FA204610BDF7B5089F974205469E
:108BDC000E4614460AD0A86802680897156A3146F2
:108BEC002246AC4603B0BDE8F040604719460193FD
:108BFC0000F058F8019B0028EDD0062003B0F0BD22
:108C0C002DE9F14F0D461946DDE90A4BDDE90CA6BD
:108C1C0081461746984600F045F890B1002D346017
:108C2C00377109DB61198A450CBF06210121B1712D
:108C3C00002001B0BDE8F08F0235F9D10123B371EA
:108C4C00F6E7544506D15946484600F02BF808B1D2
:108C5C007771EDE7D9F808000368CDE90CA6CDE9EA
:108C6C000A4BDC693A4643462946A44601B0BDE8A6
:108C7C00F04F60472DE9F04107460C4615461E465D
:108C8C00FFF76DFF48B9B86803689F692A463346F9
:108C9C002146BC46BDE8F0416047BDE8F081704715
:108CAC0000207047814208B50ED0406803782A2B0B
:108CBC000CD049680B782A2B08BF013100F030FD2D
:108CCC00B0FA80F0400908BD0120FCE70020FAE76B
:108CDC0081F0004102E000BF83F0004330B54FEA61
:108CEC0041044FEA430594EA050F08BF90EA020FCE
:108CFC001FBF54EA000C55EA020C7FEA645C7FEA61
:108D0C00655C00F0E2804FEA5454D4EB5555B8BF83
:108D1C006D420CDD2C4480EA020281EA030382EAF4
:108D2C00000083EA010180EA020281EA0303362D86
:108D3C0088BF30BD11F0004F4FEA01314FF4801C59
:108D4C004CEA113102D0404261EB410113F0004F6B
:108D5C004FEA03334CEA133302D0524263EB430322
:108D6C0094EA050F00F0A780A4F10104D5F1200EC0
:108D7C000DDB02FA0EFC22FA05F2801841F100011B
:108D8C0003FA0EF2801843FA05F359410EE0A5F1EF
:108D9C0020050EF1200E012A03FA0EFC28BF4CF020
:108DAC00020C43FA05F3C01851EBE37101F00045D6
:108DBC0007D54FF0000EDCF1000C7EEB00006EEBE3
:108DCC000101B1F5801F1BD3B1F5001F0CD349086D
:108DDC005FEA30004FEA3C0C04F101044FEA4452C4
:108DEC0012F5800F80F09A80BCF1004F08BF5FEA4B
:108DFC00500C50F1000041EB045141EA050130BD2B
:108E0C005FEA4C0C404141EB0101013C28BFB1F53C
:108E1C00801FE9D291F0000F04BF01460020B1FA87
:108E2C0081F308BF2033A3F10B03B3F120020CDA5A
:108E3C000C3208DD02F1140CC2F10C0201FA0CF038
:108E4C0021FA02F10CE002F11402D8BFC2F1200C9D
:108E5C0001FA02F120FA0CFCDCBF41EA0C01904053
:108E6C00E41AA2BF01EB0451294330BD6FEA04049C
:108E7C001F3C1CDA0C340EDC04F11404C4F1200287
:108E8C0020FA04F001FA02F340EA030021FA04F399
:108E9C0045EA030130BDC4F10C04C4F1200220FAF0
:108EAC0002F001FA04F340EA0300294630BD21FA2E
:108EBC0004F0294630BD94F0000F83F4801306BFF4
:108ECC0081F480110134013D4EE77FEA645C18BFE8
:108EDC007FEA655C29D094EA050F08BF90EA020F7F
:108EEC0005D054EA000C04BF1946104630BD91EA77
:108EFC00030F1EBF0021002030BD5FEA545C05D17A
:108F0C004000494128BF41F0004130BD14F58004B8
:108F1C003CBF01F5801130BD01F0004545F0FE412C
:108F2C0041F470014FF0000030BD7FEA645C1ABF61
:108F3C00194610467FEA655C1CBF0B46024650EA98
:108F4C00013406BF52EA033591EA030F41F40021C4
:108F5C0030BD00BF90F0000F04BF0021704730B54A
:108F6C004FF4806404F132044FF000054FF000011F
:108F7C0050E700BF90F0000F04BF0021704730B5E0
:108F8C004FF4806404F1320410F0004548BF4042B5
:108F9C004FF000013EE700BF42004FEAE2014FEA0A
:108FAC0031014FEA02701FBF12F07F4393F07F4FE5
:108FBC0081F06051704732F07F4208BF704793F0E8
:108FCC007F4F04BF41F40021704730B54FF46074FB
:108FDC0001F0004521F000411CE700BF50EA0102FE
:108FEC0008BF704730B54FF000050AE050EA0102A7
:108FFC0008BF704730B511F0004502D5404261EB17
:10900C0041014FF4806404F132045FEA915C3FF457
:10901C00D8AE4FF003025FEADC0C18BF03325FEAF4
:10902C00DC0C18BF033202EBDC02C2F1200300FAA5
:10903C0003FC20FA02F001FA03FE40EA0E0021FACA
:10904C0002F11444BDE600BF70B54FF0FF0C4CF4B8
:10905C00E06C1CEA11541DBF1CEA135594EA0C0F6A
:10906C0095EA0C0F00F0DEF82C4481EA030621EAA5
:10907C004C5123EA4C5350EA013518BF52EA0335E0
:10908C0041F4801143F4801338D0A0FB02CE4FF092
:10909C000005E1FB02E506F00042E0FB03E54FF0C2
:1090AC000006E1FB03569CF0000F18BF4EF0010EBA
:1090BC00A4F1FF04B6F5007F64F5407404D25FEAB6
:1090CC004E0E6D4146EB060642EAC62141EA555169
:1090DC004FEAC52040EA5E504FEACE2EB4F1FD0CAB
:1090EC0088BFBCF5E06F1ED8BEF1004F08BF5FEA29
:1090FC00500E50F1000041EB045170BD06F00046DB
:10910C0046EA010140EA020081EA0301B4EB5C0487
:10911C00C2BFD4EB0C0541EA045170BD41F480117F
:10912C004FF0000E013C00F3AB8014F1360FDEBFA4
:10913C00002001F0004170BDC4F10004203C35DA80
:10914C000C341BDC04F11404C4F1200500FA05F303
:10915C0020FA04F001FA05F240EA020001F00042A4
:10916C0021F0004110EBD37021FA04F642EB06011A
:10917C005EEA430E08BF20EAD37070BDC4F10C0444
:10918C00C4F1200500FA04F320FA05F001FA04F208
:10919C0040EA020001F0004110EBD37041F10001F4
:1091AC005EEA430E08BF20EAD37070BDC4F12005FF
:1091BC0000FA05F24EEA020E20FA04F301FA05F267
:1091CC0043EA020321FA04F001F0004121FA04F20F
:1091DC0020EA020000EBD3705EEA430E08BF20EADF
:1091EC00D37070BD94F0000F0FD101F00046400019
:1091FC0041EB010111F4801F08BF013CF7D041EA9B
:10920C00060195F0000F18BF704703F0004652009E
:10921C0043EB030313F4801F08BF013DF7D043EA6F
:10922C000603704794EA0C0F0CEA135518BF95EA25
:10923C000C0F0CD050EA410618BF52EA4306D1D1AC
:10924C0081EA030101F000414FF0000070BD50EACB
:10925C00410606BF1046194652EA430619D094EA55
:10926C000C0F02D150EA013613D195EA0C0F05D13F
:10927C0052EA03361CBF104619460AD181EA030193
:10928C0001F0004141F0FE4141F470014FF000004B
:10929C0070BD41F0FE4141F4780170BD70B54FF0E6
:1092AC00FF0C4CF4E06C1CEA11541DBF1CEA135566
:1092BC0094EA0C0F95EA0C0F00F0A7F8A4EB050448
:1092CC0081EA030E52EA03354FEA013100F088803F
:1092DC004FEA03334FF0805545EA131343EA126308
:1092EC004FEA022245EA111545EA10654FEA0026BD
:1092FC000EF000419D4208BF964244F1FD0404F576
:10930C00407402D25B084FEA3202B61A65EB0305D1
:10931C005B084FEA32024FF480104FF4002CB6EB8E
:10932C00020E75EB030E22BFB61A754640EA0C000E
:10933C005B084FEA3202B6EB020E75EB030E22BF4E
:10934C00B61A754640EA5C005B084FEA3202B6EB8F
:10935C00020E75EB030E22BFB61A754640EA9C004E
:10936C005B084FEA3202B6EB020E75EB030E22BF1E
:10937C00B61A754640EADC0055EA060E18D04FEADC
:10938C00051545EA16754FEA06164FEAC30343EA7C
:10939C0052734FEAC2025FEA1C1CC0D111F4801F49
:1093AC000BD141EA00014FF000004FF0004CB6E742
:1093BC0011F4801F04BF01430020B4F1FD0C88BFE1
:1093CC00BCF5E06F3FF6AFAEB5EB030C04BFB6EBEC
:1093DC00020C5FEA500C50F1000041EB045170BDDF
:1093EC000EF0004E4EEA113114EB5C04C2BFD4EB0C
:1093FC000C0541EA045170BD41F480114FF0000E90
:10940C00013C90E645EA060E8DE60CEA135594EA0B
:10941C000C0F08BF95EA0C0F3FF43BAF94EA0C0F0E
:10942C000AD150EA01347FF434AF95EA0C0F7FF483
:10943C0025AF104619462CE795EA0C0F06D152EAD7
:10944C0003353FF4FDAE1046194622E750EA4106BB
:10945C0018BF52EA43067FF4C5AE50EA41047FF4CC
:10946C000DAF52EA43057FF4EBAE12E74FF0FF3C31
:10947C0006E000BF4FF0010C02E000BF4FF0010C02
:10948C004DF804CD4FEA410C7FEA6C5C4FEA430C7B
:10949C0018BF7FEA6C5C1BD001B050EA410C0CBFCA
:1094AC0052EA430C91EA030F02BF90EA020F00202C
:1094BC00704710F1000F91EA030F58BF994208BF93
:1094CC0090422CBFD8176FEAE37040F00100704750
:1094DC004FEA410C7FEA6C5C02D150EA013C07D1A7
:1094EC004FEA430C7FEA6C5CD6D152EA033CD3D0F2
:1094FC005DF8040B704700BF8446104662468C46EC
:10950C001946634600E000BF01B5FFF7B7FF00281E
:10951C0048BF10F1000F01BD4DF808EDFFF7F4FF47
:10952C000CBF012000205DF808FB00BF4DF808EDD2
:10953C00FFF7EAFF34BF012000205DF808FB00BFF5
:10954C004DF808EDFFF7E0FF94BF012000205DF817
:10955C0008FB00BF4DF808EDFFF7CEFF94BF0120CC
:10956C0000205DF808FB00BF4DF808EDFFF7C4FFC5
:10957C0034BF012000205DF808FB00BF4FEA410C0E
:10958C007FEA6C5C02D150EA013C0AD14FEA430CF1
:10959C007FEA6C5C02D152EA033C02D14FF000002E
:1095AC0070474FF0010070474FEA410212F500126C
:1095BC0015D211D56FF47873B3EB625212D94FEA0E
:1095CC00C12343F0004343EA505311F0004F23FAF8
:1095DC0002F018BF404270474FF00000704750EA4D
:1095EC00013005D111F0004008BF6FF0004070470A
:1095FC004FF00000704700BF4A0011D212F5001264
:10960C0011D20DD56FF47873B3EB62520ED44FEACE
:10961C00C12343F0004343EA505323FA02F070474E
:10962C004FF00000704750EA013002D14FF0FF308C
:10963C0070474FF000007047002301461A46184649
:10964C0000F094B810B501390244904201D10020C9
:10965C0005E0037811F8014FA34201D0181B10BD8F
:10966C000130F2E70A44914200F1FF3300D1704718
:10967C0010B511F8014B03F8014F9142F9D110BD0F
:10968C00884210B501EB020402D98442234607D864
:10969C00431EA14208D011F8012B03F8012FF8E763
:1096AC00024401468A4200D110BD13F8014D02F864
:1096BC00014DF7E702440346934200D1704703F88B
:1096CC00011BF9E738B5104B1D68AB6B0446B3B9F9
:1096DC001820FBF793FE0246A86320B90B4B0C48ED
:1096EC004221FBF7ABFE0B490B4BC0E900130B4BB4
:1096FC0083600B23838100210120C2E90401AB6B41
:10970C0000221C615A6138BD64E10320B9A30B002F
:10971C00D0A30B000E33CDAB34126DE6ECDE05009E
:10972C0010F8012B11F8013B012A28BF9A42F7D0FF
:10973C00D01A7047034611F8012B03F8012B002AAD
:10974C00F9D17047034613F8012B002AFBD1181AE4
:10975C000138704710B5024601448A42134603D0C3
:10976C001C780132002CF8D1181A10BD2DE9F843E1
:10977C00DFF8B8800646D8F800001F460D46914623
:10978C0000F056F8254B1C6834B9254C1C60254B51
:10979C0013B11B68C4F8883063681F2B07DDD8F839
:1097AC00000000F047F84FF0FF30BDE8F8834EB3EF
:1097BC00D4F8880088B91C4B23B9D8F8000000F005
:1097CC0038F8F0E74FF48470FBF718FE0028F4D05B
:1097DC000023C0E94033C4F88800636840F8239044
:1097EC0001229A4000EB8301D0F800311343C0F8FA
:1097FC000031022EC1F8807002BFD0F8043113433F
:10980C00C0F804316368D8F800005A1C0233626057
:10981C0044F8235000F00EF80020C6E7E8E70320D8
:10982C005CE703200000000009540B00C8E1032092
:10983C0070477047704700001D400B0059400B00EB
:10984C0081400B0085400B000000000043616C6CF4
:10985C00206F6E2070757265207669727475616CFC
:10986C00005261772054656D703A200048656C6C2D
:10987C006F20576F726C6400466F756E64206120A8
:10988C0044657669636500416464726573733A205C
:10989C00004E6F6465203A29004E6F6465203A28AB
:1098AC000065323633616239302D323661632D34C6
:1098BC003765312D626332332D33643462636563F3
:1098CC0037326435650037323231396331332D30FC
:1098DC003737642D346633342D383937382D6339A6
:1098EC00666130333731366332630037383434379E
:1098FC003461622D363561392D343265632D396111
:10990C0037392D31316532373961323437633300B1
:10991C0036616238306564352D636136322D3433EF
:10992C0066632D623933372D3463363830376661D0
:10993C006336383600000000000000000000000014
:10994C0071470B0001480B00A54E0B00817F0B00EB
:10995C0075470B00BD4B0B00FD450B008D440B00F8
:10996C007B4C0B00194D0B004F4D0B006B4D0B003E
:10997C0000000000003E5B4F5B3E3E6B4F6B3E1C9D
:10998C003E7C3E1C183C7E3C181C577D571C1C5EB4
:10999C007F5E1C00183C1800FFE7C3E7FF0018248B
:1099AC001800FFE7DBE7FF30483A060E2629792935
:1099BC0026407F050507407F05253F5A3CE73C5A6A
:1099CC007F3E1C1C08081C1C3E7F14227F22145F47
:1099DC005F005F5F06097F017F006689956A6060A2
:1099EC0060606094A2FFA29408047E040810207E9C
:1099FC00201008082A1C08081C2A08081E10101021
:109A0C00100C1E0C1E0C30383E3830060E3E0E0666
:109A1C00000000000000005F0000000700070014B9
:109A2C007F147F14242A7F2A122313086462364978
:109A3C005620500008070300001C22410000412260
:109A4C001C002A1C7F1C2A08083E08080080703065
:109A5C0000080808080800006060002010080402D4
:109A6C003E5149453E00427F4000724949494621DA
:109A7C0041494D331814127F1027454545393C4A4E
:109A8C004949314121110907364949493646494965
:109A9C00291E0000140000004034000000081422AD
:109AAC00411414141414004122140802015909061B
:109ABC003E415D594E7C1211127C7F494949363E1C
:109ACC00414141227F4141413E7F494949417F0902
