:02000002B0004C
:1040000000400B0004B20B00000006000C0005028B
:084010000401A60F00000000EE
:0440180020A00B00D9
:10401C0009480A49884208B505D0094A824202D0AB
:10402C00121A05F00DFF0748074A0021121A05F075
:10403C002FFF014808BD00BF24DD032048AD0B0055
:10404C00B8E10320B8E10320EDE7032070B5074E7B
:10405C00074C04F03FFDA41BA4080025AC4200D182
:10406C0070BD56F8043B98470135F7E7F8AC0B00E8
:10407C0020AD0B0000F034B808B500F00DF9BDE828
:10408C00084004F0DFBC01F0FBBA01F0F9BA01F012
:10409C00FFBA000008B5034A03490C2001F054FA9A
:1040AC00FEE700BF59510B0034A00B000078B0FAAA
:1040BC0080F040097047012303707047014B026880
:1040CC001A60704750E20320014B02681A60704777
:1040DC004CE20320014B02781A707047A5E60320CE
:1040EC005C4A5D4BF0B513605C4A13605C4A13602C
:1040FC005C4B93B000241C7005F09CF804F0B0FEEF
:10410C003C220221584800F04FFD574800F0DCFCDF
:10411C00554800F061FC5448012100F0C6FF52489C
:10412C00012100F0C7FF22464F48214600F0BAFF9C
:10413C004E494D4804F03DFB4B4800F0C5FC4A4845
:10414C0000F04AFC02F0B6FA02F0FEFA484B03A863
:10415C00196803AE01F0CEFF0FCE08AD0FC5D6F82F
:10416C0000E0C5F800E00DF1200CBCE80F000DAE2E
:10417C000FC6404DC6F800E02F696B699F424CDBBF
:10418C007E1CA642E86843DD1421714301F088FAD5
:10419C00002840D102F08EFA374A01460DA804F0EF
:1041AC0007F80DA802F0E7FB08A802F018FF334B44
:1041BC000DA8196801F09EFF0DA801F0FDFE044644
:1041CC000DA8002C3DD101F013FF0094ADF80C00AC
:1041DC00022303AA032108A802F0F6FE02F06AFAF1
:1041EC0008A9002202F06AFB25492648002203F0A8
:1041FC0037FB25492548002203F032FB244925488A
:10420C00002203F02DFB089801F042FA13B0F0BD28
:10421C0001F03EFA2046E8606E611423EC682A69CE
:10422C005F433C445A432146E018D21B0DAE05F0C7
:10423C0015FE0FCE0FC4336823602B6901332B613D
:10424C00A8E701F0D7FE00230093024610230721B4
:10425C00C1E700BF50E20320000080BF4CE2032006
:10426C0048E20320A4E603201CE2032049A00B0033
:10427C0030DD0320C0E1032040E2032024DD0320D5
:10428C00C9400B009CE60320D5400B0094E60320AC
:10429C00E1400B0054E203202DE9F0478EB002F010
:1042AC0009FA02F087FA28B18849894800230122CB
:1042BC0002F076F88748874F02F06EF90546002821
:1042CC0040F0AC8002F0F6F9834ADFF85082834C60
:1042DC00DFF84C92014601A804F006F9029B9D42BE
:1042EC004FF024067ADA04A801F0F2FD01986E432F
:1042FC003044012204A9083003F0BCF9002869D02D
:10430C00D8F8001009A801F0F5FE09A904A801F0DD
:10431C0072FE00285ED0204600F05EFB00221146A3
:10432C00204600F0BFFE4946204604F042FA6C4994
:10433C00204604F02BFA01990022314409A801F01F
:10434C00B7FD0999204604F021FA09A801F0D8FA22
:10435C00204600F0B9FB02F0ADF9019A01460123A9
:10436C00324409A803F038FE099BDDF828A03B6015
:10437C007B689A451BD0BAF1000F04D0DAF80430F0
:10438C000133CAF804307E687EB17368013B7360F8
:10439C005BB9336830469B689847B368013BB360A0
:1043AC001BB933683046DB689847C7F804A009A8E6
:1043BC0002F0E8FA20461E22002100F073FE454868
:1043CC0002F0EAF840B14749204604F0DFF92046F4
:1043DC0000F07AFB013581E74349F5E7019C06FBC8
:1043EC000346A64207D0606901F052F9A06801F0BB
:1043FC004FF92434F5E7019801F04AF93B4BD3ED22
:10440C00007A324BB3EE087AF4EEC77AF1EE10FA7A
:10441C0051DD02221A700EB0BDE8F087344B09A8AA
:10442C00196801F067FE09AA3249384603F0EEF923
:10443C00314B09A8196801F05DFE09AA2F493846CD
:10444C0003F0E4F92E4B09A8196801F053FE09AAF0
:10445C002C49384603F0DAF9204800F0BDFA002266
:10446C0011461E4800F01EFE27491C4804F08EF928
:10447C001E4B1A4893ED000A022104F096FA2349C8
:10448C00164804F083F9224B144893ED000A0221DC
:10449C0004F08BFA1F49114804F078F91E4B0F48B1
:1044AC0019780A2204F08FF90C4804F076F90B48BD
:1044BC0000F00AFBA2E7B3EE047AF4EEC77AF1EE51
:1044CC0010FA4CBF00220122A4E700BFA4E603208F
:1044DC0040E20320B8E10320C0E103201CE20320EA
:1044EC0064A00B006EA00B0076A00B0050E2032022
:1044FC0038DD03209CE6032034DD032094E6032002
:10450C002CDD032054E203207EA00B0085A00B00C1
:10451C004CE203208DA00B00A5E6032030DD032028
:10452C0055A00B00F0B5314B314A9A6000248FB086
:10453C00C3E90044032001F017F82E482E4D02F079
:10454C0009F82E4B2E48196801F0D4FD2D4801F0C6
:10455C0001FF2D4801F0FEFE2C4801F0FBFE2C4B18
:10456C0047F67F72C3E90044C3E90C24C3E9024453
:10457C00C3E90444C3E90644C3E90844C3E90A4453
:10458C009C63244B1F68244BC5E90044196809AE91
:10459C0004A801F0AFFD3946304601F0ABFDCDE982
:1045AC000144009628461D491D4C04AB4FF01002E7
:1045BC0003F0A2F91E257F26204601F012FC04F11F
:1045CC00080002F00CFD04F1140002F008FD013D9E
:1045DC0084F8206004F12404EED112484FF0FF312E
:1045EC000FB0BDE8F04000F0E1B900BF10E20320CD
:1045FC000000FFFFB8E1032040E2032030DD032080
:10460C00FCE103209CE6032094E6032054E2032003
:10461C00C0E1032024DD032028DD032096A00B003D
:10462C005CE203201CE20320F0B5457EBDF814408B
:10463C00022D69D0032D00F09980012D6CD10589D4
:10464C00D2432A4412B2002A5DDBB0F908509542DD
:10465C0059DD0029BEBF5B181BB20021B0F90A005E
:10466C00CD188542C4BF431A1BB2002B4BDDC1F3DE
:10467C00C400DFF820C102EBC01211F00701DBB25D
:10468C000CEB02001AD0C1F10805404EEDB2AB4262
:10469C00775D3FBFA5EB030EFF2646FA0EF63740BB
:1046AC001CF80260012C0CBF3E43BE43AB420CF81D
:1046BC00026028D308390B44DBB28030072B19D9A0
:1046CC00012C4FF0FF3518BF0025EDB200F1800131
:1046DC001A46083AD2B2072A01F8805C01F180012F
:1046EC00F7D8A3F10802C2F3C402013200EBC210E6
:1046FC0003F007033BB1264AD25C0378012C0CBFB4
:10470C00134393430370F0BD4589D2432A44CD181B
:10471C000189491B12B209B2002AF4DBB0F90A5024
:10472C009542F0DD0029BEBF5B181BB20021B0F929
:10473C000870CE18BE42C4BF6B1A1BB2002BE2DD50
:10474C00D010802510FB05111248014402F007001F
:10475C0001228240012CD2B20B440CD18B42D2D01C
:10476C0011F8010B104301F8010CF7E7CD18418942
:10477C00491B09B267E7D243D2B28B42C3D011F8BE
:10478C00010B104001F8010CF7E700BF44DD0320DA
:10479C003CDD03204CDD0320F0B5457EBDF8144014
:1047AC00022D34D0032D00F09B80012D37D1D5186C
:1047BC000289521B12B20029C0F29180B0F90A5042
:1047CC008D4240F38C80002ABEBF9B181BB2002286
:1047DC00B0F90870D618BE42C4BFAB1A1BB2002B7E
:1047EC007DDDC810802510FB05224548024401F0F0
:1047FC00070001218140012CC9B2134475D19A42A2
:10480C006DD012F8010B084302F8010CF7E705898B
:10481C00C9432944D5184289521B09B212B2002946
:10482C005DDBB0F908508D4259DD002ABEBF9B18E4
:10483C001BB20022B0F90A00D5188542C4BF831AF6
:10484C001BB2002B4BDDC2F3C400DFF8B4C001EB8C
:10485C00C01112F00702DBB20CEB01001AD0C2F14E
:10486C000805284EEDB2AB42775D3FBFA5EB030EBA
:10487C00FF2646FA0EF637401CF80160012C0CBFDF
:10488C003E43BE43AB420CF8016028D3083A1344B4
:10489C00DBB28030072B19D9012C4FF0FF3518BF34
:1048AC000025EDB200F180011A46083AD2B2072A6F
:1048BC0001F8805C01F18001F7D8A3F10802C2F382
:1048CC00C402013200EBC21003F007033BB10E4AE5
:1048DC00D25C0378012C0CBF134393430370F0BDDF
:1048EC004589C943294409B265E7C943C9B29A420B
:1048FC00F5D012F8010B084002F8010CF7E700BFE5
:10490C004CDD032044DD03203CDD03207047000018
:10491C00F8B50D1E064614461F462DDB00F0CFFBE6
:10492C00A84229DD002C27DB304600F0CBFBA0424F
:10493C0022DD304600F0C1FB02281ED0032825D012
:10494C00012804D13389E2431A442C4615B2002CB9
:10495C002246B8BFE21DD210802112FB01550E4930
:10496C00012204F007044B5702FA04F464B2974294
:10497C000CBF2343A3434B55F8BD318972890139D0
:10498C00E4434D1B14442DB224B2E0E77389013B80
:10499C005B1B25461CB2DAE74CDD032010B5242145
:1049AC000446FFF774FB204610BD000038B54022CA
:1049BC0004460D46802100F0A7FA064B2360FF2326
:1049CC0084F8213063774FF6FF73E38384F820502B
:1049DC00204638BD80A10B0002484FF480620021B4
:1049EC0005F056BA4CDD032013B50B4C2178BFF300
:1049FC005B8F11F001010BD120460191FFF756FBA3
:104A0C00019928B1054800F0AFFE2046FFF753FB93
:104A1C00024802B010BD00BFA8E60320ACE603209C
:104A2C0007B590F8223043B10191FFF7DDFF0199F2
:104A3C0003B05DF804EB00F04BBF0B46817F407F69
:104A4C00012203B05DF804EB04F076BB38B590F9A5
:104A5C001D30013304460D461DD090F92100012173
:104A6C0080B204F050FB94F91F00002180B204F0D6
:104A7C004AFB94F92100002180B204F044FB294642
:104A8C002046FFF7CDFF94F921000121BDE8384005
:104A9C0080B204F038BB04F0CDFB94F91B1004F089
:104AAC00E9F904F0C7FB036800219B68984704F000
:104ABC00C1FB036829469B68984704F0BBFBBDE823
:104ACC00384004F0DEB90000F8B521210446FFF7A8
:104ADC00BDFF00212046FFF7B9FF7F212046FFF7DD
:104AEC00B5FF22212046FFF7B1FF00212046FFF73A
:104AFC00ADFF07212046FFF7A9FF94F91D30294F80
:104B0C0001332AD094F92100012180B204F0FBFA80
:104B1C0094F91F00012180B204F0F5FA94F92100F8
:104B2C00002180B204F0EFFA012000F00FFB4FF4EB
:104B3C008065013D17F8011B2046ADB2FFF770FFF1
:104B4C00002DF6D1012000F001FB94F92100012188
:104B5C00BDE8F84080B204F0D6BA002504F06AFB38
:104B6C0094F91B1004F086F904F064FB03684021EF
:104B7C009B68984705F11006B6B204F05BFB03681E
:104B8C00795D9B6898476B1C9DB2AE42F5D104F0E1
:104B9C0051FB04F076F9B6F5806F00D1F8BD3546BF
:104BAC00DCE700BF4CDD032038B590F91D300177F0
:104BBC00013304460D46C27600F0C98090F91F00FF
:104BCC00012180B204F08EFA94F92100012180B207
:104BDC0004F088FA94F82230002B00F0A68094F9A7
:104BEC002100012180B204F08EFAFFF7FDFE0121B5
:104BFC0000F0D8FDFFF7F8FE102100F043FEFFF7A0
:104C0C00F3FE002100F0E2FDFFF7EEFE00F0B6FD32
:104C1C0094F92000012180B204F064FA94F9200088
:104C2C00012180B204F06FFA012003F0DFFE94F949
:104C3C002000002180B204F066FA0A2003F0D6FEB0
:104C4C0094F92000012180B204F05DFA2046AE21D7
:104C5C00FFF7FCFE2046D521FFF7F8FE2046802109
:104C6C00FFF7F4FE2046A821FFF7F0FE20463F2177
:104C7C00FFF7ECFE2046D321FFF7E8FE204600218B
:104C8C00FFF7E4FE20464021FFF7E0FE8D21204691
:104C9C00FFF7DCFE012D0CBF102114212046FFF77D
:104CAC00D5FE20462021FFF7D1FE20460021FFF73C
:104CBC00CDFE2046A121FFF7C9FE2046C821FFF7F3
:104CCC00C5FE2046DA21FFF7C1FE20461221FFF770
:104CDC00BDFE81212046FFF7B9FE012D0CBF9F219F
:104CEC00CF212046FFF7B2FED9212046FFF7AEFEBA
:104CFC00012D0CBF2221F1212046FFF7A7FE2046F3
:104D0C00DB21FFF7A3FE20464021FFF79FFE204644
:104D1C00A421FFF79BFE2046A621FFF797FE204615
:104D2C00AF21BDE83840FFF791BE94F91D00012179
:104D3C0080B204F0D7F994F91E00012180B204F07E
:104D4C00D1F994F82230002B3FF462AF47E704F01E
:104D5C0071FA04F085F85BE72DE9F04F85B01F463A
:104D6C00BDF93880BDF83C30A8EB0209A7EB010A6D
:104D7C00B9F1000FB8BFC9F10009BAF1000FB8BF03
:104D8C00CAF1000AD14583460C46154604DD3A4665
:104D9C002C4647460D469046BC4205DD2A46454604
:104DAC00904622463C4617463E1BB2B20092A8EBF8
:104DBC00050282EAE271A1EBE271C6F3C03202FA9B
:104DCC0086F64545B4BF01224FF0FF3201917610B3
:104DDC000292BC421CDCDBF800200393D145D2F8D4
:104DEC001080C7BF294622462A4621465846C0474E
:104DFC00019A039BB61AB1B236B2002E05DA029AAA
:104E0C001544009A56182DB236B2013424B2E0E79C
:104E1C0005B0BDE8F08F2DE9F347BDF82C8007688D
:104E2C00BDF92890CDF800800446FF6916468A46E5
:104E3C001D46B8472368CDF8008009F1FF32324493
:104E4C00DF6951462B46204612B2B8472368CDF88D
:104E5C0000809F6932464B4651462046B8476B1E30
:104E6C0003EB0A012368CDF828809D6932464B4636
:104E7C0009B22046AC4602B0BDE8F047604737B5F2
:104E8C00013B13440468BDF8185001951BB2009304
:104E9C0064690B46A04703B030BD37B5BDF8185058
:104EAC000468CDE90025013B0B4464691BB2A047A3
:104EBC0003B030BD2DE9F347BDF92890BDF82C8027
:104ECC00054692460C46CE18B4420BDA2B68CDF848
:104EDC0000809F6921464B46524628460134B8470C
:104EEC0024B2F1E702B0BDE8F08713B50268019176
:104EFC00B0F90E100091546AB0F90C300022114632
:104F0C00A04702B010BD704730B54281C2814FF04E
:104F1C00FF320024054D426101224460056001818D
:104F2C00818104610283827630BD00BFB4A60B0080
:104F3C002DE9F04F2DED028B8DB007460491BDF895
:104F4C0060100591BDF864100691B0F90C1004982E
:104F5C009DF86850814252DDB7F90E1091424EDD3A
:104F6C00062111FB0504002C49DD02EBC504002CC5
:104F7C0045DD03EB83030B9393B2079308339BB28A
:104F8C00089100240993052C1CBF2C4B0B9A079EEF
:104F9C0016BF1B1900239B5C0393049AABB20A93B4
:104FAC0004FB05F313FA82F31BB204EB020A08EEBE
:104FBC00103AB0460FFA85F90FFA8AFA039BDB0711
:104FCC002FD5012D3B681FD1D3F810B0059B32B201
:104FDC0051463846D847039B5B0803930A9B01361E
:104FEC009844099BB6B2B3421FFA88F8E6D1089BE5
:104FFC00013B013413F0FF0364B20893C3D10DB02D
:10500C00BDEC028BBDE8F08F059ACDE9009218EE4D
:10501C00101AD3F824B00FFA88F24B463846D8470A
:10502C00D9E7DDE905239342D5D0012D3B6803D1A7
:10503C00D3F810B0069BCAE7069AE6E7B0A10B00BE
:10504C0030B50A2985B0044607D1027E638A03EB8A
:10505C00C20363820023238221E00D291FD0037E2B
:10506C000293C38A0193838A0093B0F912200B46F2
:10507C00B0F91010FFF75CFF207E238A00EB400193
:10508C0003EB4103A17E1BB20246238239B1B4F972
:10509C000C106FF0050505FB00118B42D6DC0120CE
:1050AC0005B030BD018242827047012938BF012111
:1050BC0001767047C18281827047407E7047B0F99B
:1050CC000C007047B0F90E007047000008B500F0F6
:1050DC0015F8014B186008BDB4E6032008B5024B67
:1050EC001B689B68019308BD6802030008B5024B5E
:1050FC001B68DB68019308BD6802030008B5024B0E
:10510C001B681B68019308BD2C02030008B5024BF9
:10511C001B689B68019308BD2C02030008B5024B69
:10512C001B68DB68019308BD2C02030008B5024B19
:10513C001B681B69019308BD2C02030008B5024BC8
:10514C001B685B68019308BD1802030008B5024B8D
:10515C001B68DB68019308BD1802030008B5024BFD
:10516C001B685B69019308BD1802030008B5024B6C
:10517C001B689B68019308BD7802030008B5024BBD
:10518C001B681B6D019308BD7802030008B5024B28
:10519C001B689B6D019308BD7802030008B5024B98
:1051AC001B681B6E019308BD7802030008B5024B07
:1051BC001B68DB6F019308BD7802030008B5034B35
:1051CC001B68D3F88430019308BD000078020300FB
:1051DC0008B5034B1B68D3F89830019308BD000049
:1051EC007802030008B5034B1B68D3F8A830019371
:1051FC0008BD00007802030008B5034B1B68D3F808
:10520C00B430019308BD00007802030008B5034BCD
:10521C001B68D3F8BC30019308BD00007802030072
:10522C0008B5034B1B68D3F8C430019308BD0000CC
:10523C007802030008B5034B1B68D3F8D8300193F0
:10524C0008BD00007802030008B5034B1B68D3F8B7
:10525C00DC30019308BD00007802030008B5034B55
:10526C001B68D3F8E030019308BD000078020300FE
:10527C0008B5034B1B68D3F8E430019308BD00005C
:10528C007802030008B5034B1B68D3F8EC3001938C
:10529C0008BD00007802030008B5034B1B68D3F867
:1052AC00F030019308BD00007802030008B5034BF1
:1052BC001B68D3F8F430019308BD0000780203009A
:1052CC0008B5034B1B68D3F80031019308BD0000EF
:1052DC007802030008B5034B1B68D3F80431019323
:1052EC0008BD00007802030008B5024B1B685B6C1C
:1052FC00019308BD4802030008B5024B1B68DB6C28
:10530C00019308BD4802030008B5024B1B685B6D96
:10531C00019308BD4802030008B5024B1B685B698A
:10532C00019308BD6402030008B5024B1B68DB68DF
:10533C00019308BD3C02030008B5024B1B681B69B6
:10534C00019308BD3C02030008B5024B1B685B6966
:10535C00019308BD3C02030008B5024B1B689B6916
:10536C00019308BD3C02030008B5024B1B68DB69C6
:10537C00019308BD3C02030008B5024B1B681B6A75
:10538C00019308BD3C02030008B5024B1B689B6AE5
:10539C00019308BD3C02030008B5024B1B681B6C53
:1053AC00019308BD3C02030008B5024B1B68DB6887
:1053BC00019308BD2802030008B5024B1B689B69CA
:1053CC00019308BD2802030008B5024B1B68DB697A
:1053DC00019308BD2802030008B5024B1B681B6A29
:1053EC00019308BD2802030008B5024B1B685B6AD9
:1053FC00019308BD2802030008B5024B1B689B6A89
:10540C00019308BD2802030008B5024B1B68DB6A38
:10541C00019308BD2802030008B5024B1B681B6BE7
:10542C00019308BD2802030008B5024B1B685B6B97
:10543C00019308BD2802030008B5024B1B681B6CC6
:10544C00019308BD2802030008B5024B1B681B68BA
:10545C00019308BD3002030008B5024B1B689B6822
:10546C00019308BD3002030008B5024B1B68DB68D2
:10547C00019308BD3002030008B5024B1B681B6981
:10548C00019308BD3002030008B5024B1B685B6931
:10549C00019308BD3002030008B5024B1B68DB69A1
:1054AC00019308BD3002030008B5024B1B681B6A50
:1054BC00019308BD3002030008B5024B1B685B6A00
:1054CC00019308BD3002030008B5024B1B681B6C2E
:1054DC00019308BD3002030008B5024B1B685B6CDE
:1054EC00019308BD3002030008B5024B1B681B6812
:1054FC00019308BD4C02030008B5024B1B681B69E5
:10550C00019308BD4C02030008B5024B1B685B6994
:10551C00019308BD4C02030008B5024B1B689B6944
:10552C00019308BD4C02030008B5024B1B68DB69F4
:10553C00019308BD4C02030008B5024B1B681B6AA3
:10554C00019308BD4C02030008B5024B1B685B6B52
:10555C00019308BD6002030008B5024B1B681B6D6C
:10556C00019308BD6002030008B5024B1B685B6821
:10557C00019308BD2002030008B5024B1B685B6950
:10558C00019308BD2002030008B5034B1B68D3F838
:10559C008830019308BD00002002030008B5034BBE
:1055AC001B68D3F89430019308BD0000200203005F
:1055BC0008B5024B1B685B68019308BD40020300F1
:1055CC0008B5024B1B689B68019308BD40020300A1
:1055DC0008B5024B1B68DB68019308BD4002030051
:1055EC0008B5024B1B681B69019308BD4002030000
:1055FC0008B5024B1B685B69019308BD40020300B0
:10560C0008B5024B1B689B69019308BD400203005F
:10561C0008B5024B1B68DB69019308BD400203000F
:10562C0008B5024B1B681B6A019308BD40020300BE
:10563C0008B5024B1B681B6B019308BD40020300AD
:10564C0008B5024B1B685B6B019308BD400203005D
:10565C0008B5024B1B681B6C019308BD400203008C
:10566C0008B5024B1B685B6C019308BD400203003C
:10567C0008B5024B1B68DB6B019308BD44020300A9
:10568C0008B5024B1B681B68019308BD1C02030084
:10569C0008B5024B1B685B68019308BD1C02030034
:1056AC0008B5024B1B689B68019308BD1C020300E4
:1056BC0008B5024B1B68DB6A019308BD1C02030092
:1056CC0008B5024B1B681B6C019308BD1C02030040
:1056DC0008B5024B1B685B6C019308BD1C020300F0
:1056EC00002240681146FFF79BBF0022406811461C
:1056FC00FFF7A6BF40680022FFF79ABF4068002260
:10570C0081F00101FFF784BF002340681A46194657
:10571C00FFF776BF002340681A461946FFF768BFAB
:10572C00002240681146FFF75BBF0022406811461B
:10573C00FFF746BF406800220221FFF749BF002354
:10574C0040681A46FFF734BF024B03225A60024AE4
:10575C001A607047B8E60320ECA60B000021FFF797
:10576C00BBBE0021FFF7B0BE10B504460846217041
:10577C00FFF792FE00236360204610BD13B504466C
:10578C000078FFF7EEFF58B9207801904FF6FF71C3
:10579C00FFF75AFE019802B0BDE81040FFF7DEBFDC
:1057AC0002B010BD13B5044600780191FFF7D9FF84
:1057BC00019948B920780190FFF74EFE019802B08C
:1057CC00BDE81040FFF7CABF02B010BD13B50446C8
:1057DC0000780191FFF7C5FF019948B92078019035
:1057EC00FFF742FE019802B0BDE81040FFF7B6BFCC
:1057FC0002B010BD400830B518600024186888420B
:10580C00E5B206D90134082C02D040081860F5E73F
:10581C000725024B5B5D137030BD00BF20A70B004A
:10582C002DE9F04188B000230446007802930E461F
:10583C001746FFF796FF054600BB94F8008001461B
:10584C00142203A804F024FB0B232A4603A9404688
:10585C00ADF80C30FFF730FE04988DF8075002AB12
:10586C000DF1070207FB06F1FFF7C4FF20789DF846
:10587C000710FFF701FE2078FFF770FF029808B0C1
:10588C00BDE8F08138B5044600780D46FFF769FF96
:10589C000346D0B9616899B10C4A12F8010B8542E4
:1058AC0002D00133082BF8D10133DBB20122D940ED
:1058BC002046FFF7B5FF2078BDE83840FFF74EBF14
:1058CC0020782946FFF7D8FDF5E738BD20A70B0057
:1058DC0008B50078FFF7D8FDC0B208BD054B022211
:1058EC001A60054B054A9A600020C3E90000FFF7D7
:1058FC003BBE00BFCCE60320C0E603200000FFFF48
:10590C0010B504460068FFF7C3FE204610BD10B565
:10591C000446006808B1FFF7BBFE0023C4E901335D
:10592C00236010BD38B504460D4600680131FFF701
:10593C00B7FE10B1C4E90005012038BD10B50368ED
:10594C00044623B143688B4201D3012010BD20468D
:10595C00FFF7E8FF0028F9D0A368002BF5D12268E7
:10596C001370F2E737B50D46114601920446FFF766
:10597C00E5FF019A28B92046FFF7C9FF204603B07E
:10598C0030BDA2602946206804F05AFA2268A36848
:10599C000021D154F2E7002313B5C0E900330446CB
:1059AC008360037341B10846019104F0B9FA01997F
:1059BC0002462046FFF7D6FF204602B010BD38B590
:1059CC00054600680C4668B16A688B689A4207D332
:1059DC00096804F09DFAA368AB600023A36038BD8E
:1059EC00FFF756FE23682B6063686B60A368AB609F
:1059FC000023C4E90033F1E710B50023C0E90033FC
:105A0C00044683600373FFF7DAFF204610BD88421B
:105A1C0010B5044605D00B682BB18A681946FFF700
:105A2C00A1FF204610BDFFF772FFFAE710B5002367
:105A3C000446C0E9003383600373FFF7E8FF204698
:105A4C0010BD13B5044659B10846019104F068FA2B
:105A5C00019902462046FFF785FF204602B010BD93
:105A6C00FFF755FFF9E770B505460E4609B900205A
:105A7C0070BD6AB1846814442146FFF75FFF0028AB
:105A8C00F5D02868AB683146184404F041FAAC6094
:105A9C000120EDE707B500238DF80410012201A9C0
:105AAC008DF80530FFF7DFFF03B05DF804FB0268EB
:105ABC000B46096862B141B9806860B110787047D3
:105ACC00986840B1097848427047104604F016BAFD
:105ADC000029F5D10846704708B582688B689A4250
:105AEC0005D1FFF7E4FFB0FA80F0400908BD0020B3
:105AFC00FCE770477047704770470000064B9942AF
:105B0C0010B500F10C0405D0084603F0BDFB0028CD
:105B1C0008BF0024204610BDECA90B00064B99428F
:105B2C0010B500F10C0405D0084603F0ADFB0028BD
:105B3C0008BF0024204610BDECA90B00064B99426F
:105B4C0010B500F10C0405D0084603F09DFB0028AD
:105B5C0008BF0024204610BDECA90B0010B568212D
:105B6C000446FEF794FA204610BD10B528210446D1
:105B7C00FEF78DFA204610BD10B530210446FEF715
:105B8C0086FA204610BD6821FEF781BA2821FEF75F
:105B9C007EBA3021FEF77BBAF0B50025EC1C8C42A6
:105BAC000DD86E1C445D875D974205D12644B142E9
:105BBC0005D31D60601CF0BD01342544EEE70020C8
:105BCC00F9E70000024A03490A20FFF7BDBC00BFF9
:105BDC0059510B0028A70B0030B40D4611461A463C
:105BEC00036809682868D3E90043A44630BC6047C1
:105BFC00012A38B5044602D10B68236003E0022A5F
:105C0C0003D0032A0DD0002038BD08200D68FEF704
:105C1C003AFA03460028F0D095E8030083E8030025
:105C2C00EBE700680028EED00821FEF730FAEAE72F
:105C3C0010B5836804462BB1032201469847002314
:105C4C00C4E9023310BD10B5836804462BB103229E
:105C5C00014698470023C4E9023310BD10B5002358
:105C6C008AB02022CDE902230446084A0092084952
:105C7C0002AA0120FFF770FC206806490088002367
:105C8C0022460AB0BDE81040FFF7C0BA4AA70B0085
:105C9C003FA70B00097B0B0010B5013802EB41014B
:105CAC0010F8013F1B0903F13004392C88BF03F1B4
:105CBC00370402F8024B037803F00F0303F13004AE
:105CCC00392C88BF03F13704914202F8014CE7D11B
:105CDC0010BD10B58368044613B1032201469847E2
:105CEC00204610BD10B504465830FFF7F2FF04F102
:105CFC004800BDE81040FFF703BE10B54368013BF8
:105D0C000446436063B903689B689847A368013BEA
:105D1C00A3602BB923682046DB68BDE81040184708
:105D2C0010BD38B503688B4205460C4608D011B13E
:105D3C004B6801334B60286808B1FFF7DEFF2C601D
:105D4C0038BDA0F13003DAB2092A01D818467047E1
:105D5C00A0F16103052B01D857387047A0F141031E
:105D6C00052B94BF37384FF0FF30704710B5002328
:105D7C000370044B04461868FFF7BEFA0123237026
:105D8C00204610BDD8E6032010B5037804461BB19D
:105D9C00024B1868FFF7B8FA204610BDD8E603206E
:105DAC0082B00346086849686A4603C26A4603CA59
:105DBC0018601846596002B0704708B582798B7923
:105DCC009A4206D1062204F02BF8B0FA80F0400972
:105DDC0008BD0020FCE74FF0FF33036083800020F8
:105DEC00704708B50246002101604160FFF7F3FFE0
:105DFC009171104608BD10B5431D01391C7801F88E
:105E0C00014F834203F1FF33F8D110BD70B5144636
:105E1C0088B01A460D46002948D0A4B101A9FFF755
:105E2C00EAFF9AB103AA062101A8661EFFF734FF08
:105E3C00112E28BF1126324603A9284604F000F87B
:105E4C000023AB55741C204608B070BD03AA012179
:105E5C0001A8FFF721FF3A260DF10F0201210DF1E8
:105E6C0005008DF80E60FFF717FF0DF112020121EE
:105E7C000DF106008DF81160FFF70EFF0DF1150204
:105E8C0001210DF107008DF81460FFF705FF06AA3C
:105E9C00012102A88DF81760FFF7FEFE8DF81A603D
:105EAC000DF11B0201210DF10900BEE70C46CAE7FA
:105EBC0010B586B0044613460846122201A9FFF716
:105ECC00A5FF01A92046FFF766FD204606B010BDD0
:105EDC0010B501230361054B024603F1100153F881
:105EEC00044B42F8044B8B42F9D110BDFAA90B00BC
:105EFC000B7C13F0FD0330B50DD103610C4B024646
:105F0C0003F1100453F8045B42F8045BA342F9D18B
:105F1C000B88838130BD0123036101F1100203461C
:105F2C0051F8044B43F8044B9142F9D1F2E700BF0E
:105F3C00FAA90B0010B50B460446B1B1012A01F1C8
:105F4C0010020AD1014653F8040B41F8040B93429A
:105F5C00F9D101232361204610BD411E12F8010D19
:105F6C0001F8010F9A42F9D1F3E7102203F090FFE8
:105F7C00F1E738B504460D46FFF7AAFF002323616D
:105F8C00A581204638BD38B5044615461A46FFF79C
:105F9C00D1FFA581204638BD08B5026922B9808998
:105FAC00003818BF012008BD0249102203F038FF49
:105FBC00F6E700BF1AAA0B000069704738B50C460B
:105FCC0014220021054603F063FF23691BB9A38942
:105FDC002B80284638BD01232B7421462B4604F117
:105FEC00100251F8040B43F8040B9142F9D1F0E77D
:105FFC0080897047704708B502690B699A4206D1CF
:10600C00102203F00DFFB0FA80F0400908BD00200B
:10601C00FCE7000001232DE9F3410361344B0C46EE
:10602C000646024603F1100153F8040B42F8040B28
:10603C008B42F9D144B32421204603F079FF042884
:10604C004FF0000523D1ADF8045001AFA51C063468
:10605C0015F8020CFFF775FEB0F1000812DB15F80D
:10606C00010CFFF76EFE00280CDB023540EA08102D
:10607C00A54207F8010BEBD19DF8053033739DF861
:10608C00043073730023336102B0BDE8F0814FF02C
:10609C0010082421204603F04BFFA84207D84246A3
:1060AC000021304602B0BDE8F04103F0F1BEB8F17A
:1060BC00000FE9D0605DFFF744FE030615D4000124
:1060CC0008F1FF38C7B206F808702421204603F007
:1060DC002FFF0135A84208D9605DFFF732FE40B2B0
:1060EC000028A4BF384306F808000135D1E700BFEB
:1060FC00FAA90B0013B504460191FFF7E9FE2046FF
:10610C000199FFF787FF204602B010BD10B500F1D2
:10611C000F0301391C7801F8014F834203F1FF335F
:10612C00F8D110BD2DE9F0411F468EB00D46002967
:10613C005BD0DAB1D0F81080541EB8F1000F19D131
:10614C008389CDF814805BBA05AA022101A8ADF8A9
:10615C000430FFF7A1FD042C28BF0424224605A916
:10616C00284603F06DFE05F80480621C10460EB044
:10617C00BDE8F08101A9FFF7C9FF05AA7FB1102185
:10618C0001A8FFF789FD242C28BF2424224605A949
:10619C00284603F055FE00232B55621CE6E704212C
:1061AC000DEB0100FFF778FD2D260DF11D020221EC
:1061BC0002A88DF81C60FFF76FFD0DF12202022181
:1061CC000DF10A008DF82160FFF766FD0DF1270235
:1061DC00022103A88DF82660FFF75EFD8DF82B6079
:1061EC000BAA06210DF10E00CBE70A46BEE710B54F
:1061FC008AB004460023252208466946FFF792FF21
:10620C0069462046FFF7C7FB20460AB010BDF7B51C
:10621C00054616461F460A4601ABD0E90001FFF7BA
:10622C00BBFC30F002040CD0841EBC4228BF3C46A0
:10623C003EB101992B68023122461944304603F0D5
:10624C00FFFD204603B0F0BD37B513460C46019256
:10625C000A4608210546FFF7DAFF40B9019B2246A2
:10626C000921284603B0BDE83040FFF7D0BF03B08A
:10627C0030BD0000F0B50C4689B00C490546FFF75F
:10628C008AFB1F2269462046FFF7DEFF064650B107
:10629C006C46002714F8011B2846FFF7FBFB10B1D6
:1062AC000137BE42F6D1284609B0F0BD8CA00B00D8
:1062BC0007B5022301AA1921FFF7A9FF08B1BDF800
:1062CC00040003B05DF804FB38B54FF6FF730025EE
:1062DC00044643800E22294605700571063003F0F2
:1062EC00D7FD04F11400FFF7F3FD04F12800FFF7CC
:1062FC00EFFD044904F13C00FFF74DFB65652046BA
:10630C0038BD00BF8CA00B0038B50D6804460146A3
:10631C0005F12800FFF76FFE40B1AB89A28A9A42C3
:10632C0005D8E08A984234BF0020012038BD0020F7
:10633C00FCE710B5D0E9063203EBC20293421846D3
:10634C0006D0046824888C4203F10803F6D110BDF2
:10635C000020FCE7002370B5036005466820FDF7BC
:10636C0092FE041E04F10C0607D00123C4E901338C
:10637C00044B23603046FFF7A7FFC5E900642846AD
:10638C0070BD00BFA0A90B0070B50C681434064694
:10639C0005460FCC0FC523682B60304670BD00003E
:1063AC00F0B5064685B01F460D46002950D0002A90
:1063BC004ED004682378F42A28BFF42243B32379FF
:1063CC00980709D5A08903920023FEF715FF002832
:1063DC00039A03DA05B0F0BD6FF0770034682379C7
:1063EC00D90609D5012F07D0A0890023294605B06D
:1063FC00BDE8F040FEF764BF9B06EBD5022FE9D059
:10640C00A0890023294605B0BDE8F040FEF762BF25
:10641C0060884FF6FF7188421CD021794E0701D558
:10642C00012F04D10B0709D46FF07700D2E7A189B3
:10643C00009313462A46FEF707FFCBE7022FF3D053
:10644C000023A189009313462A46FEF7F3FEC1E709
:10645C000248BFE76FF0D100BCE700BFF2FEFFFFC0
:10646C0010B503681A7886B052BB5C884FF6FF7083
:10647C00844225D0188A30B3CDE903220592134A01
:10648C000092134ACDE901235A88ADF80C201A8AE0
:10649C00ADF80E209A89ADF8102059B11A799206F0
:1064AC0044BF022205921B79DB0642BF059B43F0D9
:1064BC000103059300216846FEF7F8FE06B010BDF7
:1064CC006FF0D100FAE76FF07700F7E703001800E0
:1064DC00F9660B00F8B50026066005462820FDF786
:1064EC00D2FD041E04F10C070AD00123C4E90133C8
:1064FC00054B23603846FFF7EBFC266284F82460DA
:10650C00C5E900742846F8BDBCA90B002DE9F04183
:10651C0000260660074628200C46FDF7B4FD051E34
:10652C0005F10C080FD00123C5E90133084B2B6092
:10653C004046FFF7CDFC0FCC2E6285F82460464612
:10654C000FC623683360C7E900853846BDE8F08183
:10655C00BCA90B0070B50025056006463020FDF780
:10656C0092FD044688B10123C0E90133094B036055
:10657C004FF6FF7383810E30FFF733FCC4E90655E9
:10658C00C4E90855C4E90A55A57574600C34346027
:10659C00304670BDD8A90B0013B5044601A8FFF70F
:1065AC00E5FB23681C884FF6FF73E41A01A818BF9B
:1065BC000124FFF7E9FB204602B010BD37B50546B4
:1065CC000C4601A8FFF7D2FB2A682368C2F80230F8
:1065DC006368C2F8063001A8FFF7D6FB03B030BDE4
:1065EC0037B50D46044601A8FFF7C0FB2A68D2F860
:1065FC0002302360D2F80630636001A8FFF7C4FBB9
:10660C00204603B030BD30B5054687B00C4601A816
:10661C00FFF7ACFB2A68236812881B889A420DD1BD
:10662C00294602A8FFF7DCFF214604A8FFF7D8FF94
:10663C0004A902A8FFF7C1FB044600B9002401A875
:10664C00FFF7A2FB204607B030BD000010B5044692
:10665C006420FDF718FD68B10023C0E90033C0E9E0
:10666C000233C0E90433C0E906330362C362C36377
:10667C00C364C365206020B90A4A0B490A20FEF79F
:10668C0063FF0020FEF772FD20B1064A07490A207D
:10669C00FEF75AFF216806480022FEF7FDFD204652
:1066AC0010BD00BF59510B0028A70B0066A70B00AB
:1066BC001D710B0010B50A4C2378BFF35B8FDB0701
:1066CC000CD42046FDF7F2FC40B10648FFF7BEFFA4
:1066DC002046FDF7F0FC044803F09CFB014810BD7C
:1066EC00D0E60320DCE60320FD690B0030B503681F
:1066FC00093B012B8DB004460D4611D8FFF7DAFF8C
:10670C00A1880068FFF715FE034658B92022CDE991
:10671C0004200B4A00920B4904AA3220FEF71CFFFE
:10672C000DB030BD6A6D002AFAD0D4E9032105F111
:10673C004C00CDE90312AC6D04AA03A9A047EFE706
:10674C00A8A70B003FA70B0008B50020FEF70EFD15
:10675C0000EAE07008BD19B90A460846FEF70EBDFE
:10676C00D1E900010022F9E710B504464069FEF7B3
:10677C008FFFA068FEF78CFF204610BD002247F665
:10678C007F71C0E90022C0E90222C0E90422C0E9FD
:10679C000E22C0E91022C0E91222C0E91422C0E97D
:1067AC001622C0E91822C0E91B2202620263A0F87B
:1067BC00681070470368D8690028D4BF00200120F6
:1067CC00704770B5D0E90053044605EB0316AE4292
:1067DC0004D02846FFF794F81035F8E72068FEF748
:1067EC0057FF204670BD10B504460068FEF750FFF9
:1067FC00204610BD70B50446C06DFEF749FF206DF4
:10680C00FEF746FF04F1380504F14400FFF7EBFFF7
:10681C002846FFF7D6FF04F12800FFF75AFA04F1D7
:10682C001800FFF756FAD4E90053242606FB03564A
:10683C00AE4204D02846FFF797FF2435F8E72068CE
:10684C00FEF726FF204670BD38B5141E436805467A
:10685C0002DB62189A4200DD5C1A2A685018011992
:10686C001A44521A03F0FAFA6A68121B6A6038BDAD
:10687C0037B50A4604460D4601ABD0E90001FFF7D7
:10688C008BF9024638B101992046FFF7DDFF294606
:10689C002046FFF7EDFF03B030BD10B50C4629B90B
:1068AC000A460846BDE81040FEF770BC01212046A0
:1068BC00FFF7DEFFD4E900010022F3E738B5044608
:1068CC001546FFF748FF00280ADB29462046FFF74C
:1068DC00E4FF002804DBBDE838400020FEF75EBC76
:1068EC0038BD000038B500230446836008200D46EF
:1068FC00FDF7C9FB18B12B6803606B684360034B51
:10690C00E360034B2060A360204638BDE55B0B00C1
:10691C00FD5B0B000B68036013B15A6801325A60BF
:10692C00704710B551F8043B044640F8043BFFF7A0
:10693C00F1FF23680BB9FFF745F9204610BD10B5E0
:10694C0051F8043B044640F8043BFFF7E3FF2046B4
:10695C0010BD10B551F8043B044640F8043BFFF75A
:10696C00D9FF204610BD10B50446006808B1FFF7EA
:10697C00C4F9204610BD10B504460430FFF7F3FFF0
:10698C00204610BD10B504460430FFF7ECFF20463E
:10699C0010BD70B5D0E90053044605EBC306AE42FA
:1069AC0004D0281DFFF7DFFF0835F8E72068FEF755
:1069BC006FFE204670BD70B5D0E90053044605EB60
:1069CC00C306AE4204D0281DFFF7CDFF0835F8E70B
:1069DC002068FEF75DFE204670BD10B504462430DD
:1069EC00FFF7E9FF04F11800FFF7D3FF10BD00001B
:1069FC0070B5174B1C6854B304F15400FFF769F9D8
:106A0C0004F14400FFF765F904F13400FFF761F974
:106A1C0004F12400FFF75DF9D4E9065305EBC30636
:106A2C00AE4204D0281DFFF79EFF0835F8E7A06999
:106A3C00FEF72EFE04F10C00FFF7BDFF2046FFF71A
:106A4C00A8FF20466421BDE87040FDF720BB70BD57
:106A5C00DCE6032013B50023D1E90042C1E9003381
:106A6C000368009304604368426001A80193FFF738
:106A7C007AFF02B010BD826810B50AB902F000FCB2
:106A8C00BDE81040C36818472DE9F0470023C0E962
:106A9C0000338360D1F80480984505460F464ADDE3
:106AAC004FEA0810FEF7ECFD0646002843D0D5E966
:106ABC000041A04204EB011A16D9504515D2AAF197
:106ACC00100AA4F11009AAEB04040444D1451DD00A
:106ADC001CB151462046FEF78FFF5046FEF710FFC3
:106AEC00AAF1100A103CF1E710D0B146A2450DD026
:106AFC00B9F1000F03D021464846FEF77DFF204632
:106B0C00FEF7FEFE103409F11009EFE72868FEF7D6
:106B1C00BFFDC5F808802E60D7E9004304EB0318CD
:106B2C00A04506D021463046FEF780FF10341036C3
:106B3C00F6E77B686B602846BDE8F08730B58DB012
:106B4C000C4600F1380101A8FFF79EFF029B002BB9
:106B5C002FDD04F1140104A8FFF78CFB04F10801EC
:106B6C0008A8FFF787FB0A9A069B13431FD0DDE9A1
:106B7C00014504EB0515AC4219D004A92046FEF7DB
:106B8C00ABFF60B1012408A8FEF7BAFE04A8FEF71B
:106B9C00B7FE01A8FFF715FE20460DB030BD20460C
:106BAC0008A9FEF799FF10340028E4D0EAE7002486
:106BBC00E9E70124EDE7F8B50023C0E90033836071
:106BCC004F689F4205460E463EDDF800FEF758FD25
:106BDC000446C8B3D5E90003844200EBC30310D9C3
:106BEC009C420FD2083B1A1AA0F1080C22449C4577
:106BFC0018D01AB11968116059685160083B083AED
:106C0C00F5E70FD0014622468B420BD03AB1D1F8B2
:106C1C0000C0C2F800C0D1F804C0C2F804C00831EA
:106C2C000832F1E7FEF734FD2C60AF60D6E9003195
:106C3C0003EBC100984206D01A6822605A68626061
:106C4C0008330834F6E769602846F8BD70B5044689
:106C5C000020C4E90000A0604E6886420D4612DD9B
:106C6C007100FEF71DFD70B12060A660D5E9003201
:106C7C0003EB42029A4204D033F8021B20F8021BA9
:106C8C00F8E76B686360204670BD10B50379044665
:106C9C0023B90368186808B1FEF7FAFC204610BD4A
:106CAC0010B50379044623B90368186808B1FEF7D8
:106CBC00EFFC204610BD00002DE9F043D0F86C80AD
:106CCC008FB00F46B8F1000F72D0056F002D6FD04A
:106CDC0001F114091F230022FF214846FFF797FA00
:106CEC000837FF230446002219463846FFF78FFA6F
:106CFC00AC42064606D0AE4230D0002420460FB03F
:106D0C00BDE8F0832046FEF7BBFC03AB04930023E5
:106D1C00044603908DF8143070B92023CDE9063069
:106D2C00244B00932449034606AA3220FEF714FC98
:106D3C0004A8FFF7AAFFE1E70246FF212B464846CD
:106D4C00FFF765FA03982A46414603F069F818B133
:106D5C0004A8FFF79AFFCEE70124E9E72846FEF7DF
:106D6C008FFC002403AB0646039004938DF814406B
:106D7C0078B92023CDE906300E4B00930E4903461B
:106D8C0006AA3220FEF7E8FB344604A8FFF788FF7A
:106D9C00B4E70246FF212B463846FFF738FA039832
:106DAC002A46414603F03CF80028EED10124ECE7DA
:106DBC000124A3E7C0A70B003FA70B0038B50D1E9D
:106DCC000446006803DDFEF76BFC18B938BDFEF70E
:106DDC005FFC00202060A5600120F7E708B5836800
:106DEC008B4202DAFFF7EAFF08BD0120FCE738B559
:106DFC000023C0E9003383600D464968994204467C
:106E0C0010DDFFF7DBFF68B1D5E9003122681944CA
:106E1C00994205D00AB11878107001330132F7E7A6
:106E2C006B686360204638BD38B50B6803604B68EF
:106E3C00436004460D4608300831FFF7D8FF05F1D2
:106E4C00140104F11400FFF7D2FF95F8203084F8F8
:106E5C002030204638BD1FB5044601A8FFF7C7FFF8
:106E6C00019B029A2068236063686260039A029314
:106E7C00A368A26001900393FEF70AFC04B010BD56
:106E8C002DE9F0410F4641681D461944836899422B
:106E9C000446904612DC266862683E44D21B31469A
:106EAC00701902F0DBFF2A464146304602F0C8FF5B
:106EBC0063682B4463600120BDE8F081FFF77EFF1F
:106ECC000028E8D1F8E713460A46002110B504461D
:106EDC00416002B10BB9002010BDFF2B28BFFF236E
:106EEC00FFF7CEFF0028F7D06068F5E7F8B50D4640
:106EFC00D0E901139942044616460BDA27686268FA
:106F0C007919521B481C02F0A9FF7E5563680133A6
:106F1C006360F8BD0131FFF751FF0028EED1F8E7AF
:106F2C000A464168FFF7E2BF2DE9F74304461D46C8
:106F3C000F4601AB90460A46D0E900019DF8289017
:106F4C00FEF72AFEAE1C63680246B9F1000F26D18B
:106F5C0028B333441B1AFF2B09D801992046FFF79D
:106F6C0073FC616820463144FFF738FF18B960683C
:106F7C0003B0BDE8F0836A1C0199D2B22046FFF73A
:106F8C00B5FF01993A4601312046FFF7AFFF019951
:106F9C002B46424602312046FFF772FFE7E7F11815
:106FAC00FF29E4D82046FFF719FF0028DFD0691C21
:106FBC00C9B22046FFF7B4FF39462046FFF7B0FFB1
:106FCC0061682B464246E6E730B49DF808501AB18A
:106FDC00029530BCFFF7A8BF406830BC70471FB5A6
:106FEC000023C0E9003383600622009301238DF84F
:106FFC000F2019460DF10F020446FFF7E5FF20465E
:10700C0004B010BD8842F8B504460D46164614D996
:10701C00904213D2A2F10806751AA1F108072C446C
:10702C00B74218D01CB131462046FFF792FC301DF8
:10703C00FFF799FC083E083CF2E70CD0B5420AD0A9
:10704C001CB129462046FFF784FC281DFFF78BFC5A
:10705C0008350834F2E7F8BDF7B5044646686846CB
:10706C00FFF777FCD4E901739F4212DB0137002F45
:10707C0029DDF800FEF704FB0546F0B1D4E9001257
:10708C0001EBC202FFF7BEFF2068FEF701FB256093
:10709C00A7602368626803EBC60603EBC2023146A5
:1070AC0006F10800FFF7AEFF1EB169463046FFF748
:1070BC0050FC636801336360012501A8FFF753FCA2
:1070CC00284603B0F0BD0025DEE7F8B5D0E9004353
:1070DC0005460F4604EBC306A64205D039462046AA
:1070EC00FFF791FA08B114B9F8BD0834F4E7201D84
:1070FC00FFF739FCD5E9003204F1080103EBC202B9
:10710C002046FFF77FFF6B68013B6B60ECE70000EC
:10711C002DE9F04105468EB003A80C46FEF726FE7D
:10712C002E68F31E0D2B3CD8DFE813F00E00530035
:10713C003B00D1003B003B003B003B003B009B0075
:10714C009B009B009B009B0004A8FFF703FA049B89
:10715C00AA891A806968049808310230FEF720FE6B
:10716C0004A906A8FFF7F5FB06A904F11800FFF720
:10717C0073FF054607A8FFF7F6FB20230693B5B966
:10718C005D4B5E49009332202B4606AA0795FEF70D
:10719C00E3F9049B29461888FEF71AF805A8FFF7AF
:1071AC00E2FB03A8FEF7F0FD0EB0BDE8F081544AF7
:1071BC00009200235149079306AA0120FEF7CCF94F
:1071CC00E36A002BEAD004A904F12400FFF753FC76
:1071DC00E4E7A9892046FFF7ACF806460028E0D082
:1071EC000568D5E906324FF6FF71298003EBC20220
:1071FC009A4203D053F8080B4180F9E7D5E90373A1
:10720C0007EBC308B84504D0381DFFF7ACFB0837B3
:10721C00F8E700232B61D5E9067307EBC308B845E3
:10722C0004D0381DFFF79FFB0837F8E70023EB610C
:10723C00AB72E36B23B1314604F13400FFF71BFC56
:10724C0000232022CDE906232E4A00922B4906AAC0
:10725C000120FEF781F9314604F11800FFF735FFE4
:10726C009FE7A9892046FFF764F8002899D0E36CC2
:10727C00002B96D000230D2EADF8163001D0102E19
:10728C0017D1002369681A4606258DF8153004912C
:10729C008DF814200690DDE9040109AB8DF81C6013
:1072AC00089583E80300236D06A904F14400984770
:1072BC0077E70F2E01BF2B7A696803F001020825CE
:1072CC000FBFC3F340031A4619461D46DDE7A989D3
:1072DC002046FFF72EF8014600283FF462AFE36D1D
:1072EC00002B3FF45EAF6B68069306AA236E04F185
:1072FC005400984755E700BFDBA70B003FA70B00D6
:10730C0001A80B001EA80B0038B50D1E0446006822
:10731C0005DD14216943FEF7C3F918B938BDFEF732
:10732C00B7F900202060A5600120F7E72DE9F843AC
:10733C000024C0E90044846088464968A14207469D
:10734C001ADDFFF7E1FFB8B1D8E900934FF0140C48
:10735C00D7F800E00CFB039C09EB0405AC4508D006
:10736C001EEB04061FBF0FCD0FC62B683360143401
:10737C00F2E7D8F804307B603846BDE8F88330B5C6
:10738C0085B0044601A80D46FFF77EFB019A2368E1
:10739C002260029A019363686260039A029301A8C7
:1073AC00A368A2600393FFF70CFA05F10C0101A886
:1073BC00FFF7BCFF019AE368E260029A019323692C
:1073CC002261039A029301A8636962610393FFF738
:1073DC000AFA05F1180101A8FFF7EDFB019B029ACF
:1073EC00A069A361E369E261039A0293236A2262B2
:1073FC0003930190FEF74CF905F1240101A8FFF766
:10740C0025FC019B029A606A6362A36AA262039ADA
:10741C000293E36AE26203930190FEF739F995F95E
:10742C00303084F8303095F9313084F831306B6B72
:10743C006363AB6BA36305B030BD2DE9F843D1E9B1
:10744C00008745688368E9199942044617DC1423C0
:10745C00266862685D4303FB07F95A432E44521BAE
:10746C00314606EB090002F0F9FC4A46414630462B
:10747C0002F0E6FC63683B446360BDE8F883FFF709
:10748C0043FF0028E3D1F8E782B070B50C4604A99D
:10749C0081E80C00D0E901139942054617DA142350
:1074AC0003FB04F16A682C685A430C44521AE01826
:1074BC00214604AE02F0D2FC0FCE0FC43368236019
:1074CC006B6801336B60BDE8704002B070470131EE
:1074DC00FFF71AFF0028E2D1F5E72DE9F04F002461
:1074EC0093B0931EC0E90044DBB205460F469046AC
:1074FC008460059379688C4272DA386807AB42462F
:10750C00091B2044FEF748FB0646002868D0059B63
:10751C00012B2FD8A0F1020B4FEA5B0B4FF00009A7
:10752C000DF13C0A079BCB45234455D03A6803EB3D
:10753C004903134408A8D9789B7843EA0121FEF744
:10754C0018FD0DF1200EBEE80F000DF1340CACE867
:10755C000F00DEF80030CCF800309AE807008DE818
:10756C0007000DAB0CCB69682846FFF78DFF09F1BE
:10757C000109D7E7A8F10603012B2DD8A0F1020BC6
:10758C004FEA1B1B4FF000090DF13C0ACB45079B42
:10759C0022D002333968234403EB09130122194426
:1075AC0008A8FEF7C7FC0DF1200EBEE80F000DF188
:1075BC00340CACE80F00DEF80030CCF800309AE860
:1075CC0007008DE80700DDE90D2369682846FFF701
:1075DC005BFF09F10109D9E7079B1C44344489E797
:1075EC00284613B0BDE8F08F30B5002385B0C0E954
:1075FC00003383600446022201A80D46FFF76DFF9D
:10760C0001A92046FFF719FF01A8FFF7ECF80222A9
:10761C00294601A8FFF761FF01A92046FFF70DFFDE
:10762C0001A8FFF7E0F80322294601A8FFF755FF50
:10763C0001A92046FFF701FF01A8FFF7D4F80622A5
:10764C00294601A8FFF749FF01A92046FFF7F5FEDF
:10765C0001A8FFF7C8F80722294601A8FFF73DFF4C
:10766C0001A92046FFF7E9FE01A8FFF7BCF8204668
:10767C0005B030BD2DE9F04385B08846014601A820
:10768C009146FFF7B1FF019E029B4FF0140E0EFBCB
:10769C00036C0027B4450DD0B94506F1140609D08A
:1076AC00A6F114050FCD0EFB07840FC42B682360C5
:1076BC000137EFE701A8FFF796F8384605B0BDE8AB
:1076CC00F0832DE9F04F8BB00C4600F1440101A87A
:1076DC00FFF72CFE029B002B4ADD04F1140104A8D9
:1076EC00FFF782FF04F1080107A8FFF77DFF059D56
:1076FC00089E002D01DC002E38DD019A029FDDF87A
:10770C001080DDF81C90142303FB072703FB058571
:10771C0003FB06969246BA4528D0C346AB4515D016
:10772C0059465046FEF767FC0BF1140B0446002833
:10773C00F4D007A8FFF757F804A8FFF754F801A8EE
:10774C00FFF751F820460BB0BDE8F08FCB46B345A0
:10775C0009D059465046FEF74EFC0BF1140B04466B
:10776C000028F4D0E5E70AF1140AD4E70024E0E796
:10777C000124E4E713B50B460246D0E900016C4640
:10778C0084E8030093E8030082E8030094E8030014
:10779C0083E8030002B010BD38B505460C46FFF770
:1077AC00E9FFAB68A268AA60A360EB68E268EA60D4
:1077BC00E36038BD30B585B0002302938B68054675
:1077CC000C4633B1022268469847E3680393A368DA
:1077DC00029329466846FFF7DFFF6846FEF779FA01
:1077EC0005B030BD38B50D4601684B6D044623B16C
:1077FC0028684C314C30FFF7DDFF20462B6840F8F1
:10780C00043B6968FEF78DFA204638BD2DE9F0433C
:10781C00044687B068460E461746FEF7A7FA23685B
:10782C00D3E9064304EBC3084445A14616D02146D0
:10783C0001A8FEF7A9FD394601A8FEF7DCFB0834C8
:10784C0005460028F0D049463046FFF7CBFF684686
:10785C00FEF79AFA284607B0BDE8F0830025F6E754
:10786C0010B504688AB04C34B9B1CDE9001202A845
:10787C006946FFF737F8002306A902A80893FFF71B
:10788C008BFF214606A8FFF787FF06A8FEF721FA13
:10789C0002A8FEF71EFA0AB010BD0491EBE770B512
:1078AC0004468CB00E4601921D46FEF70DFD267166
:1078BC00019904F13C00FEF7C4F804F14C06CDB17B
:1078CC00109B029502A904A80393FFF70BF8002361
:1078DC0008A904A80A93FFF75FFF314608A8FFF731
:1078EC005BFF08A8FEF7F5F904A8FEF7F2F92046AD
:1078FC000CB070BD0695EAE72DE9F04F87B01D4638
:10790C00DDE9104380468B46924612990393002280
:10791C00682002910492FCF7B6FB061E06F10C09D6
:10792C0018D001223746C6E901220299154A47F8B8
:10793C00202B039B00915A4651464846FFF7AFFF58
:10794C000FCD0FC72B683B600FCC06F134050FC56C
:10795C0023682B6004A94046CDE90496FFF77AF81A
:10796C0005A8FFF700F8D8F800303BB9064A0749DC
:10797C000A2007B0BDE8F04FFDF7E6BD07B0BDE843
:10798C00F08F00BFA0A90B0059510B0028A70B00CA
:10799C008842F8B504460D46164614D9904213D2C7
:1079AC00A2F10806751AA1F108072C44B74218D0A9
:1079BC001CB131462046FEF7C2FF301DFEF7D3FF47
:1079CC00083E083CF2E70CD0B5420AD01CB129465F
:1079DC002046FEF7B4FF281DFEF7C5FF0835083416
:1079EC00F2E7F8BD70B50E1E054611DDF000FDF78F
:1079FC0047FE044658B1D5E9001201EBC202FFF76D
:107A0C00C7FF2868FDF744FE2C60AE60012070BDF6
:107A1C000024F6E72DE9F0410023C0E90033836030
:107A2C000D4649689942044613DDFFF7DBFF80B130
:107A3C00D5E90063276806EBC308B04507D01FB132
:107A4C0031463846FEF77BFF08360837F5E76B689A
:107A5C0063602046BDE8F08137B50D46044601A8A9
:107A6C00FEF784F9296820460C31FFF7D3FF01A8F3
:107A7C00FEF78AF9204603B030BD38B50B689B7A07
:107A8C0005460C4633B90846FEF7E8F810B92368EA
:107A9C0001229A7228462146FFF7DEFF284638BDA0
:107AAC0073B5044645686846FEF749FFD4E90113EF
:107ABC00994210DA2368626803EBC50503EBC20236
:107ACC00294605F10800FFF763FF8DB963680133A0
:107ADC006360012606E001312046FFF783FF06466E
:107AEC000028E7D101A8FEF73EFF304602B070BD7A
:107AFC0069462846FEF723FFE8E700002DE9F04F22
:107B0C00DFF8B890DFF8B8A093B005468846002798
:107B1C002B68BB424ED903A8FEF7DCFC1C266A6816
:107B2C00039C7E4332440DF1140C131DE3461432B6
:107B3C0018685968E646AEE8030008339342F446E9
:107B4C00F6D11868CEF8000059460AA8FEF7D0F90D
:107B5C000DF1280CBCE80F000FC4DCF800302360DA
:107B6C006B68039A334403A91B8B93826B68334471
:107B7C005B8BD382D8F8000000F10C040AA8FEF746
:107B8C00DEFE20460AA9FFF78BFF04460BA8FEF782
:107B9C00EAFE54B92023CDE90A34CDF800902346EF
:107BAC000AAA51463220FDF7D7FC04A8FEF7DBFEEB
:107BBC000137ADE713B0BDE8F08F00BF3DA80B0057
:107BCC003FA70B008842F8B504460D46164614D95B
:107BDC00904213D2A2F10806751AA1F108072C44A1
:107BEC00B74218D01CB131462046FEF79AFE301D24
:107BFC00FEF7B9FE083E083CF2E70CD0B5420AD0BD
:107C0C001CB129462046FEF78CFE281DFEF7ABFE64
:107C1C0008350834F2E7F8BD70B50E1E054611DDC7
:107C2C00F000FDF72DFD044658B1D5E9001201EB2B
:107C3C00C202FFF7C7FF2868FDF72AFD2C60AE6073
:107C4C00012070BD0024F6E72DE9F0410023C0E9C6
:107C5C00003383600D4649689942044613DDFFF7F3
:107C6C00DBFF80B1D5E90063276806EBC308B0459C
:107C7C0007D01FB131463846FEF753FE0836083799
:107C8C00F5E76B6863602046BDE8F08137B50D46BB
:107C9C00044601A8FEF76AF8296820461831FFF758
:107CAC00D3FF01A8FEF770F8204603B030BD73B5C2
:107CBC00044645686846FEF734FED4E90113994240
:107CCC0010DA2368626803EBC50503EBC202294690
:107CDC0005F10800FFF776FF8DB963680133636027
:107CEC00012606E001312046FFF796FF06460028E4
:107CFC00E7D101A8FEF737FE304602B070BD6946E9
:107D0C002846FEF70EFEE8E7F0B585B0054601A85B
:107D1C000C461746FEF72AF80023C5E90033AB6082
:107D2C002368D3E9064604EBC606B44211D0386882
:107D3C002146FEF7E9FA50B1214602A8FEF7F1FD03
:107D4C0002A92846FFF7B3FF03A8FEF70CFE083480
:107D5C00EBE701A8FEF718F8284605B0F0BD0000C7
:107D6C002DE9F0430B689B7A91B006460F4690467E
:107D7C0033B9C0E900338360304611B0BDE8F083FD
:107D8C0011680D7E002D58D120232A4603A8CDE979
:107D9C000835FEF72CFA039B01932B4B2B490093D0
:107DAC0008AA2B460120FDF7D7FB03A8FDF7A8FD79
:107DBC001C23ADF82230D8F800309A8AADF8382060
:107DCC00DB8AADF83A303B68214A1888009508A93F
:107DDC00FDF726FA002830DB3B68D3E9064304EBB9
:107DEC00C3090834A4F10803994522D054F8083C7F
:107DFC00DB89002BF5D0102200210DEB020003953E
:107E0C0002F046F854F8083CD9893B6803AA188854
:107E1C0000951323FDF722FA0028E2D010AB18448A
:107E2C0003A900F8345C54F8080C3C30FDF709FE4B
:107E3C00D7E7D8F8003001221A7642463946304648
:107E4C00FFF762FF98E700BF62A80B003FA70B008B
:107E5C0005800B00F0B50B689B7A85B006460D4685
:107E6C002BB901A8FFF709FE01A8FEF792FD2B68BC
:107E7C00D3E9034704EBC707BC4209D02246294685
:107E8C0001A8FFF76DFF01A8FEF795FD0834F3E795
:107E9C0030462946FFF7FAFE304605B0F0BD00002B
:107EAC002DE9F043054693B0086807920F464968E0
:107EBC0098460AAC414B049303C405AB4FF0000940
:107ECC0083E80300CDE90899FEF7F4FB3C4B0893DB
:107EDC00FEF7F0FB2968036809934A4604A8FDF7EE
:107EEC00C7F90AAE044638B12B684FF6FF721A80F8
:107EFC00204613B0BDE8F08339462846FEF75EFBFA
:107F0C0003A8FDF733FFFEF7D5FB076829461837A2
:107F1C003046FEF71EFD31463846FFF79DF8074602
:107F2C000BA8FEF720FD4FF020091FBB3246254B56
:107F3C00254E2649009332202346CDE90A94FDF7BD
:107F4C000BFB3068FDF7E0F92B688DF80C402146EF
:107F5C0018881F4CFDF73CF93068FDF7CDF901236B
:107F6C008DF80C302B684FF6FF721A8003A8FDF7C2
:107F7C000BFFBDE703A8FDF707FF164B0093134952
:107F8C00234632460120CDE90A94FDF7E5FAB8F113
:107F9C00000FADD029463046FFF75CFFDDE90A53F0
:107FAC0005EBC307BD4205D028460121FEF758FA60
:107FBC000835F7E73046FEF7FEFC99E7030018009A
:107FCC001D710B0094A80B00D8E603203FA70B00F3
:107FDC00FCFEFFFFB0A80B0013B50446CDE9003240
:107FEC00FEF7B8FA009B019900222046FFF758FFD4
:107FFC00204602B010BD00002DE9F04F202395B0B3
:10800C000026CDE90C36664B009305460F463346E9
:10801C006449DFF89491DFF88C81DFF890A10CAA09
:10802C000120FDF799FA2B68B34240F2B58003A802
:10803C00FEF790F905A8FEF74DFA4FF02A0B6B6886
:10804C00039A0BFB06FB5B44D98B1181198C518174
:10805C00598C9181988CD081D88C10821B8D538235
:10806C00D7E9033203EBC2029A427DD01868C48A66
:10807C008C4277D3848A8C4274D85968059006A8B0
:10808C00FDF74FFEDDF814C0DDF80CE0BCE80F0086
:10809C000EF128040FC4DCF8003023602B89AEF8F5
:1080AC0002306B68039C5B445B7E13F0020F6ED155
:1080BC006B685B445B7E580742BF237943F0040333
:1080CC0023716B685B445B7E190742BF237943F0D5
:1080DC00080323716B685B445B7EDA0642BF23792D
:1080EC0043F0100323716B685B4407AA5B7E9B060D
:1080FC0042BF237943F0200323716B689B440BF13F
:10810C00040396460BF1140B186859689446ACE8B6
:10811C00030008335B456246F6D11868CCF80000C2
:10812C0071460CA8FDF7E4FE0DF1300CBCE80F0015
:10813C0014340FC4DCF80030236003A90CA8FEF73C
:10814C00F0FB0CA907F11800FFF7B1FD04460DA8D0
:10815C00FEF709FC9CB92023CDE90C34CDF800A026
:10816C00234607E008337FE720240023CDE90C43A6
:10817C00CDF800900CAA41463220FDF7EDF906A887
:10818C00FEF7F1FB04A8FEF7EEFB01364BE7237973
:10819C0043F0020323718BE715B0BDE8F08F00BFED
:1081AC00CDA80B003FA70B00E8A80B0017A90B00EC
:1081BC002DE9F04F1746A1B080460AA80E46FDF7F0
:1081CC00D5FD3C68237953B939464046FEF7A9FBE7
:1081DC000AA8FDF7D9FD404621B0BDE8F08F336801
:1081EC00D3E9035305EBC303039304F1280A04F109
:1081FC00140B039B9D4221D0D5F80090584609F1F1
:10820C001401FDF7F8FEB8B109F128015046FDF74D
:10821C00F2FE88B12368D9F80020534033F47F4331
:10822C000AD12022CDE915235E4A009215AA5E4997
:10823C003220FDF791F9C7E70835DAE75046FDF72C
:10824C00ABFE60B95949012215A815ADFDF772FEB8
:10825C000FCDD446ACE80F002B68CCF80030336857
:10826C00D3E9005305EBC30B5D45A94651466ED0CF
:10827C0055F8080BFDF7BFFE0028F5D004F1140AE1
:10828C005046FDF789FE88B9494B48491A88013296
:10829C0092B21A8015A8012315ADFDF774FE0FCD0F
:1082AC00D446ACE80F002B68CCF80030414B15934A
:1082BC002822002116A801F0EBFD514604A8FDF779
:1082CC007DFE04AB18AA0DF1200C186859681546F0
:1082DC0003C5083363452A46F7D11868286023790B
:1082EC008DF85830D9F800309B8AADF87430E36BB8
:1082FC001793314B0022A11D15A8CDE91E34FCF7B4
:10830C00C1FF00287FF460AF012323703468394625
:10831C000C340DA8FEF705FB20460DA9FFF7C7FC92
:10832C0004460EA8FEF71FFB002C7FF44DAF202354
:10833C00CDE90D34214B00930DAA234677E739463E
:10834C004046FEF7EEFA0CA8FEF70DFB40E70BA833
:10835C00FEF7DCF8514615A8FDF730FE0B9A00230A
:10836C00143215A90120FCF73DFF0028E7D1356830
:10837C000BA90DA8FEF7E3FA28460DA9FFF790FB11
:10838C0005460EA8FEF7EFFA002DD8D032685368D8
:10839C00126803F10053013B0CA802EBC309FEF772
:1083AC00E2FA6BE743A90B003FA70B000AAA0B00EC
:1083BC00D4E6032003002C00F9660B006EA90B0019
:1083CC008842F8B504460D46164614D9904213D28D
:1083DC00A2F12406751AA1F124072C44B74218D037
:1083EC001CB131462046FEF71FFD3046FEF7BCF9A6
:1083FC00243E243CF2E70CD0B5420AD01CB12946ED
:10840C002046FEF711FD2846FEF7AEF9243524343C
:10841C00F2E7F8BDF8B50E1E054613DD242707FB61
:10842C0006F0FDF72DF9044658B1D5E9001207FB0B
:10843C000212FFF7C5FF2868FDF72AF92C60AE6021
:10844C000120F8BD0024F6E72DE9F0410023C0E936
:10845C00003383600F4649689942054629DDFFF7D2
:10846C00D9FF30B3D7E900434FF024082E6808FB3E
:10847C0003480834A4F10802904518D0A6B154F86A
:10848C00083C336054F8043C7360214606F1080044
:10849C00FEF7ADFC04F10C0106F11400FEF7A7FC8D
:1084AC0094F9183086F8203024362434E2E77B68BF
:1084BC006B602846BDE8F08138B50C46054601F1E5
:1084CC001800FDF7B5FB04F12800FDF7BCFB0022FA
:1084DC0021460448FCF76AFE21462846FFF7B4FF04
:1084EC00284638BD1F850B0010B5A0B0044603A864
:1084FC000192FEF743F9019911A8FEF740FF03A979
:10850C002046FFF7D9FF03A8FEF774F9204620B0E8
:10851C0010BD2DE9F0439DB001AD064628460C4632
:10852C00FDF75FFC03A8FEF75AFD06A8FEF757FD02
:10853C0030697169F28913AB03C385E803003378A2
:10854C00B1688DF8243006A8FEF7BDFCB2897168BD
:10855C0003A8FEF7B8FC94F968307F2B13AF03D057
:10856C009DF924209A425CDB94F969307F2B03D06F
:10857C009DF924209A4254DC04F150013846FEF750
:10858C001AFB149B002B52DD139E06EBC309B1455D
:10859C0050D030462946FDF710FC0836804600289E
:1085AC00F5D01398FDF774F8B8F1000F39D02946BF
:1085BC002046FEF7C3FAA0B329462046FFF781F800
:1085CC00064670B304F15C013846FEF73FFB149B82
:1085DC00002B12DD06A8FDF76BFE804603A8FDF705
:1085EC0067FEDDE9133203EB42029A4225D033F8E1
:1085FC00021B884501D08842F7D11398FDF748F843
:10860C007EB129462046FEF757FB50B1236AB3B121
:10861C006369139501336361636A394604F1180089
:10862C0098472846FEF7A0F81DB0BDE8F0834FF040
:10863C000108B6E74FF00008B3E70026DDE7D4F8F1
:10864C003080B8F1000F07D06369013363612946AC
:10865C00636B04F12800E3E7D4F80CC0BCF1000F05
:10866C0025D063692269013393426361D9D82422EE
:10867C0053432A4603CA243B0CEB03064CF8030075
:10868C00716006F1080003A9FEF7E5FB06A906F1E7
:10869C001400FEF7E0FB9DF9243086F82030D4E975
:1086AC0004329A42BDD34046FCF788FDB9E795E801
:1086BC0003000DF1280888E8030003A90CA8FEF7B5
:1086CC0096FB06A90FA8FEF792FB9DF824308DF8B7
:1086DC004830414638466668FEF7A6FBD4E90113DC
:1086EC00994210DA23686168242202FB063606F1EF
:1086FC00240002FB01323146FFF762FE86B9636843
:10870C000133636005E001312046FFF783FE00284A
:10871C00E8D13846FEF728F84046FEF725F880E702
:10872C0039463046FEF780FBE9E70000024800239B
:10873C000360FCF7D9BD00BFD8E60320F8B50646A8
:10874C000D468F180024BD420CD0336815F8011B60
:10875C009B6830469847031E01DB1C44F3E7002C52
:10876C0008BF1C462046F8BD13B50446084659B14F
:10877C00019101F0D5FB23680199DB680246204684
:10878C0002B0BDE81040184702B010BD08B5FFF7A5
:10879C00EBFF08BD03689B68184738B50D210546EB
:1087AC00FFF7F8FF0A2104462846FFF7F3FF2044A1
:1087BC0038BD38B50546FFF7D7FF04462846FFF706
:1087CC00ECFF204438BD30B58BB00023012A8DF866
:1087DC00243098BF0A2209AC0D46B1FBF2F101FB23
:1087EC00125303F0FF03092B94BF30333733DBB242
:1087FC00AA4204F8013DEFD92146FFF7B5FF0BB0B3
:10880C0030BD00002DE9F74F55EC104B06460F46D6
:10881C0010EE102A10EE100A2B46294601F09CFA95
:10882C0040B153493046FFF79FFF8246504603B094
:10883C00BDE8F08F25F000494E4B4FF0FF3220463B
:10884C00494601F089FA48B94A4B4FF0FF322046AD
:10885C00494601F063FA08B94749E3E7474B4FF043
:10886C0060422046294601F06DFA08B14449D9E727
:10887C00444B4FF060422046294601F045FA00284F
:10888C00F4D1002200232046294601F03DFAD0B154
:10889C002D213046FFF77EFF05F1004382461D4631
:1088AC003949DFF8EC904FF0000B00204FF0000836
:1088BC005FFA8BF39F4208D942464B4601F0DCF835
:1088CC000BF1010BF4E78246EAE722462B4600F057
:1088DC00F3FD0D46044601F07DFA804600F028FFBA
:1088EC0002460B462046294600F0E4FD0A220446C7
:1088FC000D4630464146FFF766FF8244002F95D067
:10890C002249DFF88C903046FFF72EFF4FF000081D
:10891C008244002F8AD042464B462046294600F01E
:10892C0081FF04460D4601F02DFAB0F1000B1CDA64
:10893C002D213046FFF72EFFCBF1000103460A2212
:10894C0030460193FFF73FFF019B18448244584681
:10895C0000F0FEFE02460B462046294600F0AAFD1A
:10896C00013F04460D46FFB2D3E759460023E6E724
:10897C002AAA0B00FFFFEF7F2EAA0B00FFFFEF418F
:10898C0032AA0B00FFFFEFC10000E03F41A90B0032
:10899C000000244038B5C9B20546FFF733FF044642
:1089AC002846FFF7FAFE204438BD38B5044610EED1
:1089BC00100A0D4600F0DEFE41EC100B2946204655
:1089CC00BDE83840FFF7E6BF014B024A1A6070471A
:1089DC00E0E6032036AA0B00024B1A68024B1A6021
:1089EC00704700BF4CE10320E4E603200021FCF7B4
:1089FC00C3BD0000014B00229A607047E8E60320DB
:108A0C00014B1860704700BF50E1032008B50B4BB9
:108A1C0043B100F063F903681B699847002801DD36
:108A2C00AFF30080064B43B100F0C4FB03681B6935
:108A3C009847002801DDAFF3008008BD000000005E
:108A4C000000000008B5FFF7E1FFFCF787FB014BC6
:108A5C00186008BD40E703200548064A064908B5DA
:108A6C00121A01F0EDF9054B054A1A6008BD00BF5A
:108A7C0000F4032004F4032044AD0B0000F40320A5
:108A8C001E1C279A07B5002300931A466FF0770136
:108A9C00FCF784FD03B05DF804FB000007B54388C8
:108AAC000A2B08D0502B0BD1094B1B684BB103B0D0
:108ABC005DF804EB1847FFF7E5FF03B05DF804FB26
:108ACC00002300931A466FF07701FCF767FDF4E77B
:108ADC00FCE6032010B512480021FCF7F9FD114B00
:108AEC001A68114B9A42114B0CBF012200221A70CA
:108AFC0001D0FFF7B1FFFCF721FB044601F0D0F9E0
:108B0C000B4B13B12046AFF3008000210848FCF753
:108B1C00AFFDBDE8104007480021FCF735BD00BF94
:108B2C000D8A0B0000F403201E1C279AF8E6032084
:108B3C0000000000A98A0B00704710B518210446EC
:108B4C00FBF7A5FA204610BDF0B5037D062B8DB0C2
:108B5C000E4600F104074FF0000412D000F1080596
:108B6C0015F8011D0A223046FFF72DFEAF420444D2
:108B7C0019D0002CF4D02E213046FFF70BFE044404
:108B8C00EEE72F236A4639460A208DF80040FCF7A1
:108B9C00C3FB684601F0C4F933680246DB686946DA
:108BAC0030469847044620460DB0F0BD10B5054B35
:108BBC000446112240F8043B002101F069F92046DB
:108BCC0010BD00BF60AA0B000346074A10B543F85E
:108BDC00042B01F1100251F8044B43F8044B914261
:108BEC00F9D10A781A7010BD60AA0B0010B59DF867
:108BFC00084044EA032343EA024242EA01610423A7
:108C0C004160037510BD000007B5064B0360CB78BF
:108C1C0000938B784A780978FFF7E8FF03B05DF88A
:108C2C0004FB00BF60AA0B0041747047704770478B
:108C3C0008B50021007CFCF76FFC40EAE07008BD31
:108C4C0008B50121007CFCF767FC40EAE07008BD28
:108C5C0008B5007CFCF758FC20EAE07008BD08B5AC
:108C6C00007CFCF749FC20EAE07008BD13B5044613
:108C7C00007C0191FCF748FC0028019901DC607C28
:108C8C0020B1207CFCF750FC20EAE07002B010BD53
:108C9C00007CFCF751BC10B514210446FBF7F7F926
:108CAC00204610BD10B54FF47A73044608460021D7
:108CBC00C4E90113044B236001232074637411462F
:108CCC00FCF712FC204610BD74AA0B0010B5142240
:108CDC000446002101F0DCF8204610BD10B50F4C05
:108CEC0088B003A8FFF7F2FF2178BFF35B8F11F078
:108CFC0001010FD120460191FBF7D8F9019948B138
:108D0C0003AA0748FFF7CEFF2046FBF7D4F9054826
:108D1C0001F080F8024808B010BD00BF00E7032046
:108D2C0004E70320398C0B0070474174704708B579
:108D3C00007CFCF729FB20EAE07008BD08B5007C3C
:108D4C00FCF7FAFA20EAE07008BD08B5007CFCF7E5
:108D5C0003FB40EAE07008BD08B5007CFCF7F4FAB0
:108D6C0040EAE07008BD007CFCF7FEBA37B5457CE4
:108D7C0004462DB1207C03B0BDE83040FCF7D4BADA
:108D8C00007C0191FCF700FB00280199F2DC2846DD
:108D9C0003B030BD10B514210446FBF778F920461A
:108DAC0010BD000010B54FF47A7304460846114606
:108DBC000022C4E90123044B236001232074637453
:108DCC00FCF7EAFA204610BDA4AA0B007047F8B5D0
:108DDC00064615460C468F18BC4206D0336814F86C
:108DEC00011B9B6830469847F6E72846F8BD007C87
:108DFC000022FCF7F1BA007C0021FCF7F5BA007CEC
:108E0C000021FCF7F9BA007C0021FCF7FDBA007CCC
:108E1C000021FCF701BB10B514210446FBF737F910
:108E2C00204610BD38B5044615464FF47A7300221F
:108E3C00C4E90123094B2174084623602946FCF739
:108E4C00FBFABF3008D16B69DB0705D56868FCF706
:108E5C001FFCE868FCF71CFC204638BDD4AA0B00AC
:108E6C000023007C1A461946FCF79EBA007C0022AF
:108E7C00FCF7A2BAC9B2FFF7F9BF007C0022FCF7DD
:108E8C00A3BA0121FFF7F9BF002240681146FCF795
:108E9C00A7BB002240681146FCF7C2BB0022406809
:108EAC001146FCF7CDBB40680022FCF7C1BB406803
:108EBC00002281F00101FCF7ABBB002340681A468D
:108ECC001946FCF79DBB002340681A461946FCF76F
:108EDC008FBB002240681146FCF772BB4068002231
:108EEC000221FCF775BB002340681A46FCF760BBF7
:108EFC00024B04225A60024A1A60704718E703209A
:108F0C00FCAA0B00002340681A46FCF751BB4068D2
:108F1C0000220221FCF75CBB002240681146FCF7E2
:108F2C004FBB002240681146FCF75ABB0023406837
:108F3C001A461946FCF75CBB002340681A461946D2
:108F4C00FCF75EBB40680021FCF782BB4068002147
:108F5C00FCF786BB4068002281F00101FCF758BB8E
:108F6C0040680022FCF764BB002240681146FCF705
:108F7C0067BB002240681146FCF752BB2DE9F04359
:108F8C0095B014460D460746FFF710FE00211C2233
:108F9C000DA8009100F07CFF40230C9320466B46FB
:108FAC000CAA0021FCF7A2F8044600284BD102467B
:108FBC0001216868FCF714FB022180462246686890
:108FCC00FCF70EFB009E81462146002E3BD000296B
:108FDC0039D17368022B03D00A2B11D0F669F4E750
:108FEC00B8F1000FFAD0716906A8043107ADFFF78C
:108FFC000BFE0FCD3C1D0FC42B6823704146EDE7D3
:10900C00B9F1000FEAD07469102201A800F040FFFA
:10901C0006238DF8143001AD04F1080318341868D8
:10902C0059682A4603C20833A3421546F7D101A951
:10903C0006A807ADFFF7C8FD0FCD3C1D0FC42B686C
:10904C0023704946CAE70098FCF748F8384615B033
:10905C00BDE8F083024B034A1A6000225A60704745
:10906C0020E7032038AB0B00232813B502D90020CE
:10907C0002B010BDA0F10B03022B1AD8174C2178AB
:10908C00BFF35B8F11F001010BD120460191FBF76F
:10909C000DF8019928B11248FCF766FB2046FBF746
:1090AC000AF80F4B1878FCF7FFF90028DFD10120E4
:1090BC00DEE7012809D800F0BDF80021007CFCF7A0
:1090CC00B3F980F00100C0B2D2E709380128EED81C
:1090DC0000F070F8007CFCF74FF9F2E7A8E60320EB
:1090EC00ACE60320232838B504460D460AD8FF29E0
:1090FC0008D0FFF7B9FF28B129462046BDE8384013
:10910C00FCF704B838BD38B504460D46FCF706F834
:10911C00FF2810D0062804D84D2323FA00F0C307EB
:10912C0009D42046FFF7A0FF28B129462046BDE808
:10913C003840FBF7FBBF38BD2DE9F04190461F4688
:10914C00072406460D46C4F10701B8F1000F12D1F1
:10915C0047FA01F101F001013046FFF7D4FF01217C
:10916C002846FFF7D0FF00212846FFF7CCFF013C33
:10917C00E9D2BDE8F08147FA04F1EBE77047000053
:10918C0038B5044614252A46002100F081FE2580BE
:10919C004025074925812846258200F06FF80449AF
:1091AC006060284600F06AF8E060204638BD00BFD9
:1091BC006CAB0B0030B50E4D2978BFF35B8F11F003
:1091CC00010487B011D12846FAF770FF68B101A8E5
:1091DC00FFF7D6FF01AA21460648FFF7E3FD284614
:1091EC00FAF769FF044800F015FE024807B030BDDD
:1091FC0028E703202CE7032089910B00704700001F
:10920C0038B50A4B0360012304464361084920200A
:10921C0000F034F8202560600549A560284600F070
:10922C002DF8C4E90305204638BD00BF1800010025
:10923C006CAB0B0030B50E4D2978BFF35B8F11F082
:10924C00010487B011D12846FAF730FF68B168469F
:10925C00FFF7D6FF6A4621460648FFF7E3FD28468E
:10926C00FAF729FF044800F0D5FD024807B030BDDD
:10927C0044E7032048E7032009920B00FAF705BFE7
:10928C0008B5FCF715FA0000014900F0F9B800BF69
:10929C0088AB0B007FB500241023CDE902340368A2
:1092AC0015469E6912686B46CDE90044B0479DF89F
:1092BC00043003F00603062B03BF009B2B60012038
:1092CC00204604B070BD0098904214BF01200620C7
:1092DC007047000010B5034B0360044600F0CDF856
:1092EC00204610BDC8AB0B0010B50446FFF7F2FFCB
:1092FC0020460821FAF7CBFE204610BD2DE9F0419F
:10930C001F46DDE90834DDF81880984506461546F9
:10931C0007D1079900F0B4F818B165710020BDE8C9
:10932C00F0813946304600F0ABF80028F6D0012326
:10933C00C4F800802571A371F0E738B515461C46BA
:10934C0000F09EF820B10823E3600623256023710A
:10935C0038BD73B505460C4601921E4600F090F8D8
:10936C0050B9032E08D82368019A5B692946204618
:10937C0002B0BDE87040184702B070BD10B5034B89
:10938C0003600446FFF7A6FF204610BD28AC0B0077
:10939C0010B50446FFF7F2FF20460C21FAF777FED2
:1093AC00204610BDF7B5089F974205460E46144659
:1093BC000AD0A86802680897156A31462246AC465E
:1093CC0003B0BDE8F04060471946019300F058F82F
:1093DC00019B0028EDD0062003B0F0BD2DE9F14F24
:1093EC000D461946DDE90A4BDDE90CA68146174608
:1093FC00984600F045F890B1002D3460377109DBC8
:10940C0061198A450CBF06210121B171002001B000
:10941C00BDE8F08F0235F9D10123B371F6E754455D
:10942C0006D15946484600F02BF808B17771EDE7A4
:10943C00D9F808000368CDE90CA6CDE90A4BDC6924
:10944C003A4643462946A44601B0BDE8F04F604772
:10945C002DE9F04107460C4615461E46FFF76DFFF9
:10946C0048B9B86803689F692A4633462146BC460A
:10947C00BDE8F0416047BDE8F081704700207047BF
:10948C00814208B50ED0406803782A2B0CD049686D
:10949C000B782A2B08BF013100F030FDB0FA80F0B8
:1094AC00400908BD0120FCE70020FAE781F00041EB
:1094BC0002E000BF83F0004330B54FEA41044FEAAD
:1094CC00430594EA050F08BF90EA020F1FBF54EA48
:1094DC00000C55EA020C7FEA645C7FEA655C00F0E4
:1094EC00E2804FEA5454D4EB5555B8BF6D420CDDB5
:1094FC002C4480EA020281EA030382EA000083EA38
:10950C00010180EA020281EA0303362D88BF30BDD7
:10951C0011F0004F4FEA01314FF4801C4CEA11312D
:10952C0002D0404261EB410113F0004F4FEA03338C
:10953C004CEA133302D0524263EB430394EA050F17
:10954C0000F0A780A4F10104D5F1200E0DDB02FA86
:10955C000EFC22FA05F2801841F1000103FA0EF21A
:10956C00801843FA05F359410EE0A5F120050EF1E0
:10957C00200E012A03FA0EFC28BF4CF0020C43FA11
:10958C0005F3C01851EBE37101F0004507D54FF01E
:10959C00000EDCF1000C7EEB00006EEB0101B1F56E
:1095AC00801F1BD3B1F5001F0CD349085FEA3000B4
:1095BC004FEA3C0C04F101044FEA445212F5800FBF
:1095CC0080F09A80BCF1004F08BF5FEA500C50F15C
:1095DC00000041EB045141EA050130BD5FEA4C0C3F
:1095EC00404141EB0101013C28BFB1F5801FE9D29C
:1095FC0091F0000F04BF01460020B1FA81F308BFBF
:10960C002033A3F10B03B3F120020CDA0C3208DD8A
:10961C0002F1140CC2F10C0201FA0CF021FA02F165
:10962C000CE002F11402D8BFC2F1200C01FA02F1D5
:10963C0020FA0CFCDCBF41EA0C019040E41AA2BFFA
:10964C0001EB0451294330BD6FEA04041F3C1CDAC2
:10965C000C340EDC04F11404C4F1200220FA04F0E2
:10966C0001FA02F340EA030021FA04F345EA03018C
:10967C0030BDC4F10C04C4F1200220FA02F001FA4E
:10968C0004F340EA0300294630BD21FA04F02946D0
:10969C0030BD94F0000F83F4801306BF81F4801169
:1096AC000134013D4EE77FEA645C18BF7FEA655CDC
:1096BC0029D094EA050F08BF90EA020F05D054EAAE
:1096CC00000C04BF1946104630BD91EA030F1EBFB3
:1096DC000021002030BD5FEA545C05D140004941B7
:1096EC0028BF41F0004130BD14F580043CBF01F5AA
:1096FC00801130BD01F0004545F0FE4141F4700190
:10970C004FF0000030BD7FEA645C1ABF194610466A
:10971C007FEA655C1CBF0B46024650EA013406BF6B
:10972C0052EA033591EA030F41F4002130BD00BF2A
:10973C0090F0000F04BF0021704730B54FF48064E7
:10974C0004F132044FF000054FF0000150E700BF68
:10975C0090F0000F04BF0021704730B54FF48064C7
:10976C0004F1320410F0004548BF40424FF00001B4
:10977C003EE700BF42004FEAE2014FEA31014FEAF7
:10978C0002701FBF12F07F4393F07F4F81F0605146
:10979C00704732F07F4208BF704793F07F4F04BF91
:1097AC0041F40021704730B54FF4607401F000456E
:1097BC0021F000411CE700BF50EA010208BF7047CE
:1097CC0030B54FF000050AE050EA010208BF7047BF
:1097DC0030B511F0004502D5404261EB41014FF428
:1097EC00806404F132045FEA915C3FF4D8AE4FF030
:1097FC0003025FEADC0C18BF03325FEADC0C18BF13
:10980C00033202EBDC02C2F1200300FA03FC20FA63
:10981C0002F001FA03FE40EA0E0021FA02F11444B0
:10982C00BDE600BF70B54FF0FF0C4CF4E06C1CEAC9
:10983C0011541DBF1CEA135594EA0C0F95EA0C0F3A
:10984C0000F0DEF82C4481EA030621EA4C5123EAAD
:10985C004C5350EA013518BF52EA033541F48011DC
:10986C0043F4801338D0A0FB02CE4FF00005E1FB8F
:10987C0002E506F00042E0FB03E54FF00006E1FBD9
:10988C0003569CF0000F18BF4EF0010EA4F1FF041C
:10989C00B6F5007F64F5407404D25FEA4E0E6D415C
:1098AC0046EB060642EAC62141EA55514FEAC5206D
:1098BC0040EA5E504FEACE2EB4F1FD0C88BFBCF5E9
:1098CC00E06F1ED8BEF1004F08BF5FEA500E50F19A
:1098DC00000041EB045170BD06F0004646EA010160
:1098EC0040EA020081EA0301B4EB5C04C2BFD4EB92
:1098FC000C0541EA045170BD41F480114FF0000E8B
:10990C00013C00F3AB8014F1360FDEBF002001F0F8
:10991C00004170BDC4F10004203C35DA0C341BDC72
:10992C0004F11404C4F1200500FA05F320FA04F044
:10993C0001FA05F240EA020001F0004221F0004178
:10994C0010EBD37021FA04F642EB06015EEA430EEB
:10995C0008BF20EAD37070BDC4F10C04C4F120051B
:10996C0000FA04F320FA05F001FA04F240EA0200CE
:10997C0001F0004110EBD37041F100015EEA430E9F
:10998C0008BF20EAD37070BDC4F1200500FA05F2BF
:10999C004EEA020E20FA04F301FA05F243EA02033E
:1099AC0021FA04F001F0004121FA04F220EA02004D
:1099BC0000EBD3705EEA430E08BF20EAD37070BD93
:1099CC0094F0000F0FD101F00046400041EB010173
:1099DC0011F4801F08BF013CF7D041EA060195F055
:1099EC00000F18BF704703F00046520043EB03030F
:1099FC0013F4801F08BF013DF7D043EA06037047FC
:109A0C0094EA0C0F0CEA135518BF95EA0C0F0CD006
:109A1C0050EA410618BF52EA4306D1D181EA03014C
:109A2C0001F000414FF0000070BD50EA410606BF46
:109A3C001046194652EA430619D094EA0C0F02D18B
:109A4C0050EA013613D195EA0C0F05D152EA0336D0
:109A5C001CBF104619460AD181EA030101F00041EE
:109A6C0041F0FE4141F470014FF0000070BD41F037
:109A7C00FE4141F4780170BD70B54FF0FF0C4CF411
:109A8C00E06C1CEA11541DBF1CEA135594EA0C0F30
:109A9C0095EA0C0F00F0A7F8A4EB050481EA030E7D
:109AAC0052EA03354FEA013100F088804FEA033364
:109ABC004FF0805545EA131343EA12634FEA022232
:109ACC0045EA111545EA10654FEA00260EF00041F3
